{
  "_format": "hh-sol-artifact-1",
  "contractName": "BadgeUniverse1",
  "sourceName": "contracts/BadgeUniverse1.sol",
  "abi": [
    {
      "inputs": [
        {
          "internalType": "address",
          "name": "_spaceFactory",
          "type": "address"
        }
      ],
      "stateMutability": "nonpayable",
      "type": "constructor"
    },
    {
      "inputs": [],
      "name": "CanNotApprove",
      "type": "error"
    },
    {
      "inputs": [],
      "name": "CanNotTransfer",
      "type": "error"
    },
    {
      "inputs": [],
      "name": "InvalidTokenId",
      "type": "error"
    },
    {
      "inputs": [],
      "name": "OnlySpaceFactory",
      "type": "error"
    },
    {
      "anonymous": false,
      "inputs": [
        {
          "indexed": true,
          "internalType": "address",
          "name": "owner",
          "type": "address"
        },
        {
          "indexed": true,
          "internalType": "address",
          "name": "approved",
          "type": "address"
        },
        {
          "indexed": true,
          "internalType": "uint256",
          "name": "tokenId",
          "type": "uint256"
        }
      ],
      "name": "Approval",
      "type": "event"
    },
    {
      "anonymous": false,
      "inputs": [
        {
          "indexed": true,
          "internalType": "address",
          "name": "owner",
          "type": "address"
        },
        {
          "indexed": true,
          "internalType": "address",
          "name": "operator",
          "type": "address"
        },
        {
          "indexed": false,
          "internalType": "bool",
          "name": "approved",
          "type": "bool"
        }
      ],
      "name": "ApprovalForAll",
      "type": "event"
    },
    {
      "anonymous": false,
      "inputs": [
        {
          "indexed": true,
          "internalType": "address",
          "name": "to",
          "type": "address"
        },
        {
          "indexed": true,
          "internalType": "uint128",
          "name": "primaryType",
          "type": "uint128"
        },
        {
          "indexed": true,
          "internalType": "uint128",
          "name": "secondaryType",
          "type": "uint128"
        },
        {
          "indexed": false,
          "internalType": "uint256",
          "name": "tokenId",
          "type": "uint256"
        }
      ],
      "name": "MintBadge",
      "type": "event"
    },
    {
      "anonymous": false,
      "inputs": [
        {
          "indexed": true,
          "internalType": "address",
          "name": "from",
          "type": "address"
        },
        {
          "indexed": true,
          "internalType": "address",
          "name": "to",
          "type": "address"
        },
        {
          "indexed": true,
          "internalType": "uint256",
          "name": "tokenId",
          "type": "uint256"
        }
      ],
      "name": "Transfer",
      "type": "event"
    },
    {
      "inputs": [
        {
          "internalType": "address",
          "name": "",
          "type": "address"
        },
        {
          "internalType": "uint256",
          "name": "",
          "type": "uint256"
        }
      ],
      "name": "approve",
      "outputs": [],
      "stateMutability": "nonpayable",
      "type": "function"
    },
    {
      "inputs": [
        {
          "internalType": "address",
          "name": "owner",
          "type": "address"
        }
      ],
      "name": "balanceOf",
      "outputs": [
        {
          "internalType": "uint256",
          "name": "",
          "type": "uint256"
        }
      ],
      "stateMutability": "view",
      "type": "function"
    },
    {
      "inputs": [
        {
          "internalType": "uint256",
          "name": "tokenId",
          "type": "uint256"
        }
      ],
      "name": "getApproved",
      "outputs": [
        {
          "internalType": "address",
          "name": "",
          "type": "address"
        }
      ],
      "stateMutability": "view",
      "type": "function"
    },
    {
      "inputs": [
        {
          "internalType": "uint256",
          "name": "tokenId",
          "type": "uint256"
        }
      ],
      "name": "getTokenType",
      "outputs": [
        {
          "components": [
            {
              "internalType": "uint128",
              "name": "primaryType",
              "type": "uint128"
            },
            {
              "internalType": "uint128",
              "name": "secondaryType",
              "type": "uint128"
            }
          ],
          "internalType": "struct IBadgeUniverse1.TokenType",
          "name": "",
          "type": "tuple"
        }
      ],
      "stateMutability": "view",
      "type": "function"
    },
    {
      "inputs": [
        {
          "internalType": "address",
          "name": "owner",
          "type": "address"
        },
        {
          "internalType": "address",
          "name": "operator",
          "type": "address"
        }
      ],
      "name": "isApprovedForAll",
      "outputs": [
        {
          "internalType": "bool",
          "name": "",
          "type": "bool"
        }
      ],
      "stateMutability": "view",
      "type": "function"
    },
    {
      "inputs": [
        {
          "internalType": "address",
          "name": "to",
          "type": "address"
        },
        {
          "internalType": "uint128",
          "name": "primaryType",
          "type": "uint128"
        },
        {
          "internalType": "uint128",
          "name": "secondaryType",
          "type": "uint128"
        }
      ],
      "name": "mintBadge",
      "outputs": [],
      "stateMutability": "nonpayable",
      "type": "function"
    },
    {
      "inputs": [],
      "name": "name",
      "outputs": [
        {
          "internalType": "string",
          "name": "",
          "type": "string"
        }
      ],
      "stateMutability": "view",
      "type": "function"
    },
    {
      "inputs": [
        {
          "internalType": "uint256",
          "name": "tokenId",
          "type": "uint256"
        }
      ],
      "name": "ownerOf",
      "outputs": [
        {
          "internalType": "address",
          "name": "",
          "type": "address"
        }
      ],
      "stateMutability": "view",
      "type": "function"
    },
    {
      "inputs": [
        {
          "internalType": "address",
          "name": "from",
          "type": "address"
        },
        {
          "internalType": "address",
          "name": "to",
          "type": "address"
        },
        {
          "internalType": "uint256",
          "name": "tokenId",
          "type": "uint256"
        }
      ],
      "name": "safeTransferFrom",
      "outputs": [],
      "stateMutability": "nonpayable",
      "type": "function"
    },
    {
      "inputs": [
        {
          "internalType": "address",
          "name": "from",
          "type": "address"
        },
        {
          "internalType": "address",
          "name": "to",
          "type": "address"
        },
        {
          "internalType": "uint256",
          "name": "tokenId",
          "type": "uint256"
        },
        {
          "internalType": "bytes",
          "name": "data",
          "type": "bytes"
        }
      ],
      "name": "safeTransferFrom",
      "outputs": [],
      "stateMutability": "nonpayable",
      "type": "function"
    },
    {
      "inputs": [
        {
          "internalType": "address",
          "name": "",
          "type": "address"
        },
        {
          "internalType": "bool",
          "name": "",
          "type": "bool"
        }
      ],
      "name": "setApprovalForAll",
      "outputs": [],
      "stateMutability": "nonpayable",
      "type": "function"
    },
    {
      "inputs": [],
      "name": "spaceFactory",
      "outputs": [
        {
          "internalType": "address",
          "name": "",
          "type": "address"
        }
      ],
      "stateMutability": "view",
      "type": "function"
    },
    {
      "inputs": [
        {
          "internalType": "bytes4",
          "name": "interfaceId",
          "type": "bytes4"
        }
      ],
      "name": "supportsInterface",
      "outputs": [
        {
          "internalType": "bool",
          "name": "",
          "type": "bool"
        }
      ],
      "stateMutability": "view",
      "type": "function"
    },
    {
      "inputs": [],
      "name": "symbol",
      "outputs": [
        {
          "internalType": "string",
          "name": "",
          "type": "string"
        }
      ],
      "stateMutability": "view",
      "type": "function"
    },
    {
      "inputs": [
        {
          "internalType": "uint256",
          "name": "tokenId",
          "type": "uint256"
        }
      ],
      "name": "tokenURI",
      "outputs": [
        {
          "internalType": "string",
          "name": "",
          "type": "string"
        }
      ],
      "stateMutability": "view",
      "type": "function"
    },
    {
      "inputs": [],
      "name": "totalSupply",
      "outputs": [
        {
          "internalType": "uint256",
          "name": "",
          "type": "uint256"
        }
      ],
      "stateMutability": "view",
      "type": "function"
    },
    {
      "inputs": [
        {
          "internalType": "address",
          "name": "from",
          "type": "address"
        },
        {
          "internalType": "address",
          "name": "to",
          "type": "address"
        },
        {
          "internalType": "uint256",
          "name": "tokenId",
          "type": "uint256"
        }
      ],
      "name": "transferFrom",
      "outputs": [],
      "stateMutability": "nonpayable",
      "type": "function"
    }
  ],
  "bytecode": "0x60a06040523480156200001157600080fd5b5060405162001d2e38038062001d2e8339810160408190526200003491620000bd565b6040518060400160405280601381526020017f42616467652053425420556e697665727365310000000000000000000000000081525060405180604001604052806005815260200164424144474560d81b815250816000908162000099919062000194565b506001620000a8828262000194565b5050506001600160a01b031660805262000260565b600060208284031215620000d057600080fd5b81516001600160a01b0381168114620000e857600080fd5b9392505050565b634e487b7160e01b600052604160045260246000fd5b600181811c908216806200011a57607f821691505b6020821081036200013b57634e487b7160e01b600052602260045260246000fd5b50919050565b601f8211156200018f57600081815260208120601f850160051c810160208610156200016a5750805b601f850160051c820191505b818110156200018b5782815560010162000176565b5050505b505050565b81516001600160401b03811115620001b057620001b0620000ef565b620001c881620001c1845462000105565b8462000141565b602080601f831160018114620002005760008415620001e75750858301515b600019600386901b1c1916600185901b1785556200018b565b600085815260208120601f198616915b82811015620002315788860151825594840194600190910190840162000210565b5085821015620002505787850151600019600388901b60f8161c191681555b5050505050600190811b01905550565b608051611aab620002836000396000818161025501526108d30152611aab6000f3fe608060405234801561001057600080fd5b506004361061011b5760003560e01c806370a08231116100b2578063a22cb46511610081578063c87b56dd11610066578063c87b56dd146102a0578063e985e9c5146102b3578063f3aa3726146102fc57600080fd5b8063a22cb4651461027f578063b88d4fde1461028d57600080fd5b806370a08231146101fa57806376aed2e11461020d578063857bee5f1461025057806395d89b411461027757600080fd5b806318160ddd116100ee57806318160ddd146101aa57806323b872dd146101c157806342842e0e146101d45780636352211e146101e757600080fd5b806301ffc9a71461012057806306fdde0314610148578063081812fc1461015d578063095ea7b314610195575b600080fd5b61013361012e3660046115dc565b61030f565b60405190151581526020015b60405180910390f35b6101506103f4565b60405161013f9190611667565b61017061016b36600461167a565b610486565b60405173ffffffffffffffffffffffffffffffffffffffff909116815260200161013f565b6101a86101a33660046116bc565b6104ba565b005b6101b360065481565b60405190815260200161013f565b6101a86101cf3660046116e6565b6104ec565b6101a86101e23660046116e6565b61057d565b6101706101f536600461167a565b610598565b6101b3610208366004611722565b61060a565b61022061021b36600461167a565b6106be565b6040805182516fffffffffffffffffffffffffffffffff908116825260209384015116928101929092520161013f565b6101707f000000000000000000000000000000000000000000000000000000000000000081565b610150610785565b6101a86101a336600461173d565b6101a861029b3660046117a8565b610794565b6101506102ae36600461167a565b610822565b6101336102c13660046118a2565b73ffffffffffffffffffffffffffffffffffffffff918216600090815260056020908152604080832093909416825291909152205460ff1690565b6101a861030a3660046118f5565b6108bb565b60007fffffffff0000000000000000000000000000000000000000000000000000000082167f80ac58cd0000000000000000000000000000000000000000000000000000000014806103a257507fffffffff0000000000000000000000000000000000000000000000000000000082167f5b5e139f00000000000000000000000000000000000000000000000000000000145b806103ee57507f01ffc9a7000000000000000000000000000000000000000000000000000000007fffffffff000000000000000000000000000000000000000000000000000000008316145b92915050565b60606000805461040390611938565b80601f016020809104026020016040519081016040528092919081815260200182805461042f90611938565b801561047c5780601f106104515761010080835404028352916020019161047c565b820191906000526020600020905b81548152906001019060200180831161045f57829003601f168201915b5050505050905090565b6000610491826109f9565b5060009081526004602052604090205473ffffffffffffffffffffffffffffffffffffffff1690565b6040517fa6c022e100000000000000000000000000000000000000000000000000000000815260040160405180910390fd5b6104f63382610a6d565b61056d5760405162461bcd60e51b815260206004820152602d60248201527f4552433732313a2063616c6c6572206973206e6f7420746f6b656e206f776e6560448201527f72206f7220617070726f7665640000000000000000000000000000000000000060648201526084015b60405180910390fd5b610578838383610b2d565b505050565b61057883838360405180602001604052806000815250610794565b60008181526002602052604081205473ffffffffffffffffffffffffffffffffffffffff16806103ee5760405162461bcd60e51b815260206004820152601860248201527f4552433732313a20696e76616c696420746f6b656e20494400000000000000006044820152606401610564565b600073ffffffffffffffffffffffffffffffffffffffff82166106955760405162461bcd60e51b815260206004820152602960248201527f4552433732313a2061646472657373207a65726f206973206e6f74206120766160448201527f6c6964206f776e657200000000000000000000000000000000000000000000006064820152608401610564565b5073ffffffffffffffffffffffffffffffffffffffff1660009081526003602052604090205490565b60408051808201909152600080825260208201526107008260009081526002602052604090205473ffffffffffffffffffffffffffffffffffffffff16151590565b610736576040517f3f6cc76800000000000000000000000000000000000000000000000000000000815260040160405180910390fd5b506000908152600760209081526040918290208251808401909352546fffffffffffffffffffffffffffffffff8082168452700100000000000000000000000000000000909104169082015290565b60606001805461040390611938565b61079e3383610a6d565b6108105760405162461bcd60e51b815260206004820152602d60248201527f4552433732313a2063616c6c6572206973206e6f7420746f6b656e206f776e6560448201527f72206f7220617070726f766564000000000000000000000000000000000000006064820152608401610564565b61081c84848484610de7565b50505050565b606061082d826109f9565b600061086960408051808201909152601f81527f68747470733a2f2f7777772e73706163656261722e78797a2f62616467652f00602082015290565b9050600081511161088957604051806020016040528060008152506108b4565b8061089384610e70565b6040516020016108a492919061198b565b6040516020818303038152906040525b9392505050565b3373ffffffffffffffffffffffffffffffffffffffff7f0000000000000000000000000000000000000000000000000000000000000000161461092a576040517fd59ec5f100000000000000000000000000000000000000000000000000000000815260040160405180910390fd5b61093683600654610f2e565b6040805180820182526fffffffffffffffffffffffffffffffff808516808352848216602080850182815260068054600090815260079093529187902095519051851670010000000000000000000000000000000002941693909317909355905492519192909173ffffffffffffffffffffffffffffffffffffffff8716917f07197182d2eba6cd59942f2ca70a8e4f27af9348d5ee52be6eb0ca11d0842e03916109e391815260200190565b60405180910390a4505060068054600101905550565b60008181526002602052604090205473ffffffffffffffffffffffffffffffffffffffff16610a6a5760405162461bcd60e51b815260206004820152601860248201527f4552433732313a20696e76616c696420746f6b656e20494400000000000000006044820152606401610564565b50565b600080610a7983610598565b90508073ffffffffffffffffffffffffffffffffffffffff168473ffffffffffffffffffffffffffffffffffffffff161480610ae7575073ffffffffffffffffffffffffffffffffffffffff80821660009081526005602090815260408083209388168352929052205460ff165b80610b2557508373ffffffffffffffffffffffffffffffffffffffff16610b0d84610486565b73ffffffffffffffffffffffffffffffffffffffff16145b949350505050565b8273ffffffffffffffffffffffffffffffffffffffff16610b4d82610598565b73ffffffffffffffffffffffffffffffffffffffff1614610bd65760405162461bcd60e51b815260206004820152602560248201527f4552433732313a207472616e736665722066726f6d20696e636f72726563742060448201527f6f776e65720000000000000000000000000000000000000000000000000000006064820152608401610564565b73ffffffffffffffffffffffffffffffffffffffff8216610c5e5760405162461bcd60e51b8152602060048201526024808201527f4552433732313a207472616e7366657220746f20746865207a65726f2061646460448201527f72657373000000000000000000000000000000000000000000000000000000006064820152608401610564565b610c6b8383836001610f4c565b8273ffffffffffffffffffffffffffffffffffffffff16610c8b82610598565b73ffffffffffffffffffffffffffffffffffffffff1614610d145760405162461bcd60e51b815260206004820152602560248201527f4552433732313a207472616e736665722066726f6d20696e636f72726563742060448201527f6f776e65720000000000000000000000000000000000000000000000000000006064820152608401610564565b600081815260046020908152604080832080547fffffffffffffffffffffffff000000000000000000000000000000000000000090811690915573ffffffffffffffffffffffffffffffffffffffff8781168086526003855283862080547fffffffffffffffffffffffffffffffffffffffffffffffffffffffffffffffff01905590871680865283862080546001019055868652600290945282852080549092168417909155905184937fddf252ad1be2c89b69c2b068fc378daa952ba7f163c4a11628f55a4df523b3ef91a4505050565b610df2848484610b2d565b610dfe84848484610fc9565b61081c5760405162461bcd60e51b815260206004820152603260248201527f4552433732313a207472616e7366657220746f206e6f6e20455243373231526560448201527f63656976657220696d706c656d656e74657200000000000000000000000000006064820152608401610564565b60606000610e7d836111a2565b600101905060008167ffffffffffffffff811115610e9d57610e9d611779565b6040519080825280601f01601f191660200182016040528015610ec7576020820181803683370190505b5090508181016020015b7fffffffffffffffffffffffffffffffffffffffffffffffffffffffffffffffff017f3031323334353637383961626364656600000000000000000000000000000000600a86061a8153600a8504945084610ed157509392505050565b610f48828260405180602001604052806000815250611284565b5050565b73ffffffffffffffffffffffffffffffffffffffff841615801590610f86575073ffffffffffffffffffffffffffffffffffffffff831615155b15610fbd576040517f1b5722f500000000000000000000000000000000000000000000000000000000815260040160405180910390fd5b61081c8484848461130d565b600073ffffffffffffffffffffffffffffffffffffffff84163b15611197576040517f150b7a0200000000000000000000000000000000000000000000000000000000815273ffffffffffffffffffffffffffffffffffffffff85169063150b7a02906110409033908990889088906004016119ba565b6020604051808303816000875af1925050508015611099575060408051601f3d9081017fffffffffffffffffffffffffffffffffffffffffffffffffffffffffffffffe016820190925261109691810190611a03565b60015b61114c573d8080156110c7576040519150601f19603f3d011682016040523d82523d6000602084013e6110cc565b606091505b5080516000036111445760405162461bcd60e51b815260206004820152603260248201527f4552433732313a207472616e7366657220746f206e6f6e20455243373231526560448201527f63656976657220696d706c656d656e74657200000000000000000000000000006064820152608401610564565b805181602001fd5b7fffffffff00000000000000000000000000000000000000000000000000000000167f150b7a0200000000000000000000000000000000000000000000000000000000149050610b25565b506001949350505050565b6000807a184f03e93ff9f4daa797ed6e38ed64bf6a1f01000000000000000083106111eb577a184f03e93ff9f4daa797ed6e38ed64bf6a1f010000000000000000830492506040015b6d04ee2d6d415b85acef81000000008310611217576d04ee2d6d415b85acef8100000000830492506020015b662386f26fc10000831061123557662386f26fc10000830492506010015b6305f5e100831061124d576305f5e100830492506008015b612710831061126157612710830492506004015b60648310611273576064830492506002015b600a83106103ee5760010192915050565b61128e83836113c9565b61129b6000848484610fc9565b6105785760405162461bcd60e51b815260206004820152603260248201527f4552433732313a207472616e7366657220746f206e6f6e20455243373231526560448201527f63656976657220696d706c656d656e74657200000000000000000000000000006064820152608401610564565b600181111561081c5773ffffffffffffffffffffffffffffffffffffffff84161561136d5773ffffffffffffffffffffffffffffffffffffffff841660009081526003602052604081208054839290611367908490611a4f565b90915550505b73ffffffffffffffffffffffffffffffffffffffff83161561081c5773ffffffffffffffffffffffffffffffffffffffff8316600090815260036020526040812080548392906113be908490611a62565b909155505050505050565b73ffffffffffffffffffffffffffffffffffffffff821661142c5760405162461bcd60e51b815260206004820181905260248201527f4552433732313a206d696e7420746f20746865207a65726f20616464726573736044820152606401610564565b60008181526002602052604090205473ffffffffffffffffffffffffffffffffffffffff161561149e5760405162461bcd60e51b815260206004820152601c60248201527f4552433732313a20746f6b656e20616c7265616479206d696e746564000000006044820152606401610564565b6114ac600083836001610f4c565b60008181526002602052604090205473ffffffffffffffffffffffffffffffffffffffff161561151e5760405162461bcd60e51b815260206004820152601c60248201527f4552433732313a20746f6b656e20616c7265616479206d696e746564000000006044820152606401610564565b73ffffffffffffffffffffffffffffffffffffffff8216600081815260036020908152604080832080546001019055848352600290915280822080547fffffffffffffffffffffffff0000000000000000000000000000000000000000168417905551839291907fddf252ad1be2c89b69c2b068fc378daa952ba7f163c4a11628f55a4df523b3ef908290a45050565b7fffffffff0000000000000000000000000000000000000000000000000000000081168114610a6a57600080fd5b6000602082840312156115ee57600080fd5b81356108b4816115ae565b60005b838110156116145781810151838201526020016115fc565b50506000910152565b600081518084526116358160208601602086016115f9565b601f017fffffffffffffffffffffffffffffffffffffffffffffffffffffffffffffffe0169290920160200192915050565b6020815260006108b4602083018461161d565b60006020828403121561168c57600080fd5b5035919050565b803573ffffffffffffffffffffffffffffffffffffffff811681146116b757600080fd5b919050565b600080604083850312156116cf57600080fd5b6116d883611693565b946020939093013593505050565b6000806000606084860312156116fb57600080fd5b61170484611693565b925061171260208501611693565b9150604084013590509250925092565b60006020828403121561173457600080fd5b6108b482611693565b6000806040838503121561175057600080fd5b61175983611693565b91506020830135801515811461176e57600080fd5b809150509250929050565b7f4e487b7100000000000000000000000000000000000000000000000000000000600052604160045260246000fd5b600080600080608085870312156117be57600080fd5b6117c785611693565b93506117d560208601611693565b925060408501359150606085013567ffffffffffffffff808211156117f957600080fd5b818701915087601f83011261180d57600080fd5b81358181111561181f5761181f611779565b604051601f82017fffffffffffffffffffffffffffffffffffffffffffffffffffffffffffffffe0908116603f0116810190838211818310171561186557611865611779565b816040528281528a602084870101111561187e57600080fd5b82602086016020830137600060208483010152809550505050505092959194509250565b600080604083850312156118b557600080fd5b6118be83611693565b91506118cc60208401611693565b90509250929050565b80356fffffffffffffffffffffffffffffffff811681146116b757600080fd5b60008060006060848603121561190a57600080fd5b61191384611693565b9250611921602085016118d5565b915061192f604085016118d5565b90509250925092565b600181811c9082168061194c57607f821691505b602082108103611985577f4e487b7100000000000000000000000000000000000000000000000000000000600052602260045260246000fd5b50919050565b6000835161199d8184602088016115f9565b8351908301906119b18183602088016115f9565b01949350505050565b600073ffffffffffffffffffffffffffffffffffffffff8087168352808616602084015250836040830152608060608301526119f9608083018461161d565b9695505050505050565b600060208284031215611a1557600080fd5b81516108b4816115ae565b7f4e487b7100000000000000000000000000000000000000000000000000000000600052601160045260246000fd5b818103818111156103ee576103ee611a20565b808201808211156103ee576103ee611a2056fea2646970667358221220a5de077e9401b23c7efb4d1b7fe9ae81f7a5552c275224d5601d37a795c9417164736f6c63430008110033",
  "linkReferences": {},
  "deployedLinkReferences": {}
}