{
  "_format": "hh-sol-artifact-1",
  "contractName": "BadgeUniverse1",
  "sourceName": "contracts/BadgeUniverse1.sol",
  "abi": [
    {
      "inputs": [
        {
          "internalType": "address",
          "name": "_spaceFactory",
          "type": "address"
        },
        {
          "internalType": "address",
          "name": "defaultAdmin",
          "type": "address"
        }
      ],
      "stateMutability": "nonpayable",
      "type": "constructor"
    },
    {
      "inputs": [],
      "name": "AddressAlreadyRegistered",
      "type": "error"
    },
    {
      "inputs": [],
      "name": "CanNotApprove",
      "type": "error"
    },
    {
      "inputs": [],
      "name": "CanNotTransfer",
      "type": "error"
    },
    {
      "inputs": [],
      "name": "InvalidProtoship",
      "type": "error"
    },
    {
      "inputs": [],
      "name": "InvalidTokenId",
      "type": "error"
    },
    {
      "inputs": [],
      "name": "InvalidTokenURI",
      "type": "error"
    },
    {
      "inputs": [],
      "name": "NotWhiteListed",
      "type": "error"
    },
    {
      "inputs": [],
      "name": "OnlyLockedToken",
      "type": "error"
    },
    {
      "inputs": [],
      "name": "OnlyNFTOwner",
      "type": "error"
    },
    {
      "inputs": [],
      "name": "OnlyOneProtoshipAtATime",
      "type": "error"
    },
    {
      "inputs": [],
      "name": "OnlySpaceFactory",
      "type": "error"
    },
    {
      "inputs": [],
      "name": "OnlySpaceFactoryOrOwner",
      "type": "error"
    },
    {
      "inputs": [],
      "name": "ReachedMaxSupply",
      "type": "error"
    },
    {
      "inputs": [],
      "name": "TokenLocked",
      "type": "error"
    },
    {
      "anonymous": false,
      "inputs": [
        {
          "indexed": true,
          "internalType": "address",
          "name": "owner",
          "type": "address"
        },
        {
          "indexed": true,
          "internalType": "address",
          "name": "approved",
          "type": "address"
        },
        {
          "indexed": true,
          "internalType": "uint256",
          "name": "tokenId",
          "type": "uint256"
        }
      ],
      "name": "Approval",
      "type": "event"
    },
    {
      "anonymous": false,
      "inputs": [
        {
          "indexed": true,
          "internalType": "address",
          "name": "owner",
          "type": "address"
        },
        {
          "indexed": true,
          "internalType": "address",
          "name": "operator",
          "type": "address"
        },
        {
          "indexed": false,
          "internalType": "bool",
          "name": "approved",
          "type": "bool"
        }
      ],
      "name": "ApprovalForAll",
      "type": "event"
    },
    {
      "anonymous": false,
      "inputs": [
        {
          "indexed": true,
          "internalType": "address",
          "name": "to",
          "type": "address"
        },
        {
          "indexed": true,
          "internalType": "uint128",
          "name": "primaryType",
          "type": "uint128"
        },
        {
          "indexed": true,
          "internalType": "uint128",
          "name": "secondaryType",
          "type": "uint128"
        },
        {
          "indexed": false,
          "internalType": "uint256",
          "name": "tokenId",
          "type": "uint256"
        },
        {
          "indexed": false,
          "internalType": "string",
          "name": "tokenURI",
          "type": "string"
        }
      ],
      "name": "MintBadge",
      "type": "event"
    },
    {
      "anonymous": false,
      "inputs": [
        {
          "indexed": true,
          "internalType": "address",
          "name": "previousOwner",
          "type": "address"
        },
        {
          "indexed": true,
          "internalType": "address",
          "name": "newOwner",
          "type": "address"
        }
      ],
      "name": "OwnershipTransferred",
      "type": "event"
    },
    {
      "anonymous": false,
      "inputs": [
        {
          "indexed": true,
          "internalType": "address",
          "name": "from",
          "type": "address"
        },
        {
          "indexed": true,
          "internalType": "address",
          "name": "to",
          "type": "address"
        },
        {
          "indexed": true,
          "internalType": "uint256",
          "name": "tokenId",
          "type": "uint256"
        }
      ],
      "name": "Transfer",
      "type": "event"
    },
    {
      "inputs": [
        {
          "internalType": "address",
          "name": "",
          "type": "address"
        },
        {
          "internalType": "uint256",
          "name": "",
          "type": "uint256"
        }
      ],
      "name": "approve",
      "outputs": [],
      "stateMutability": "nonpayable",
      "type": "function"
    },
    {
      "inputs": [
        {
          "internalType": "address",
          "name": "owner",
          "type": "address"
        }
      ],
      "name": "balanceOf",
      "outputs": [
        {
          "internalType": "uint256",
          "name": "",
          "type": "uint256"
        }
      ],
      "stateMutability": "view",
      "type": "function"
    },
    {
      "inputs": [
        {
          "internalType": "uint256",
          "name": "tokenId",
          "type": "uint256"
        }
      ],
      "name": "burnBadge",
      "outputs": [],
      "stateMutability": "nonpayable",
      "type": "function"
    },
    {
      "inputs": [
        {
          "internalType": "uint256",
          "name": "tokenId",
          "type": "uint256"
        }
      ],
      "name": "getApproved",
      "outputs": [
        {
          "internalType": "address",
          "name": "",
          "type": "address"
        }
      ],
      "stateMutability": "view",
      "type": "function"
    },
    {
      "inputs": [
        {
          "internalType": "uint256",
          "name": "tokenId",
          "type": "uint256"
        }
      ],
      "name": "getTokenType",
      "outputs": [
        {
          "components": [
            {
              "internalType": "uint128",
              "name": "primaryType",
              "type": "uint128"
            },
            {
              "internalType": "uint128",
              "name": "secondaryType",
              "type": "uint128"
            }
          ],
          "internalType": "struct IBadgeUniverse1.TokenType",
          "name": "",
          "type": "tuple"
        }
      ],
      "stateMutability": "view",
      "type": "function"
    },
    {
      "inputs": [
        {
          "internalType": "address",
          "name": "owner",
          "type": "address"
        },
        {
          "internalType": "address",
          "name": "operator",
          "type": "address"
        }
      ],
      "name": "isApprovedForAll",
      "outputs": [
        {
          "internalType": "bool",
          "name": "",
          "type": "bool"
        }
      ],
      "stateMutability": "view",
      "type": "function"
    },
    {
      "inputs": [
        {
          "internalType": "address",
          "name": "user",
          "type": "address"
        },
        {
          "internalType": "uint128",
          "name": "primaryType",
          "type": "uint128"
        },
        {
          "internalType": "uint128",
          "name": "secondaryType",
          "type": "uint128"
        }
      ],
      "name": "isOwnerOfTokenType",
      "outputs": [
        {
          "internalType": "bool",
          "name": "",
          "type": "bool"
        }
      ],
      "stateMutability": "view",
      "type": "function"
    },
    {
      "inputs": [
        {
          "internalType": "address",
          "name": "to",
          "type": "address"
        },
        {
          "internalType": "uint128",
          "name": "primaryType",
          "type": "uint128"
        },
        {
          "internalType": "uint128",
          "name": "secondaryType",
          "type": "uint128"
        },
        {
          "internalType": "string",
          "name": "tokenURI",
          "type": "string"
        }
      ],
      "name": "mintBadge",
      "outputs": [],
      "stateMutability": "nonpayable",
      "type": "function"
    },
    {
      "inputs": [],
      "name": "name",
      "outputs": [
        {
          "internalType": "string",
          "name": "",
          "type": "string"
        }
      ],
      "stateMutability": "view",
      "type": "function"
    },
    {
      "inputs": [],
      "name": "owner",
      "outputs": [
        {
          "internalType": "address",
          "name": "",
          "type": "address"
        }
      ],
      "stateMutability": "view",
      "type": "function"
    },
    {
      "inputs": [
        {
          "internalType": "uint256",
          "name": "tokenId",
          "type": "uint256"
        }
      ],
      "name": "ownerOf",
      "outputs": [
        {
          "internalType": "address",
          "name": "",
          "type": "address"
        }
      ],
      "stateMutability": "view",
      "type": "function"
    },
    {
      "inputs": [],
      "name": "renounceOwnership",
      "outputs": [],
      "stateMutability": "nonpayable",
      "type": "function"
    },
    {
      "inputs": [
        {
          "internalType": "address",
          "name": "from",
          "type": "address"
        },
        {
          "internalType": "address",
          "name": "to",
          "type": "address"
        },
        {
          "internalType": "uint256",
          "name": "tokenId",
          "type": "uint256"
        }
      ],
      "name": "safeTransferFrom",
      "outputs": [],
      "stateMutability": "nonpayable",
      "type": "function"
    },
    {
      "inputs": [
        {
          "internalType": "address",
          "name": "from",
          "type": "address"
        },
        {
          "internalType": "address",
          "name": "to",
          "type": "address"
        },
        {
          "internalType": "uint256",
          "name": "tokenId",
          "type": "uint256"
        },
        {
          "internalType": "bytes",
          "name": "data",
          "type": "bytes"
        }
      ],
      "name": "safeTransferFrom",
      "outputs": [],
      "stateMutability": "nonpayable",
      "type": "function"
    },
    {
      "inputs": [
        {
          "internalType": "address",
          "name": "",
          "type": "address"
        },
        {
          "internalType": "bool",
          "name": "",
          "type": "bool"
        }
      ],
      "name": "setApprovalForAll",
      "outputs": [],
      "stateMutability": "nonpayable",
      "type": "function"
    },
    {
      "inputs": [],
      "name": "spaceFactory",
      "outputs": [
        {
          "internalType": "address",
          "name": "",
          "type": "address"
        }
      ],
      "stateMutability": "view",
      "type": "function"
    },
    {
      "inputs": [
        {
          "internalType": "bytes4",
          "name": "interfaceId",
          "type": "bytes4"
        }
      ],
      "name": "supportsInterface",
      "outputs": [
        {
          "internalType": "bool",
          "name": "",
          "type": "bool"
        }
      ],
      "stateMutability": "view",
      "type": "function"
    },
    {
      "inputs": [],
      "name": "symbol",
      "outputs": [
        {
          "internalType": "string",
          "name": "",
          "type": "string"
        }
      ],
      "stateMutability": "view",
      "type": "function"
    },
    {
      "inputs": [
        {
          "internalType": "uint256",
          "name": "tokenId",
          "type": "uint256"
        }
      ],
      "name": "tokenURI",
      "outputs": [
        {
          "internalType": "string",
          "name": "",
          "type": "string"
        }
      ],
      "stateMutability": "view",
      "type": "function"
    },
    {
      "inputs": [],
      "name": "totalSupply",
      "outputs": [
        {
          "internalType": "uint256",
          "name": "",
          "type": "uint256"
        }
      ],
      "stateMutability": "view",
      "type": "function"
    },
    {
      "inputs": [
        {
          "internalType": "address",
          "name": "from",
          "type": "address"
        },
        {
          "internalType": "address",
          "name": "to",
          "type": "address"
        },
        {
          "internalType": "uint256",
          "name": "tokenId",
          "type": "uint256"
        }
      ],
      "name": "transferFrom",
      "outputs": [],
      "stateMutability": "nonpayable",
      "type": "function"
    },
    {
      "inputs": [
        {
          "internalType": "address",
          "name": "newOwner",
          "type": "address"
        }
      ],
      "name": "transferOwnership",
      "outputs": [],
      "stateMutability": "nonpayable",
      "type": "function"
    }
  ],
  "bytecode": "0x60a06040523480156200001157600080fd5b50604051620026ed380380620026ed83398101604081905262000034916200022e565b6040518060400160405280600f81526020016e426164676520556e6976657273653160881b8152506040518060400160405280600881526020016742414447452d553160c01b81525081600090816200008e91906200030b565b5060016200009d82826200030b565b505050620000ba620000b4620000da60201b60201c565b620000de565b6001600160a01b038216608052620000d28162000130565b5050620003d7565b3390565b600780546001600160a01b038381166001600160a01b0319831681179093556040519116919082907f8be0079c531659141344cd1fd0a4f28419497f9722a3daafe3b4186f6b6457e090600090a35050565b6200013a620001b3565b6001600160a01b038116620001a55760405162461bcd60e51b815260206004820152602660248201527f4f776e61626c653a206e6577206f776e657220697320746865207a65726f206160448201526564647265737360d01b60648201526084015b60405180910390fd5b620001b081620000de565b50565b6007546001600160a01b031633146200020f5760405162461bcd60e51b815260206004820181905260248201527f4f776e61626c653a2063616c6c6572206973206e6f7420746865206f776e657260448201526064016200019c565b565b80516001600160a01b03811681146200022957600080fd5b919050565b600080604083850312156200024257600080fd5b6200024d8362000211565b91506200025d6020840162000211565b90509250929050565b634e487b7160e01b600052604160045260246000fd5b600181811c908216806200029157607f821691505b602082108103620002b257634e487b7160e01b600052602260045260246000fd5b50919050565b601f8211156200030657600081815260208120601f850160051c81016020861015620002e15750805b601f850160051c820191505b818110156200030257828155600101620002ed565b5050505b505050565b81516001600160401b0381111562000327576200032762000266565b6200033f816200033884546200027c565b84620002b8565b602080601f8311600181146200037757600084156200035e5750858301515b600019600386901b1c1916600185901b17855562000302565b600085815260208120601f198616915b82811015620003a85788860151825594840194600190910190840162000387565b5085821015620003c75787850151600019600388901b60f8161c191681555b5050505050600190811b01905550565b6080516122ec62000401600039600081816103990152818161071201526107cf01526122ec6000f3fe608060405234801561001057600080fd5b50600436106101825760003560e01c806370a08231116100d857806395d89b411161008c578063c87b56dd11610066578063c87b56dd14610402578063e985e9c514610415578063f2fde38b1461045e57600080fd5b806395d89b41146103d9578063a22cb465146103e1578063b88d4fde146103ef57600080fd5b806376aed2e1116100bd57806376aed2e114610351578063857bee5f146103945780638da5cb5b146103bb57600080fd5b806370a0823114610336578063715018a61461034957600080fd5b806323b872dd1161013a57806355de28ae1161011457806355de28ae146102fd578063615ac7f0146103105780636352211e1461032357600080fd5b806323b872dd1461022857806342842e0e1461023b57806342fd5fed1461024e57600080fd5b8063081812fc1161016b578063081812fc146101c4578063095ea7b3146101fc57806318160ddd1461021157600080fd5b806301ffc9a71461018757806306fdde03146101af575b600080fd5b61019a610195366004611cc5565b610471565b60405190151581526020015b60405180910390f35b6101b7610556565b6040516101a69190611d32565b6101d76101d2366004611d45565b6105e8565b60405173ffffffffffffffffffffffffffffffffffffffff90911681526020016101a6565b61020f61020a366004611d87565b61061c565b005b61021a60085481565b6040519081526020016101a6565b61020f610236366004611db1565b61064e565b61020f610249366004611db1565b6106df565b61019a61025c366004611e0d565b6040517fffffffffffffffffffffffffffffffffffffffff000000000000000000000000606085901b1660208201527fffffffffffffffffffffffffffffffff00000000000000000000000000000000608084811b8216603484015283901b166044820152600090600a90829060540160408051808303601f190181529181528151602092830120835290820192909252016000205460ff16949350505050565b61020f61030b366004611d45565b6106fa565b61020f61031e366004611ef5565b6107b7565b6101d7610331366004611d45565b6109f3565b61021a610344366004611f78565b610a65565b61020f610b19565b61036461035f366004611d45565b610b2d565b6040805182516fffffffffffffffffffffffffffffffff90811682526020938401511692810192909252016101a6565b6101d77f000000000000000000000000000000000000000000000000000000000000000081565b60075473ffffffffffffffffffffffffffffffffffffffff166101d7565b6101b7610bf4565b61020f61020a366004611f93565b61020f6103fd366004611fcf565b610c03565b6101b7610410366004611d45565b610c91565b61019a61042336600461201f565b73ffffffffffffffffffffffffffffffffffffffff918216600090815260056020908152604080832093909416825291909152205460ff1690565b61020f61046c366004611f78565b610dc6565b60007fffffffff0000000000000000000000000000000000000000000000000000000082167f80ac58cd00000000000000000000000000000000000000000000000000000000148061050457507fffffffff0000000000000000000000000000000000000000000000000000000082167f5b5e139f00000000000000000000000000000000000000000000000000000000145b8061055057507f01ffc9a7000000000000000000000000000000000000000000000000000000007fffffffff000000000000000000000000000000000000000000000000000000008316145b92915050565b60606000805461056590612052565b80601f016020809104026020016040519081016040528092919081815260200182805461059190612052565b80156105de5780601f106105b3576101008083540402835291602001916105de565b820191906000526020600020905b8154815290600101906020018083116105c157829003601f168201915b5050505050905090565b60006105f382610e60565b5060009081526004602052604090205473ffffffffffffffffffffffffffffffffffffffff1690565b6040517fa6c022e100000000000000000000000000000000000000000000000000000000815260040160405180910390fd5b6106583382610ed1565b6106cf5760405162461bcd60e51b815260206004820152602d60248201527f4552433732313a2063616c6c6572206973206e6f7420746f6b656e206f776e6560448201527f72206f7220617070726f7665640000000000000000000000000000000000000060648201526084015b60405180910390fd5b6106da838383610f90565b505050565b6106da83838360405180602001604052806000815250610c03565b3373ffffffffffffffffffffffffffffffffffffffff7f000000000000000000000000000000000000000000000000000000000000000016148015906107745750610744816109f3565b73ffffffffffffffffffffffffffffffffffffffff163373ffffffffffffffffffffffffffffffffffffffff1614155b156107ab576040517fba378aba00000000000000000000000000000000000000000000000000000000815260040160405180910390fd5b6107b48161122c565b50565b3373ffffffffffffffffffffffffffffffffffffffff7f00000000000000000000000000000000000000000000000000000000000000001614610826576040517fd59ec5f100000000000000000000000000000000000000000000000000000000815260040160405180910390fd5b8051600003610861576040517f13f04adb00000000000000000000000000000000000000000000000000000000815260040160405180910390fd5b61086d8460085461126c565b61087960085482611452565b6040805180820182526fffffffffffffffffffffffffffffffff858116808352858216602080850182815260088054600090815260098452888120975192518716700100000000000000000000000000000000029290961691909117909555855160608b901b7fffffffffffffffffffffffffffffffffffffffff000000000000000000000000168183015260808a811b7fffffffffffffffffffffffffffffffff00000000000000000000000000000000908116603480850191909152918b901b1660448301528751808303909101815260549091018088528151918301919091208552600a90915294909220805460017fffffffffffffffffffffffffffffffffffffffffffffffffffffffffffffff009091161790559154909273ffffffffffffffffffffffffffffffffffffffff8816917fe99bb71c1292f6c5582bdb991b17b829bf9475553170e565d9fedc0a804b751a916109dc919087906120a5565b60405180910390a450506008805460010190555050565b60008181526002602052604081205473ffffffffffffffffffffffffffffffffffffffff16806105505760405162461bcd60e51b815260206004820152601860248201527f4552433732313a20696e76616c696420746f6b656e204944000000000000000060448201526064016106c6565b600073ffffffffffffffffffffffffffffffffffffffff8216610af05760405162461bcd60e51b815260206004820152602960248201527f4552433732313a2061646472657373207a65726f206973206e6f74206120766160448201527f6c6964206f776e6572000000000000000000000000000000000000000000000060648201526084016106c6565b5073ffffffffffffffffffffffffffffffffffffffff1660009081526003602052604090205490565b610b2161145c565b610b2b60006114c3565b565b6040805180820190915260008082526020820152610b6f8260009081526002602052604090205473ffffffffffffffffffffffffffffffffffffffff16151590565b610ba5576040517f3f6cc76800000000000000000000000000000000000000000000000000000000815260040160405180910390fd5b506000908152600960209081526040918290208251808401909352546fffffffffffffffffffffffffffffffff8082168452700100000000000000000000000000000000909104169082015290565b60606001805461056590612052565b610c0d3383610ed1565b610c7f5760405162461bcd60e51b815260206004820152602d60248201527f4552433732313a2063616c6c6572206973206e6f7420746f6b656e206f776e6560448201527f72206f7220617070726f7665640000000000000000000000000000000000000060648201526084016106c6565b610c8b8484848461153a565b50505050565b6060610c9c82610e60565b60008281526006602052604081208054610cb590612052565b80601f0160208091040260200160405190810160405280929190818152602001828054610ce190612052565b8015610d2e5780601f10610d0357610100808354040283529160200191610d2e565b820191906000526020600020905b815481529060010190602001808311610d1157829003601f168201915b505050505090506000610d7160408051808201909152601881527f68747470733a2f2f7777772e617277656176652e6e65742f0000000000000000602082015290565b90508051600003610d83575092915050565b815115610db5578082604051602001610d9d9291906120be565b60405160208183030381529060405292505050919050565b610dbe846115c3565b949350505050565b610dce61145c565b73ffffffffffffffffffffffffffffffffffffffff8116610e575760405162461bcd60e51b815260206004820152602660248201527f4f776e61626c653a206e6577206f776e657220697320746865207a65726f206160448201527f646472657373000000000000000000000000000000000000000000000000000060648201526084016106c6565b6107b4816114c3565b60008181526002602052604090205473ffffffffffffffffffffffffffffffffffffffff166107b45760405162461bcd60e51b815260206004820152601860248201527f4552433732313a20696e76616c696420746f6b656e204944000000000000000060448201526064016106c6565b600080610edd836109f3565b90508073ffffffffffffffffffffffffffffffffffffffff168473ffffffffffffffffffffffffffffffffffffffff161480610f4b575073ffffffffffffffffffffffffffffffffffffffff80821660009081526005602090815260408083209388168352929052205460ff165b80610dbe57508373ffffffffffffffffffffffffffffffffffffffff16610f71846105e8565b73ffffffffffffffffffffffffffffffffffffffff1614949350505050565b8273ffffffffffffffffffffffffffffffffffffffff16610fb0826109f3565b73ffffffffffffffffffffffffffffffffffffffff16146110395760405162461bcd60e51b815260206004820152602560248201527f4552433732313a207472616e736665722066726f6d20696e636f72726563742060448201527f6f776e657200000000000000000000000000000000000000000000000000000060648201526084016106c6565b73ffffffffffffffffffffffffffffffffffffffff82166110c15760405162461bcd60e51b8152602060048201526024808201527f4552433732313a207472616e7366657220746f20746865207a65726f2061646460448201527f726573730000000000000000000000000000000000000000000000000000000060648201526084016106c6565b6110ce838383600161165c565b8273ffffffffffffffffffffffffffffffffffffffff166110ee826109f3565b73ffffffffffffffffffffffffffffffffffffffff16146111775760405162461bcd60e51b815260206004820152602560248201527f4552433732313a207472616e736665722066726f6d20696e636f72726563742060448201527f6f776e657200000000000000000000000000000000000000000000000000000060648201526084016106c6565b600081815260046020908152604080832080547fffffffffffffffffffffffff000000000000000000000000000000000000000090811690915573ffffffffffffffffffffffffffffffffffffffff87811680865260038552838620805460001901905590871680865283862080546001019055868652600290945282852080549092168417909155905184937fddf252ad1be2c89b69c2b068fc378daa952ba7f163c4a11628f55a4df523b3ef91a4505050565b611235816116d9565b6000818152600660205260409020805461124e90612052565b1590506107b45760008181526006602052604081206107b491611c49565b73ffffffffffffffffffffffffffffffffffffffff82166112cf5760405162461bcd60e51b815260206004820181905260248201527f4552433732313a206d696e7420746f20746865207a65726f206164647265737360448201526064016106c6565b60008181526002602052604090205473ffffffffffffffffffffffffffffffffffffffff16156113415760405162461bcd60e51b815260206004820152601c60248201527f4552433732313a20746f6b656e20616c7265616479206d696e7465640000000060448201526064016106c6565b61134f60008383600161165c565b60008181526002602052604090205473ffffffffffffffffffffffffffffffffffffffff16156113c15760405162461bcd60e51b815260206004820152601c60248201527f4552433732313a20746f6b656e20616c7265616479206d696e7465640000000060448201526064016106c6565b73ffffffffffffffffffffffffffffffffffffffff8216600081815260036020908152604080832080546001019055848352600290915280822080547fffffffffffffffffffffffff0000000000000000000000000000000000000000168417905551839291907fddf252ad1be2c89b69c2b068fc378daa952ba7f163c4a11628f55a4df523b3ef908290a45b5050565b61144e82826117a1565b60075473ffffffffffffffffffffffffffffffffffffffff163314610b2b5760405162461bcd60e51b815260206004820181905260248201527f4f776e61626c653a2063616c6c6572206973206e6f7420746865206f776e657260448201526064016106c6565b6007805473ffffffffffffffffffffffffffffffffffffffff8381167fffffffffffffffffffffffff0000000000000000000000000000000000000000831681179093556040519116919082907f8be0079c531659141344cd1fd0a4f28419497f9722a3daafe3b4186f6b6457e090600090a35050565b611545848484610f90565b61155184848484611850565b610c8b5760405162461bcd60e51b815260206004820152603260248201527f4552433732313a207472616e7366657220746f206e6f6e20455243373231526560448201527f63656976657220696d706c656d656e746572000000000000000000000000000060648201526084016106c6565b60606115ce82610e60565b600061160a60408051808201909152601881527f68747470733a2f2f7777772e617277656176652e6e65742f0000000000000000602082015290565b9050600081511161162a5760405180602001604052806000815250611655565b8061163484611a0b565b6040516020016116459291906120be565b6040516020818303038152906040525b9392505050565b73ffffffffffffffffffffffffffffffffffffffff841615801590611696575073ffffffffffffffffffffffffffffffffffffffff831615155b156116cd576040517f1b5722f500000000000000000000000000000000000000000000000000000000815260040160405180910390fd5b610c8b84848484611aab565b60006116e4826109f3565b90506116f481600084600161165c565b6116fd826109f3565b600083815260046020908152604080832080547fffffffffffffffffffffffff000000000000000000000000000000000000000090811690915573ffffffffffffffffffffffffffffffffffffffff85168085526003845282852080546000190190558785526002909352818420805490911690555192935084927fddf252ad1be2c89b69c2b068fc378daa952ba7f163c4a11628f55a4df523b3ef908390a45050565b60008281526002602052604090205473ffffffffffffffffffffffffffffffffffffffff166118385760405162461bcd60e51b815260206004820152602e60248201527f45524337323155524953746f726167653a2055524920736574206f66206e6f6e60448201527f6578697374656e7420746f6b656e00000000000000000000000000000000000060648201526084016106c6565b60008281526006602052604090206106da828261213b565b600073ffffffffffffffffffffffffffffffffffffffff84163b15611a00576040517f150b7a0200000000000000000000000000000000000000000000000000000000815273ffffffffffffffffffffffffffffffffffffffff85169063150b7a02906118c79033908990889088906004016121fb565b6020604051808303816000875af1925050508015611902575060408051601f3d908101601f191682019092526118ff91810190612244565b60015b6119b5573d808015611930576040519150601f19603f3d011682016040523d82523d6000602084013e611935565b606091505b5080516000036119ad5760405162461bcd60e51b815260206004820152603260248201527f4552433732313a207472616e7366657220746f206e6f6e20455243373231526560448201527f63656976657220696d706c656d656e746572000000000000000000000000000060648201526084016106c6565b805181602001fd5b7fffffffff00000000000000000000000000000000000000000000000000000000167f150b7a0200000000000000000000000000000000000000000000000000000000149050610dbe565b506001949350505050565b60606000611a1883611b67565b600101905060008167ffffffffffffffff811115611a3857611a38611e50565b6040519080825280601f01601f191660200182016040528015611a62576020820181803683370190505b5090508181016020015b600019017f3031323334353637383961626364656600000000000000000000000000000000600a86061a8153600a8504945084611a6c57509392505050565b6001811115610c8b5773ffffffffffffffffffffffffffffffffffffffff841615611b0b5773ffffffffffffffffffffffffffffffffffffffff841660009081526003602052604081208054839290611b05908490612290565b90915550505b73ffffffffffffffffffffffffffffffffffffffff831615610c8b5773ffffffffffffffffffffffffffffffffffffffff831660009081526003602052604081208054839290611b5c9084906122a3565b909155505050505050565b6000807a184f03e93ff9f4daa797ed6e38ed64bf6a1f0100000000000000008310611bb0577a184f03e93ff9f4daa797ed6e38ed64bf6a1f010000000000000000830492506040015b6d04ee2d6d415b85acef81000000008310611bdc576d04ee2d6d415b85acef8100000000830492506020015b662386f26fc100008310611bfa57662386f26fc10000830492506010015b6305f5e1008310611c12576305f5e100830492506008015b6127108310611c2657612710830492506004015b60648310611c38576064830492506002015b600a83106105505760010192915050565b508054611c5590612052565b6000825580601f10611c65575050565b601f0160209004906000526020600020908101906107b491905b80821115611c935760008155600101611c7f565b5090565b7fffffffff00000000000000000000000000000000000000000000000000000000811681146107b457600080fd5b600060208284031215611cd757600080fd5b813561165581611c97565b60005b83811015611cfd578181015183820152602001611ce5565b50506000910152565b60008151808452611d1e816020860160208601611ce2565b601f01601f19169290920160200192915050565b6020815260006116556020830184611d06565b600060208284031215611d5757600080fd5b5035919050565b803573ffffffffffffffffffffffffffffffffffffffff81168114611d8257600080fd5b919050565b60008060408385031215611d9a57600080fd5b611da383611d5e565b946020939093013593505050565b600080600060608486031215611dc657600080fd5b611dcf84611d5e565b9250611ddd60208501611d5e565b9150604084013590509250925092565b80356fffffffffffffffffffffffffffffffff81168114611d8257600080fd5b600080600060608486031215611e2257600080fd5b611e2b84611d5e565b9250611e3960208501611ded565b9150611e4760408501611ded565b90509250925092565b7f4e487b7100000000000000000000000000000000000000000000000000000000600052604160045260246000fd5b600067ffffffffffffffff80841115611e9a57611e9a611e50565b604051601f8501601f19908116603f01168101908282118183101715611ec257611ec2611e50565b81604052809350858152868686011115611edb57600080fd5b858560208301376000602087830101525050509392505050565b60008060008060808587031215611f0b57600080fd5b611f1485611d5e565b9350611f2260208601611ded565b9250611f3060408601611ded565b9150606085013567ffffffffffffffff811115611f4c57600080fd5b8501601f81018713611f5d57600080fd5b611f6c87823560208401611e7f565b91505092959194509250565b600060208284031215611f8a57600080fd5b61165582611d5e565b60008060408385031215611fa657600080fd5b611faf83611d5e565b915060208301358015158114611fc457600080fd5b809150509250929050565b60008060008060808587031215611fe557600080fd5b611fee85611d5e565b9350611ffc60208601611d5e565b925060408501359150606085013567ffffffffffffffff811115611f4c57600080fd5b6000806040838503121561203257600080fd5b61203b83611d5e565b915061204960208401611d5e565b90509250929050565b600181811c9082168061206657607f821691505b60208210810361209f577f4e487b7100000000000000000000000000000000000000000000000000000000600052602260045260246000fd5b50919050565b828152604060208201526000610dbe6040830184611d06565b600083516120d0818460208801611ce2565b8351908301906120e4818360208801611ce2565b01949350505050565b601f8211156106da57600081815260208120601f850160051c810160208610156121145750805b601f850160051c820191505b8181101561213357828155600101612120565b505050505050565b815167ffffffffffffffff81111561215557612155611e50565b612169816121638454612052565b846120ed565b602080601f83116001811461219e57600084156121865750858301515b600019600386901b1c1916600185901b178555612133565b600085815260208120601f198616915b828110156121cd578886015182559484019460019091019084016121ae565b50858210156121eb5787850151600019600388901b60f8161c191681555b5050505050600190811b01905550565b600073ffffffffffffffffffffffffffffffffffffffff80871683528086166020840152508360408301526080606083015261223a6080830184611d06565b9695505050505050565b60006020828403121561225657600080fd5b815161165581611c97565b7f4e487b7100000000000000000000000000000000000000000000000000000000600052601160045260246000fd5b8181038181111561055057610550612261565b808201808211156105505761055061226156fea264697066735822122025926d875b565b6e49398f8106ba897d9f640fe03b61d5225b81ed6bcbff182e64736f6c63430008110033",
  "linkReferences": {},
  "deployedLinkReferences": {}
}