{
  "_format": "hh-sol-artifact-1",
  "contractName": "BadgeUniverse1",
  "sourceName": "contracts/BadgeUniverse1.sol",
  "abi": [
    {
      "inputs": [
        {
          "internalType": "address",
          "name": "_spaceFactory",
          "type": "address"
        }
      ],
      "stateMutability": "nonpayable",
      "type": "constructor"
    },
    {
      "inputs": [],
      "name": "CanNotApprove",
      "type": "error"
    },
    {
      "inputs": [],
      "name": "CanNotTransfer",
      "type": "error"
    },
    {
      "inputs": [],
      "name": "InvalidTokenId",
      "type": "error"
    },
    {
      "inputs": [],
      "name": "OnlySpaceFactory",
      "type": "error"
    },
    {
      "anonymous": false,
      "inputs": [
        {
          "indexed": true,
          "internalType": "address",
          "name": "owner",
          "type": "address"
        },
        {
          "indexed": true,
          "internalType": "address",
          "name": "approved",
          "type": "address"
        },
        {
          "indexed": true,
          "internalType": "uint256",
          "name": "tokenId",
          "type": "uint256"
        }
      ],
      "name": "Approval",
      "type": "event"
    },
    {
      "anonymous": false,
      "inputs": [
        {
          "indexed": true,
          "internalType": "address",
          "name": "owner",
          "type": "address"
        },
        {
          "indexed": true,
          "internalType": "address",
          "name": "operator",
          "type": "address"
        },
        {
          "indexed": false,
          "internalType": "bool",
          "name": "approved",
          "type": "bool"
        }
      ],
      "name": "ApprovalForAll",
      "type": "event"
    },
    {
      "anonymous": false,
      "inputs": [
        {
          "indexed": true,
          "internalType": "address",
          "name": "to",
          "type": "address"
        },
        {
          "indexed": true,
          "internalType": "uint128",
          "name": "primaryType",
          "type": "uint128"
        },
        {
          "indexed": true,
          "internalType": "uint128",
          "name": "secondaryType",
          "type": "uint128"
        },
        {
          "indexed": false,
          "internalType": "uint256",
          "name": "tokenId",
          "type": "uint256"
        },
        {
          "indexed": false,
          "internalType": "string",
          "name": "tokenURI",
          "type": "string"
        }
      ],
      "name": "MintBadge",
      "type": "event"
    },
    {
      "anonymous": false,
      "inputs": [
        {
          "indexed": true,
          "internalType": "address",
          "name": "from",
          "type": "address"
        },
        {
          "indexed": true,
          "internalType": "address",
          "name": "to",
          "type": "address"
        },
        {
          "indexed": true,
          "internalType": "uint256",
          "name": "tokenId",
          "type": "uint256"
        }
      ],
      "name": "Transfer",
      "type": "event"
    },
    {
      "inputs": [
        {
          "internalType": "address",
          "name": "",
          "type": "address"
        },
        {
          "internalType": "uint256",
          "name": "",
          "type": "uint256"
        }
      ],
      "name": "approve",
      "outputs": [],
      "stateMutability": "nonpayable",
      "type": "function"
    },
    {
      "inputs": [
        {
          "internalType": "address",
          "name": "owner",
          "type": "address"
        }
      ],
      "name": "balanceOf",
      "outputs": [
        {
          "internalType": "uint256",
          "name": "",
          "type": "uint256"
        }
      ],
      "stateMutability": "view",
      "type": "function"
    },
    {
      "inputs": [
        {
          "internalType": "uint256",
          "name": "tokenId",
          "type": "uint256"
        }
      ],
      "name": "getApproved",
      "outputs": [
        {
          "internalType": "address",
          "name": "",
          "type": "address"
        }
      ],
      "stateMutability": "view",
      "type": "function"
    },
    {
      "inputs": [
        {
          "internalType": "uint256",
          "name": "tokenId",
          "type": "uint256"
        }
      ],
      "name": "getTokenType",
      "outputs": [
        {
          "components": [
            {
              "internalType": "uint128",
              "name": "primaryType",
              "type": "uint128"
            },
            {
              "internalType": "uint128",
              "name": "secondaryType",
              "type": "uint128"
            }
          ],
          "internalType": "struct IBadgeUniverse1.TokenType",
          "name": "",
          "type": "tuple"
        }
      ],
      "stateMutability": "view",
      "type": "function"
    },
    {
      "inputs": [
        {
          "internalType": "address",
          "name": "owner",
          "type": "address"
        },
        {
          "internalType": "address",
          "name": "operator",
          "type": "address"
        }
      ],
      "name": "isApprovedForAll",
      "outputs": [
        {
          "internalType": "bool",
          "name": "",
          "type": "bool"
        }
      ],
      "stateMutability": "view",
      "type": "function"
    },
    {
      "inputs": [
        {
          "internalType": "address",
          "name": "user",
          "type": "address"
        },
        {
          "internalType": "uint128",
          "name": "primaryType",
          "type": "uint128"
        },
        {
          "internalType": "uint128",
          "name": "secondaryType",
          "type": "uint128"
        }
      ],
      "name": "isOwnerOfTokenType",
      "outputs": [
        {
          "internalType": "bool",
          "name": "",
          "type": "bool"
        }
      ],
      "stateMutability": "view",
      "type": "function"
    },
    {
      "inputs": [
        {
          "internalType": "address",
          "name": "to",
          "type": "address"
        },
        {
          "internalType": "uint128",
          "name": "primaryType",
          "type": "uint128"
        },
        {
          "internalType": "uint128",
          "name": "secondaryType",
          "type": "uint128"
        },
        {
          "internalType": "string",
          "name": "tokenURI",
          "type": "string"
        }
      ],
      "name": "mintBadge",
      "outputs": [],
      "stateMutability": "nonpayable",
      "type": "function"
    },
    {
      "inputs": [],
      "name": "name",
      "outputs": [
        {
          "internalType": "string",
          "name": "",
          "type": "string"
        }
      ],
      "stateMutability": "view",
      "type": "function"
    },
    {
      "inputs": [
        {
          "internalType": "uint256",
          "name": "tokenId",
          "type": "uint256"
        }
      ],
      "name": "ownerOf",
      "outputs": [
        {
          "internalType": "address",
          "name": "",
          "type": "address"
        }
      ],
      "stateMutability": "view",
      "type": "function"
    },
    {
      "inputs": [
        {
          "internalType": "address",
          "name": "from",
          "type": "address"
        },
        {
          "internalType": "address",
          "name": "to",
          "type": "address"
        },
        {
          "internalType": "uint256",
          "name": "tokenId",
          "type": "uint256"
        }
      ],
      "name": "safeTransferFrom",
      "outputs": [],
      "stateMutability": "nonpayable",
      "type": "function"
    },
    {
      "inputs": [
        {
          "internalType": "address",
          "name": "from",
          "type": "address"
        },
        {
          "internalType": "address",
          "name": "to",
          "type": "address"
        },
        {
          "internalType": "uint256",
          "name": "tokenId",
          "type": "uint256"
        },
        {
          "internalType": "bytes",
          "name": "data",
          "type": "bytes"
        }
      ],
      "name": "safeTransferFrom",
      "outputs": [],
      "stateMutability": "nonpayable",
      "type": "function"
    },
    {
      "inputs": [
        {
          "internalType": "address",
          "name": "",
          "type": "address"
        },
        {
          "internalType": "bool",
          "name": "",
          "type": "bool"
        }
      ],
      "name": "setApprovalForAll",
      "outputs": [],
      "stateMutability": "nonpayable",
      "type": "function"
    },
    {
      "inputs": [],
      "name": "spaceFactory",
      "outputs": [
        {
          "internalType": "address",
          "name": "",
          "type": "address"
        }
      ],
      "stateMutability": "view",
      "type": "function"
    },
    {
      "inputs": [
        {
          "internalType": "bytes4",
          "name": "interfaceId",
          "type": "bytes4"
        }
      ],
      "name": "supportsInterface",
      "outputs": [
        {
          "internalType": "bool",
          "name": "",
          "type": "bool"
        }
      ],
      "stateMutability": "view",
      "type": "function"
    },
    {
      "inputs": [],
      "name": "symbol",
      "outputs": [
        {
          "internalType": "string",
          "name": "",
          "type": "string"
        }
      ],
      "stateMutability": "view",
      "type": "function"
    },
    {
      "inputs": [
        {
          "internalType": "uint256",
          "name": "tokenId",
          "type": "uint256"
        }
      ],
      "name": "tokenURI",
      "outputs": [
        {
          "internalType": "string",
          "name": "",
          "type": "string"
        }
      ],
      "stateMutability": "view",
      "type": "function"
    },
    {
      "inputs": [],
      "name": "totalSupply",
      "outputs": [
        {
          "internalType": "uint256",
          "name": "",
          "type": "uint256"
        }
      ],
      "stateMutability": "view",
      "type": "function"
    },
    {
      "inputs": [
        {
          "internalType": "address",
          "name": "from",
          "type": "address"
        },
        {
          "internalType": "address",
          "name": "to",
          "type": "address"
        },
        {
          "internalType": "uint256",
          "name": "tokenId",
          "type": "uint256"
        }
      ],
      "name": "transferFrom",
      "outputs": [],
      "stateMutability": "nonpayable",
      "type": "function"
    }
  ],
  "bytecode": "0x60a06040523480156200001157600080fd5b506040516200216d3803806200216d8339810160408190526200003491620000b2565b6040518060400160405280600f81526020016e426164676520556e6976657273653160881b8152506040518060400160405280600881526020016742414447452d553160c01b81525081600090816200008e919062000189565b5060016200009d828262000189565b5050506001600160a01b031660805262000255565b600060208284031215620000c557600080fd5b81516001600160a01b0381168114620000dd57600080fd5b9392505050565b634e487b7160e01b600052604160045260246000fd5b600181811c908216806200010f57607f821691505b6020821081036200013057634e487b7160e01b600052602260045260246000fd5b50919050565b601f8211156200018457600081815260208120601f850160051c810160208610156200015f5750805b601f850160051c820191505b8181101562000180578281556001016200016b565b5050505b505050565b81516001600160401b03811115620001a557620001a5620000e4565b620001bd81620001b68454620000fa565b8462000136565b602080601f831160018114620001f55760008415620001dc5750858301515b600019600386901b1c1916600185901b17855562000180565b600085815260208120601f198616915b82811015620002265788860151825594840194600190910190840162000205565b5085821015620002455787850151600019600388901b60f8161c191681555b5050505050600190811b01905550565b608051611ef56200027860003960008181610332015261067a0152611ef56000f3fe608060405234801561001057600080fd5b50600436106101365760003560e01c80636352211e116100b257806395d89b4111610081578063b88d4fde11610066578063b88d4fde1461036a578063c87b56dd1461037d578063e985e9c51461039057600080fd5b806395d89b4114610354578063a22cb4651461035c57600080fd5b80636352211e146102c457806370a08231146102d757806376aed2e1146102ea578063857bee5f1461032d57600080fd5b806318160ddd1161010957806342842e0e116100ee57806342842e0e146101ef57806342fd5fed14610202578063615ac7f0146102b157600080fd5b806318160ddd146101c557806323b872dd146101dc57600080fd5b806301ffc9a71461013b57806306fdde0314610163578063081812fc14610178578063095ea7b3146101b0575b600080fd5b61014e610149366004611892565b6103d9565b60405190151581526020015b60405180910390f35b61016b6104be565b60405161015a91906118ff565b61018b610186366004611912565b610550565b60405173ffffffffffffffffffffffffffffffffffffffff909116815260200161015a565b6101c36101be366004611954565b610584565b005b6101ce60075481565b60405190815260200161015a565b6101c36101ea36600461197e565b6105b6565b6101c36101fd36600461197e565b610647565b61014e6102103660046119da565b6040517fffffffffffffffffffffffffffffffffffffffff000000000000000000000000606085901b1660208201527fffffffffffffffffffffffffffffffff00000000000000000000000000000000608084811b8216603484015283901b166044820152600090600990829060540160408051808303601f190181529181528151602092830120835290820192909252016000205460ff16949350505050565b6101c36102bf366004611ac2565b610662565b61018b6102d2366004611912565b610863565b6101ce6102e5366004611b45565b6108d5565b6102fd6102f8366004611912565b610989565b6040805182516fffffffffffffffffffffffffffffffff908116825260209384015116928101929092520161015a565b61018b7f000000000000000000000000000000000000000000000000000000000000000081565b61016b610a50565b6101c36101be366004611b60565b6101c3610378366004611b9c565b610a5f565b61016b61038b366004611912565b610aed565b61014e61039e366004611bec565b73ffffffffffffffffffffffffffffffffffffffff918216600090815260056020908152604080832093909416825291909152205460ff1690565b60007fffffffff0000000000000000000000000000000000000000000000000000000082167f80ac58cd00000000000000000000000000000000000000000000000000000000148061046c57507fffffffff0000000000000000000000000000000000000000000000000000000082167f5b5e139f00000000000000000000000000000000000000000000000000000000145b806104b857507f01ffc9a7000000000000000000000000000000000000000000000000000000007fffffffff000000000000000000000000000000000000000000000000000000008316145b92915050565b6060600080546104cd90611c1f565b80601f01602080910402602001604051908101604052809291908181526020018280546104f990611c1f565b80156105465780601f1061051b57610100808354040283529160200191610546565b820191906000526020600020905b81548152906001019060200180831161052957829003601f168201915b5050505050905090565b600061055b82610c22565b5060009081526004602052604090205473ffffffffffffffffffffffffffffffffffffffff1690565b6040517fa6c022e100000000000000000000000000000000000000000000000000000000815260040160405180910390fd5b6105c03382610c96565b6106375760405162461bcd60e51b815260206004820152602d60248201527f4552433732313a2063616c6c6572206973206e6f7420746f6b656e206f776e6560448201527f72206f7220617070726f7665640000000000000000000000000000000000000060648201526084015b60405180910390fd5b610642838383610d55565b505050565b61064283838360405180602001604052806000815250610a5f565b3373ffffffffffffffffffffffffffffffffffffffff7f000000000000000000000000000000000000000000000000000000000000000016146106d1576040517fd59ec5f100000000000000000000000000000000000000000000000000000000815260040160405180910390fd5b6106dd8460075461100f565b6106e9600754826111f5565b6040805180820182526fffffffffffffffffffffffffffffffff858116808352858216602080850182815260078054600090815260088452888120975192518716700100000000000000000000000000000000029290961691909117909555855160608b901b7fffffffffffffffffffffffffffffffffffffffff000000000000000000000000168183015260808a811b7fffffffffffffffffffffffffffffffff00000000000000000000000000000000908116603480850191909152918b901b1660448301528751808303909101815260549091018088528151918301919091208552600990915294909220805460017fffffffffffffffffffffffffffffffffffffffffffffffffffffffffffffff009091161790559154909273ffffffffffffffffffffffffffffffffffffffff8816917fe99bb71c1292f6c5582bdb991b17b829bf9475553170e565d9fedc0a804b751a9161084c91908790611c72565b60405180910390a450506007805460010190555050565b60008181526002602052604081205473ffffffffffffffffffffffffffffffffffffffff16806104b85760405162461bcd60e51b815260206004820152601860248201527f4552433732313a20696e76616c696420746f6b656e2049440000000000000000604482015260640161062e565b600073ffffffffffffffffffffffffffffffffffffffff82166109605760405162461bcd60e51b815260206004820152602960248201527f4552433732313a2061646472657373207a65726f206973206e6f74206120766160448201527f6c6964206f776e65720000000000000000000000000000000000000000000000606482015260840161062e565b5073ffffffffffffffffffffffffffffffffffffffff1660009081526003602052604090205490565b60408051808201909152600080825260208201526109cb8260009081526002602052604090205473ffffffffffffffffffffffffffffffffffffffff16151590565b610a01576040517f3f6cc76800000000000000000000000000000000000000000000000000000000815260040160405180910390fd5b506000908152600860209081526040918290208251808401909352546fffffffffffffffffffffffffffffffff8082168452700100000000000000000000000000000000909104169082015290565b6060600180546104cd90611c1f565b610a693383610c96565b610adb5760405162461bcd60e51b815260206004820152602d60248201527f4552433732313a2063616c6c6572206973206e6f7420746f6b656e206f776e6560448201527f72206f7220617070726f76656400000000000000000000000000000000000000606482015260840161062e565b610ae7848484846111ff565b50505050565b6060610af882610c22565b60008281526006602052604081208054610b1190611c1f565b80601f0160208091040260200160405190810160405280929190818152602001828054610b3d90611c1f565b8015610b8a5780601f10610b5f57610100808354040283529160200191610b8a565b820191906000526020600020905b815481529060010190602001808311610b6d57829003601f168201915b505050505090506000610bcd60408051808201909152601881527f68747470733a2f2f7777772e617277656176652e6e65742f0000000000000000602082015290565b90508051600003610bdf575092915050565b815115610c11578082604051602001610bf9929190611c8b565b60405160208183030381529060405292505050919050565b610c1a84611288565b949350505050565b60008181526002602052604090205473ffffffffffffffffffffffffffffffffffffffff16610c935760405162461bcd60e51b815260206004820152601860248201527f4552433732313a20696e76616c696420746f6b656e2049440000000000000000604482015260640161062e565b50565b600080610ca283610863565b90508073ffffffffffffffffffffffffffffffffffffffff168473ffffffffffffffffffffffffffffffffffffffff161480610d10575073ffffffffffffffffffffffffffffffffffffffff80821660009081526005602090815260408083209388168352929052205460ff165b80610c1a57508373ffffffffffffffffffffffffffffffffffffffff16610d3684610550565b73ffffffffffffffffffffffffffffffffffffffff1614949350505050565b8273ffffffffffffffffffffffffffffffffffffffff16610d7582610863565b73ffffffffffffffffffffffffffffffffffffffff1614610dfe5760405162461bcd60e51b815260206004820152602560248201527f4552433732313a207472616e736665722066726f6d20696e636f72726563742060448201527f6f776e6572000000000000000000000000000000000000000000000000000000606482015260840161062e565b73ffffffffffffffffffffffffffffffffffffffff8216610e865760405162461bcd60e51b8152602060048201526024808201527f4552433732313a207472616e7366657220746f20746865207a65726f2061646460448201527f7265737300000000000000000000000000000000000000000000000000000000606482015260840161062e565b610e938383836001611321565b8273ffffffffffffffffffffffffffffffffffffffff16610eb382610863565b73ffffffffffffffffffffffffffffffffffffffff1614610f3c5760405162461bcd60e51b815260206004820152602560248201527f4552433732313a207472616e736665722066726f6d20696e636f72726563742060448201527f6f776e6572000000000000000000000000000000000000000000000000000000606482015260840161062e565b600081815260046020908152604080832080547fffffffffffffffffffffffff000000000000000000000000000000000000000090811690915573ffffffffffffffffffffffffffffffffffffffff8781168086526003855283862080547fffffffffffffffffffffffffffffffffffffffffffffffffffffffffffffffff01905590871680865283862080546001019055868652600290945282852080549092168417909155905184937fddf252ad1be2c89b69c2b068fc378daa952ba7f163c4a11628f55a4df523b3ef91a4505050565b73ffffffffffffffffffffffffffffffffffffffff82166110725760405162461bcd60e51b815260206004820181905260248201527f4552433732313a206d696e7420746f20746865207a65726f2061646472657373604482015260640161062e565b60008181526002602052604090205473ffffffffffffffffffffffffffffffffffffffff16156110e45760405162461bcd60e51b815260206004820152601c60248201527f4552433732313a20746f6b656e20616c7265616479206d696e74656400000000604482015260640161062e565b6110f2600083836001611321565b60008181526002602052604090205473ffffffffffffffffffffffffffffffffffffffff16156111645760405162461bcd60e51b815260206004820152601c60248201527f4552433732313a20746f6b656e20616c7265616479206d696e74656400000000604482015260640161062e565b73ffffffffffffffffffffffffffffffffffffffff8216600081815260036020908152604080832080546001019055848352600290915280822080547fffffffffffffffffffffffff0000000000000000000000000000000000000000168417905551839291907fddf252ad1be2c89b69c2b068fc378daa952ba7f163c4a11628f55a4df523b3ef908290a45b5050565b6111f1828261139e565b61120a848484610d55565b6112168484848461144d565b610ae75760405162461bcd60e51b815260206004820152603260248201527f4552433732313a207472616e7366657220746f206e6f6e20455243373231526560448201527f63656976657220696d706c656d656e7465720000000000000000000000000000606482015260840161062e565b606061129382610c22565b60006112cf60408051808201909152601881527f68747470733a2f2f7777772e617277656176652e6e65742f0000000000000000602082015290565b905060008151116112ef576040518060200160405280600081525061131a565b806112f984611608565b60405160200161130a929190611c8b565b6040516020818303038152906040525b9392505050565b73ffffffffffffffffffffffffffffffffffffffff84161580159061135b575073ffffffffffffffffffffffffffffffffffffffff831615155b15611392576040517f1b5722f500000000000000000000000000000000000000000000000000000000815260040160405180910390fd5b610ae7848484846116c6565b60008281526002602052604090205473ffffffffffffffffffffffffffffffffffffffff166114355760405162461bcd60e51b815260206004820152602e60248201527f45524337323155524953746f726167653a2055524920736574206f66206e6f6e60448201527f6578697374656e7420746f6b656e000000000000000000000000000000000000606482015260840161062e565b60008281526006602052604090206106428282611d08565b600073ffffffffffffffffffffffffffffffffffffffff84163b156115fd576040517f150b7a0200000000000000000000000000000000000000000000000000000000815273ffffffffffffffffffffffffffffffffffffffff85169063150b7a02906114c4903390899088908890600401611e04565b6020604051808303816000875af19250505080156114ff575060408051601f3d908101601f191682019092526114fc91810190611e4d565b60015b6115b2573d80801561152d576040519150601f19603f3d011682016040523d82523d6000602084013e611532565b606091505b5080516000036115aa5760405162461bcd60e51b815260206004820152603260248201527f4552433732313a207472616e7366657220746f206e6f6e20455243373231526560448201527f63656976657220696d706c656d656e7465720000000000000000000000000000606482015260840161062e565b805181602001fd5b7fffffffff00000000000000000000000000000000000000000000000000000000167f150b7a0200000000000000000000000000000000000000000000000000000000149050610c1a565b506001949350505050565b6060600061161583611782565b600101905060008167ffffffffffffffff81111561163557611635611a1d565b6040519080825280601f01601f19166020018201604052801561165f576020820181803683370190505b5090508181016020015b7fffffffffffffffffffffffffffffffffffffffffffffffffffffffffffffffff017f3031323334353637383961626364656600000000000000000000000000000000600a86061a8153600a850494508461166957509392505050565b6001811115610ae75773ffffffffffffffffffffffffffffffffffffffff8416156117265773ffffffffffffffffffffffffffffffffffffffff841660009081526003602052604081208054839290611720908490611e99565b90915550505b73ffffffffffffffffffffffffffffffffffffffff831615610ae75773ffffffffffffffffffffffffffffffffffffffff831660009081526003602052604081208054839290611777908490611eac565b909155505050505050565b6000807a184f03e93ff9f4daa797ed6e38ed64bf6a1f01000000000000000083106117cb577a184f03e93ff9f4daa797ed6e38ed64bf6a1f010000000000000000830492506040015b6d04ee2d6d415b85acef810000000083106117f7576d04ee2d6d415b85acef8100000000830492506020015b662386f26fc10000831061181557662386f26fc10000830492506010015b6305f5e100831061182d576305f5e100830492506008015b612710831061184157612710830492506004015b60648310611853576064830492506002015b600a83106104b85760010192915050565b7fffffffff0000000000000000000000000000000000000000000000000000000081168114610c9357600080fd5b6000602082840312156118a457600080fd5b813561131a81611864565b60005b838110156118ca5781810151838201526020016118b2565b50506000910152565b600081518084526118eb8160208601602086016118af565b601f01601f19169290920160200192915050565b60208152600061131a60208301846118d3565b60006020828403121561192457600080fd5b5035919050565b803573ffffffffffffffffffffffffffffffffffffffff8116811461194f57600080fd5b919050565b6000806040838503121561196757600080fd5b6119708361192b565b946020939093013593505050565b60008060006060848603121561199357600080fd5b61199c8461192b565b92506119aa6020850161192b565b9150604084013590509250925092565b80356fffffffffffffffffffffffffffffffff8116811461194f57600080fd5b6000806000606084860312156119ef57600080fd5b6119f88461192b565b9250611a06602085016119ba565b9150611a14604085016119ba565b90509250925092565b7f4e487b7100000000000000000000000000000000000000000000000000000000600052604160045260246000fd5b600067ffffffffffffffff80841115611a6757611a67611a1d565b604051601f8501601f19908116603f01168101908282118183101715611a8f57611a8f611a1d565b81604052809350858152868686011115611aa857600080fd5b858560208301376000602087830101525050509392505050565b60008060008060808587031215611ad857600080fd5b611ae18561192b565b9350611aef602086016119ba565b9250611afd604086016119ba565b9150606085013567ffffffffffffffff811115611b1957600080fd5b8501601f81018713611b2a57600080fd5b611b3987823560208401611a4c565b91505092959194509250565b600060208284031215611b5757600080fd5b61131a8261192b565b60008060408385031215611b7357600080fd5b611b7c8361192b565b915060208301358015158114611b9157600080fd5b809150509250929050565b60008060008060808587031215611bb257600080fd5b611bbb8561192b565b9350611bc96020860161192b565b925060408501359150606085013567ffffffffffffffff811115611b1957600080fd5b60008060408385031215611bff57600080fd5b611c088361192b565b9150611c166020840161192b565b90509250929050565b600181811c90821680611c3357607f821691505b602082108103611c6c577f4e487b7100000000000000000000000000000000000000000000000000000000600052602260045260246000fd5b50919050565b828152604060208201526000610c1a60408301846118d3565b60008351611c9d8184602088016118af565b835190830190611cb18183602088016118af565b01949350505050565b601f82111561064257600081815260208120601f850160051c81016020861015611ce15750805b601f850160051c820191505b81811015611d0057828155600101611ced565b505050505050565b815167ffffffffffffffff811115611d2257611d22611a1d565b611d3681611d308454611c1f565b84611cba565b602080601f831160018114611d895760008415611d535750858301515b7fffffffffffffffffffffffffffffffffffffffffffffffffffffffffffffffff600386901b1c1916600185901b178555611d00565b600085815260208120601f198616915b82811015611db857888601518255948401946001909101908401611d99565b5085821015611df457878501517fffffffffffffffffffffffffffffffffffffffffffffffffffffffffffffffff600388901b60f8161c191681555b5050505050600190811b01905550565b600073ffffffffffffffffffffffffffffffffffffffff808716835280861660208401525083604083015260806060830152611e4360808301846118d3565b9695505050505050565b600060208284031215611e5f57600080fd5b815161131a81611864565b7f4e487b7100000000000000000000000000000000000000000000000000000000600052601160045260246000fd5b818103818111156104b8576104b8611e6a565b808201808211156104b8576104b8611e6a56fea2646970667358221220f67652611c534a16a7c4dc27820b7dae43c97f552904dfbd4b8644f5ebf4fc7664736f6c63430008110033",
  "linkReferences": {},
  "deployedLinkReferences": {}
}