{
  "_format": "hh-sol-artifact-1",
  "contractName": "KeyMinterV1",
  "sourceName": "contracts/KeyMinterV1.sol",
  "abi": [
    {
      "inputs": [],
      "stateMutability": "nonpayable",
      "type": "constructor"
    },
    {
      "inputs": [],
      "name": "AddressAlreadyRegistered",
      "type": "error"
    },
    {
      "inputs": [],
      "name": "CanNotApprove",
      "type": "error"
    },
    {
      "inputs": [],
      "name": "CanNotTransfer",
      "type": "error"
    },
    {
      "inputs": [],
      "name": "ExceedMaxContributionPerMint",
      "type": "error"
    },
    {
      "inputs": [],
      "name": "ExceedMaxContributionPerUser",
      "type": "error"
    },
    {
      "inputs": [],
      "name": "ExceedMaxTotalContribution",
      "type": "error"
    },
    {
      "inputs": [],
      "name": "InvalidAddress",
      "type": "error"
    },
    {
      "inputs": [],
      "name": "InvalidListLength",
      "type": "error"
    },
    {
      "inputs": [],
      "name": "InvalidProtoship",
      "type": "error"
    },
    {
      "inputs": [],
      "name": "InvalidSignature",
      "type": "error"
    },
    {
      "inputs": [],
      "name": "InvalidTokenId",
      "type": "error"
    },
    {
      "inputs": [],
      "name": "InvalidTokenURI",
      "type": "error"
    },
    {
      "inputs": [],
      "name": "NotDuringRefundPeriod",
      "type": "error"
    },
    {
      "inputs": [],
      "name": "NotWhiteListed",
      "type": "error"
    },
    {
      "inputs": [],
      "name": "OnlyDuringRefundPeriod",
      "type": "error"
    },
    {
      "inputs": [],
      "name": "OnlyExistingToken",
      "type": "error"
    },
    {
      "inputs": [],
      "name": "OnlyLockedToken",
      "type": "error"
    },
    {
      "inputs": [],
      "name": "OnlyNFTOwner",
      "type": "error"
    },
    {
      "inputs": [],
      "name": "OnlyOneProtoshipAtATime",
      "type": "error"
    },
    {
      "inputs": [],
      "name": "OnlySpaceFactory",
      "type": "error"
    },
    {
      "inputs": [],
      "name": "OnlySpaceFactoryOrOwner",
      "type": "error"
    },
    {
      "inputs": [],
      "name": "OnlySpaceshipOwner",
      "type": "error"
    },
    {
      "inputs": [],
      "name": "ReachedMaxSupply",
      "type": "error"
    },
    {
      "inputs": [],
      "name": "TokenAlreadyMinted",
      "type": "error"
    },
    {
      "inputs": [],
      "name": "TokenLocked",
      "type": "error"
    },
    {
      "anonymous": false,
      "inputs": [
        {
          "indexed": false,
          "internalType": "address",
          "name": "previousAdmin",
          "type": "address"
        },
        {
          "indexed": false,
          "internalType": "address",
          "name": "newAdmin",
          "type": "address"
        }
      ],
      "name": "AdminChanged",
      "type": "event"
    },
    {
      "anonymous": false,
      "inputs": [
        {
          "indexed": true,
          "internalType": "address",
          "name": "beacon",
          "type": "address"
        }
      ],
      "name": "BeaconUpgraded",
      "type": "event"
    },
    {
      "anonymous": false,
      "inputs": [],
      "name": "EIP712DomainChanged",
      "type": "event"
    },
    {
      "anonymous": false,
      "inputs": [
        {
          "indexed": false,
          "internalType": "uint8",
          "name": "version",
          "type": "uint8"
        }
      ],
      "name": "Initialized",
      "type": "event"
    },
    {
      "anonymous": false,
      "inputs": [
        {
          "indexed": true,
          "internalType": "address",
          "name": "user",
          "type": "address"
        },
        {
          "indexed": false,
          "internalType": "uint256",
          "name": "amount",
          "type": "uint256"
        }
      ],
      "name": "Refund",
      "type": "event"
    },
    {
      "anonymous": false,
      "inputs": [
        {
          "indexed": true,
          "internalType": "bytes32",
          "name": "role",
          "type": "bytes32"
        },
        {
          "indexed": true,
          "internalType": "bytes32",
          "name": "previousAdminRole",
          "type": "bytes32"
        },
        {
          "indexed": true,
          "internalType": "bytes32",
          "name": "newAdminRole",
          "type": "bytes32"
        }
      ],
      "name": "RoleAdminChanged",
      "type": "event"
    },
    {
      "anonymous": false,
      "inputs": [
        {
          "indexed": true,
          "internalType": "bytes32",
          "name": "role",
          "type": "bytes32"
        },
        {
          "indexed": true,
          "internalType": "address",
          "name": "account",
          "type": "address"
        },
        {
          "indexed": true,
          "internalType": "address",
          "name": "sender",
          "type": "address"
        }
      ],
      "name": "RoleGranted",
      "type": "event"
    },
    {
      "anonymous": false,
      "inputs": [
        {
          "indexed": true,
          "internalType": "bytes32",
          "name": "role",
          "type": "bytes32"
        },
        {
          "indexed": true,
          "internalType": "address",
          "name": "account",
          "type": "address"
        },
        {
          "indexed": true,
          "internalType": "address",
          "name": "sender",
          "type": "address"
        }
      ],
      "name": "RoleRevoked",
      "type": "event"
    },
    {
      "anonymous": false,
      "inputs": [
        {
          "indexed": false,
          "internalType": "bool",
          "name": "isRefundEnabled",
          "type": "bool"
        }
      ],
      "name": "SetIsRefundEnabled",
      "type": "event"
    },
    {
      "anonymous": false,
      "inputs": [
        {
          "indexed": false,
          "internalType": "uint128",
          "name": "maxContributionPerUser",
          "type": "uint128"
        }
      ],
      "name": "SetMaxContributionPerUser",
      "type": "event"
    },
    {
      "anonymous": false,
      "inputs": [
        {
          "indexed": false,
          "internalType": "uint128[]",
          "name": "maxContributionSchedulePerMint",
          "type": "uint128[]"
        }
      ],
      "name": "SetMaxContributionSchedulePerMint",
      "type": "event"
    },
    {
      "anonymous": false,
      "inputs": [
        {
          "indexed": false,
          "internalType": "uint256",
          "name": "maxTotalContribution",
          "type": "uint256"
        }
      ],
      "name": "SetMaxTotalContribution",
      "type": "event"
    },
    {
      "anonymous": false,
      "inputs": [
        {
          "indexed": false,
          "internalType": "address",
          "name": "serviceAdmin",
          "type": "address"
        }
      ],
      "name": "SetServiceAdmin",
      "type": "event"
    },
    {
      "anonymous": false,
      "inputs": [
        {
          "indexed": false,
          "internalType": "address",
          "name": "contractAddress",
          "type": "address"
        }
      ],
      "name": "SetTokenBoundImplementation",
      "type": "event"
    },
    {
      "anonymous": false,
      "inputs": [
        {
          "indexed": false,
          "internalType": "address",
          "name": "contractAddress",
          "type": "address"
        }
      ],
      "name": "SetTokenBoundRegistry",
      "type": "event"
    },
    {
      "anonymous": false,
      "inputs": [
        {
          "indexed": false,
          "internalType": "address",
          "name": "vault",
          "type": "address"
        }
      ],
      "name": "SetVault",
      "type": "event"
    },
    {
      "anonymous": false,
      "inputs": [
        {
          "indexed": true,
          "internalType": "address",
          "name": "implementation",
          "type": "address"
        }
      ],
      "name": "Upgraded",
      "type": "event"
    },
    {
      "inputs": [],
      "name": "DEFAULT_ADMIN_ROLE",
      "outputs": [
        {
          "internalType": "bytes32",
          "name": "",
          "type": "bytes32"
        }
      ],
      "stateMutability": "view",
      "type": "function"
    },
    {
      "inputs": [],
      "name": "DOMAIN_SEPARATOR",
      "outputs": [
        {
          "internalType": "bytes32",
          "name": "",
          "type": "bytes32"
        }
      ],
      "stateMutability": "view",
      "type": "function"
    },
    {
      "inputs": [],
      "name": "KEY_BATCH_MINT_PARAMS_TYPEHASH",
      "outputs": [
        {
          "internalType": "bytes32",
          "name": "",
          "type": "bytes32"
        }
      ],
      "stateMutability": "view",
      "type": "function"
    },
    {
      "inputs": [],
      "name": "KEY_MINT_PARAMS_TYPEHASH",
      "outputs": [
        {
          "internalType": "bytes32",
          "name": "",
          "type": "bytes32"
        }
      ],
      "stateMutability": "view",
      "type": "function"
    },
    {
      "inputs": [],
      "name": "OPERATOR_ROLE",
      "outputs": [
        {
          "internalType": "bytes32",
          "name": "",
          "type": "bytes32"
        }
      ],
      "stateMutability": "view",
      "type": "function"
    },
    {
      "inputs": [
        {
          "internalType": "address",
          "name": "profileContractAddress",
          "type": "address"
        },
        {
          "internalType": "uint256",
          "name": "profileTokenId",
          "type": "uint256"
        },
        {
          "internalType": "uint256",
          "name": "spaceshipTokenId",
          "type": "uint256"
        },
        {
          "internalType": "uint256[]",
          "name": "keyTokenIds",
          "type": "uint256[]"
        },
        {
          "internalType": "bytes",
          "name": "signature",
          "type": "bytes"
        }
      ],
      "name": "batchMintKey",
      "outputs": [],
      "stateMutability": "payable",
      "type": "function"
    },
    {
      "inputs": [],
      "name": "currentTotalContribution",
      "outputs": [
        {
          "internalType": "uint256",
          "name": "",
          "type": "uint256"
        }
      ],
      "stateMutability": "view",
      "type": "function"
    },
    {
      "inputs": [],
      "name": "eip712Domain",
      "outputs": [
        {
          "internalType": "bytes1",
          "name": "fields",
          "type": "bytes1"
        },
        {
          "internalType": "string",
          "name": "name",
          "type": "string"
        },
        {
          "internalType": "string",
          "name": "version",
          "type": "string"
        },
        {
          "internalType": "uint256",
          "name": "chainId",
          "type": "uint256"
        },
        {
          "internalType": "address",
          "name": "verifyingContract",
          "type": "address"
        },
        {
          "internalType": "bytes32",
          "name": "salt",
          "type": "bytes32"
        },
        {
          "internalType": "uint256[]",
          "name": "extensions",
          "type": "uint256[]"
        }
      ],
      "stateMutability": "view",
      "type": "function"
    },
    {
      "inputs": [
        {
          "internalType": "bytes32",
          "name": "role",
          "type": "bytes32"
        }
      ],
      "name": "getRoleAdmin",
      "outputs": [
        {
          "internalType": "bytes32",
          "name": "",
          "type": "bytes32"
        }
      ],
      "stateMutability": "view",
      "type": "function"
    },
    {
      "inputs": [
        {
          "components": [
            {
              "internalType": "address",
              "name": "profileContractAddress",
              "type": "address"
            },
            {
              "internalType": "uint256",
              "name": "profileTokenId",
              "type": "uint256"
            },
            {
              "internalType": "uint256",
              "name": "spaceshipTokenId",
              "type": "uint256"
            },
            {
              "internalType": "uint256",
              "name": "keyTokenId",
              "type": "uint256"
            },
            {
              "internalType": "uint256",
              "name": "contribution",
              "type": "uint256"
            }
          ],
          "internalType": "struct KeyMinterV1.KeyMintParams",
          "name": "keyMintParams",
          "type": "tuple"
        },
        {
          "internalType": "bytes",
          "name": "signature",
          "type": "bytes"
        }
      ],
      "name": "getSigner",
      "outputs": [
        {
          "internalType": "address",
          "name": "",
          "type": "address"
        }
      ],
      "stateMutability": "view",
      "type": "function"
    },
    {
      "inputs": [
        {
          "components": [
            {
              "internalType": "address",
              "name": "profileContractAddress",
              "type": "address"
            },
            {
              "internalType": "uint256",
              "name": "profileTokenId",
              "type": "uint256"
            },
            {
              "internalType": "uint256",
              "name": "spaceshipTokenId",
              "type": "uint256"
            },
            {
              "internalType": "uint256[]",
              "name": "keyTokenIds",
              "type": "uint256[]"
            },
            {
              "internalType": "uint256",
              "name": "contribution",
              "type": "uint256"
            }
          ],
          "internalType": "struct KeyMinterV1.KeyBatchMintParams",
          "name": "keyBatchMintParams",
          "type": "tuple"
        },
        {
          "internalType": "bytes",
          "name": "signature",
          "type": "bytes"
        }
      ],
      "name": "getSigner",
      "outputs": [
        {
          "internalType": "address",
          "name": "",
          "type": "address"
        }
      ],
      "stateMutability": "view",
      "type": "function"
    },
    {
      "inputs": [
        {
          "internalType": "address",
          "name": "user",
          "type": "address"
        }
      ],
      "name": "getUserContribution",
      "outputs": [
        {
          "internalType": "uint128",
          "name": "",
          "type": "uint128"
        }
      ],
      "stateMutability": "view",
      "type": "function"
    },
    {
      "inputs": [
        {
          "internalType": "address",
          "name": "user",
          "type": "address"
        }
      ],
      "name": "getUserMintCount",
      "outputs": [
        {
          "internalType": "uint128",
          "name": "",
          "type": "uint128"
        }
      ],
      "stateMutability": "view",
      "type": "function"
    },
    {
      "inputs": [
        {
          "internalType": "bytes32",
          "name": "role",
          "type": "bytes32"
        },
        {
          "internalType": "address",
          "name": "account",
          "type": "address"
        }
      ],
      "name": "grantRole",
      "outputs": [],
      "stateMutability": "nonpayable",
      "type": "function"
    },
    {
      "inputs": [
        {
          "internalType": "bytes32",
          "name": "role",
          "type": "bytes32"
        },
        {
          "internalType": "address",
          "name": "account",
          "type": "address"
        }
      ],
      "name": "hasRole",
      "outputs": [
        {
          "internalType": "bool",
          "name": "",
          "type": "bool"
        }
      ],
      "stateMutability": "view",
      "type": "function"
    },
    {
      "inputs": [
        {
          "internalType": "address payable",
          "name": "_vault",
          "type": "address"
        },
        {
          "internalType": "address",
          "name": "defaultAdmin",
          "type": "address"
        },
        {
          "internalType": "address",
          "name": "operator",
          "type": "address"
        },
        {
          "internalType": "address",
          "name": "_serviceAdmin",
          "type": "address"
        },
        {
          "internalType": "contract ISpaceshipUniverse1",
          "name": "_spaceshipUniverse1",
          "type": "address"
        },
        {
          "internalType": "contract IERC6551Registry",
          "name": "_tokenBoundRegistry",
          "type": "address"
        },
        {
          "internalType": "contract IERC6551Account",
          "name": "_tokenBoundImplementation",
          "type": "address"
        }
      ],
      "name": "initialize",
      "outputs": [],
      "stateMutability": "nonpayable",
      "type": "function"
    },
    {
      "inputs": [],
      "name": "isRefundEnabled",
      "outputs": [
        {
          "internalType": "bool",
          "name": "",
          "type": "bool"
        }
      ],
      "stateMutability": "view",
      "type": "function"
    },
    {
      "inputs": [],
      "name": "keyUniverse1",
      "outputs": [
        {
          "internalType": "contract KeyUniverse1",
          "name": "",
          "type": "address"
        }
      ],
      "stateMutability": "view",
      "type": "function"
    },
    {
      "inputs": [],
      "name": "maxContributionPerUser",
      "outputs": [
        {
          "internalType": "uint128",
          "name": "",
          "type": "uint128"
        }
      ],
      "stateMutability": "view",
      "type": "function"
    },
    {
      "inputs": [
        {
          "internalType": "uint256",
          "name": "",
          "type": "uint256"
        }
      ],
      "name": "maxContributionSchedulePerMint",
      "outputs": [
        {
          "internalType": "uint128",
          "name": "",
          "type": "uint128"
        }
      ],
      "stateMutability": "view",
      "type": "function"
    },
    {
      "inputs": [],
      "name": "maxTotalContribution",
      "outputs": [
        {
          "internalType": "uint256",
          "name": "",
          "type": "uint256"
        }
      ],
      "stateMutability": "view",
      "type": "function"
    },
    {
      "inputs": [
        {
          "internalType": "address",
          "name": "profileContractAddress",
          "type": "address"
        },
        {
          "internalType": "uint256",
          "name": "profileTokenId",
          "type": "uint256"
        },
        {
          "internalType": "uint256",
          "name": "spaceshipTokenId",
          "type": "uint256"
        },
        {
          "internalType": "uint256",
          "name": "keyTokenId",
          "type": "uint256"
        },
        {
          "internalType": "bytes",
          "name": "signature",
          "type": "bytes"
        }
      ],
      "name": "mintKey",
      "outputs": [],
      "stateMutability": "payable",
      "type": "function"
    },
    {
      "inputs": [],
      "name": "proxiableUUID",
      "outputs": [
        {
          "internalType": "bytes32",
          "name": "",
          "type": "bytes32"
        }
      ],
      "stateMutability": "view",
      "type": "function"
    },
    {
      "inputs": [],
      "name": "refund",
      "outputs": [],
      "stateMutability": "nonpayable",
      "type": "function"
    },
    {
      "inputs": [
        {
          "internalType": "bytes32",
          "name": "role",
          "type": "bytes32"
        },
        {
          "internalType": "address",
          "name": "account",
          "type": "address"
        }
      ],
      "name": "renounceRole",
      "outputs": [],
      "stateMutability": "nonpayable",
      "type": "function"
    },
    {
      "inputs": [
        {
          "internalType": "bytes32",
          "name": "role",
          "type": "bytes32"
        },
        {
          "internalType": "address",
          "name": "account",
          "type": "address"
        }
      ],
      "name": "revokeRole",
      "outputs": [],
      "stateMutability": "nonpayable",
      "type": "function"
    },
    {
      "inputs": [],
      "name": "serviceAdmin",
      "outputs": [
        {
          "internalType": "address",
          "name": "",
          "type": "address"
        }
      ],
      "stateMutability": "view",
      "type": "function"
    },
    {
      "inputs": [
        {
          "internalType": "bool",
          "name": "_isRefundEnabled",
          "type": "bool"
        }
      ],
      "name": "setIsRefundEnabled",
      "outputs": [],
      "stateMutability": "nonpayable",
      "type": "function"
    },
    {
      "inputs": [
        {
          "internalType": "uint128",
          "name": "_maxContributionPerUser",
          "type": "uint128"
        }
      ],
      "name": "setMaxContributionPerUser",
      "outputs": [],
      "stateMutability": "nonpayable",
      "type": "function"
    },
    {
      "inputs": [
        {
          "internalType": "uint128[]",
          "name": "_maxContributionSchedulePerMint",
          "type": "uint128[]"
        }
      ],
      "name": "setMaxContributionSchedulePerMint",
      "outputs": [],
      "stateMutability": "nonpayable",
      "type": "function"
    },
    {
      "inputs": [
        {
          "internalType": "uint256",
          "name": "_maxTotalContribution",
          "type": "uint256"
        }
      ],
      "name": "setMaxTotalContribution",
      "outputs": [],
      "stateMutability": "nonpayable",
      "type": "function"
    },
    {
      "inputs": [
        {
          "internalType": "address",
          "name": "_serviceAdmin",
          "type": "address"
        }
      ],
      "name": "setServiceAdmin",
      "outputs": [],
      "stateMutability": "nonpayable",
      "type": "function"
    },
    {
      "inputs": [
        {
          "internalType": "contract IERC6551Account",
          "name": "contractAddress",
          "type": "address"
        }
      ],
      "name": "setTokenBoundImplementation",
      "outputs": [],
      "stateMutability": "nonpayable",
      "type": "function"
    },
    {
      "inputs": [
        {
          "internalType": "contract IERC6551Registry",
          "name": "contractAddress",
          "type": "address"
        }
      ],
      "name": "setTokenBoundRegistry",
      "outputs": [],
      "stateMutability": "nonpayable",
      "type": "function"
    },
    {
      "inputs": [
        {
          "internalType": "address payable",
          "name": "_vault",
          "type": "address"
        }
      ],
      "name": "setVault",
      "outputs": [],
      "stateMutability": "nonpayable",
      "type": "function"
    },
    {
      "inputs": [],
      "name": "spaceshipUniverse1",
      "outputs": [
        {
          "internalType": "contract ISpaceshipUniverse1",
          "name": "",
          "type": "address"
        }
      ],
      "stateMutability": "view",
      "type": "function"
    },
    {
      "inputs": [
        {
          "internalType": "bytes4",
          "name": "interfaceId",
          "type": "bytes4"
        }
      ],
      "name": "supportsInterface",
      "outputs": [
        {
          "internalType": "bool",
          "name": "",
          "type": "bool"
        }
      ],
      "stateMutability": "view",
      "type": "function"
    },
    {
      "inputs": [],
      "name": "tokenBoundImplementation",
      "outputs": [
        {
          "internalType": "contract IERC6551Account",
          "name": "",
          "type": "address"
        }
      ],
      "stateMutability": "view",
      "type": "function"
    },
    {
      "inputs": [],
      "name": "tokenBoundRegistry",
      "outputs": [
        {
          "internalType": "contract IERC6551Registry",
          "name": "",
          "type": "address"
        }
      ],
      "stateMutability": "view",
      "type": "function"
    },
    {
      "inputs": [
        {
          "internalType": "address",
          "name": "newImplementation",
          "type": "address"
        }
      ],
      "name": "upgradeTo",
      "outputs": [],
      "stateMutability": "nonpayable",
      "type": "function"
    },
    {
      "inputs": [
        {
          "internalType": "address",
          "name": "newImplementation",
          "type": "address"
        },
        {
          "internalType": "bytes",
          "name": "data",
          "type": "bytes"
        }
      ],
      "name": "upgradeToAndCall",
      "outputs": [],
      "stateMutability": "payable",
      "type": "function"
    },
    {
      "inputs": [],
      "name": "vault",
      "outputs": [
        {
          "internalType": "address payable",
          "name": "",
          "type": "address"
        }
      ],
      "stateMutability": "view",
      "type": "function"
    },
    {
      "stateMutability": "payable",
      "type": "receive"
    }
  ],
  "bytecode": "0x60a0604052306080523480156200001557600080fd5b506200002062000026565b620000e7565b600054610100900460ff1615620000935760405162461bcd60e51b815260206004820152602760248201527f496e697469616c697a61626c653a20636f6e747261637420697320696e697469604482015266616c697a696e6760c81b606482015260840160405180910390fd5b60005460ff90811614620000e5576000805460ff191660ff9081179091556040519081527f7f26b83ff96e1f2b6a682f133852f6798a09c465da95921460cefb38474024989060200160405180910390a15b565b6080516174c46200011f6000396000818161132d015281816113c5015281816114d30152818161156b0152611d3701526174c46000f3fe6080604052600436106200030f5760003560e01c80636d7b0ebb1162000197578063abea62de11620000e7578063d547741f1162000095578063f5b541a6116200006c578063f5b541a6146200099e578063fbfa77cf14620009d4578063fdf250df14620009f757600080fd5b8063d547741f1462000920578063da998dca1462000945578063ef575fab146200096857600080fd5b8063bb8b2b4711620000ca578063bb8b2b471462000889578063bf61e28214620008d6578063c4ea8da014620008fb57600080fd5b8063abea62de1462000859578063b20da07e146200087057600080fd5b80638746475a11620001455780639d24566911620001285780639d24566914620007fc5780639f41d070146200081f578063a217fddf146200084257600080fd5b80638746475a146200079557806391d1485414620007b257600080fd5b80637852dbc0116200017a5780637852dbc014620007175780637bda3466146200074357806384b0196e146200076857600080fd5b80636d7b0ebb14620006cd5780637818148214620006f257600080fd5b80633659cfe6116200025f57806352d1902d116200020d57806359d4fb5311620001e457806359d4fb5314620006605780636817031b14620006855780636aa4e67614620006aa57600080fd5b806352d1902d14620005ad57806356874e0a14620005c5578063590e1ae3146200064857600080fd5b80634f1ef28611620002425780634f1ef286146200055a5780635239ba97146200057157806352c0e4ea146200058857600080fd5b80633659cfe614620004ff5780634d8edd05146200052457600080fd5b80632f2ff15d11620002bd5780633587647611620002a057806335876476146200049d5780633644e51514620004c257806336568abe14620004da57600080fd5b80632f2ff15d146200045f57806334dff4f9146200048457600080fd5b80630b0a576011620002f25780630b0a576014620003d25780631f3cae0714620003f7578063248a9ca3146200041c57600080fd5b806301ffc9a7146200035a57806307051b9a146200039457600080fd5b3662000355576101395460ff1662000353576040517fa6b4476c00000000000000000000000000000000000000000000000000000000815260040160405180910390fd5b005b600080fd5b3480156200036757600080fd5b506200037f6200037936600462003a10565b62000a1a565b60405190151581526020015b60405180910390f35b348015620003a157600080fd5b50620003b9620003b336600462003b70565b62000ab4565b6040516001600160a01b0390911681526020016200038b565b348015620003df57600080fd5b5062000353620003f136600462003c0f565b62000b73565b3480156200040457600080fd5b50620003536200041636600462003c0f565b62000c30565b3480156200042957600080fd5b50620004506200043b36600462003c2f565b600090815260c9602052604090206001015490565b6040519081526020016200038b565b3480156200046c57600080fd5b50620003536200047e36600462003c49565b62000ce6565b3480156200049157600080fd5b50620004506101385481565b348015620004aa57600080fd5b5062000353620004bc36600462003c7c565b62000d14565b348015620004cf57600080fd5b506200045062001282565b348015620004e757600080fd5b5062000353620004f936600462003c49565b62001293565b3480156200050c57600080fd5b50620003536200051e36600462003c0f565b62001323565b3480156200053157600080fd5b50620004507fb7dfa2995b71a966a3c8c74f9690c557b4cb27615a83dc6cec095b66692a4d4181565b620003536200056b36600462003d21565b620014c9565b620003536200058236600462003dee565b6200165c565b3480156200059557600080fd5b50620003b9620005a736600462003e81565b62001c83565b348015620005ba57600080fd5b506200045062001d2a565b348015620005d257600080fd5b5062000626620005e436600462003c0f565b6001600160a01b0316600090815261013a602052604090205470010000000000000000000000000000000090046fffffffffffffffffffffffffffffffff1690565b6040516fffffffffffffffffffffffffffffffff90911681526020016200038b565b3480156200065557600080fd5b506200035362001df1565b3480156200066d57600080fd5b50620006266200067f36600462003c2f565b62001ef6565b3480156200069257600080fd5b5062000353620006a436600462003c0f565b62001f3e565b348015620006b757600080fd5b5061013354620003b9906001600160a01b031681565b348015620006da57600080fd5b5062000353620006ec36600462003f71565b62001fb3565b348015620006ff57600080fd5b50620003536200071136600462003c0f565b62002050565b3480156200072457600080fd5b506101365462000626906fffffffffffffffffffffffffffffffff1681565b3480156200075057600080fd5b50620003536200076236600462003f8f565b620020e4565b3480156200077557600080fd5b506200078062002158565b6040516200038b979695949392919062004086565b348015620007a257600080fd5b50610139546200037f9060ff1681565b348015620007bf57600080fd5b506200037f620007d136600462003c49565b600091825260c9602090815260408084206001600160a01b0393909316845291905290205460ff1690565b3480156200080957600080fd5b5061013254620003b9906001600160a01b031681565b3480156200082c57600080fd5b5061013154620003b9906001600160a01b031681565b3480156200084f57600080fd5b5062000450600081565b620003536200086a3660046200413e565b62002221565b3480156200087d57600080fd5b50620004506101375481565b3480156200089657600080fd5b5062000626620008a836600462003c0f565b6001600160a01b0316600090815261013a60205260409020546fffffffffffffffffffffffffffffffff1690565b348015620008e357600080fd5b5062000353620008f536600462003c2f565b62002801565b3480156200090857600080fd5b50620003536200091a366004620041a4565b62002864565b3480156200092d57600080fd5b50620003536200093f36600462003c49565b620028d2565b3480156200095257600080fd5b5061013054620003b9906001600160a01b031681565b3480156200097557600080fd5b50620004507f85876679bb13db0550081eb6c1d7387ccd9f282f25633492e066e1fe7dbb671781565b348015620009ab57600080fd5b50620004507f97667070c54ef182b0f5858b034beac1b6f3089aa2d3188bb1e8929f4fa9b92981565b348015620009e157600080fd5b5061012f54620003b9906001600160a01b031681565b34801562000a0457600080fd5b5061013454620003b9906001600160a01b031681565b60007fffffffff0000000000000000000000000000000000000000000000000000000082167f7965db0b00000000000000000000000000000000000000000000000000000000148062000aae57507f01ffc9a7000000000000000000000000000000000000000000000000000000007fffffffff000000000000000000000000000000000000000000000000000000008316145b92915050565b6000807fb7dfa2995b71a966a3c8c74f9690c557b4cb27615a83dc6cec095b66692a4d418460000151856020015186604001518760600151886080015160405160200162000b33969594939291909586526001600160a01b0394909416602086015260408501929092526060840152608083015260a082015260c00190565b604051602081830303815290604052805190602001209050600062000b5882620028fb565b9050600062000b68828662002946565b509695505050505050565b600062000b80816200298f565b6001600160a01b03821662000bc1576040517fe6c4247b00000000000000000000000000000000000000000000000000000000815260040160405180910390fd5b61013380547fffffffffffffffffffffffff0000000000000000000000000000000000000000166001600160a01b0384169081179091556040519081527f7592af123a1000777bc7187f836b97a6419b1c09a06815cf06f9e130fd790150906020015b60405180910390a15050565b600062000c3d816200298f565b6001600160a01b03821662000c7e576040517fe6c4247b00000000000000000000000000000000000000000000000000000000815260040160405180910390fd5b61013480547fffffffffffffffffffffffff0000000000000000000000000000000000000000166001600160a01b0384169081179091556040519081527f8353814c92005e2ad7a7759279f901807636279be137976423fe356f8a2c516d9060200162000c24565b600082815260c9602052604090206001015462000d03816200298f565b62000d0f83836200299b565b505050565b600054610100900460ff161580801562000d355750600054600160ff909116105b8062000d515750303b15801562000d51575060005460ff166001145b62000dc95760405162461bcd60e51b815260206004820152602e60248201527f496e697469616c697a61626c653a20636f6e747261637420697320616c72656160448201527f647920696e697469616c697a656400000000000000000000000000000000000060648201526084015b60405180910390fd5b600080547fffffffffffffffffffffffffffffffffffffffffffffffffffffffffffffff00166001179055801562000e2857600080547fffffffffffffffffffffffffffffffffffffffffffffffffffffffffffff00ff166101001790555b62000e9e6040518060400160405280601281526020017f4b65794d696e746572556e6976657273653100000000000000000000000000008152506040518060400160405280600181526020017f310000000000000000000000000000000000000000000000000000000000000081525062002a5d565b61012f80547fffffffffffffffffffffffff0000000000000000000000000000000000000000166001600160a01b038a1617905560405187908790309062000ee69062003895565b6001600160a01b03938416815291831660208301529091166040820152606001604051809103906000f08015801562000f23573d6000803e3d6000fd5b5061013180547fffffffffffffffffffffffff0000000000000000000000000000000000000000166001600160a01b039290921691909117905562000f6a6000886200299b565b62000f967f97667070c54ef182b0f5858b034beac1b6f3089aa2d3188bb1e8929f4fa9b929876200299b565b61013080546001600160a01b038088167fffffffffffffffffffffffff000000000000000000000000000000000000000092831617909255610134805486841690831617905561013380548584169083161790556101328054928716929091169190911790556040805160208101909152678ac7230489e8000081526200102390610135906001620038a3565b5061013680547fffffffffffffffffffffffffffffffff0000000000000000000000000000000016683635c9adc5dea0000090811790915569d3c21bcecceda1000000610137556040519081527fe8fb70487ae07c72e13381d69eab43f9a5fc799eaef4142aa7d491d247e93cb49060200160405180910390a1610136546040516fffffffffffffffffffffffffffffffff90911681527fe8fb70487ae07c72e13381d69eab43f9a5fc799eaef4142aa7d491d247e93cb49060200160405180910390a17f945c6ede89a0741ce7e65bedab600a64af83c28fef71c6c2a248f9bda3b88bd3610137546040516200111c91815260200190565b60405180910390a16040516001600160a01b03891681527fd459c7242e23d490831b5676a611c4342d899d28f342d89ae80793e56a930f309060200160405180910390a16040516001600160a01b03861681527f06fdd9e3906298a8c5ab27f33df18b41c8f209c70085bb9dfa31c6e3e86e36c69060200160405180910390a16040516001600160a01b03831681527f7592af123a1000777bc7187f836b97a6419b1c09a06815cf06f9e130fd7901509060200160405180910390a16040516001600160a01b03841681527f8353814c92005e2ad7a7759279f901807636279be137976423fe356f8a2c516d9060200160405180910390a180156200127857600080547fffffffffffffffffffffffffffffffffffffffffffffffffffffffffffff00ff169055604051600181527f7f26b83ff96e1f2b6a682f133852f6798a09c465da95921460cefb38474024989060200160405180910390a15b5050505050505050565b60006200128e62002ae8565b905090565b6001600160a01b0381163314620013135760405162461bcd60e51b815260206004820152602f60248201527f416363657373436f6e74726f6c3a2063616e206f6e6c792072656e6f756e636560448201527f20726f6c657320666f722073656c660000000000000000000000000000000000606482015260840162000dc0565b6200131f828262002af4565b5050565b6001600160a01b037f0000000000000000000000000000000000000000000000000000000000000000163003620013c35760405162461bcd60e51b815260206004820152602c60248201527f46756e6374696f6e206d7573742062652063616c6c6564207468726f7567682060448201527f64656c656761746563616c6c0000000000000000000000000000000000000000606482015260840162000dc0565b7f00000000000000000000000000000000000000000000000000000000000000006001600160a01b03166200141f7f360894a13ba1a3210667c828492db98dca3e2076cc3735a920a3ca505d382bbc546001600160a01b031690565b6001600160a01b0316146200149d5760405162461bcd60e51b815260206004820152602c60248201527f46756e6374696f6e206d7573742062652063616c6c6564207468726f7567682060448201527f6163746976652070726f78790000000000000000000000000000000000000000606482015260840162000dc0565b620014a88162002b96565b60408051600080825260208201909252620014c69183919062002ba3565b50565b6001600160a01b037f0000000000000000000000000000000000000000000000000000000000000000163003620015695760405162461bcd60e51b815260206004820152602c60248201527f46756e6374696f6e206d7573742062652063616c6c6564207468726f7567682060448201527f64656c656761746563616c6c0000000000000000000000000000000000000000606482015260840162000dc0565b7f00000000000000000000000000000000000000000000000000000000000000006001600160a01b0316620015c57f360894a13ba1a3210667c828492db98dca3e2076cc3735a920a3ca505d382bbc546001600160a01b031690565b6001600160a01b031614620016435760405162461bcd60e51b815260206004820152602c60248201527f46756e6374696f6e206d7573742062652063616c6c6564207468726f7567682060448201527f6163746976652070726f78790000000000000000000000000000000000000000606482015260840162000dc0565b6200164e8262002b96565b6200131f8282600162002ba3565b6101395460ff168015620016705750600034115b15620016a8576040517f63a9c86c00000000000000000000000000000000000000000000000000000000815260040160405180910390fd5b6000620016e56040518060a00160405280886001600160a01b03168152602001878152602001868152602001858152602001348152508362001c83565b610130549091506001600160a01b0380831691161462001731576040517f8baa579f00000000000000000000000000000000000000000000000000000000815260040160405180910390fd5b6200173d868662002d4f565b61013454610133546040517f5e9bc5360000000000000000000000000000000000000000000000000000000081526001600160a01b039182166004820152466024820152888216604482015260648101889052600060848201819052929190911690635e9bc5369060a401602060405180830381865afa158015620017c6573d6000803e3d6000fd5b505050506040513d601f19601f82011682018060405250810190620017ec9190620041c8565b610132546040517f6352211e000000000000000000000000000000000000000000000000000000008152600481018890529192506001600160a01b0380841692911690636352211e90602401602060405180830381865afa15801562001856573d6000803e3d6000fd5b505050506040513d601f19601f820116820180604052508101906200187c9190620041c8565b6001600160a01b031614620018bd576040517f462c468b00000000000000000000000000000000000000000000000000000000815260040160405180910390fd5b835133600090815261013a602052604090208054620019039070010000000000000000000000000000000090046fffffffffffffffffffffffffffffffff168362002e17565b6fffffffffffffffffffffffffffffffff163411156200194f576040517fbcbb81a300000000000000000000000000000000000000000000000000000000815260040160405180910390fd5b805434908290600090620019779084906fffffffffffffffffffffffffffffffff1662004217565b92506101000a8154816fffffffffffffffffffffffffffffffff02191690836fffffffffffffffffffffffffffffffff160217905550818160000160108282829054906101000a90046fffffffffffffffffffffffffffffffff16620019de919062004217565b92506101000a8154816fffffffffffffffffffffffffffffffff02191690836fffffffffffffffffffffffffffffffff16021790555034610138600082825462001a2991906200424a565b90915550506101365481546fffffffffffffffffffffffffffffffff9182169116111562001a83576040517f5425420000000000000000000000000000000000000000000000000000000000815260040160405180910390fd5b6101375461013854111562001ac4576040517f0b78840300000000000000000000000000000000000000000000000000000000815260040160405180910390fd5b6101345461013354610132546040517f5e9bc5360000000000000000000000000000000000000000000000000000000081526001600160a01b0392831660048201524660248201529082166044820152606481018a9052600060848201819052929190911690635e9bc5369060a401602060405180830381865afa15801562001b51573d6000803e3d6000fd5b505050506040513d601f19601f8201168201806040525081019062001b779190620041c8565b905060005b8381101562001c38576101315488516001600160a01b03909116906340c10f199084908b908590811062001bb45762001bb462004260565b60200260200101516040518363ffffffff1660e01b815260040162001bee9291906001600160a01b03929092168252602082015260400190565b600060405180830381600087803b15801562001c0957600080fd5b505af115801562001c1e573d6000803e3d6000fd5b50505050808062001c2f906200428f565b91505062001b7c565b505061012f546040516001600160a01b0390911694504780156108fc029450925090506000818181858888f1935050505015801562001c7b573d6000803e3d6000fd5b505050505050565b6000807f85876679bb13db0550081eb6c1d7387ccd9f282f25633492e066e1fe7dbb6717846000015185602001518660400151876060015160405160200162001ccd9190620042ca565b60405160208183030381529060405280519060200120886080015160405160200162000b33969594939291909586526001600160a01b0394909416602086015260408501929092526060840152608083015260a082015260c00190565b6000306001600160a01b037f0000000000000000000000000000000000000000000000000000000000000000161462001dcc5760405162461bcd60e51b815260206004820152603860248201527f555550535570677261646561626c653a206d757374206e6f742062652063616c60448201527f6c6564207468726f7567682064656c656761746563616c6c0000000000000000606482015260840162000dc0565b507f360894a13ba1a3210667c828492db98dca3e2076cc3735a920a3ca505d382bbc90565b6101395460ff1662001e2f576040517fa6b4476c00000000000000000000000000000000000000000000000000000000815260040160405180910390fd5b33600081815261013a6020526040808220805491519093926fffffffffffffffffffffffffffffffff90921680156108fc0292909190818181858888f1935050505015801562001e83573d6000803e3d6000fd5b5080546040516fffffffffffffffffffffffffffffffff909116815233907fbb28353e4598c3b9199101a66e0989549b659a59a54d2c27fbb183f1932c8e6d9060200160405180910390a280547fffffffffffffffffffffffffffffffff00000000000000000000000000000000169055565b610135818154811062001f0857600080fd5b9060005260206000209060029182820401919006601002915054906101000a90046fffffffffffffffffffffffffffffffff1681565b600062001f4b816200298f565b61012f80547fffffffffffffffffffffffff0000000000000000000000000000000000000000166001600160a01b0384169081179091556040519081527fd459c7242e23d490831b5676a611c4342d899d28f342d89ae80793e56a930f309060200162000c24565b7f97667070c54ef182b0f5858b034beac1b6f3089aa2d3188bb1e8929f4fa9b92962001fdf816200298f565b61013680547fffffffffffffffffffffffffffffffff00000000000000000000000000000000166fffffffffffffffffffffffffffffffff84169081179091556040519081527fe8fb70487ae07c72e13381d69eab43f9a5fc799eaef4142aa7d491d247e93cb49060200162000c24565b7f97667070c54ef182b0f5858b034beac1b6f3089aa2d3188bb1e8929f4fa9b9296200207c816200298f565b61013080547fffffffffffffffffffffffff0000000000000000000000000000000000000000166001600160a01b0384169081179091556040519081527f06fdd9e3906298a8c5ab27f33df18b41c8f209c70085bb9dfa31c6e3e86e36c69060200162000c24565b7f97667070c54ef182b0f5858b034beac1b6f3089aa2d3188bb1e8929f4fa9b92962002110816200298f565b8151620021269061013590602085019062003971565b507f836acc74361402ef4371a48dc77bdc6684bee70a88edf553bec3cc963fa66bb58260405162000c24919062004302565b60006060806000806000606060fb546000801b14801562002179575060fc54155b620021c75760405162461bcd60e51b815260206004820152601560248201527f4549503731323a20556e696e697469616c697a65640000000000000000000000604482015260640162000dc0565b620021d162002f43565b620021db62002fdd565b604080516000808252602082019092527f0f000000000000000000000000000000000000000000000000000000000000009b939a50919850469750309650945092509050565b6101395460ff168015620022355750600034115b156200226d576040517f63a9c86c00000000000000000000000000000000000000000000000000000000815260040160405180910390fd5b6000620022aa6040518060a00160405280886001600160a01b03168152602001878152602001868152602001858152602001348152508362000ab4565b610130549091506001600160a01b03808316911614620022f6576040517f8baa579f00000000000000000000000000000000000000000000000000000000815260040160405180910390fd5b62002302868662002d4f565b61013454610133546040517f5e9bc5360000000000000000000000000000000000000000000000000000000081526001600160a01b039182166004820152466024820152888216604482015260648101889052600060848201819052929190911690635e9bc5369060a401602060405180830381865afa1580156200238b573d6000803e3d6000fd5b505050506040513d601f19601f82011682018060405250810190620023b19190620041c8565b610132546040517f6352211e000000000000000000000000000000000000000000000000000000008152600481018890529192506001600160a01b0380841692911690636352211e90602401602060405180830381865afa1580156200241b573d6000803e3d6000fd5b505050506040513d601f19601f82011682018060405250810190620024419190620041c8565b6001600160a01b03161462002482576040517f462c468b00000000000000000000000000000000000000000000000000000000815260040160405180910390fd5b33600090815261013a602052604090208054620024c59070010000000000000000000000000000000090046fffffffffffffffffffffffffffffffff1662002fee565b6fffffffffffffffffffffffffffffffff1634111562002511576040517fbcbb81a300000000000000000000000000000000000000000000000000000000815260040160405180910390fd5b805434908290600090620025399084906fffffffffffffffffffffffffffffffff1662004217565b92506101000a8154816fffffffffffffffffffffffffffffffff02191690836fffffffffffffffffffffffffffffffff16021790555060018160000160108282829054906101000a90046fffffffffffffffffffffffffffffffff16620025a1919062004217565b92506101000a8154816fffffffffffffffffffffffffffffffff02191690836fffffffffffffffffffffffffffffffff160217905550346101386000828254620025ec91906200424a565b90915550506101365481546fffffffffffffffffffffffffffffffff9182169116111562002646576040517f5425420000000000000000000000000000000000000000000000000000000000815260040160405180910390fd5b6101375461013854111562002687576040517f0b78840300000000000000000000000000000000000000000000000000000000815260040160405180910390fd5b6101345461013354610132546040517f5e9bc5360000000000000000000000000000000000000000000000000000000081526001600160a01b039283166004820152466024820152908216604482015260648101899052600060848201819052929190911690635e9bc5369060a401602060405180830381865afa15801562002714573d6000803e3d6000fd5b505050506040513d601f19601f820116820180604052508101906200273a9190620041c8565b610131546040517f40c10f190000000000000000000000000000000000000000000000000000000081526001600160a01b038084166004830152602482018a90529293509116906340c10f1990604401600060405180830381600087803b158015620027a557600080fd5b505af1158015620027ba573d6000803e3d6000fd5b505061012f546040516001600160a01b0390911696504780156108fc02965094509250600091508290508181858888f1935050505015801562001c7b573d6000803e3d6000fd5b7f97667070c54ef182b0f5858b034beac1b6f3089aa2d3188bb1e8929f4fa9b9296200282d816200298f565b6101378290556040518281527f945c6ede89a0741ce7e65bedab600a64af83c28fef71c6c2a248f9bda3b88bd39060200162000c24565b600062002871816200298f565b61013980547fffffffffffffffffffffffffffffffffffffffffffffffffffffffffffffff00168315159081179091556040519081527f187a6c0cc324e255e5b16f23b50ae4dcc9d70cc9d37b7d162827225b3e55e5299060200162000c24565b600082815260c96020526040902060010154620028ef816200298f565b62000d0f838362002af4565b600062000aae6200290b62002ae8565b836040517f19010000000000000000000000000000000000000000000000000000000000008152600281019290925260228201526042902090565b6000808251604103620029805760208301516040840151606085015160001a620029738782858562003094565b9450945050505062002988565b506000905060025b9250929050565b620014c681336200315d565b600082815260c9602090815260408083206001600160a01b038516845290915290205460ff166200131f57600082815260c9602090815260408083206001600160a01b0385168452909152902080547fffffffffffffffffffffffffffffffffffffffffffffffffffffffffffffff0016600117905562002a193390565b6001600160a01b0316816001600160a01b0316837f2f8788117e7eff1d82e926ec794901d17c78024a50270940304540a733656f0d60405160405180910390a45050565b600054610100900460ff1662002adc5760405162461bcd60e51b815260206004820152602b60248201527f496e697469616c697a61626c653a20636f6e7472616374206973206e6f74206960448201527f6e697469616c697a696e67000000000000000000000000000000000000000000606482015260840162000dc0565b6200131f8282620031db565b60006200128e62003286565b600082815260c9602090815260408083206001600160a01b038516845290915290205460ff16156200131f57600082815260c9602090815260408083206001600160a01b038516808552925280832080547fffffffffffffffffffffffffffffffffffffffffffffffffffffffffffffff0016905551339285917ff6391f5c32d9c69d2a47ea670b442974b53935d1edc7fd64eb21e047a839171b9190a45050565b60006200131f816200298f565b7f4910fdfa16fed3260ed0e7147f7cc6da11a60208b5b9406d12a635614ffd91435460ff161562002bd95762000d0f83620032fe565b826001600160a01b03166352d1902d6040518163ffffffff1660e01b8152600401602060405180830381865afa92505050801562002c36575060408051601f3d908101601f1916820190925262002c33918101906200435a565b60015b62002caa5760405162461bcd60e51b815260206004820152602e60248201527f45524331393637557067726164653a206e657720696d706c656d656e7461746960448201527f6f6e206973206e6f742055555053000000000000000000000000000000000000606482015260840162000dc0565b7f360894a13ba1a3210667c828492db98dca3e2076cc3735a920a3ca505d382bbc811462002d415760405162461bcd60e51b815260206004820152602960248201527f45524331393637557067726164653a20756e737570706f727465642070726f7860448201527f6961626c65555549440000000000000000000000000000000000000000000000606482015260840162000dc0565b5062000d0f838383620033d6565b6040517f6352211e0000000000000000000000000000000000000000000000000000000081526004810182905233906001600160a01b03841690636352211e90602401602060405180830381865afa15801562002db0573d6000803e3d6000fd5b505050506040513d601f19601f8201168201806040525081019062002dd69190620041c8565b6001600160a01b0316146200131f576040517fd48af24600000000000000000000000000000000000000000000000000000000815260040160405180910390fd5b61013554600090810362002e3d57506fffffffffffffffffffffffffffffffff62000aae565b6000835b62002e4d84866200424a565b81101562002f3b5761013554811062002ecd57610135805462002e739060019062004374565b8154811062002e865762002e8662004260565b90600052602060002090600291828204019190066010029054906101000a90046fffffffffffffffffffffffffffffffff168262002ec5919062004217565b915062002f26565b610135818154811062002ee45762002ee462004260565b90600052602060002090600291828204019190066010029054906101000a90046fffffffffffffffffffffffffffffffff168262002f23919062004217565b91505b8062002f32816200428f565b91505062002e41565b509392505050565b606060fd805462002f54906200438a565b80601f016020809104026020016040519081016040528092919081815260200182805462002f82906200438a565b801562002fd35780601f1062002fa75761010080835404028352916020019162002fd3565b820191906000526020600020905b81548152906001019060200180831162002fb557829003601f168201915b5050505050905090565b606060fe805462002f54906200438a565b6101355460009081036200301357506fffffffffffffffffffffffffffffffff919050565b6101355482106200307d576101358054620030319060019062004374565b8154811062003044576200304462004260565b90600052602060002090600291828204019190066010029054906101000a90046fffffffffffffffffffffffffffffffff169050919050565b610135828154811062003044576200304462004260565b6000807f7fffffffffffffffffffffffffffffff5d576e7357a4501ddfe92f46681b20a0831115620030cd575060009050600362003154565b6040805160008082526020820180845289905260ff881692820192909252606081018690526080810185905260019060a0016020604051602081039080840390855afa15801562003122573d6000803e3d6000fd5b5050604051601f1901519150506001600160a01b0381166200314d5760006001925092505062003154565b9150600090505b94509492505050565b600082815260c9602090815260408083206001600160a01b038516845290915290205460ff166200131f57620031938162003407565b620031a08360206200341a565b604051602001620031b3929190620043df565b60408051601f198184030181529082905262461bcd60e51b825262000dc09160040162004464565b600054610100900460ff166200325a5760405162461bcd60e51b815260206004820152602b60248201527f496e697469616c697a61626c653a20636f6e7472616374206973206e6f74206960448201527f6e697469616c697a696e67000000000000000000000000000000000000000000606482015260840162000dc0565b60fd620032688382620044c3565b5060fe620032778282620044c3565b5050600060fb81905560fc5550565b60007f8b73c3c69bb8fe3d512ecc4cf759cc79239f7b179b0ffacaa9a75d522b39400f620032b362003668565b620032bd620036c9565b60408051602081019490945283019190915260608201524660808201523060a082015260c00160405160208183030381529060405280519060200120905090565b6001600160a01b0381163b6200337d5760405162461bcd60e51b815260206004820152602d60248201527f455243313936373a206e657720696d706c656d656e746174696f6e206973206e60448201527f6f74206120636f6e747261637400000000000000000000000000000000000000606482015260840162000dc0565b7f360894a13ba1a3210667c828492db98dca3e2076cc3735a920a3ca505d382bbc80547fffffffffffffffffffffffff0000000000000000000000000000000000000000166001600160a01b0392909216919091179055565b620033e183620036fe565b600082511180620033ef5750805b1562000d0f5762003401838362003740565b50505050565b606062000aae6001600160a01b03831660145b606060006200342b836002620045cc565b620034389060026200424a565b67ffffffffffffffff81111562003453576200345362003a54565b6040519080825280601f01601f1916602001820160405280156200347e576020820181803683370190505b5090507f300000000000000000000000000000000000000000000000000000000000000081600081518110620034b857620034b862004260565b60200101907effffffffffffffffffffffffffffffffffffffffffffffffffffffffffffff1916908160001a9053507f7800000000000000000000000000000000000000000000000000000000000000816001815181106200351e576200351e62004260565b60200101907effffffffffffffffffffffffffffffffffffffffffffffffffffffffffffff1916908160001a90535060006200355c846002620045cc565b620035699060016200424a565b90505b600181111562003610577f303132333435363738396162636465660000000000000000000000000000000085600f1660108110620035ae57620035ae62004260565b1a60f81b828281518110620035c757620035c762004260565b60200101907effffffffffffffffffffffffffffffffffffffffffffffffffffffffffffff1916908160001a90535060049490941c936200360881620045e6565b90506200356c565b508315620036615760405162461bcd60e51b815260206004820181905260248201527f537472696e67733a20686578206c656e67746820696e73756666696369656e74604482015260640162000dc0565b9392505050565b6000806200367562002f43565b8051909150156200368d578051602090910120919050565b60fb5480156200369d5792915050565b7fc5d2460186f7233c927e7db2dcc703c0e500b653ca82273b7bfad8045d85a4709250505090565b5090565b600080620036d662002fdd565b805190915015620036ee578051602090910120919050565b60fc5480156200369d5792915050565b6200370981620032fe565b6040516001600160a01b038216907fbc7cd75a20ee27fd9adebab32041f755214dbc6bffa90cc0225b39da2e5c2d3b90600090a250565b606062003661838360405180606001604052806027815260200162007468602791396060600080856001600160a01b0316856040516200378191906200461e565b600060405180830381855af49150503d8060008114620037be576040519150601f19603f3d011682016040523d82523d6000602084013e620037c3565b606091505b5091509150620037d686838387620037e0565b9695505050505050565b60608315620038545782516000036200384c576001600160a01b0385163b6200384c5760405162461bcd60e51b815260206004820152601d60248201527f416464726573733a2063616c6c20746f206e6f6e2d636f6e7472616374000000604482015260640162000dc0565b508162003860565b62003860838362003868565b949350505050565b815115620038795781518083602001fd5b8060405162461bcd60e51b815260040162000dc0919062004464565b612e2b806200463d83390190565b82805482825590600052602060002090600101600290048101928215620039635791602002820160005b838211156200392357835183826101000a8154816fffffffffffffffffffffffffffffffff021916908367ffffffffffffffff1602179055509260200192601001602081600f01049283019260010302620038cd565b8015620039615782816101000a8154906fffffffffffffffffffffffffffffffff0219169055601001602081600f0104928301926001030262003923565b505b50620036c5929150620039f9565b82805482825590600052602060002090600101600290048101928215620039635791602002820160005b838211156200392357835183826101000a8154816fffffffffffffffffffffffffffffffff02191690836fffffffffffffffffffffffffffffffff1602179055509260200192601001602081600f010492830192600103026200399b565b5b80821115620036c55760008155600101620039fa565b60006020828403121562003a2357600080fd5b81357fffffffff00000000000000000000000000000000000000000000000000000000811681146200366157600080fd5b7f4e487b7100000000000000000000000000000000000000000000000000000000600052604160045260246000fd5b60405160a0810167ffffffffffffffff8111828210171562003aa95762003aa962003a54565b60405290565b604051601f8201601f1916810167ffffffffffffffff8111828210171562003adb5762003adb62003a54565b604052919050565b6001600160a01b0381168114620014c657600080fd5b600082601f83011262003b0b57600080fd5b813567ffffffffffffffff81111562003b285762003b2862003a54565b62003b3d6020601f19601f8401160162003aaf565b81815284602083860101111562003b5357600080fd5b816020850160208301376000918101602001919091529392505050565b60008082840360c081121562003b8557600080fd5b60a081121562003b9457600080fd5b5062003b9f62003a83565b833562003bac8162003ae3565b80825250602084013560208201526040840135604082015260608401356060820152608084013560808201528092505060a083013567ffffffffffffffff81111562003bf757600080fd5b62003c058582860162003af9565b9150509250929050565b60006020828403121562003c2257600080fd5b8135620036618162003ae3565b60006020828403121562003c4257600080fd5b5035919050565b6000806040838503121562003c5d57600080fd5b82359150602083013562003c718162003ae3565b809150509250929050565b600080600080600080600060e0888a03121562003c9857600080fd5b873562003ca58162003ae3565b9650602088013562003cb78162003ae3565b9550604088013562003cc98162003ae3565b9450606088013562003cdb8162003ae3565b9350608088013562003ced8162003ae3565b925060a088013562003cff8162003ae3565b915060c088013562003d118162003ae3565b8091505092959891949750929550565b6000806040838503121562003d3557600080fd5b823562003d428162003ae3565b9150602083013567ffffffffffffffff81111562003bf757600080fd5b600067ffffffffffffffff82111562003d7c5762003d7c62003a54565b5060051b60200190565b600082601f83011262003d9857600080fd5b8135602062003db162003dab8362003d5f565b62003aaf565b82815260059290921b8401810191818101908684111562003dd157600080fd5b8286015b8481101562000b68578035835291830191830162003dd5565b600080600080600060a0868803121562003e0757600080fd5b853562003e148162003ae3565b94506020860135935060408601359250606086013567ffffffffffffffff8082111562003e4057600080fd5b62003e4e89838a0162003d86565b9350608088013591508082111562003e6557600080fd5b5062003e748882890162003af9565b9150509295509295909350565b6000806040838503121562003e9557600080fd5b823567ffffffffffffffff8082111562003eae57600080fd5b9084019060a0828703121562003ec357600080fd5b62003ecd62003a83565b823562003eda8162003ae3565b80825250602083013560208201526040830135604082015260608301358281111562003f0557600080fd5b62003f138882860162003d86565b6060830152506080830135608082015280945050602085013591508082111562003f3c57600080fd5b5062003c058582860162003af9565b80356fffffffffffffffffffffffffffffffff8116811462003f6c57600080fd5b919050565b60006020828403121562003f8457600080fd5b620036618262003f4b565b6000602080838503121562003fa357600080fd5b823567ffffffffffffffff81111562003fbb57600080fd5b8301601f8101851362003fcd57600080fd5b803562003fde62003dab8262003d5f565b81815260059190911b8201830190838101908783111562003ffe57600080fd5b928401925b828410156200402757620040178462003f4b565b8252928401929084019062004003565b979650505050505050565b60005b838110156200404f57818101518382015260200162004035565b50506000910152565b600081518084526200407281602086016020860162004032565b601f01601f19169290920160200192915050565b7fff00000000000000000000000000000000000000000000000000000000000000881681526000602060e081840152620040c460e084018a62004058565b8381036040850152620040d8818a62004058565b606085018990526001600160a01b038816608086015260a0850187905284810360c0860152855180825283870192509083019060005b818110156200412c578351835292840192918401916001016200410e565b50909c9b505050505050505050505050565b600080600080600060a086880312156200415757600080fd5b8535620041648162003ae3565b9450602086013593506040860135925060608601359150608086013567ffffffffffffffff8111156200419657600080fd5b62003e748882890162003af9565b600060208284031215620041b757600080fd5b813580151581146200366157600080fd5b600060208284031215620041db57600080fd5b8151620036618162003ae3565b7f4e487b7100000000000000000000000000000000000000000000000000000000600052601160045260246000fd5b6fffffffffffffffffffffffffffffffff818116838216019080821115620042435762004243620041e8565b5092915050565b8082018082111562000aae5762000aae620041e8565b7f4e487b7100000000000000000000000000000000000000000000000000000000600052603260045260246000fd5b60007fffffffffffffffffffffffffffffffffffffffffffffffffffffffffffffffff8203620042c357620042c3620041e8565b5060010190565b815160009082906020808601845b83811015620042f657815185529382019390820190600101620042d8565b50929695505050505050565b6020808252825182820181905260009190848201906040850190845b818110156200434e5783516fffffffffffffffffffffffffffffffff16835292840192918401916001016200431e565b50909695505050505050565b6000602082840312156200436d57600080fd5b5051919050565b8181038181111562000aae5762000aae620041e8565b600181811c908216806200439f57607f821691505b602082108103620043d9577f4e487b7100000000000000000000000000000000000000000000000000000000600052602260045260246000fd5b50919050565b7f416363657373436f6e74726f6c3a206163636f756e74200000000000000000008152600083516200441981601785016020880162004032565b7f206973206d697373696e6720726f6c652000000000000000000000000000000060179184019182015283516200445881602884016020880162004032565b01602801949350505050565b60208152600062003661602083018462004058565b601f82111562000d0f57600081815260208120601f850160051c81016020861015620044a25750805b601f850160051c820191505b8181101562001c7b57828155600101620044ae565b815167ffffffffffffffff811115620044e057620044e062003a54565b620044f881620044f184546200438a565b8462004479565b602080601f8311600181146200454e5760008415620045175750858301515b7fffffffffffffffffffffffffffffffffffffffffffffffffffffffffffffffff600386901b1c1916600185901b17855562001c7b565b600085815260208120601f198616915b828110156200457f578886015182559484019460019091019084016200455e565b5085821015620045bc57878501517fffffffffffffffffffffffffffffffffffffffffffffffffffffffffffffffff600388901b60f8161c191681555b5050505050600190811b01905550565b808202811582820484141762000aae5762000aae620041e8565b600081620045f857620045f8620041e8565b507fffffffffffffffffffffffffffffffffffffffffffffffffffffffffffffffff0190565b600082516200463281846020870162004032565b919091019291505056fe60a0604052600060809081526003906200001a9082620003af565b503480156200002857600080fd5b5060405162002e2b38038062002e2b8339810160408190526200004b9162000498565b604080516020810190915260008152620000658162000113565b50620000713362000125565b6200007e60008462000177565b620000aa7f97667070c54ef182b0f5858b034beac1b6f3089aa2d3188bb1e8929f4fa9b9298362000177565b620000d67f9f2df0fed2c77648de5860a4cc508cd0818c85b8b8a1ab4ceeef8d981c8956a68262000177565b620000e1836200021b565b604080518082019091526007815266697066733a2f2f60c81b60208201526200010a906200029e565b505050620004e2565b6002620001218282620003af565b5050565b600580546001600160a01b038381166001600160a01b0319831681179093556040519116919082907f8be0079c531659141344cd1fd0a4f28419497f9722a3daafe3b4186f6b6457e090600090a35050565b60008281526006602090815260408083206001600160a01b038516845290915290205460ff16620001215760008281526006602090815260408083206001600160a01b03851684529091529020805460ff19166001179055620001d73390565b6001600160a01b0316816001600160a01b0316837f2f8788117e7eff1d82e926ec794901d17c78024a50270940304540a733656f0d60405160405180910390a45050565b62000225620002ac565b6001600160a01b038116620002905760405162461bcd60e51b815260206004820152602660248201527f4f776e61626c653a206e6577206f776e657220697320746865207a65726f206160448201526564647265737360d01b60648201526084015b60405180910390fd5b6200029b8162000125565b50565b6003620001218282620003af565b6005546001600160a01b03163314620003085760405162461bcd60e51b815260206004820181905260248201527f4f776e61626c653a2063616c6c6572206973206e6f7420746865206f776e6572604482015260640162000287565b565b634e487b7160e01b600052604160045260246000fd5b600181811c908216806200033557607f821691505b6020821081036200035657634e487b7160e01b600052602260045260246000fd5b50919050565b601f821115620003aa57600081815260208120601f850160051c81016020861015620003855750805b601f850160051c820191505b81811015620003a65782815560010162000391565b5050505b505050565b81516001600160401b03811115620003cb57620003cb6200030a565b620003e381620003dc845462000320565b846200035c565b602080601f8311600181146200041b5760008415620004025750858301515b600019600386901b1c1916600185901b178555620003a6565b600085815260208120601f198616915b828110156200044c578886015182559484019460019091019084016200042b565b50858210156200046b5787850151600019600388901b60f8161c191681555b5050505050600190811b01905550565b80516001600160a01b03811681146200049357600080fd5b919050565b600080600060608486031215620004ae57600080fd5b620004b9846200047b565b9250620004c9602085016200047b565b9150620004d9604085016200047b565b90509250925092565b61293980620004f26000396000f3fe608060405234801561001057600080fd5b506004361061018c5760003560e01c806375ceb341116100e3578063d53913931161008c578063f242432a11610066578063f242432a146103d8578063f2fde38b146103e6578063f5b541a6146103f957600080fd5b8063d539139314610355578063d547741f1461037c578063e985e9c51461038f57600080fd5b80639dc29fac116100bd5780639dc29fac14610327578063a217fddf1461033a578063a22cb4651461034257600080fd5b806375ceb341146102a65780638da5cb5b146102b957806391d14854146102e157600080fd5b80632eb2c2d61161014557806340c10f191161011f57806340c10f191461026b5780634e1273f41461027e578063715018a61461029e57600080fd5b80632eb2c2d6146102325780632f2ff15d1461024557806336568abe1461025857600080fd5b80630e89341c116101765780630e89341c146101da5780630ee9b395146101fa578063248a9ca31461020f57600080fd5b8062fdd58e1461019157806301ffc9a7146101b7575b600080fd5b6101a461019f366004611d1b565b610420565b6040519081526020015b60405180910390f35b6101ca6101c5366004611d73565b6104e6565b60405190151581526020016101ae565b6101ed6101e8366004611d90565b6104f1565b6040516101ae9190611df9565b61020d610208366004611f5b565b6105d1565b005b6101a461021d366004611d90565b60009081526006602052604090206001015490565b61020d610240366004612070565b61065b565b61020d61025336600461211a565b61068d565b61020d61026636600461211a565b6106b7565b61020d610279366004611d1b565b610750565b61029161028c366004612146565b610819565b6040516101ae919061224c565b61020d610957565b61020d6102b436600461225f565b61096b565b60055460405173ffffffffffffffffffffffffffffffffffffffff90911681526020016101ae565b6101ca6102ef36600461211a565b600091825260066020908152604080842073ffffffffffffffffffffffffffffffffffffffff93909316845291905290205460ff1690565b61020d610335366004611d1b565b610ade565b6101a4600081565b61020d6103503660046122a3565b610b14565b6101a47f9f2df0fed2c77648de5860a4cc508cd0818c85b8b8a1ab4ceeef8d981c8956a681565b61020d61038a36600461211a565b610b46565b6101ca61039d3660046122df565b73ffffffffffffffffffffffffffffffffffffffff918216600090815260016020908152604080832093909416825291909152205460ff1690565b61020d610240366004612309565b61020d6103f436600461236e565b610b6b565b6101a47f97667070c54ef182b0f5858b034beac1b6f3089aa2d3188bb1e8929f4fa9b92981565b600073ffffffffffffffffffffffffffffffffffffffff83166104b05760405162461bcd60e51b815260206004820152602a60248201527f455243313135353a2061646472657373207a65726f206973206e6f742061207660448201527f616c6964206f776e65720000000000000000000000000000000000000000000060648201526084015b60405180910390fd5b5060008181526020818152604080832073ffffffffffffffffffffffffffffffffffffffff861684529091529020545b92915050565b60006104e082610c08565b60008181526004602052604081208054606092919061050f90612389565b80601f016020809104026020016040519081016040528092919081815260200182805461053b90612389565b80156105885780601f1061055d57610100808354040283529160200191610588565b820191906000526020600020905b81548152906001019060200180831161056b57829003601f168201915b5050505050905060008151116105a6576105a183610c5e565b6105ca565b6003816040516020016105ba9291906123dc565b6040516020818303038152906040525b9392505050565b7f97667070c54ef182b0f5858b034beac1b6f3089aa2d3188bb1e8929f4fa9b9296105fb81610cf2565b60005b83518110156106555761064384828151811061061c5761061c612481565b602002602001015184838151811061063657610636612481565b6020026020010151610cfc565b8061064d816124df565b9150506105fe565b50505050565b6040517f1b5722f500000000000000000000000000000000000000000000000000000000815260040160405180910390fd5b6000828152600660205260409020600101546106a881610cf2565b6106b28383610d59565b505050565b73ffffffffffffffffffffffffffffffffffffffff811633146107425760405162461bcd60e51b815260206004820152602f60248201527f416363657373436f6e74726f6c3a2063616e206f6e6c792072656e6f756e636560448201527f20726f6c657320666f722073656c66000000000000000000000000000000000060648201526084016104a7565b61074c8282610e4d565b5050565b7f9f2df0fed2c77648de5860a4cc508cd0818c85b8b8a1ab4ceeef8d981c8956a661077a81610cf2565b6107848383610420565b156107ba576040517ea5a1f500000000000000000000000000000000000000000000000000000000815260040160405180910390fd5b6107c3826104f1565b516000036107fd576040517f87800a1100000000000000000000000000000000000000000000000000000000815260040160405180910390fd5b6106b28383600160405180602001604052806000815250610f08565b606081518351146108925760405162461bcd60e51b815260206004820152602960248201527f455243313135353a206163636f756e747320616e6420696473206c656e67746860448201527f206d69736d61746368000000000000000000000000000000000000000000000060648201526084016104a7565b6000835167ffffffffffffffff8111156108ae576108ae611e0c565b6040519080825280602002602001820160405280156108d7578160200160208202803683370190505b50905060005b845181101561094f576109228582815181106108fb576108fb612481565b602002602001015185838151811061091557610915612481565b6020026020010151610420565b82828151811061093457610934612481565b6020908102919091010152610948816124df565b90506108dd565b509392505050565b61095f61105f565b61096960006110c6565b565b7f9f2df0fed2c77648de5860a4cc508cd0818c85b8b8a1ab4ceeef8d981c8956a661099581610cf2565b6000825167ffffffffffffffff8111156109b1576109b1611e0c565b6040519080825280602002602001820160405280156109da578160200160208202803683370190505b50905060005b8351811015610ac2576109ff8585838151811061091557610915612481565b15610a35576040517ea5a1f500000000000000000000000000000000000000000000000000000000815260040160405180910390fd5b610a57848281518110610a4a57610a4a612481565b60200260200101516104f1565b51600003610a91576040517f87800a1100000000000000000000000000000000000000000000000000000000815260040160405180910390fd5b6001828281518110610aa557610aa5612481565b602090810291909101015280610aba816124df565b9150506109e0565b506106558484836040518060200160405280600081525061113d565b7f97667070c54ef182b0f5858b034beac1b6f3089aa2d3188bb1e8929f4fa9b929610b0881610cf2565b6106b283836001611389565b6040517fa6c022e100000000000000000000000000000000000000000000000000000000815260040160405180910390fd5b600082815260066020526040902060010154610b6181610cf2565b6106b28383610e4d565b610b7361105f565b73ffffffffffffffffffffffffffffffffffffffff8116610bfc5760405162461bcd60e51b815260206004820152602660248201527f4f776e61626c653a206e6577206f776e657220697320746865207a65726f206160448201527f646472657373000000000000000000000000000000000000000000000000000060648201526084016104a7565b610c05816110c6565b50565b60007fffffffff0000000000000000000000000000000000000000000000000000000082167f7965db0b0000000000000000000000000000000000000000000000000000000014806104e057506104e08261155f565b606060028054610c6d90612389565b80601f0160208091040260200160405190810160405280929190818152602001828054610c9990612389565b8015610ce65780601f10610cbb57610100808354040283529160200191610ce6565b820191906000526020600020905b815481529060010190602001808311610cc957829003601f168201915b50505050509050919050565b610c058133611642565b6000828152600460205260409020610d14828261255d565b50817f6bb7ff708619ba0610cba295a58592e0451dee2622938c8755667688daf3529b610d40846104f1565b604051610d4d9190611df9565b60405180910390a25050565b600082815260066020908152604080832073ffffffffffffffffffffffffffffffffffffffff8516845290915290205460ff1661074c57600082815260066020908152604080832073ffffffffffffffffffffffffffffffffffffffff85168452909152902080547fffffffffffffffffffffffffffffffffffffffffffffffffffffffffffffff00166001179055610def3390565b73ffffffffffffffffffffffffffffffffffffffff168173ffffffffffffffffffffffffffffffffffffffff16837f2f8788117e7eff1d82e926ec794901d17c78024a50270940304540a733656f0d60405160405180910390a45050565b600082815260066020908152604080832073ffffffffffffffffffffffffffffffffffffffff8516845290915290205460ff161561074c57600082815260066020908152604080832073ffffffffffffffffffffffffffffffffffffffff8516808552925280832080547fffffffffffffffffffffffffffffffffffffffffffffffffffffffffffffff0016905551339285917ff6391f5c32d9c69d2a47ea670b442974b53935d1edc7fd64eb21e047a839171b9190a45050565b73ffffffffffffffffffffffffffffffffffffffff8416610f915760405162461bcd60e51b815260206004820152602160248201527f455243313135353a206d696e7420746f20746865207a65726f2061646472657360448201527f730000000000000000000000000000000000000000000000000000000000000060648201526084016104a7565b336000610f9d856116c4565b90506000610faa856116c4565b905060008681526020818152604080832073ffffffffffffffffffffffffffffffffffffffff8b16845290915281208054879290610fe9908490612659565b9091555050604080518781526020810187905273ffffffffffffffffffffffffffffffffffffffff808a1692600092918716917fc3d58168c5ae7397731d063d5bbf3d657854427343f4c083240f7aacaa2d0f62910160405180910390a461105683600089898989611717565b50505050505050565b60055473ffffffffffffffffffffffffffffffffffffffff1633146109695760405162461bcd60e51b815260206004820181905260248201527f4f776e61626c653a2063616c6c6572206973206e6f7420746865206f776e657260448201526064016104a7565b6005805473ffffffffffffffffffffffffffffffffffffffff8381167fffffffffffffffffffffffff0000000000000000000000000000000000000000831681179093556040519116919082907f8be0079c531659141344cd1fd0a4f28419497f9722a3daafe3b4186f6b6457e090600090a35050565b73ffffffffffffffffffffffffffffffffffffffff84166111c65760405162461bcd60e51b815260206004820152602160248201527f455243313135353a206d696e7420746f20746865207a65726f2061646472657360448201527f730000000000000000000000000000000000000000000000000000000000000060648201526084016104a7565b815183511461123d5760405162461bcd60e51b815260206004820152602860248201527f455243313135353a2069647320616e6420616d6f756e7473206c656e6774682060448201527f6d69736d6174636800000000000000000000000000000000000000000000000060648201526084016104a7565b3360005b84518110156112f35783818151811061125c5761125c612481565b602002602001015160008087848151811061127957611279612481565b6020026020010151815260200190815260200160002060008873ffffffffffffffffffffffffffffffffffffffff1673ffffffffffffffffffffffffffffffffffffffff16815260200190815260200160002060008282546112db9190612659565b909155508190506112eb816124df565b915050611241565b508473ffffffffffffffffffffffffffffffffffffffff16600073ffffffffffffffffffffffffffffffffffffffff168273ffffffffffffffffffffffffffffffffffffffff167f4a39dc06d4c0dbc64b70af90fd698a233a518aa5d07e595d983b8c0526c8f7fb878760405161136b92919061266c565b60405180910390a461138281600087878787611935565b5050505050565b73ffffffffffffffffffffffffffffffffffffffff83166114125760405162461bcd60e51b815260206004820152602360248201527f455243313135353a206275726e2066726f6d20746865207a65726f206164647260448201527f657373000000000000000000000000000000000000000000000000000000000060648201526084016104a7565b33600061141e846116c4565b9050600061142b846116c4565b604080516020808201835260009182905288825281815282822073ffffffffffffffffffffffffffffffffffffffff8b16835290522054909150848110156114da5760405162461bcd60e51b8152602060048201526024808201527f455243313135353a206275726e20616d6f756e7420657863656564732062616c60448201527f616e63650000000000000000000000000000000000000000000000000000000060648201526084016104a7565b60008681526020818152604080832073ffffffffffffffffffffffffffffffffffffffff8b81168086529184528285208a8703905582518b81529384018a90529092908816917fc3d58168c5ae7397731d063d5bbf3d657854427343f4c083240f7aacaa2d0f62910160405180910390a4604080516020810190915260009052611056565b60007fffffffff0000000000000000000000000000000000000000000000000000000082167fd9b67a260000000000000000000000000000000000000000000000000000000014806115f257507fffffffff0000000000000000000000000000000000000000000000000000000082167f0e89341c00000000000000000000000000000000000000000000000000000000145b806104e057507f01ffc9a7000000000000000000000000000000000000000000000000000000007fffffffff000000000000000000000000000000000000000000000000000000008316146104e0565b600082815260066020908152604080832073ffffffffffffffffffffffffffffffffffffffff8516845290915290205460ff1661074c5761168281611aaa565b61168d836020611ac9565b60405160200161169e92919061269a565b60408051601f198184030181529082905262461bcd60e51b82526104a791600401611df9565b604080516001808252818301909252606091600091906020808301908036833701905050905082816000815181106116fe576116fe612481565b602090810291909101015292915050565b505050505050565b73ffffffffffffffffffffffffffffffffffffffff84163b1561170f576040517ff23a6e6100000000000000000000000000000000000000000000000000000000815273ffffffffffffffffffffffffffffffffffffffff85169063f23a6e619061178e908990899088908890889060040161271b565b6020604051808303816000875af19250505080156117c9575060408051601f3d908101601f191682019092526117c69181019061276b565b60015b61187e576117d5612788565b806308c379a00361180e57506117e96127a4565b806117f45750611810565b8060405162461bcd60e51b81526004016104a79190611df9565b505b60405162461bcd60e51b815260206004820152603460248201527f455243313135353a207472616e7366657220746f206e6f6e2d4552433131353560448201527f526563656976657220696d706c656d656e74657200000000000000000000000060648201526084016104a7565b7fffffffff0000000000000000000000000000000000000000000000000000000081167ff23a6e6100000000000000000000000000000000000000000000000000000000146110565760405162461bcd60e51b815260206004820152602860248201527f455243313135353a204552433131353552656365697665722072656a6563746560448201527f6420746f6b656e7300000000000000000000000000000000000000000000000060648201526084016104a7565b73ffffffffffffffffffffffffffffffffffffffff84163b1561170f576040517fbc197c8100000000000000000000000000000000000000000000000000000000815273ffffffffffffffffffffffffffffffffffffffff85169063bc197c81906119ac908990899088908890889060040161284c565b6020604051808303816000875af19250505080156119e7575060408051601f3d908101601f191682019092526119e49181019061276b565b60015b6119f3576117d5612788565b7fffffffff0000000000000000000000000000000000000000000000000000000081167fbc197c8100000000000000000000000000000000000000000000000000000000146110565760405162461bcd60e51b815260206004820152602860248201527f455243313135353a204552433131353552656365697665722072656a6563746560448201527f6420746f6b656e7300000000000000000000000000000000000000000000000060648201526084016104a7565b60606104e073ffffffffffffffffffffffffffffffffffffffff831660145b60606000611ad88360026128b7565b611ae3906002612659565b67ffffffffffffffff811115611afb57611afb611e0c565b6040519080825280601f01601f191660200182016040528015611b25576020820181803683370190505b5090507f300000000000000000000000000000000000000000000000000000000000000081600081518110611b5c57611b5c612481565b60200101907effffffffffffffffffffffffffffffffffffffffffffffffffffffffffffff1916908160001a9053507f780000000000000000000000000000000000000000000000000000000000000081600181518110611bbf57611bbf612481565b60200101907effffffffffffffffffffffffffffffffffffffffffffffffffffffffffffff1916908160001a9053506000611bfb8460026128b7565b611c06906001612659565b90505b6001811115611ca3577f303132333435363738396162636465660000000000000000000000000000000085600f1660108110611c4757611c47612481565b1a60f81b828281518110611c5d57611c5d612481565b60200101907effffffffffffffffffffffffffffffffffffffffffffffffffffffffffffff1916908160001a90535060049490941c93611c9c816128ce565b9050611c09565b5083156105ca5760405162461bcd60e51b815260206004820181905260248201527f537472696e67733a20686578206c656e67746820696e73756666696369656e7460448201526064016104a7565b803573ffffffffffffffffffffffffffffffffffffffff81168114611d1657600080fd5b919050565b60008060408385031215611d2e57600080fd5b611d3783611cf2565b946020939093013593505050565b7fffffffff0000000000000000000000000000000000000000000000000000000081168114610c0557600080fd5b600060208284031215611d8557600080fd5b81356105ca81611d45565b600060208284031215611da257600080fd5b5035919050565b60005b83811015611dc4578181015183820152602001611dac565b50506000910152565b60008151808452611de5816020860160208601611da9565b601f01601f19169290920160200192915050565b6020815260006105ca6020830184611dcd565b7f4e487b7100000000000000000000000000000000000000000000000000000000600052604160045260246000fd5b601f19601f830116810181811067ffffffffffffffff82111715611e6157611e61611e0c565b6040525050565b600067ffffffffffffffff821115611e8257611e82611e0c565b5060051b60200190565b600082601f830112611e9d57600080fd5b81356020611eaa82611e68565b604051611eb78282611e3b565b83815260059390931b8501820192828101915086841115611ed757600080fd5b8286015b84811015611ef25780358352918301918301611edb565b509695505050505050565b600067ffffffffffffffff831115611f1757611f17611e0c565b604051611f2e6020601f19601f8701160182611e3b565b809150838152848484011115611f4357600080fd5b83836020830137600060208583010152509392505050565b6000806040808486031215611f6f57600080fd5b833567ffffffffffffffff80821115611f8757600080fd5b611f9387838801611e8c565b9450602091508186013581811115611faa57600080fd5b8601601f81018813611fbb57600080fd5b8035611fc681611e68565b8551611fd28282611e3b565b82815260059290921b830185019185810191508a831115611ff257600080fd5b8584015b8381101561203e5780358681111561200e5760008081fd5b8501603f81018d136120205760008081fd5b6120308d898301358b8401611efd565b845250918601918601611ff6565b50809750505050505050509250929050565b600082601f83011261206157600080fd5b6105ca83833560208501611efd565b600080600080600060a0868803121561208857600080fd5b61209186611cf2565b945061209f60208701611cf2565b9350604086013567ffffffffffffffff808211156120bc57600080fd5b6120c889838a01611e8c565b945060608801359150808211156120de57600080fd5b6120ea89838a01611e8c565b9350608088013591508082111561210057600080fd5b5061210d88828901612050565b9150509295509295909350565b6000806040838503121561212d57600080fd5b8235915061213d60208401611cf2565b90509250929050565b6000806040838503121561215957600080fd5b823567ffffffffffffffff8082111561217157600080fd5b818501915085601f83011261218557600080fd5b8135602061219282611e68565b60405161219f8282611e3b565b83815260059390931b85018201928281019150898411156121bf57600080fd5b948201945b838610156121e4576121d586611cf2565b825294820194908201906121c4565b965050860135925050808211156121fa57600080fd5b5061220785828601611e8c565b9150509250929050565b600081518084526020808501945080840160005b8381101561224157815187529582019590820190600101612225565b509495945050505050565b6020815260006105ca6020830184612211565b6000806040838503121561227257600080fd5b61227b83611cf2565b9150602083013567ffffffffffffffff81111561229757600080fd5b61220785828601611e8c565b600080604083850312156122b657600080fd5b6122bf83611cf2565b9150602083013580151581146122d457600080fd5b809150509250929050565b600080604083850312156122f257600080fd5b6122fb83611cf2565b915061213d60208401611cf2565b600080600080600060a0868803121561232157600080fd5b61232a86611cf2565b945061233860208701611cf2565b93506040860135925060608601359150608086013567ffffffffffffffff81111561236257600080fd5b61210d88828901612050565b60006020828403121561238057600080fd5b6105ca82611cf2565b600181811c9082168061239d57607f821691505b6020821081036123d6577f4e487b7100000000000000000000000000000000000000000000000000000000600052602260045260246000fd5b50919050565b60008084546123ea81612389565b60018281168015612402576001811461243557612464565b7fffffffffffffffffffffffffffffffffffffffffffffffffffffffffffffff0084168752821515830287019450612464565b8860005260208060002060005b8581101561245b5781548a820152908401908201612442565b50505082870194505b505050508351612478818360208801611da9565b01949350505050565b7f4e487b7100000000000000000000000000000000000000000000000000000000600052603260045260246000fd5b7f4e487b7100000000000000000000000000000000000000000000000000000000600052601160045260246000fd5b60007fffffffffffffffffffffffffffffffffffffffffffffffffffffffffffffffff8203612510576125106124b0565b5060010190565b601f8211156106b257600081815260208120601f850160051c8101602086101561253e5750805b601f850160051c820191505b8181101561170f5782815560010161254a565b815167ffffffffffffffff81111561257757612577611e0c565b61258b816125858454612389565b84612517565b602080601f8311600181146125de57600084156125a85750858301515b7fffffffffffffffffffffffffffffffffffffffffffffffffffffffffffffffff600386901b1c1916600185901b17855561170f565b600085815260208120601f198616915b8281101561260d578886015182559484019460019091019084016125ee565b508582101561264957878501517fffffffffffffffffffffffffffffffffffffffffffffffffffffffffffffffff600388901b60f8161c191681555b5050505050600190811b01905550565b808201808211156104e0576104e06124b0565b60408152600061267f6040830185612211565b82810360208401526126918185612211565b95945050505050565b7f416363657373436f6e74726f6c3a206163636f756e74200000000000000000008152600083516126d2816017850160208801611da9565b7f206973206d697373696e6720726f6c6520000000000000000000000000000000601791840191820152835161270f816028840160208801611da9565b01602801949350505050565b600073ffffffffffffffffffffffffffffffffffffffff808816835280871660208401525084604083015283606083015260a0608083015261276060a0830184611dcd565b979650505050505050565b60006020828403121561277d57600080fd5b81516105ca81611d45565b600060033d11156127a15760046000803e5060005160e01c5b90565b600060443d10156127b25790565b6040517ffffffffffffffffffffffffffffffffffffffffffffffffffffffffffffffffc803d016004833e81513d67ffffffffffffffff816024840111818411171561280057505050505090565b82850191508151818111156128185750505050505090565b843d87010160208285010111156128325750505050505090565b61284160208286010187611e3b565b509095945050505050565b600073ffffffffffffffffffffffffffffffffffffffff808816835280871660208401525060a0604083015261288560a0830186612211565b82810360608401526128978186612211565b905082810360808401526128ab8185611dcd565b98975050505050505050565b80820281158282048414176104e0576104e06124b0565b6000816128dd576128dd6124b0565b507fffffffffffffffffffffffffffffffffffffffffffffffffffffffffffffffff019056fea26469706673582212203775dab77543b4f2bb923bd219199e6dbe1d37c5e2cc30fac5fa68f4125a804264736f6c63430008110033416464726573733a206c6f772d6c6576656c2064656c65676174652063616c6c206661696c6564a26469706673582212205d090a0aac9fd27b4df9446bf4a9f3251b8000abedddbba7ca3503cda7a8a29e64736f6c63430008110033",
  "linkReferences": {},
  "deployedLinkReferences": {}
}