{
  "_format": "hh-sol-artifact-1",
  "contractName": "KeyMinterUniverse1V1",
  "sourceName": "contracts/KeyMinterUniverse1V1.sol",
  "abi": [
    {
      "inputs": [],
      "stateMutability": "nonpayable",
      "type": "constructor"
    },
    {
      "inputs": [],
      "name": "AddressAlreadyRegistered",
      "type": "error"
    },
    {
      "inputs": [],
      "name": "CanNotApprove",
      "type": "error"
    },
    {
      "inputs": [],
      "name": "CanNotTransfer",
      "type": "error"
    },
    {
      "inputs": [],
      "name": "ExceedMaxContributionPerMint",
      "type": "error"
    },
    {
      "inputs": [],
      "name": "ExceedMaxContributionPerUser",
      "type": "error"
    },
    {
      "inputs": [],
      "name": "ExceedMaxTotalContribution",
      "type": "error"
    },
    {
      "inputs": [],
      "name": "InvalidAddress",
      "type": "error"
    },
    {
      "inputs": [],
      "name": "InvalidListLength",
      "type": "error"
    },
    {
      "inputs": [],
      "name": "InvalidProtoship",
      "type": "error"
    },
    {
      "inputs": [],
      "name": "InvalidSignature",
      "type": "error"
    },
    {
      "inputs": [],
      "name": "InvalidTokenId",
      "type": "error"
    },
    {
      "inputs": [],
      "name": "InvalidTokenURI",
      "type": "error"
    },
    {
      "inputs": [],
      "name": "NotDuringRefundPeriod",
      "type": "error"
    },
    {
      "inputs": [],
      "name": "NotWhiteListed",
      "type": "error"
    },
    {
      "inputs": [],
      "name": "OnlyDuringRefundPeriod",
      "type": "error"
    },
    {
      "inputs": [],
      "name": "OnlyExistingToken",
      "type": "error"
    },
    {
      "inputs": [],
      "name": "OnlyLockedToken",
      "type": "error"
    },
    {
      "inputs": [],
      "name": "OnlyNFTOwner",
      "type": "error"
    },
    {
      "inputs": [],
      "name": "OnlyOneProtoshipAtATime",
      "type": "error"
    },
    {
      "inputs": [],
      "name": "OnlySpaceFactory",
      "type": "error"
    },
    {
      "inputs": [],
      "name": "OnlySpaceFactoryOrOwner",
      "type": "error"
    },
    {
      "inputs": [],
      "name": "OnlySpaceshipOwner",
      "type": "error"
    },
    {
      "inputs": [],
      "name": "ReachedMaxSupply",
      "type": "error"
    },
    {
      "inputs": [],
      "name": "TokenAlreadyMinted",
      "type": "error"
    },
    {
      "inputs": [],
      "name": "TokenLocked",
      "type": "error"
    },
    {
      "anonymous": false,
      "inputs": [
        {
          "indexed": false,
          "internalType": "address",
          "name": "previousAdmin",
          "type": "address"
        },
        {
          "indexed": false,
          "internalType": "address",
          "name": "newAdmin",
          "type": "address"
        }
      ],
      "name": "AdminChanged",
      "type": "event"
    },
    {
      "anonymous": false,
      "inputs": [
        {
          "indexed": true,
          "internalType": "address",
          "name": "beacon",
          "type": "address"
        }
      ],
      "name": "BeaconUpgraded",
      "type": "event"
    },
    {
      "anonymous": false,
      "inputs": [],
      "name": "EIP712DomainChanged",
      "type": "event"
    },
    {
      "anonymous": false,
      "inputs": [
        {
          "indexed": false,
          "internalType": "uint8",
          "name": "version",
          "type": "uint8"
        }
      ],
      "name": "Initialized",
      "type": "event"
    },
    {
      "anonymous": false,
      "inputs": [
        {
          "indexed": true,
          "internalType": "address",
          "name": "user",
          "type": "address"
        },
        {
          "indexed": false,
          "internalType": "uint256",
          "name": "amount",
          "type": "uint256"
        }
      ],
      "name": "Refund",
      "type": "event"
    },
    {
      "anonymous": false,
      "inputs": [
        {
          "indexed": true,
          "internalType": "bytes32",
          "name": "role",
          "type": "bytes32"
        },
        {
          "indexed": true,
          "internalType": "bytes32",
          "name": "previousAdminRole",
          "type": "bytes32"
        },
        {
          "indexed": true,
          "internalType": "bytes32",
          "name": "newAdminRole",
          "type": "bytes32"
        }
      ],
      "name": "RoleAdminChanged",
      "type": "event"
    },
    {
      "anonymous": false,
      "inputs": [
        {
          "indexed": true,
          "internalType": "bytes32",
          "name": "role",
          "type": "bytes32"
        },
        {
          "indexed": true,
          "internalType": "address",
          "name": "account",
          "type": "address"
        },
        {
          "indexed": true,
          "internalType": "address",
          "name": "sender",
          "type": "address"
        }
      ],
      "name": "RoleGranted",
      "type": "event"
    },
    {
      "anonymous": false,
      "inputs": [
        {
          "indexed": true,
          "internalType": "bytes32",
          "name": "role",
          "type": "bytes32"
        },
        {
          "indexed": true,
          "internalType": "address",
          "name": "account",
          "type": "address"
        },
        {
          "indexed": true,
          "internalType": "address",
          "name": "sender",
          "type": "address"
        }
      ],
      "name": "RoleRevoked",
      "type": "event"
    },
    {
      "anonymous": false,
      "inputs": [
        {
          "indexed": false,
          "internalType": "bool",
          "name": "isRefundEnabled",
          "type": "bool"
        }
      ],
      "name": "SetIsRefundEnabled",
      "type": "event"
    },
    {
      "anonymous": false,
      "inputs": [
        {
          "indexed": false,
          "internalType": "uint128",
          "name": "maxContributionPerUser",
          "type": "uint128"
        }
      ],
      "name": "SetMaxContributionPerUser",
      "type": "event"
    },
    {
      "anonymous": false,
      "inputs": [
        {
          "indexed": false,
          "internalType": "uint128[]",
          "name": "maxContributionSchedulePerMint",
          "type": "uint128[]"
        }
      ],
      "name": "SetMaxContributionSchedulePerMint",
      "type": "event"
    },
    {
      "anonymous": false,
      "inputs": [
        {
          "indexed": false,
          "internalType": "uint256",
          "name": "maxTotalContribution",
          "type": "uint256"
        }
      ],
      "name": "SetMaxTotalContribution",
      "type": "event"
    },
    {
      "anonymous": false,
      "inputs": [
        {
          "indexed": false,
          "internalType": "address",
          "name": "serviceAdmin",
          "type": "address"
        }
      ],
      "name": "SetServiceAdmin",
      "type": "event"
    },
    {
      "anonymous": false,
      "inputs": [
        {
          "indexed": false,
          "internalType": "address",
          "name": "contractAddress",
          "type": "address"
        }
      ],
      "name": "SetTokenBoundImplementation",
      "type": "event"
    },
    {
      "anonymous": false,
      "inputs": [
        {
          "indexed": false,
          "internalType": "address",
          "name": "contractAddress",
          "type": "address"
        }
      ],
      "name": "SetTokenBoundRegistry",
      "type": "event"
    },
    {
      "anonymous": false,
      "inputs": [
        {
          "indexed": false,
          "internalType": "address",
          "name": "vault",
          "type": "address"
        }
      ],
      "name": "SetVault",
      "type": "event"
    },
    {
      "anonymous": false,
      "inputs": [
        {
          "indexed": true,
          "internalType": "address",
          "name": "implementation",
          "type": "address"
        }
      ],
      "name": "Upgraded",
      "type": "event"
    },
    {
      "inputs": [],
      "name": "DEFAULT_ADMIN_ROLE",
      "outputs": [
        {
          "internalType": "bytes32",
          "name": "",
          "type": "bytes32"
        }
      ],
      "stateMutability": "view",
      "type": "function"
    },
    {
      "inputs": [],
      "name": "DOMAIN_SEPARATOR",
      "outputs": [
        {
          "internalType": "bytes32",
          "name": "",
          "type": "bytes32"
        }
      ],
      "stateMutability": "view",
      "type": "function"
    },
    {
      "inputs": [],
      "name": "KEY_BATCH_MINT_PARAMS_TYPEHASH",
      "outputs": [
        {
          "internalType": "bytes32",
          "name": "",
          "type": "bytes32"
        }
      ],
      "stateMutability": "view",
      "type": "function"
    },
    {
      "inputs": [],
      "name": "KEY_MINT_PARAMS_TYPEHASH",
      "outputs": [
        {
          "internalType": "bytes32",
          "name": "",
          "type": "bytes32"
        }
      ],
      "stateMutability": "view",
      "type": "function"
    },
    {
      "inputs": [],
      "name": "OPERATOR_ROLE",
      "outputs": [
        {
          "internalType": "bytes32",
          "name": "",
          "type": "bytes32"
        }
      ],
      "stateMutability": "view",
      "type": "function"
    },
    {
      "inputs": [
        {
          "internalType": "address",
          "name": "profileContractAddress",
          "type": "address"
        },
        {
          "internalType": "uint256",
          "name": "profileTokenId",
          "type": "uint256"
        },
        {
          "internalType": "uint256",
          "name": "spaceshipTokenId",
          "type": "uint256"
        },
        {
          "internalType": "uint256[]",
          "name": "keyTokenIds",
          "type": "uint256[]"
        },
        {
          "internalType": "bytes",
          "name": "signature",
          "type": "bytes"
        }
      ],
      "name": "batchMintKey",
      "outputs": [],
      "stateMutability": "payable",
      "type": "function"
    },
    {
      "inputs": [],
      "name": "currentTotalContribution",
      "outputs": [
        {
          "internalType": "uint256",
          "name": "",
          "type": "uint256"
        }
      ],
      "stateMutability": "view",
      "type": "function"
    },
    {
      "inputs": [],
      "name": "eip712Domain",
      "outputs": [
        {
          "internalType": "bytes1",
          "name": "fields",
          "type": "bytes1"
        },
        {
          "internalType": "string",
          "name": "name",
          "type": "string"
        },
        {
          "internalType": "string",
          "name": "version",
          "type": "string"
        },
        {
          "internalType": "uint256",
          "name": "chainId",
          "type": "uint256"
        },
        {
          "internalType": "address",
          "name": "verifyingContract",
          "type": "address"
        },
        {
          "internalType": "bytes32",
          "name": "salt",
          "type": "bytes32"
        },
        {
          "internalType": "uint256[]",
          "name": "extensions",
          "type": "uint256[]"
        }
      ],
      "stateMutability": "view",
      "type": "function"
    },
    {
      "inputs": [
        {
          "internalType": "bytes32",
          "name": "role",
          "type": "bytes32"
        }
      ],
      "name": "getRoleAdmin",
      "outputs": [
        {
          "internalType": "bytes32",
          "name": "",
          "type": "bytes32"
        }
      ],
      "stateMutability": "view",
      "type": "function"
    },
    {
      "inputs": [
        {
          "components": [
            {
              "internalType": "address",
              "name": "profileContractAddress",
              "type": "address"
            },
            {
              "internalType": "uint256",
              "name": "profileTokenId",
              "type": "uint256"
            },
            {
              "internalType": "uint256",
              "name": "spaceshipTokenId",
              "type": "uint256"
            },
            {
              "internalType": "uint256",
              "name": "keyTokenId",
              "type": "uint256"
            },
            {
              "internalType": "uint256",
              "name": "contribution",
              "type": "uint256"
            }
          ],
          "internalType": "struct KeyMinterUniverse1V1.KeyMintParams",
          "name": "keyMintParams",
          "type": "tuple"
        },
        {
          "internalType": "bytes",
          "name": "signature",
          "type": "bytes"
        }
      ],
      "name": "getSigner",
      "outputs": [
        {
          "internalType": "address",
          "name": "",
          "type": "address"
        }
      ],
      "stateMutability": "view",
      "type": "function"
    },
    {
      "inputs": [
        {
          "components": [
            {
              "internalType": "address",
              "name": "profileContractAddress",
              "type": "address"
            },
            {
              "internalType": "uint256",
              "name": "profileTokenId",
              "type": "uint256"
            },
            {
              "internalType": "uint256",
              "name": "spaceshipTokenId",
              "type": "uint256"
            },
            {
              "internalType": "uint256[]",
              "name": "keyTokenIds",
              "type": "uint256[]"
            },
            {
              "internalType": "uint256",
              "name": "contribution",
              "type": "uint256"
            }
          ],
          "internalType": "struct KeyMinterUniverse1V1.KeyBatchMintParams",
          "name": "keyBatchMintParams",
          "type": "tuple"
        },
        {
          "internalType": "bytes",
          "name": "signature",
          "type": "bytes"
        }
      ],
      "name": "getSigner",
      "outputs": [
        {
          "internalType": "address",
          "name": "",
          "type": "address"
        }
      ],
      "stateMutability": "view",
      "type": "function"
    },
    {
      "inputs": [
        {
          "internalType": "address",
          "name": "user",
          "type": "address"
        }
      ],
      "name": "getUserContribution",
      "outputs": [
        {
          "internalType": "uint128",
          "name": "",
          "type": "uint128"
        }
      ],
      "stateMutability": "view",
      "type": "function"
    },
    {
      "inputs": [
        {
          "internalType": "address",
          "name": "user",
          "type": "address"
        }
      ],
      "name": "getUserMintCount",
      "outputs": [
        {
          "internalType": "uint128",
          "name": "",
          "type": "uint128"
        }
      ],
      "stateMutability": "view",
      "type": "function"
    },
    {
      "inputs": [
        {
          "internalType": "bytes32",
          "name": "role",
          "type": "bytes32"
        },
        {
          "internalType": "address",
          "name": "account",
          "type": "address"
        }
      ],
      "name": "grantRole",
      "outputs": [],
      "stateMutability": "nonpayable",
      "type": "function"
    },
    {
      "inputs": [
        {
          "internalType": "bytes32",
          "name": "role",
          "type": "bytes32"
        },
        {
          "internalType": "address",
          "name": "account",
          "type": "address"
        }
      ],
      "name": "hasRole",
      "outputs": [
        {
          "internalType": "bool",
          "name": "",
          "type": "bool"
        }
      ],
      "stateMutability": "view",
      "type": "function"
    },
    {
      "inputs": [
        {
          "internalType": "address payable",
          "name": "_vault",
          "type": "address"
        },
        {
          "internalType": "address",
          "name": "defaultAdmin",
          "type": "address"
        },
        {
          "internalType": "address",
          "name": "operator",
          "type": "address"
        },
        {
          "internalType": "address",
          "name": "_serviceAdmin",
          "type": "address"
        },
        {
          "internalType": "contract ISpaceshipUniverse1",
          "name": "_spaceshipUniverse1",
          "type": "address"
        },
        {
          "internalType": "contract IKeyUniverse1",
          "name": "_keyUniverse1",
          "type": "address"
        },
        {
          "internalType": "contract IERC6551Registry",
          "name": "_tokenBoundRegistry",
          "type": "address"
        },
        {
          "internalType": "contract IERC6551Account",
          "name": "_tokenBoundImplementation",
          "type": "address"
        }
      ],
      "name": "initialize",
      "outputs": [],
      "stateMutability": "nonpayable",
      "type": "function"
    },
    {
      "inputs": [],
      "name": "isRefundEnabled",
      "outputs": [
        {
          "internalType": "bool",
          "name": "",
          "type": "bool"
        }
      ],
      "stateMutability": "view",
      "type": "function"
    },
    {
      "inputs": [],
      "name": "keyUniverse1",
      "outputs": [
        {
          "internalType": "contract IKeyUniverse1",
          "name": "",
          "type": "address"
        }
      ],
      "stateMutability": "view",
      "type": "function"
    },
    {
      "inputs": [],
      "name": "maxContributionPerUser",
      "outputs": [
        {
          "internalType": "uint128",
          "name": "",
          "type": "uint128"
        }
      ],
      "stateMutability": "view",
      "type": "function"
    },
    {
      "inputs": [
        {
          "internalType": "uint256",
          "name": "",
          "type": "uint256"
        }
      ],
      "name": "maxContributionSchedulePerMint",
      "outputs": [
        {
          "internalType": "uint128",
          "name": "",
          "type": "uint128"
        }
      ],
      "stateMutability": "view",
      "type": "function"
    },
    {
      "inputs": [],
      "name": "maxTotalContribution",
      "outputs": [
        {
          "internalType": "uint256",
          "name": "",
          "type": "uint256"
        }
      ],
      "stateMutability": "view",
      "type": "function"
    },
    {
      "inputs": [
        {
          "internalType": "address",
          "name": "profileContractAddress",
          "type": "address"
        },
        {
          "internalType": "uint256",
          "name": "profileTokenId",
          "type": "uint256"
        },
        {
          "internalType": "uint256",
          "name": "spaceshipTokenId",
          "type": "uint256"
        },
        {
          "internalType": "uint256",
          "name": "keyTokenId",
          "type": "uint256"
        },
        {
          "internalType": "bytes",
          "name": "signature",
          "type": "bytes"
        }
      ],
      "name": "mintKey",
      "outputs": [],
      "stateMutability": "payable",
      "type": "function"
    },
    {
      "inputs": [],
      "name": "proxiableUUID",
      "outputs": [
        {
          "internalType": "bytes32",
          "name": "",
          "type": "bytes32"
        }
      ],
      "stateMutability": "view",
      "type": "function"
    },
    {
      "inputs": [],
      "name": "refund",
      "outputs": [],
      "stateMutability": "nonpayable",
      "type": "function"
    },
    {
      "inputs": [
        {
          "internalType": "bytes32",
          "name": "role",
          "type": "bytes32"
        },
        {
          "internalType": "address",
          "name": "account",
          "type": "address"
        }
      ],
      "name": "renounceRole",
      "outputs": [],
      "stateMutability": "nonpayable",
      "type": "function"
    },
    {
      "inputs": [
        {
          "internalType": "bytes32",
          "name": "role",
          "type": "bytes32"
        },
        {
          "internalType": "address",
          "name": "account",
          "type": "address"
        }
      ],
      "name": "revokeRole",
      "outputs": [],
      "stateMutability": "nonpayable",
      "type": "function"
    },
    {
      "inputs": [],
      "name": "serviceAdmin",
      "outputs": [
        {
          "internalType": "address",
          "name": "",
          "type": "address"
        }
      ],
      "stateMutability": "view",
      "type": "function"
    },
    {
      "inputs": [
        {
          "internalType": "bool",
          "name": "_isRefundEnabled",
          "type": "bool"
        }
      ],
      "name": "setIsRefundEnabled",
      "outputs": [],
      "stateMutability": "nonpayable",
      "type": "function"
    },
    {
      "inputs": [
        {
          "internalType": "uint128",
          "name": "_maxContributionPerUser",
          "type": "uint128"
        }
      ],
      "name": "setMaxContributionPerUser",
      "outputs": [],
      "stateMutability": "nonpayable",
      "type": "function"
    },
    {
      "inputs": [
        {
          "internalType": "uint128[]",
          "name": "_maxContributionSchedulePerMint",
          "type": "uint128[]"
        }
      ],
      "name": "setMaxContributionSchedulePerMint",
      "outputs": [],
      "stateMutability": "nonpayable",
      "type": "function"
    },
    {
      "inputs": [
        {
          "internalType": "uint256",
          "name": "_maxTotalContribution",
          "type": "uint256"
        }
      ],
      "name": "setMaxTotalContribution",
      "outputs": [],
      "stateMutability": "nonpayable",
      "type": "function"
    },
    {
      "inputs": [
        {
          "internalType": "address",
          "name": "_serviceAdmin",
          "type": "address"
        }
      ],
      "name": "setServiceAdmin",
      "outputs": [],
      "stateMutability": "nonpayable",
      "type": "function"
    },
    {
      "inputs": [
        {
          "internalType": "contract IERC6551Account",
          "name": "contractAddress",
          "type": "address"
        }
      ],
      "name": "setTokenBoundImplementation",
      "outputs": [],
      "stateMutability": "nonpayable",
      "type": "function"
    },
    {
      "inputs": [
        {
          "internalType": "contract IERC6551Registry",
          "name": "contractAddress",
          "type": "address"
        }
      ],
      "name": "setTokenBoundRegistry",
      "outputs": [],
      "stateMutability": "nonpayable",
      "type": "function"
    },
    {
      "inputs": [
        {
          "internalType": "address payable",
          "name": "_vault",
          "type": "address"
        }
      ],
      "name": "setVault",
      "outputs": [],
      "stateMutability": "nonpayable",
      "type": "function"
    },
    {
      "inputs": [],
      "name": "spaceshipUniverse1",
      "outputs": [
        {
          "internalType": "contract ISpaceshipUniverse1",
          "name": "",
          "type": "address"
        }
      ],
      "stateMutability": "view",
      "type": "function"
    },
    {
      "inputs": [
        {
          "internalType": "bytes4",
          "name": "interfaceId",
          "type": "bytes4"
        }
      ],
      "name": "supportsInterface",
      "outputs": [
        {
          "internalType": "bool",
          "name": "",
          "type": "bool"
        }
      ],
      "stateMutability": "view",
      "type": "function"
    },
    {
      "inputs": [],
      "name": "tokenBoundImplementation",
      "outputs": [
        {
          "internalType": "contract IERC6551Account",
          "name": "",
          "type": "address"
        }
      ],
      "stateMutability": "view",
      "type": "function"
    },
    {
      "inputs": [],
      "name": "tokenBoundRegistry",
      "outputs": [
        {
          "internalType": "contract IERC6551Registry",
          "name": "",
          "type": "address"
        }
      ],
      "stateMutability": "view",
      "type": "function"
    },
    {
      "inputs": [
        {
          "internalType": "address",
          "name": "newImplementation",
          "type": "address"
        }
      ],
      "name": "upgradeTo",
      "outputs": [],
      "stateMutability": "nonpayable",
      "type": "function"
    },
    {
      "inputs": [
        {
          "internalType": "address",
          "name": "newImplementation",
          "type": "address"
        },
        {
          "internalType": "bytes",
          "name": "data",
          "type": "bytes"
        }
      ],
      "name": "upgradeToAndCall",
      "outputs": [],
      "stateMutability": "payable",
      "type": "function"
    },
    {
      "inputs": [],
      "name": "vault",
      "outputs": [
        {
          "internalType": "address payable",
          "name": "",
          "type": "address"
        }
      ],
      "stateMutability": "view",
      "type": "function"
    },
    {
      "stateMutability": "payable",
      "type": "receive"
    }
  ],
  "bytecode": "0x60a0604052306080523480156200001557600080fd5b506200002062000026565b620000e7565b600054610100900460ff1615620000935760405162461bcd60e51b815260206004820152602760248201527f496e697469616c697a61626c653a20636f6e747261637420697320696e697469604482015266616c697a696e6760c81b606482015260840160405180910390fd5b60005460ff90811614620000e5576000805460ff191660ff9081179091556040519081527f7f26b83ff96e1f2b6a682f133852f6798a09c465da95921460cefb38474024989060200160405180910390a15b565b6080516143ae6200011f60003960008181610cd301528181610d6901528181610e7001528181610f0601526116e501526143ae6000f3fe6080604052600436106102d55760003560e01c80637818148211610179578063abea62de116100d6578063d547741f1161008a578063f5b541a611610064578063f5b541a6146108ca578063fbfa77cf146108fe578063fdf250df1461091f57600080fd5b8063d547741f14610855578063da998dca14610875578063ef575fab1461089657600080fd5b8063bb8b2b47116100bb578063bb8b2b47146107cc578063bf61e28214610815578063c4ea8da01461083557600080fd5b8063abea62de146107a2578063b20da07e146107b557600080fd5b80638a29e2de1161012d5780639d245669116101125780639d2456691461074b5780639f41d0701461076c578063a217fddf1461078d57600080fd5b80638a29e2de146106e557806391d148541461070557600080fd5b80637bda34661161015e5780637bda34661461068257806384b0196e146106a25780638746475a146106ca57600080fd5b806378181482146106385780637852dbc01461065857600080fd5b80634d8edd051161023257806356874e0a116101e65780636817031b116101c05780636817031b146105d75780636aa4e676146105f75780636d7b0ebb1461061857600080fd5b806356874e0a14610524578063590e1ae3146105a257806359d4fb53146105b757600080fd5b80635239ba97116102175780635239ba97146104dc57806352c0e4ea146104ef57806352d1902d1461050f57600080fd5b80634d8edd05146104955780634f1ef286146104c957600080fd5b80632f2ff15d116102895780633644e5151161026e5780633644e5151461044057806336568abe146104555780633659cfe61461047557600080fd5b80632f2ff15d1461040957806334dff4f91461042957600080fd5b80630b0a5760116102ba5780630b0a57601461038b5780631f3cae07146103ab578063248a9ca3146103cb57600080fd5b806301ffc9a71461031e57806307051b9a1461035357600080fd5b36610319576101395460ff16610317576040517fa6b4476c00000000000000000000000000000000000000000000000000000000815260040160405180910390fd5b005b600080fd5b34801561032a57600080fd5b5061033e610339366004613787565b610940565b60405190151581526020015b60405180910390f35b34801561035f57600080fd5b5061037361036e3660046138d7565b6109d9565b6040516001600160a01b03909116815260200161034a565b34801561039757600080fd5b506103176103a636600461396d565b610a93565b3480156103b757600080fd5b506103176103c636600461396d565b610b4d565b3480156103d757600080fd5b506103fb6103e636600461398a565b600090815260c9602052604090206001015490565b60405190815260200161034a565b34801561041557600080fd5b506103176104243660046139a3565b610bff565b34801561043557600080fd5b506103fb6101385481565b34801561044c57600080fd5b506103fb610c29565b34801561046157600080fd5b506103176104703660046139a3565b610c38565b34801561048157600080fd5b5061031761049036600461396d565b610cc9565b3480156104a157600080fd5b506103fb7fb7dfa2995b71a966a3c8c74f9690c557b4cb27615a83dc6cec095b66692a4d4181565b6103176104d73660046139d3565b610e66565b6103176104ea366004613a91565b610ff0565b3480156104fb57600080fd5b5061037361050a366004613b1b565b611634565b34801561051b57600080fd5b506103fb6116d8565b34801561053057600080fd5b5061058161053f36600461396d565b6001600160a01b0316600090815261013a602052604090205470010000000000000000000000000000000090046fffffffffffffffffffffffffffffffff1690565b6040516fffffffffffffffffffffffffffffffff909116815260200161034a565b3480156105ae57600080fd5b5061031761179d565b3480156105c357600080fd5b506105816105d236600461398a565b6118a0565b3480156105e357600080fd5b506103176105f236600461396d565b6118e7565b34801561060357600080fd5b5061013354610373906001600160a01b031681565b34801561062457600080fd5b50610317610633366004613bfd565b611959565b34801561064457600080fd5b5061031761065336600461396d565b6119f3565b34801561066457600080fd5b5061013654610581906fffffffffffffffffffffffffffffffff1681565b34801561068e57600080fd5b5061031761069d366004613c18565b611a84565b3480156106ae57600080fd5b506106b7611af2565b60405161034a9796959493929190613d3b565b3480156106d657600080fd5b506101395461033e9060ff1681565b3480156106f157600080fd5b50610317610700366004613dc5565b611bb4565b34801561071157600080fd5b5061033e6107203660046139a3565b600091825260c9602090815260408084206001600160a01b0393909316845291905290205460ff1690565b34801561075757600080fd5b5061013254610373906001600160a01b031681565b34801561077857600080fd5b5061013154610373906001600160a01b031681565b34801561079957600080fd5b506103fb600081565b6103176107b0366004613e6e565b61209a565b3480156107c157600080fd5b506103fb6101375481565b3480156107d857600080fd5b506105816107e736600461396d565b6001600160a01b0316600090815261013a60205260409020546fffffffffffffffffffffffffffffffff1690565b34801561082157600080fd5b5061031761083036600461398a565b612645565b34801561084157600080fd5b50610317610850366004613ece565b6126a5565b34801561086157600080fd5b506103176108703660046139a3565b612710565b34801561088157600080fd5b5061013054610373906001600160a01b031681565b3480156108a257600080fd5b506103fb7f85876679bb13db0550081eb6c1d7387ccd9f282f25633492e066e1fe7dbb671781565b3480156108d657600080fd5b506103fb7f97667070c54ef182b0f5858b034beac1b6f3089aa2d3188bb1e8929f4fa9b92981565b34801561090a57600080fd5b5061012f54610373906001600160a01b031681565b34801561092b57600080fd5b5061013454610373906001600160a01b031681565b60007fffffffff0000000000000000000000000000000000000000000000000000000082167f7965db0b0000000000000000000000000000000000000000000000000000000014806109d357507f01ffc9a7000000000000000000000000000000000000000000000000000000007fffffffff000000000000000000000000000000000000000000000000000000008316145b92915050565b6000807fb7dfa2995b71a966a3c8c74f9690c557b4cb27615a83dc6cec095b66692a4d4184600001518560200151866040015187606001518860800151604051602001610a57969594939291909586526001600160a01b0394909416602086015260408501929092526060840152608083015260a082015260c00190565b6040516020818303038152906040528051906020012090506000610a7a82612735565b90506000610a88828661277d565b509695505050505050565b6000610a9e816127c2565b6001600160a01b038216610ade576040517fe6c4247b00000000000000000000000000000000000000000000000000000000815260040160405180910390fd5b61013380547fffffffffffffffffffffffff0000000000000000000000000000000000000000166001600160a01b0384169081179091556040519081527f7592af123a1000777bc7187f836b97a6419b1c09a06815cf06f9e130fd790150906020015b60405180910390a15050565b6000610b58816127c2565b6001600160a01b038216610b98576040517fe6c4247b00000000000000000000000000000000000000000000000000000000815260040160405180910390fd5b61013480547fffffffffffffffffffffffff0000000000000000000000000000000000000000166001600160a01b0384169081179091556040519081527f8353814c92005e2ad7a7759279f901807636279be137976423fe356f8a2c516d90602001610b41565b600082815260c96020526040902060010154610c1a816127c2565b610c2483836127cc565b505050565b6000610c3361288c565b905090565b6001600160a01b0381163314610cbb5760405162461bcd60e51b815260206004820152602f60248201527f416363657373436f6e74726f6c3a2063616e206f6e6c792072656e6f756e636560448201527f20726f6c657320666f722073656c66000000000000000000000000000000000060648201526084015b60405180910390fd5b610cc58282612896565b5050565b6001600160a01b037f0000000000000000000000000000000000000000000000000000000000000000163003610d675760405162461bcd60e51b815260206004820152602c60248201527f46756e6374696f6e206d7573742062652063616c6c6564207468726f7567682060448201527f64656c656761746563616c6c00000000000000000000000000000000000000006064820152608401610cb2565b7f00000000000000000000000000000000000000000000000000000000000000006001600160a01b0316610dc27f360894a13ba1a3210667c828492db98dca3e2076cc3735a920a3ca505d382bbc546001600160a01b031690565b6001600160a01b031614610e3e5760405162461bcd60e51b815260206004820152602c60248201527f46756e6374696f6e206d7573742062652063616c6c6564207468726f7567682060448201527f6163746976652070726f787900000000000000000000000000000000000000006064820152608401610cb2565b610e4781612937565b60408051600080825260208201909252610e6391839190612942565b50565b6001600160a01b037f0000000000000000000000000000000000000000000000000000000000000000163003610f045760405162461bcd60e51b815260206004820152602c60248201527f46756e6374696f6e206d7573742062652063616c6c6564207468726f7567682060448201527f64656c656761746563616c6c00000000000000000000000000000000000000006064820152608401610cb2565b7f00000000000000000000000000000000000000000000000000000000000000006001600160a01b0316610f5f7f360894a13ba1a3210667c828492db98dca3e2076cc3735a920a3ca505d382bbc546001600160a01b031690565b6001600160a01b031614610fdb5760405162461bcd60e51b815260206004820152602c60248201527f46756e6374696f6e206d7573742062652063616c6c6564207468726f7567682060448201527f6163746976652070726f787900000000000000000000000000000000000000006064820152608401610cb2565b610fe482612937565b610cc582826001612942565b6101395460ff1680156110035750600034115b1561103a576040517f63a9c86c00000000000000000000000000000000000000000000000000000000815260040160405180910390fd5b60006110756040518060a00160405280886001600160a01b031681526020018781526020018681526020018581526020013481525083611634565b610130549091506001600160a01b038083169116146110c0576040517f8baa579f00000000000000000000000000000000000000000000000000000000815260040160405180910390fd5b6110ca8686612ae2565b61013454610133546040517f5e9bc5360000000000000000000000000000000000000000000000000000000081526001600160a01b039182166004820152466024820152888216604482015260648101889052600060848201819052929190911690635e9bc5369060a401602060405180830381865afa158015611152573d6000803e3d6000fd5b505050506040513d601f19601f820116820180604052508101906111769190613ef0565b610132546040517f6352211e000000000000000000000000000000000000000000000000000000008152600481018890529192506001600160a01b0380841692911690636352211e90602401602060405180830381865afa1580156111df573d6000803e3d6000fd5b505050506040513d601f19601f820116820180604052508101906112039190613ef0565b6001600160a01b031614611243576040517f462c468b00000000000000000000000000000000000000000000000000000000815260040160405180910390fd5b835133600090815261013a6020526040902080546112879070010000000000000000000000000000000090046fffffffffffffffffffffffffffffffff1683612ba6565b6fffffffffffffffffffffffffffffffff163411156112d2576040517fbcbb81a300000000000000000000000000000000000000000000000000000000815260040160405180910390fd5b8054349082906000906112f89084906fffffffffffffffffffffffffffffffff16613f3c565b92506101000a8154816fffffffffffffffffffffffffffffffff02191690836fffffffffffffffffffffffffffffffff160217905550818160000160108282829054906101000a90046fffffffffffffffffffffffffffffffff1661135d9190613f3c565b92506101000a8154816fffffffffffffffffffffffffffffffff02191690836fffffffffffffffffffffffffffffffff1602179055503461013860008282546113a69190613f6c565b90915550506101365481546fffffffffffffffffffffffffffffffff918216911611156113ff576040517f5425420000000000000000000000000000000000000000000000000000000000815260040160405180910390fd5b6101375461013854111561143f576040517f0b78840300000000000000000000000000000000000000000000000000000000815260040160405180910390fd5b6101345461013354610132546040517f5e9bc5360000000000000000000000000000000000000000000000000000000081526001600160a01b0392831660048201524660248201529082166044820152606481018a9052600060848201819052929190911690635e9bc5369060a401602060405180830381865afa1580156114cb573d6000803e3d6000fd5b505050506040513d601f19601f820116820180604052508101906114ef9190613ef0565b610131546040517f75ceb3410000000000000000000000000000000000000000000000000000000081529192506001600160a01b0316906375ceb3419061153c9084908b90600401613f7f565b600060405180830381600087803b15801561155657600080fd5b505af115801561156a573d6000803e3d6000fd5b505050505050505050600047111561162d5761012f546040516000916001600160a01b031690611f409047905b600060405180830381858888f193505050503d80600081146115d5576040519150601f19603f3d011682016040523d82523d6000602084013e6115da565b606091505b505090508061162b5760405162461bcd60e51b815260206004820152601d60248201527f6661696c656420746f2073656e6420657468657220746f207661756c740000006044820152606401610cb2565b505b5050505050565b6000807f85876679bb13db0550081eb6c1d7387ccd9f282f25633492e066e1fe7dbb6717846000015185602001518660400151876060015160405160200161167c9190613fa1565b604051602081830303815290604052805190602001208860800151604051602001610a57969594939291909586526001600160a01b0394909416602086015260408501929092526060840152608083015260a082015260c00190565b6000306001600160a01b037f000000000000000000000000000000000000000000000000000000000000000016146117785760405162461bcd60e51b815260206004820152603860248201527f555550535570677261646561626c653a206d757374206e6f742062652063616c60448201527f6c6564207468726f7567682064656c656761746563616c6c00000000000000006064820152608401610cb2565b507f360894a13ba1a3210667c828492db98dca3e2076cc3735a920a3ca505d382bbc90565b6101395460ff166117da576040517fa6b4476c00000000000000000000000000000000000000000000000000000000815260040160405180910390fd5b33600081815261013a6020526040808220805491519093926fffffffffffffffffffffffffffffffff90921680156108fc0292909190818181858888f1935050505015801561182d573d6000803e3d6000fd5b5080546040516fffffffffffffffffffffffffffffffff909116815233907fbb28353e4598c3b9199101a66e0989549b659a59a54d2c27fbb183f1932c8e6d9060200160405180910390a280547fffffffffffffffffffffffffffffffff00000000000000000000000000000000169055565b61013581815481106118b157600080fd5b9060005260206000209060029182820401919006601002915054906101000a90046fffffffffffffffffffffffffffffffff1681565b60006118f2816127c2565b61012f80547fffffffffffffffffffffffff0000000000000000000000000000000000000000166001600160a01b0384169081179091556040519081527fd459c7242e23d490831b5676a611c4342d899d28f342d89ae80793e56a930f3090602001610b41565b7f97667070c54ef182b0f5858b034beac1b6f3089aa2d3188bb1e8929f4fa9b929611983816127c2565b61013680547fffffffffffffffffffffffffffffffff00000000000000000000000000000000166fffffffffffffffffffffffffffffffff84169081179091556040519081527fe8fb70487ae07c72e13381d69eab43f9a5fc799eaef4142aa7d491d247e93cb490602001610b41565b7f97667070c54ef182b0f5858b034beac1b6f3089aa2d3188bb1e8929f4fa9b929611a1d816127c2565b61013080547fffffffffffffffffffffffff0000000000000000000000000000000000000000166001600160a01b0384169081179091556040519081527f06fdd9e3906298a8c5ab27f33df18b41c8f209c70085bb9dfa31c6e3e86e36c690602001610b41565b7f97667070c54ef182b0f5858b034beac1b6f3089aa2d3188bb1e8929f4fa9b929611aae816127c2565b8151611ac290610135906020850190613626565b507f836acc74361402ef4371a48dc77bdc6684bee70a88edf553bec3cc963fa66bb582604051610b419190613fd7565b60006060806000806000606060fb546000801b148015611b12575060fc54155b611b5e5760405162461bcd60e51b815260206004820152601560248201527f4549503731323a20556e696e697469616c697a656400000000000000000000006044820152606401610cb2565b611b66612cbc565b611b6e612d4e565b604080516000808252602082019092527f0f000000000000000000000000000000000000000000000000000000000000009b939a50919850469750309650945092509050565b600054610100900460ff1615808015611bd45750600054600160ff909116105b80611bee5750303b158015611bee575060005460ff166001145b611c605760405162461bcd60e51b815260206004820152602e60248201527f496e697469616c697a61626c653a20636f6e747261637420697320616c72656160448201527f647920696e697469616c697a65640000000000000000000000000000000000006064820152608401610cb2565b600080547fffffffffffffffffffffffffffffffffffffffffffffffffffffffffffffff001660011790558015611cbe57600080547fffffffffffffffffffffffffffffffffffffffffffffffffffffffffffff00ff166101001790555b611d326040518060400160405280601281526020017f4b65794d696e746572556e6976657273653100000000000000000000000000008152506040518060400160405280600181526020017f3100000000000000000000000000000000000000000000000000000000000000815250612d5d565b61012f80546001600160a01b03808c167fffffffffffffffffffffffff000000000000000000000000000000000000000092831617909255610131805492871692909116919091179055611d876000896127cc565b611db17f97667070c54ef182b0f5858b034beac1b6f3089aa2d3188bb1e8929f4fa9b929886127cc565b61013080546001600160a01b038089167fffffffffffffffffffffffff000000000000000000000000000000000000000092831617909255610134805486841690831617905561013380548584169083161790556101328054928816929091169190911790556040805160208101909152678ac7230489e800008152611e3c906101359060016136f5565b5061013680547fffffffffffffffffffffffffffffffff0000000000000000000000000000000016683635c9adc5dea0000090811790915569d3c21bcecceda1000000610137556040519081527fe8fb70487ae07c72e13381d69eab43f9a5fc799eaef4142aa7d491d247e93cb49060200160405180910390a1610136546040516fffffffffffffffffffffffffffffffff90911681527fe8fb70487ae07c72e13381d69eab43f9a5fc799eaef4142aa7d491d247e93cb49060200160405180910390a17f945c6ede89a0741ce7e65bedab600a64af83c28fef71c6c2a248f9bda3b88bd361013754604051611f3491815260200190565b60405180910390a16040516001600160a01b038a1681527fd459c7242e23d490831b5676a611c4342d899d28f342d89ae80793e56a930f309060200160405180910390a16040516001600160a01b03871681527f06fdd9e3906298a8c5ab27f33df18b41c8f209c70085bb9dfa31c6e3e86e36c69060200160405180910390a16040516001600160a01b03831681527f7592af123a1000777bc7187f836b97a6419b1c09a06815cf06f9e130fd7901509060200160405180910390a16040516001600160a01b03841681527f8353814c92005e2ad7a7759279f901807636279be137976423fe356f8a2c516d9060200160405180910390a1801561208f57600080547fffffffffffffffffffffffffffffffffffffffffffffffffffffffffffff00ff169055604051600181527f7f26b83ff96e1f2b6a682f133852f6798a09c465da95921460cefb38474024989060200160405180910390a15b505050505050505050565b6101395460ff1680156120ad5750600034115b156120e4576040517f63a9c86c00000000000000000000000000000000000000000000000000000000815260040160405180910390fd5b600061211f6040518060a00160405280886001600160a01b0316815260200187815260200186815260200185815260200134815250836109d9565b610130549091506001600160a01b0380831691161461216a576040517f8baa579f00000000000000000000000000000000000000000000000000000000815260040160405180910390fd5b6121748686612ae2565b61013454610133546040517f5e9bc5360000000000000000000000000000000000000000000000000000000081526001600160a01b039182166004820152466024820152888216604482015260648101889052600060848201819052929190911690635e9bc5369060a401602060405180830381865afa1580156121fc573d6000803e3d6000fd5b505050506040513d601f19601f820116820180604052508101906122209190613ef0565b610132546040517f6352211e000000000000000000000000000000000000000000000000000000008152600481018890529192506001600160a01b0380841692911690636352211e90602401602060405180830381865afa158015612289573d6000803e3d6000fd5b505050506040513d601f19601f820116820180604052508101906122ad9190613ef0565b6001600160a01b0316146122ed576040517f462c468b00000000000000000000000000000000000000000000000000000000815260040160405180910390fd5b33600090815261013a60205260409020805461232e9070010000000000000000000000000000000090046fffffffffffffffffffffffffffffffff16612de4565b6fffffffffffffffffffffffffffffffff16341115612379576040517fbcbb81a300000000000000000000000000000000000000000000000000000000815260040160405180910390fd5b80543490829060009061239f9084906fffffffffffffffffffffffffffffffff16613f3c565b92506101000a8154816fffffffffffffffffffffffffffffffff02191690836fffffffffffffffffffffffffffffffff16021790555060018160000160108282829054906101000a90046fffffffffffffffffffffffffffffffff166124059190613f3c565b92506101000a8154816fffffffffffffffffffffffffffffffff02191690836fffffffffffffffffffffffffffffffff16021790555034610138600082825461244e9190613f6c565b90915550506101365481546fffffffffffffffffffffffffffffffff918216911611156124a7576040517f5425420000000000000000000000000000000000000000000000000000000000815260040160405180910390fd5b610137546101385411156124e7576040517f0b78840300000000000000000000000000000000000000000000000000000000815260040160405180910390fd5b6101345461013354610132546040517f5e9bc5360000000000000000000000000000000000000000000000000000000081526001600160a01b039283166004820152466024820152908216604482015260648101899052600060848201819052929190911690635e9bc5369060a401602060405180830381865afa158015612573573d6000803e3d6000fd5b505050506040513d601f19601f820116820180604052508101906125979190613ef0565b610131546040517f40c10f190000000000000000000000000000000000000000000000000000000081526001600160a01b038084166004830152602482018a90529293509116906340c10f1990604401600060405180830381600087803b15801561260157600080fd5b505af1158015612615573d6000803e3d6000fd5b5050505050505050600047111561162d5761012f546040516000916001600160a01b031690611f40904790611597565b7f97667070c54ef182b0f5858b034beac1b6f3089aa2d3188bb1e8929f4fa9b92961266f816127c2565b6101378290556040518281527f945c6ede89a0741ce7e65bedab600a64af83c28fef71c6c2a248f9bda3b88bd390602001610b41565b60006126b0816127c2565b61013980547fffffffffffffffffffffffffffffffffffffffffffffffffffffffffffffff00168315159081179091556040519081527f187a6c0cc324e255e5b16f23b50ae4dcc9d70cc9d37b7d162827225b3e55e52990602001610b41565b600082815260c9602052604090206001015461272b816127c2565b610c248383612896565b60006109d361274261288c565b836040517f19010000000000000000000000000000000000000000000000000000000000008152600281019290925260228201526042902090565b60008082516041036127b35760208301516040840151606085015160001a6127a787828585612e80565b945094505050506127bb565b506000905060025b9250929050565b610e638133612f44565b600082815260c9602090815260408083206001600160a01b038516845290915290205460ff16610cc557600082815260c9602090815260408083206001600160a01b0385168452909152902080547fffffffffffffffffffffffffffffffffffffffffffffffffffffffffffffff001660011790556128483390565b6001600160a01b0316816001600160a01b0316837f2f8788117e7eff1d82e926ec794901d17c78024a50270940304540a733656f0d60405160405180910390a45050565b6000610c33612fb9565b600082815260c9602090815260408083206001600160a01b038516845290915290205460ff1615610cc557600082815260c9602090815260408083206001600160a01b038516808552925280832080547fffffffffffffffffffffffffffffffffffffffffffffffffffffffffffffff0016905551339285917ff6391f5c32d9c69d2a47ea670b442974b53935d1edc7fd64eb21e047a839171b9190a45050565b6000610cc5816127c2565b7f4910fdfa16fed3260ed0e7147f7cc6da11a60208b5b9406d12a635614ffd91435460ff161561297557610c248361302d565b826001600160a01b03166352d1902d6040518163ffffffff1660e01b8152600401602060405180830381865afa9250505080156129cf575060408051601f3d908101601f191682019092526129cc9181019061402d565b60015b612a415760405162461bcd60e51b815260206004820152602e60248201527f45524331393637557067726164653a206e657720696d706c656d656e7461746960448201527f6f6e206973206e6f7420555550530000000000000000000000000000000000006064820152608401610cb2565b7f360894a13ba1a3210667c828492db98dca3e2076cc3735a920a3ca505d382bbc8114612ad65760405162461bcd60e51b815260206004820152602960248201527f45524331393637557067726164653a20756e737570706f727465642070726f7860448201527f6961626c655555494400000000000000000000000000000000000000000000006064820152608401610cb2565b50610c24838383613103565b6040517f6352211e0000000000000000000000000000000000000000000000000000000081526004810182905233906001600160a01b03841690636352211e90602401602060405180830381865afa158015612b42573d6000803e3d6000fd5b505050506040513d601f19601f82011682018060405250810190612b669190613ef0565b6001600160a01b031614610cc5576040517fd48af24600000000000000000000000000000000000000000000000000000000815260040160405180910390fd5b610135546000908103612bca57506fffffffffffffffffffffffffffffffff6109d3565b6000835b612bd88486613f6c565b811015612cb457610135548110612c4e576101358054612bfa90600190614046565b81548110612c0a57612c0a614059565b90600052602060002090600291828204019190066010029054906101000a90046fffffffffffffffffffffffffffffffff1682612c479190613f3c565b9150612ca2565b6101358181548110612c6257612c62614059565b90600052602060002090600291828204019190066010029054906101000a90046fffffffffffffffffffffffffffffffff1682612c9f9190613f3c565b91505b80612cac81614088565b915050612bce565b509392505050565b606060fd8054612ccb906140c0565b80601f0160208091040260200160405190810160405280929190818152602001828054612cf7906140c0565b8015612d445780601f10612d1957610100808354040283529160200191612d44565b820191906000526020600020905b815481529060010190602001808311612d2757829003601f168201915b5050505050905090565b606060fe8054612ccb906140c0565b600054610100900460ff16612dda5760405162461bcd60e51b815260206004820152602b60248201527f496e697469616c697a61626c653a20636f6e7472616374206973206e6f74206960448201527f6e697469616c697a696e670000000000000000000000000000000000000000006064820152608401610cb2565b610cc5828261312e565b610135546000908103612e0857506fffffffffffffffffffffffffffffffff919050565b610135548210612e6c576101358054612e2390600190614046565b81548110612e3357612e33614059565b90600052602060002090600291828204019190066010029054906101000a90046fffffffffffffffffffffffffffffffff169050919050565b6101358281548110612e3357612e33614059565b6000807f7fffffffffffffffffffffffffffffff5d576e7357a4501ddfe92f46681b20a0831115612eb75750600090506003612f3b565b6040805160008082526020820180845289905260ff881692820192909252606081018690526080810185905260019060a0016020604051602081039080840390855afa158015612f0b573d6000803e3d6000fd5b5050604051601f1901519150506001600160a01b038116612f3457600060019250925050612f3b565b9150600090505b94509492505050565b600082815260c9602090815260408083206001600160a01b038516845290915290205460ff16610cc557612f77816131d3565b612f828360206131e5565b604051602001612f93929190614113565b60408051601f198184030181529082905262461bcd60e51b8252610cb291600401614194565b60007f8b73c3c69bb8fe3d512ecc4cf759cc79239f7b179b0ffacaa9a75d522b39400f612fe4613415565b612fec613472565b60408051602081019490945283019190915260608201524660808201523060a082015260c00160405160208183030381529060405280519060200120905090565b6001600160a01b0381163b6130aa5760405162461bcd60e51b815260206004820152602d60248201527f455243313936373a206e657720696d706c656d656e746174696f6e206973206e60448201527f6f74206120636f6e7472616374000000000000000000000000000000000000006064820152608401610cb2565b7f360894a13ba1a3210667c828492db98dca3e2076cc3735a920a3ca505d382bbc80547fffffffffffffffffffffffff0000000000000000000000000000000000000000166001600160a01b0392909216919091179055565b61310c836134a3565b6000825111806131195750805b15610c245761312883836134e3565b50505050565b600054610100900460ff166131ab5760405162461bcd60e51b815260206004820152602b60248201527f496e697469616c697a61626c653a20636f6e7472616374206973206e6f74206960448201527f6e697469616c697a696e670000000000000000000000000000000000000000006064820152608401610cb2565b60fd6131b783826141ed565b5060fe6131c482826141ed565b5050600060fb81905560fc5550565b60606109d36001600160a01b03831660145b606060006131f48360026142e9565b6131ff906002613f6c565b67ffffffffffffffff811115613217576132176137c9565b6040519080825280601f01601f191660200182016040528015613241576020820181803683370190505b5090507f30000000000000000000000000000000000000000000000000000000000000008160008151811061327857613278614059565b60200101907effffffffffffffffffffffffffffffffffffffffffffffffffffffffffffff1916908160001a9053507f7800000000000000000000000000000000000000000000000000000000000000816001815181106132db576132db614059565b60200101907effffffffffffffffffffffffffffffffffffffffffffffffffffffffffffff1916908160001a90535060006133178460026142e9565b613322906001613f6c565b90505b60018111156133bf577f303132333435363738396162636465660000000000000000000000000000000085600f166010811061336357613363614059565b1a60f81b82828151811061337957613379614059565b60200101907effffffffffffffffffffffffffffffffffffffffffffffffffffffffffffff1916908160001a90535060049490941c936133b881614300565b9050613325565b50831561340e5760405162461bcd60e51b815260206004820181905260248201527f537472696e67733a20686578206c656e67746820696e73756666696369656e746044820152606401610cb2565b9392505050565b600080613420612cbc565b805190915015613437578051602090910120919050565b60fb5480156134465792915050565b7fc5d2460186f7233c927e7db2dcc703c0e500b653ca82273b7bfad8045d85a4709250505090565b5090565b60008061347d612d4e565b805190915015613494578051602090910120919050565b60fc5480156134465792915050565b6134ac8161302d565b6040516001600160a01b038216907fbc7cd75a20ee27fd9adebab32041f755214dbc6bffa90cc0225b39da2e5c2d3b90600090a250565b606061340e8383604051806060016040528060278152602001614352602791396060600080856001600160a01b0316856040516135209190614335565b600060405180830381855af49150503d806000811461355b576040519150601f19603f3d011682016040523d82523d6000602084013e613560565b606091505b50915091506135718683838761357b565b9695505050505050565b606083156135ea5782516000036135e3576001600160a01b0385163b6135e35760405162461bcd60e51b815260206004820152601d60248201527f416464726573733a2063616c6c20746f206e6f6e2d636f6e74726163740000006044820152606401610cb2565b50816135f4565b6135f483836135fc565b949350505050565b81511561360c5781518083602001fd5b8060405162461bcd60e51b8152600401610cb29190614194565b828054828255906000526020600020906001016002900481019282156136e95791602002820160005b838211156136ab57835183826101000a8154816fffffffffffffffffffffffffffffffff02191690836fffffffffffffffffffffffffffffffff1602179055509260200192601001602081600f0104928301926001030261364f565b80156136e75782816101000a8154906fffffffffffffffffffffffffffffffff0219169055601001602081600f010492830192600103026136ab565b505b5061346e929150613772565b828054828255906000526020600020906001016002900481019282156136e95791602002820160005b838211156136ab57835183826101000a8154816fffffffffffffffffffffffffffffffff021916908367ffffffffffffffff1602179055509260200192601001602081600f0104928301926001030261371e565b5b8082111561346e5760008155600101613773565b60006020828403121561379957600080fd5b81357fffffffff000000000000000000000000000000000000000000000000000000008116811461340e57600080fd5b7f4e487b7100000000000000000000000000000000000000000000000000000000600052604160045260246000fd5b60405160a0810167ffffffffffffffff8111828210171561381b5761381b6137c9565b60405290565b604051601f8201601f1916810167ffffffffffffffff8111828210171561384a5761384a6137c9565b604052919050565b6001600160a01b0381168114610e6357600080fd5b600082601f83011261387857600080fd5b813567ffffffffffffffff811115613892576138926137c9565b6138a56020601f19601f84011601613821565b8181528460208386010111156138ba57600080fd5b816020850160208301376000918101602001919091529392505050565b60008082840360c08112156138eb57600080fd5b60a08112156138f957600080fd5b506139026137f8565b833561390d81613852565b80825250602084013560208201526040840135604082015260608401356060820152608084013560808201528092505060a083013567ffffffffffffffff81111561395757600080fd5b61396385828601613867565b9150509250929050565b60006020828403121561397f57600080fd5b813561340e81613852565b60006020828403121561399c57600080fd5b5035919050565b600080604083850312156139b657600080fd5b8235915060208301356139c881613852565b809150509250929050565b600080604083850312156139e657600080fd5b82356139f181613852565b9150602083013567ffffffffffffffff81111561395757600080fd5b600067ffffffffffffffff821115613a2757613a276137c9565b5060051b60200190565b600082601f830112613a4257600080fd5b81356020613a57613a5283613a0d565b613821565b82815260059290921b84018101918181019086841115613a7657600080fd5b8286015b84811015610a885780358352918301918301613a7a565b600080600080600060a08688031215613aa957600080fd5b8535613ab481613852565b94506020860135935060408601359250606086013567ffffffffffffffff80821115613adf57600080fd5b613aeb89838a01613a31565b93506080880135915080821115613b0157600080fd5b50613b0e88828901613867565b9150509295509295909350565b60008060408385031215613b2e57600080fd5b823567ffffffffffffffff80821115613b4657600080fd5b9084019060a08287031215613b5a57600080fd5b613b626137f8565b8235613b6d81613852565b808252506020830135602082015260408301356040820152606083013582811115613b9757600080fd5b613ba388828601613a31565b60608301525060808301356080820152809450506020850135915080821115613bcb57600080fd5b5061396385828601613867565b80356fffffffffffffffffffffffffffffffff81168114613bf857600080fd5b919050565b600060208284031215613c0f57600080fd5b61340e82613bd8565b60006020808385031215613c2b57600080fd5b823567ffffffffffffffff811115613c4257600080fd5b8301601f81018513613c5357600080fd5b8035613c61613a5282613a0d565b81815260059190911b82018301908381019087831115613c8057600080fd5b928401925b82841015613ca557613c9684613bd8565b82529284019290840190613c85565b979650505050505050565b60005b83811015613ccb578181015183820152602001613cb3565b50506000910152565b60008151808452613cec816020860160208601613cb0565b601f01601f19169290920160200192915050565b600081518084526020808501945080840160005b83811015613d3057815187529582019590820190600101613d14565b509495945050505050565b7fff000000000000000000000000000000000000000000000000000000000000008816815260e060208201526000613d7660e0830189613cd4565b8281036040840152613d888189613cd4565b90508660608401526001600160a01b03861660808401528460a084015282810360c0840152613db78185613d00565b9a9950505050505050505050565b600080600080600080600080610100898b031215613de257600080fd5b8835613ded81613852565b97506020890135613dfd81613852565b96506040890135613e0d81613852565b95506060890135613e1d81613852565b94506080890135613e2d81613852565b935060a0890135613e3d81613852565b925060c0890135613e4d81613852565b915060e0890135613e5d81613852565b809150509295985092959890939650565b600080600080600060a08688031215613e8657600080fd5b8535613e9181613852565b9450602086013593506040860135925060608601359150608086013567ffffffffffffffff811115613ec257600080fd5b613b0e88828901613867565b600060208284031215613ee057600080fd5b8135801515811461340e57600080fd5b600060208284031215613f0257600080fd5b815161340e81613852565b7f4e487b7100000000000000000000000000000000000000000000000000000000600052601160045260246000fd5b6fffffffffffffffffffffffffffffffff818116838216019080821115613f6557613f65613f0d565b5092915050565b808201808211156109d3576109d3613f0d565b6001600160a01b03831681526040602082015260006135f46040830184613d00565b815160009082906020808601845b83811015613fcb57815185529382019390820190600101613faf565b50929695505050505050565b6020808252825182820181905260009190848201906040850190845b818110156140215783516fffffffffffffffffffffffffffffffff1683529284019291840191600101613ff3565b50909695505050505050565b60006020828403121561403f57600080fd5b5051919050565b818103818111156109d3576109d3613f0d565b7f4e487b7100000000000000000000000000000000000000000000000000000000600052603260045260246000fd5b60007fffffffffffffffffffffffffffffffffffffffffffffffffffffffffffffffff82036140b9576140b9613f0d565b5060010190565b600181811c908216806140d457607f821691505b60208210810361410d577f4e487b7100000000000000000000000000000000000000000000000000000000600052602260045260246000fd5b50919050565b7f416363657373436f6e74726f6c3a206163636f756e742000000000000000000081526000835161414b816017850160208801613cb0565b7f206973206d697373696e6720726f6c65200000000000000000000000000000006017918401918201528351614188816028840160208801613cb0565b01602801949350505050565b60208152600061340e6020830184613cd4565b601f821115610c2457600081815260208120601f850160051c810160208610156141ce5750805b601f850160051c820191505b8181101561162b578281556001016141da565b815167ffffffffffffffff811115614207576142076137c9565b61421b8161421584546140c0565b846141a7565b602080601f83116001811461426e57600084156142385750858301515b7fffffffffffffffffffffffffffffffffffffffffffffffffffffffffffffffff600386901b1c1916600185901b17855561162b565b600085815260208120601f198616915b8281101561429d5788860151825594840194600190910190840161427e565b50858210156142d957878501517fffffffffffffffffffffffffffffffffffffffffffffffffffffffffffffffff600388901b60f8161c191681555b5050505050600190811b01905550565b80820281158282048414176109d3576109d3613f0d565b60008161430f5761430f613f0d565b507fffffffffffffffffffffffffffffffffffffffffffffffffffffffffffffffff0190565b60008251614347818460208701613cb0565b919091019291505056fe416464726573733a206c6f772d6c6576656c2064656c65676174652063616c6c206661696c6564a26469706673582212206c1a8b5391104c30cc1c197b62cdc2deecc799955f76418dd66dfb930339577764736f6c63430008110033",
  "linkReferences": {},
  "deployedLinkReferences": {}
}