{
  "_format": "hh-sol-artifact-1",
  "contractName": "KeyUniverse1",
  "sourceName": "contracts/KeyUniverse1.sol",
  "abi": [
    {
      "inputs": [
        {
          "internalType": "address",
          "name": "defaultAdmin",
          "type": "address"
        },
        {
          "internalType": "address",
          "name": "operator",
          "type": "address"
        },
        {
          "internalType": "address",
          "name": "minter",
          "type": "address"
        }
      ],
      "stateMutability": "nonpayable",
      "type": "constructor"
    },
    {
      "inputs": [],
      "name": "AddressAlreadyRegistered",
      "type": "error"
    },
    {
      "inputs": [],
      "name": "CanNotApprove",
      "type": "error"
    },
    {
      "inputs": [],
      "name": "CanNotTransfer",
      "type": "error"
    },
    {
      "inputs": [],
      "name": "ExceedMaxContributionPerMint",
      "type": "error"
    },
    {
      "inputs": [],
      "name": "ExceedMaxContributionPerUser",
      "type": "error"
    },
    {
      "inputs": [],
      "name": "ExceedMaxTotalContribution",
      "type": "error"
    },
    {
      "inputs": [],
      "name": "InvalidAddress",
      "type": "error"
    },
    {
      "inputs": [],
      "name": "InvalidListLength",
      "type": "error"
    },
    {
      "inputs": [],
      "name": "InvalidProtoship",
      "type": "error"
    },
    {
      "inputs": [],
      "name": "InvalidSignature",
      "type": "error"
    },
    {
      "inputs": [],
      "name": "InvalidTokenId",
      "type": "error"
    },
    {
      "inputs": [],
      "name": "InvalidTokenURI",
      "type": "error"
    },
    {
      "inputs": [],
      "name": "NotDuringRefundPeriod",
      "type": "error"
    },
    {
      "inputs": [],
      "name": "NotWhiteListed",
      "type": "error"
    },
    {
      "inputs": [],
      "name": "OnlyDuringRefundPeriod",
      "type": "error"
    },
    {
      "inputs": [],
      "name": "OnlyExistingToken",
      "type": "error"
    },
    {
      "inputs": [],
      "name": "OnlyLockedToken",
      "type": "error"
    },
    {
      "inputs": [],
      "name": "OnlyNFTOwner",
      "type": "error"
    },
    {
      "inputs": [],
      "name": "OnlyOneProtoshipAtATime",
      "type": "error"
    },
    {
      "inputs": [],
      "name": "OnlySpaceFactory",
      "type": "error"
    },
    {
      "inputs": [],
      "name": "OnlySpaceFactoryOrOwner",
      "type": "error"
    },
    {
      "inputs": [],
      "name": "OnlySpaceshipOwner",
      "type": "error"
    },
    {
      "inputs": [],
      "name": "ReachedMaxSupply",
      "type": "error"
    },
    {
      "inputs": [],
      "name": "TokenAlreadyMinted",
      "type": "error"
    },
    {
      "inputs": [],
      "name": "TokenLocked",
      "type": "error"
    },
    {
      "anonymous": false,
      "inputs": [
        {
          "indexed": true,
          "internalType": "address",
          "name": "account",
          "type": "address"
        },
        {
          "indexed": true,
          "internalType": "address",
          "name": "operator",
          "type": "address"
        },
        {
          "indexed": false,
          "internalType": "bool",
          "name": "approved",
          "type": "bool"
        }
      ],
      "name": "ApprovalForAll",
      "type": "event"
    },
    {
      "anonymous": false,
      "inputs": [
        {
          "indexed": true,
          "internalType": "address",
          "name": "previousOwner",
          "type": "address"
        },
        {
          "indexed": true,
          "internalType": "address",
          "name": "newOwner",
          "type": "address"
        }
      ],
      "name": "OwnershipTransferred",
      "type": "event"
    },
    {
      "anonymous": false,
      "inputs": [
        {
          "indexed": true,
          "internalType": "bytes32",
          "name": "role",
          "type": "bytes32"
        },
        {
          "indexed": true,
          "internalType": "bytes32",
          "name": "previousAdminRole",
          "type": "bytes32"
        },
        {
          "indexed": true,
          "internalType": "bytes32",
          "name": "newAdminRole",
          "type": "bytes32"
        }
      ],
      "name": "RoleAdminChanged",
      "type": "event"
    },
    {
      "anonymous": false,
      "inputs": [
        {
          "indexed": true,
          "internalType": "bytes32",
          "name": "role",
          "type": "bytes32"
        },
        {
          "indexed": true,
          "internalType": "address",
          "name": "account",
          "type": "address"
        },
        {
          "indexed": true,
          "internalType": "address",
          "name": "sender",
          "type": "address"
        }
      ],
      "name": "RoleGranted",
      "type": "event"
    },
    {
      "anonymous": false,
      "inputs": [
        {
          "indexed": true,
          "internalType": "bytes32",
          "name": "role",
          "type": "bytes32"
        },
        {
          "indexed": true,
          "internalType": "address",
          "name": "account",
          "type": "address"
        },
        {
          "indexed": true,
          "internalType": "address",
          "name": "sender",
          "type": "address"
        }
      ],
      "name": "RoleRevoked",
      "type": "event"
    },
    {
      "anonymous": false,
      "inputs": [
        {
          "indexed": true,
          "internalType": "address",
          "name": "operator",
          "type": "address"
        },
        {
          "indexed": true,
          "internalType": "address",
          "name": "from",
          "type": "address"
        },
        {
          "indexed": true,
          "internalType": "address",
          "name": "to",
          "type": "address"
        },
        {
          "indexed": false,
          "internalType": "uint256[]",
          "name": "ids",
          "type": "uint256[]"
        },
        {
          "indexed": false,
          "internalType": "uint256[]",
          "name": "values",
          "type": "uint256[]"
        }
      ],
      "name": "TransferBatch",
      "type": "event"
    },
    {
      "anonymous": false,
      "inputs": [
        {
          "indexed": true,
          "internalType": "address",
          "name": "operator",
          "type": "address"
        },
        {
          "indexed": true,
          "internalType": "address",
          "name": "from",
          "type": "address"
        },
        {
          "indexed": true,
          "internalType": "address",
          "name": "to",
          "type": "address"
        },
        {
          "indexed": false,
          "internalType": "uint256",
          "name": "id",
          "type": "uint256"
        },
        {
          "indexed": false,
          "internalType": "uint256",
          "name": "value",
          "type": "uint256"
        }
      ],
      "name": "TransferSingle",
      "type": "event"
    },
    {
      "anonymous": false,
      "inputs": [
        {
          "indexed": false,
          "internalType": "string",
          "name": "value",
          "type": "string"
        },
        {
          "indexed": true,
          "internalType": "uint256",
          "name": "id",
          "type": "uint256"
        }
      ],
      "name": "URI",
      "type": "event"
    },
    {
      "inputs": [],
      "name": "DEFAULT_ADMIN_ROLE",
      "outputs": [
        {
          "internalType": "bytes32",
          "name": "",
          "type": "bytes32"
        }
      ],
      "stateMutability": "view",
      "type": "function"
    },
    {
      "inputs": [],
      "name": "MINTER_ROLE",
      "outputs": [
        {
          "internalType": "bytes32",
          "name": "",
          "type": "bytes32"
        }
      ],
      "stateMutability": "view",
      "type": "function"
    },
    {
      "inputs": [],
      "name": "OPERATOR_ROLE",
      "outputs": [
        {
          "internalType": "bytes32",
          "name": "",
          "type": "bytes32"
        }
      ],
      "stateMutability": "view",
      "type": "function"
    },
    {
      "inputs": [
        {
          "internalType": "address",
          "name": "account",
          "type": "address"
        },
        {
          "internalType": "uint256",
          "name": "id",
          "type": "uint256"
        }
      ],
      "name": "balanceOf",
      "outputs": [
        {
          "internalType": "uint256",
          "name": "",
          "type": "uint256"
        }
      ],
      "stateMutability": "view",
      "type": "function"
    },
    {
      "inputs": [
        {
          "internalType": "address[]",
          "name": "accounts",
          "type": "address[]"
        },
        {
          "internalType": "uint256[]",
          "name": "ids",
          "type": "uint256[]"
        }
      ],
      "name": "balanceOfBatch",
      "outputs": [
        {
          "internalType": "uint256[]",
          "name": "",
          "type": "uint256[]"
        }
      ],
      "stateMutability": "view",
      "type": "function"
    },
    {
      "inputs": [
        {
          "internalType": "address",
          "name": "account",
          "type": "address"
        },
        {
          "internalType": "uint256",
          "name": "tokenId",
          "type": "uint256"
        }
      ],
      "name": "burn",
      "outputs": [],
      "stateMutability": "nonpayable",
      "type": "function"
    },
    {
      "inputs": [
        {
          "internalType": "bytes32",
          "name": "role",
          "type": "bytes32"
        }
      ],
      "name": "getRoleAdmin",
      "outputs": [
        {
          "internalType": "bytes32",
          "name": "",
          "type": "bytes32"
        }
      ],
      "stateMutability": "view",
      "type": "function"
    },
    {
      "inputs": [
        {
          "internalType": "bytes32",
          "name": "role",
          "type": "bytes32"
        },
        {
          "internalType": "address",
          "name": "account",
          "type": "address"
        }
      ],
      "name": "grantRole",
      "outputs": [],
      "stateMutability": "nonpayable",
      "type": "function"
    },
    {
      "inputs": [
        {
          "internalType": "bytes32",
          "name": "role",
          "type": "bytes32"
        },
        {
          "internalType": "address",
          "name": "account",
          "type": "address"
        }
      ],
      "name": "hasRole",
      "outputs": [
        {
          "internalType": "bool",
          "name": "",
          "type": "bool"
        }
      ],
      "stateMutability": "view",
      "type": "function"
    },
    {
      "inputs": [
        {
          "internalType": "address",
          "name": "account",
          "type": "address"
        },
        {
          "internalType": "address",
          "name": "operator",
          "type": "address"
        }
      ],
      "name": "isApprovedForAll",
      "outputs": [
        {
          "internalType": "bool",
          "name": "",
          "type": "bool"
        }
      ],
      "stateMutability": "view",
      "type": "function"
    },
    {
      "inputs": [
        {
          "internalType": "address",
          "name": "to",
          "type": "address"
        },
        {
          "internalType": "uint256",
          "name": "tokenId",
          "type": "uint256"
        }
      ],
      "name": "mint",
      "outputs": [],
      "stateMutability": "nonpayable",
      "type": "function"
    },
    {
      "inputs": [
        {
          "internalType": "address",
          "name": "to",
          "type": "address"
        },
        {
          "internalType": "uint256[]",
          "name": "ids",
          "type": "uint256[]"
        }
      ],
      "name": "mintBatch",
      "outputs": [],
      "stateMutability": "nonpayable",
      "type": "function"
    },
    {
      "inputs": [],
      "name": "owner",
      "outputs": [
        {
          "internalType": "address",
          "name": "",
          "type": "address"
        }
      ],
      "stateMutability": "view",
      "type": "function"
    },
    {
      "inputs": [],
      "name": "renounceOwnership",
      "outputs": [],
      "stateMutability": "nonpayable",
      "type": "function"
    },
    {
      "inputs": [
        {
          "internalType": "bytes32",
          "name": "role",
          "type": "bytes32"
        },
        {
          "internalType": "address",
          "name": "account",
          "type": "address"
        }
      ],
      "name": "renounceRole",
      "outputs": [],
      "stateMutability": "nonpayable",
      "type": "function"
    },
    {
      "inputs": [
        {
          "internalType": "bytes32",
          "name": "role",
          "type": "bytes32"
        },
        {
          "internalType": "address",
          "name": "account",
          "type": "address"
        }
      ],
      "name": "revokeRole",
      "outputs": [],
      "stateMutability": "nonpayable",
      "type": "function"
    },
    {
      "inputs": [
        {
          "internalType": "address",
          "name": "",
          "type": "address"
        },
        {
          "internalType": "address",
          "name": "",
          "type": "address"
        },
        {
          "internalType": "uint256[]",
          "name": "",
          "type": "uint256[]"
        },
        {
          "internalType": "uint256[]",
          "name": "",
          "type": "uint256[]"
        },
        {
          "internalType": "bytes",
          "name": "",
          "type": "bytes"
        }
      ],
      "name": "safeBatchTransferFrom",
      "outputs": [],
      "stateMutability": "nonpayable",
      "type": "function"
    },
    {
      "inputs": [
        {
          "internalType": "address",
          "name": "",
          "type": "address"
        },
        {
          "internalType": "address",
          "name": "",
          "type": "address"
        },
        {
          "internalType": "uint256",
          "name": "",
          "type": "uint256"
        },
        {
          "internalType": "uint256",
          "name": "",
          "type": "uint256"
        },
        {
          "internalType": "bytes",
          "name": "",
          "type": "bytes"
        }
      ],
      "name": "safeTransferFrom",
      "outputs": [],
      "stateMutability": "nonpayable",
      "type": "function"
    },
    {
      "inputs": [
        {
          "internalType": "address",
          "name": "",
          "type": "address"
        },
        {
          "internalType": "bool",
          "name": "",
          "type": "bool"
        }
      ],
      "name": "setApprovalForAll",
      "outputs": [],
      "stateMutability": "nonpayable",
      "type": "function"
    },
    {
      "inputs": [
        {
          "internalType": "uint256[]",
          "name": "tokenIds",
          "type": "uint256[]"
        },
        {
          "internalType": "string[]",
          "name": "tokenURIs",
          "type": "string[]"
        }
      ],
      "name": "setURIs",
      "outputs": [],
      "stateMutability": "nonpayable",
      "type": "function"
    },
    {
      "inputs": [
        {
          "internalType": "bytes4",
          "name": "interfaceId",
          "type": "bytes4"
        }
      ],
      "name": "supportsInterface",
      "outputs": [
        {
          "internalType": "bool",
          "name": "",
          "type": "bool"
        }
      ],
      "stateMutability": "view",
      "type": "function"
    },
    {
      "inputs": [
        {
          "internalType": "address",
          "name": "newOwner",
          "type": "address"
        }
      ],
      "name": "transferOwnership",
      "outputs": [],
      "stateMutability": "nonpayable",
      "type": "function"
    },
    {
      "inputs": [
        {
          "internalType": "uint256",
          "name": "tokenId",
          "type": "uint256"
        }
      ],
      "name": "uri",
      "outputs": [
        {
          "internalType": "string",
          "name": "",
          "type": "string"
        }
      ],
      "stateMutability": "view",
      "type": "function"
    }
  ],
  "bytecode": "0x60a0604052600060809081526003906200001a9082620003af565b503480156200002857600080fd5b5060405162002e2b38038062002e2b8339810160408190526200004b9162000498565b604080516020810190915260008152620000658162000113565b50620000713362000125565b6200007e60008462000177565b620000aa7f97667070c54ef182b0f5858b034beac1b6f3089aa2d3188bb1e8929f4fa9b9298362000177565b620000d67f9f2df0fed2c77648de5860a4cc508cd0818c85b8b8a1ab4ceeef8d981c8956a68262000177565b620000e1836200021b565b604080518082019091526007815266697066733a2f2f60c81b60208201526200010a906200029e565b505050620004e2565b6002620001218282620003af565b5050565b600580546001600160a01b038381166001600160a01b0319831681179093556040519116919082907f8be0079c531659141344cd1fd0a4f28419497f9722a3daafe3b4186f6b6457e090600090a35050565b60008281526006602090815260408083206001600160a01b038516845290915290205460ff16620001215760008281526006602090815260408083206001600160a01b03851684529091529020805460ff19166001179055620001d73390565b6001600160a01b0316816001600160a01b0316837f2f8788117e7eff1d82e926ec794901d17c78024a50270940304540a733656f0d60405160405180910390a45050565b62000225620002ac565b6001600160a01b038116620002905760405162461bcd60e51b815260206004820152602660248201527f4f776e61626c653a206e6577206f776e657220697320746865207a65726f206160448201526564647265737360d01b60648201526084015b60405180910390fd5b6200029b8162000125565b50565b6003620001218282620003af565b6005546001600160a01b03163314620003085760405162461bcd60e51b815260206004820181905260248201527f4f776e61626c653a2063616c6c6572206973206e6f7420746865206f776e6572604482015260640162000287565b565b634e487b7160e01b600052604160045260246000fd5b600181811c908216806200033557607f821691505b6020821081036200035657634e487b7160e01b600052602260045260246000fd5b50919050565b601f821115620003aa57600081815260208120601f850160051c81016020861015620003855750805b601f850160051c820191505b81811015620003a65782815560010162000391565b5050505b505050565b81516001600160401b03811115620003cb57620003cb6200030a565b620003e381620003dc845462000320565b846200035c565b602080601f8311600181146200041b5760008415620004025750858301515b600019600386901b1c1916600185901b178555620003a6565b600085815260208120601f198616915b828110156200044c578886015182559484019460019091019084016200042b565b50858210156200046b5787850151600019600388901b60f8161c191681555b5050505050600190811b01905550565b80516001600160a01b03811681146200049357600080fd5b919050565b600080600060608486031215620004ae57600080fd5b620004b9846200047b565b9250620004c9602085016200047b565b9150620004d9604085016200047b565b90509250925092565b61293980620004f26000396000f3fe608060405234801561001057600080fd5b506004361061018c5760003560e01c806375ceb341116100e3578063d53913931161008c578063f242432a11610066578063f242432a146103d8578063f2fde38b146103e6578063f5b541a6146103f957600080fd5b8063d539139314610355578063d547741f1461037c578063e985e9c51461038f57600080fd5b80639dc29fac116100bd5780639dc29fac14610327578063a217fddf1461033a578063a22cb4651461034257600080fd5b806375ceb341146102a65780638da5cb5b146102b957806391d14854146102e157600080fd5b80632eb2c2d61161014557806340c10f191161011f57806340c10f191461026b5780634e1273f41461027e578063715018a61461029e57600080fd5b80632eb2c2d6146102325780632f2ff15d1461024557806336568abe1461025857600080fd5b80630e89341c116101765780630e89341c146101da5780630ee9b395146101fa578063248a9ca31461020f57600080fd5b8062fdd58e1461019157806301ffc9a7146101b7575b600080fd5b6101a461019f366004611d1b565b610420565b6040519081526020015b60405180910390f35b6101ca6101c5366004611d73565b6104e6565b60405190151581526020016101ae565b6101ed6101e8366004611d90565b6104f1565b6040516101ae9190611df9565b61020d610208366004611f5b565b6105d1565b005b6101a461021d366004611d90565b60009081526006602052604090206001015490565b61020d610240366004612070565b61065b565b61020d61025336600461211a565b61068d565b61020d61026636600461211a565b6106b7565b61020d610279366004611d1b565b610750565b61029161028c366004612146565b610819565b6040516101ae919061224c565b61020d610957565b61020d6102b436600461225f565b61096b565b60055460405173ffffffffffffffffffffffffffffffffffffffff90911681526020016101ae565b6101ca6102ef36600461211a565b600091825260066020908152604080842073ffffffffffffffffffffffffffffffffffffffff93909316845291905290205460ff1690565b61020d610335366004611d1b565b610ade565b6101a4600081565b61020d6103503660046122a3565b610b14565b6101a47f9f2df0fed2c77648de5860a4cc508cd0818c85b8b8a1ab4ceeef8d981c8956a681565b61020d61038a36600461211a565b610b46565b6101ca61039d3660046122df565b73ffffffffffffffffffffffffffffffffffffffff918216600090815260016020908152604080832093909416825291909152205460ff1690565b61020d610240366004612309565b61020d6103f436600461236e565b610b6b565b6101a47f97667070c54ef182b0f5858b034beac1b6f3089aa2d3188bb1e8929f4fa9b92981565b600073ffffffffffffffffffffffffffffffffffffffff83166104b05760405162461bcd60e51b815260206004820152602a60248201527f455243313135353a2061646472657373207a65726f206973206e6f742061207660448201527f616c6964206f776e65720000000000000000000000000000000000000000000060648201526084015b60405180910390fd5b5060008181526020818152604080832073ffffffffffffffffffffffffffffffffffffffff861684529091529020545b92915050565b60006104e082610c08565b60008181526004602052604081208054606092919061050f90612389565b80601f016020809104026020016040519081016040528092919081815260200182805461053b90612389565b80156105885780601f1061055d57610100808354040283529160200191610588565b820191906000526020600020905b81548152906001019060200180831161056b57829003601f168201915b5050505050905060008151116105a6576105a183610c5e565b6105ca565b6003816040516020016105ba9291906123dc565b6040516020818303038152906040525b9392505050565b7f97667070c54ef182b0f5858b034beac1b6f3089aa2d3188bb1e8929f4fa9b9296105fb81610cf2565b60005b83518110156106555761064384828151811061061c5761061c612481565b602002602001015184838151811061063657610636612481565b6020026020010151610cfc565b8061064d816124df565b9150506105fe565b50505050565b6040517f1b5722f500000000000000000000000000000000000000000000000000000000815260040160405180910390fd5b6000828152600660205260409020600101546106a881610cf2565b6106b28383610d59565b505050565b73ffffffffffffffffffffffffffffffffffffffff811633146107425760405162461bcd60e51b815260206004820152602f60248201527f416363657373436f6e74726f6c3a2063616e206f6e6c792072656e6f756e636560448201527f20726f6c657320666f722073656c66000000000000000000000000000000000060648201526084016104a7565b61074c8282610e4d565b5050565b7f9f2df0fed2c77648de5860a4cc508cd0818c85b8b8a1ab4ceeef8d981c8956a661077a81610cf2565b6107848383610420565b156107ba576040517ea5a1f500000000000000000000000000000000000000000000000000000000815260040160405180910390fd5b6107c3826104f1565b516000036107fd576040517f87800a1100000000000000000000000000000000000000000000000000000000815260040160405180910390fd5b6106b28383600160405180602001604052806000815250610f08565b606081518351146108925760405162461bcd60e51b815260206004820152602960248201527f455243313135353a206163636f756e747320616e6420696473206c656e67746860448201527f206d69736d61746368000000000000000000000000000000000000000000000060648201526084016104a7565b6000835167ffffffffffffffff8111156108ae576108ae611e0c565b6040519080825280602002602001820160405280156108d7578160200160208202803683370190505b50905060005b845181101561094f576109228582815181106108fb576108fb612481565b602002602001015185838151811061091557610915612481565b6020026020010151610420565b82828151811061093457610934612481565b6020908102919091010152610948816124df565b90506108dd565b509392505050565b61095f61105f565b61096960006110c6565b565b7f9f2df0fed2c77648de5860a4cc508cd0818c85b8b8a1ab4ceeef8d981c8956a661099581610cf2565b6000825167ffffffffffffffff8111156109b1576109b1611e0c565b6040519080825280602002602001820160405280156109da578160200160208202803683370190505b50905060005b8351811015610ac2576109ff8585838151811061091557610915612481565b15610a35576040517ea5a1f500000000000000000000000000000000000000000000000000000000815260040160405180910390fd5b610a57848281518110610a4a57610a4a612481565b60200260200101516104f1565b51600003610a91576040517f87800a1100000000000000000000000000000000000000000000000000000000815260040160405180910390fd5b6001828281518110610aa557610aa5612481565b602090810291909101015280610aba816124df565b9150506109e0565b506106558484836040518060200160405280600081525061113d565b7f97667070c54ef182b0f5858b034beac1b6f3089aa2d3188bb1e8929f4fa9b929610b0881610cf2565b6106b283836001611389565b6040517fa6c022e100000000000000000000000000000000000000000000000000000000815260040160405180910390fd5b600082815260066020526040902060010154610b6181610cf2565b6106b28383610e4d565b610b7361105f565b73ffffffffffffffffffffffffffffffffffffffff8116610bfc5760405162461bcd60e51b815260206004820152602660248201527f4f776e61626c653a206e6577206f776e657220697320746865207a65726f206160448201527f646472657373000000000000000000000000000000000000000000000000000060648201526084016104a7565b610c05816110c6565b50565b60007fffffffff0000000000000000000000000000000000000000000000000000000082167f7965db0b0000000000000000000000000000000000000000000000000000000014806104e057506104e08261155f565b606060028054610c6d90612389565b80601f0160208091040260200160405190810160405280929190818152602001828054610c9990612389565b8015610ce65780601f10610cbb57610100808354040283529160200191610ce6565b820191906000526020600020905b815481529060010190602001808311610cc957829003601f168201915b50505050509050919050565b610c058133611642565b6000828152600460205260409020610d14828261255d565b50817f6bb7ff708619ba0610cba295a58592e0451dee2622938c8755667688daf3529b610d40846104f1565b604051610d4d9190611df9565b60405180910390a25050565b600082815260066020908152604080832073ffffffffffffffffffffffffffffffffffffffff8516845290915290205460ff1661074c57600082815260066020908152604080832073ffffffffffffffffffffffffffffffffffffffff85168452909152902080547fffffffffffffffffffffffffffffffffffffffffffffffffffffffffffffff00166001179055610def3390565b73ffffffffffffffffffffffffffffffffffffffff168173ffffffffffffffffffffffffffffffffffffffff16837f2f8788117e7eff1d82e926ec794901d17c78024a50270940304540a733656f0d60405160405180910390a45050565b600082815260066020908152604080832073ffffffffffffffffffffffffffffffffffffffff8516845290915290205460ff161561074c57600082815260066020908152604080832073ffffffffffffffffffffffffffffffffffffffff8516808552925280832080547fffffffffffffffffffffffffffffffffffffffffffffffffffffffffffffff0016905551339285917ff6391f5c32d9c69d2a47ea670b442974b53935d1edc7fd64eb21e047a839171b9190a45050565b73ffffffffffffffffffffffffffffffffffffffff8416610f915760405162461bcd60e51b815260206004820152602160248201527f455243313135353a206d696e7420746f20746865207a65726f2061646472657360448201527f730000000000000000000000000000000000000000000000000000000000000060648201526084016104a7565b336000610f9d856116c4565b90506000610faa856116c4565b905060008681526020818152604080832073ffffffffffffffffffffffffffffffffffffffff8b16845290915281208054879290610fe9908490612659565b9091555050604080518781526020810187905273ffffffffffffffffffffffffffffffffffffffff808a1692600092918716917fc3d58168c5ae7397731d063d5bbf3d657854427343f4c083240f7aacaa2d0f62910160405180910390a461105683600089898989611717565b50505050505050565b60055473ffffffffffffffffffffffffffffffffffffffff1633146109695760405162461bcd60e51b815260206004820181905260248201527f4f776e61626c653a2063616c6c6572206973206e6f7420746865206f776e657260448201526064016104a7565b6005805473ffffffffffffffffffffffffffffffffffffffff8381167fffffffffffffffffffffffff0000000000000000000000000000000000000000831681179093556040519116919082907f8be0079c531659141344cd1fd0a4f28419497f9722a3daafe3b4186f6b6457e090600090a35050565b73ffffffffffffffffffffffffffffffffffffffff84166111c65760405162461bcd60e51b815260206004820152602160248201527f455243313135353a206d696e7420746f20746865207a65726f2061646472657360448201527f730000000000000000000000000000000000000000000000000000000000000060648201526084016104a7565b815183511461123d5760405162461bcd60e51b815260206004820152602860248201527f455243313135353a2069647320616e6420616d6f756e7473206c656e6774682060448201527f6d69736d6174636800000000000000000000000000000000000000000000000060648201526084016104a7565b3360005b84518110156112f35783818151811061125c5761125c612481565b602002602001015160008087848151811061127957611279612481565b6020026020010151815260200190815260200160002060008873ffffffffffffffffffffffffffffffffffffffff1673ffffffffffffffffffffffffffffffffffffffff16815260200190815260200160002060008282546112db9190612659565b909155508190506112eb816124df565b915050611241565b508473ffffffffffffffffffffffffffffffffffffffff16600073ffffffffffffffffffffffffffffffffffffffff168273ffffffffffffffffffffffffffffffffffffffff167f4a39dc06d4c0dbc64b70af90fd698a233a518aa5d07e595d983b8c0526c8f7fb878760405161136b92919061266c565b60405180910390a461138281600087878787611935565b5050505050565b73ffffffffffffffffffffffffffffffffffffffff83166114125760405162461bcd60e51b815260206004820152602360248201527f455243313135353a206275726e2066726f6d20746865207a65726f206164647260448201527f657373000000000000000000000000000000000000000000000000000000000060648201526084016104a7565b33600061141e846116c4565b9050600061142b846116c4565b604080516020808201835260009182905288825281815282822073ffffffffffffffffffffffffffffffffffffffff8b16835290522054909150848110156114da5760405162461bcd60e51b8152602060048201526024808201527f455243313135353a206275726e20616d6f756e7420657863656564732062616c60448201527f616e63650000000000000000000000000000000000000000000000000000000060648201526084016104a7565b60008681526020818152604080832073ffffffffffffffffffffffffffffffffffffffff8b81168086529184528285208a8703905582518b81529384018a90529092908816917fc3d58168c5ae7397731d063d5bbf3d657854427343f4c083240f7aacaa2d0f62910160405180910390a4604080516020810190915260009052611056565b60007fffffffff0000000000000000000000000000000000000000000000000000000082167fd9b67a260000000000000000000000000000000000000000000000000000000014806115f257507fffffffff0000000000000000000000000000000000000000000000000000000082167f0e89341c00000000000000000000000000000000000000000000000000000000145b806104e057507f01ffc9a7000000000000000000000000000000000000000000000000000000007fffffffff000000000000000000000000000000000000000000000000000000008316146104e0565b600082815260066020908152604080832073ffffffffffffffffffffffffffffffffffffffff8516845290915290205460ff1661074c5761168281611aaa565b61168d836020611ac9565b60405160200161169e92919061269a565b60408051601f198184030181529082905262461bcd60e51b82526104a791600401611df9565b604080516001808252818301909252606091600091906020808301908036833701905050905082816000815181106116fe576116fe612481565b602090810291909101015292915050565b505050505050565b73ffffffffffffffffffffffffffffffffffffffff84163b1561170f576040517ff23a6e6100000000000000000000000000000000000000000000000000000000815273ffffffffffffffffffffffffffffffffffffffff85169063f23a6e619061178e908990899088908890889060040161271b565b6020604051808303816000875af19250505080156117c9575060408051601f3d908101601f191682019092526117c69181019061276b565b60015b61187e576117d5612788565b806308c379a00361180e57506117e96127a4565b806117f45750611810565b8060405162461bcd60e51b81526004016104a79190611df9565b505b60405162461bcd60e51b815260206004820152603460248201527f455243313135353a207472616e7366657220746f206e6f6e2d4552433131353560448201527f526563656976657220696d706c656d656e74657200000000000000000000000060648201526084016104a7565b7fffffffff0000000000000000000000000000000000000000000000000000000081167ff23a6e6100000000000000000000000000000000000000000000000000000000146110565760405162461bcd60e51b815260206004820152602860248201527f455243313135353a204552433131353552656365697665722072656a6563746560448201527f6420746f6b656e7300000000000000000000000000000000000000000000000060648201526084016104a7565b73ffffffffffffffffffffffffffffffffffffffff84163b1561170f576040517fbc197c8100000000000000000000000000000000000000000000000000000000815273ffffffffffffffffffffffffffffffffffffffff85169063bc197c81906119ac908990899088908890889060040161284c565b6020604051808303816000875af19250505080156119e7575060408051601f3d908101601f191682019092526119e49181019061276b565b60015b6119f3576117d5612788565b7fffffffff0000000000000000000000000000000000000000000000000000000081167fbc197c8100000000000000000000000000000000000000000000000000000000146110565760405162461bcd60e51b815260206004820152602860248201527f455243313135353a204552433131353552656365697665722072656a6563746560448201527f6420746f6b656e7300000000000000000000000000000000000000000000000060648201526084016104a7565b60606104e073ffffffffffffffffffffffffffffffffffffffff831660145b60606000611ad88360026128b7565b611ae3906002612659565b67ffffffffffffffff811115611afb57611afb611e0c565b6040519080825280601f01601f191660200182016040528015611b25576020820181803683370190505b5090507f300000000000000000000000000000000000000000000000000000000000000081600081518110611b5c57611b5c612481565b60200101907effffffffffffffffffffffffffffffffffffffffffffffffffffffffffffff1916908160001a9053507f780000000000000000000000000000000000000000000000000000000000000081600181518110611bbf57611bbf612481565b60200101907effffffffffffffffffffffffffffffffffffffffffffffffffffffffffffff1916908160001a9053506000611bfb8460026128b7565b611c06906001612659565b90505b6001811115611ca3577f303132333435363738396162636465660000000000000000000000000000000085600f1660108110611c4757611c47612481565b1a60f81b828281518110611c5d57611c5d612481565b60200101907effffffffffffffffffffffffffffffffffffffffffffffffffffffffffffff1916908160001a90535060049490941c93611c9c816128ce565b9050611c09565b5083156105ca5760405162461bcd60e51b815260206004820181905260248201527f537472696e67733a20686578206c656e67746820696e73756666696369656e7460448201526064016104a7565b803573ffffffffffffffffffffffffffffffffffffffff81168114611d1657600080fd5b919050565b60008060408385031215611d2e57600080fd5b611d3783611cf2565b946020939093013593505050565b7fffffffff0000000000000000000000000000000000000000000000000000000081168114610c0557600080fd5b600060208284031215611d8557600080fd5b81356105ca81611d45565b600060208284031215611da257600080fd5b5035919050565b60005b83811015611dc4578181015183820152602001611dac565b50506000910152565b60008151808452611de5816020860160208601611da9565b601f01601f19169290920160200192915050565b6020815260006105ca6020830184611dcd565b7f4e487b7100000000000000000000000000000000000000000000000000000000600052604160045260246000fd5b601f19601f830116810181811067ffffffffffffffff82111715611e6157611e61611e0c565b6040525050565b600067ffffffffffffffff821115611e8257611e82611e0c565b5060051b60200190565b600082601f830112611e9d57600080fd5b81356020611eaa82611e68565b604051611eb78282611e3b565b83815260059390931b8501820192828101915086841115611ed757600080fd5b8286015b84811015611ef25780358352918301918301611edb565b509695505050505050565b600067ffffffffffffffff831115611f1757611f17611e0c565b604051611f2e6020601f19601f8701160182611e3b565b809150838152848484011115611f4357600080fd5b83836020830137600060208583010152509392505050565b6000806040808486031215611f6f57600080fd5b833567ffffffffffffffff80821115611f8757600080fd5b611f9387838801611e8c565b9450602091508186013581811115611faa57600080fd5b8601601f81018813611fbb57600080fd5b8035611fc681611e68565b8551611fd28282611e3b565b82815260059290921b830185019185810191508a831115611ff257600080fd5b8584015b8381101561203e5780358681111561200e5760008081fd5b8501603f81018d136120205760008081fd5b6120308d898301358b8401611efd565b845250918601918601611ff6565b50809750505050505050509250929050565b600082601f83011261206157600080fd5b6105ca83833560208501611efd565b600080600080600060a0868803121561208857600080fd5b61209186611cf2565b945061209f60208701611cf2565b9350604086013567ffffffffffffffff808211156120bc57600080fd5b6120c889838a01611e8c565b945060608801359150808211156120de57600080fd5b6120ea89838a01611e8c565b9350608088013591508082111561210057600080fd5b5061210d88828901612050565b9150509295509295909350565b6000806040838503121561212d57600080fd5b8235915061213d60208401611cf2565b90509250929050565b6000806040838503121561215957600080fd5b823567ffffffffffffffff8082111561217157600080fd5b818501915085601f83011261218557600080fd5b8135602061219282611e68565b60405161219f8282611e3b565b83815260059390931b85018201928281019150898411156121bf57600080fd5b948201945b838610156121e4576121d586611cf2565b825294820194908201906121c4565b965050860135925050808211156121fa57600080fd5b5061220785828601611e8c565b9150509250929050565b600081518084526020808501945080840160005b8381101561224157815187529582019590820190600101612225565b509495945050505050565b6020815260006105ca6020830184612211565b6000806040838503121561227257600080fd5b61227b83611cf2565b9150602083013567ffffffffffffffff81111561229757600080fd5b61220785828601611e8c565b600080604083850312156122b657600080fd5b6122bf83611cf2565b9150602083013580151581146122d457600080fd5b809150509250929050565b600080604083850312156122f257600080fd5b6122fb83611cf2565b915061213d60208401611cf2565b600080600080600060a0868803121561232157600080fd5b61232a86611cf2565b945061233860208701611cf2565b93506040860135925060608601359150608086013567ffffffffffffffff81111561236257600080fd5b61210d88828901612050565b60006020828403121561238057600080fd5b6105ca82611cf2565b600181811c9082168061239d57607f821691505b6020821081036123d6577f4e487b7100000000000000000000000000000000000000000000000000000000600052602260045260246000fd5b50919050565b60008084546123ea81612389565b60018281168015612402576001811461243557612464565b7fffffffffffffffffffffffffffffffffffffffffffffffffffffffffffffff0084168752821515830287019450612464565b8860005260208060002060005b8581101561245b5781548a820152908401908201612442565b50505082870194505b505050508351612478818360208801611da9565b01949350505050565b7f4e487b7100000000000000000000000000000000000000000000000000000000600052603260045260246000fd5b7f4e487b7100000000000000000000000000000000000000000000000000000000600052601160045260246000fd5b60007fffffffffffffffffffffffffffffffffffffffffffffffffffffffffffffffff8203612510576125106124b0565b5060010190565b601f8211156106b257600081815260208120601f850160051c8101602086101561253e5750805b601f850160051c820191505b8181101561170f5782815560010161254a565b815167ffffffffffffffff81111561257757612577611e0c565b61258b816125858454612389565b84612517565b602080601f8311600181146125de57600084156125a85750858301515b7fffffffffffffffffffffffffffffffffffffffffffffffffffffffffffffffff600386901b1c1916600185901b17855561170f565b600085815260208120601f198616915b8281101561260d578886015182559484019460019091019084016125ee565b508582101561264957878501517fffffffffffffffffffffffffffffffffffffffffffffffffffffffffffffffff600388901b60f8161c191681555b5050505050600190811b01905550565b808201808211156104e0576104e06124b0565b60408152600061267f6040830185612211565b82810360208401526126918185612211565b95945050505050565b7f416363657373436f6e74726f6c3a206163636f756e74200000000000000000008152600083516126d2816017850160208801611da9565b7f206973206d697373696e6720726f6c6520000000000000000000000000000000601791840191820152835161270f816028840160208801611da9565b01602801949350505050565b600073ffffffffffffffffffffffffffffffffffffffff808816835280871660208401525084604083015283606083015260a0608083015261276060a0830184611dcd565b979650505050505050565b60006020828403121561277d57600080fd5b81516105ca81611d45565b600060033d11156127a15760046000803e5060005160e01c5b90565b600060443d10156127b25790565b6040517ffffffffffffffffffffffffffffffffffffffffffffffffffffffffffffffffc803d016004833e81513d67ffffffffffffffff816024840111818411171561280057505050505090565b82850191508151818111156128185750505050505090565b843d87010160208285010111156128325750505050505090565b61284160208286010187611e3b565b509095945050505050565b600073ffffffffffffffffffffffffffffffffffffffff808816835280871660208401525060a0604083015261288560a0830186612211565b82810360608401526128978186612211565b905082810360808401526128ab8185611dcd565b98975050505050505050565b80820281158282048414176104e0576104e06124b0565b6000816128dd576128dd6124b0565b507fffffffffffffffffffffffffffffffffffffffffffffffffffffffffffffffff019056fea26469706673582212203775dab77543b4f2bb923bd219199e6dbe1d37c5e2cc30fac5fa68f4125a804264736f6c63430008110033",
  "linkReferences": {},
  "deployedLinkReferences": {}
}