{
  "_format": "hh-sol-artifact-1",
  "contractName": "SpaceshipUniverse1",
  "sourceName": "contracts/SpaceshipUniverse1.sol",
  "abi": [
    {
      "inputs": [
        {
          "internalType": "address",
          "name": "spaceFactory",
          "type": "address"
        },
        {
          "internalType": "uint16",
          "name": "maxSpaceshipUniverse1CirculatingSupply",
          "type": "uint16"
        }
      ],
      "stateMutability": "nonpayable",
      "type": "constructor"
    },
    {
      "inputs": [],
      "name": "OnlyLockedToken",
      "type": "error"
    },
    {
      "inputs": [],
      "name": "ReachedMaxSupply",
      "type": "error"
    },
    {
      "inputs": [],
      "name": "TokenLocked",
      "type": "error"
    },
    {
      "anonymous": false,
      "inputs": [
        {
          "indexed": true,
          "internalType": "address",
          "name": "owner",
          "type": "address"
        },
        {
          "indexed": true,
          "internalType": "address",
          "name": "approved",
          "type": "address"
        },
        {
          "indexed": true,
          "internalType": "uint256",
          "name": "tokenId",
          "type": "uint256"
        }
      ],
      "name": "Approval",
      "type": "event"
    },
    {
      "anonymous": false,
      "inputs": [
        {
          "indexed": true,
          "internalType": "address",
          "name": "owner",
          "type": "address"
        },
        {
          "indexed": true,
          "internalType": "address",
          "name": "operator",
          "type": "address"
        },
        {
          "indexed": false,
          "internalType": "bool",
          "name": "approved",
          "type": "bool"
        }
      ],
      "name": "ApprovalForAll",
      "type": "event"
    },
    {
      "anonymous": false,
      "inputs": [
        {
          "indexed": false,
          "internalType": "uint256",
          "name": "_fromTokenId",
          "type": "uint256"
        },
        {
          "indexed": false,
          "internalType": "uint256",
          "name": "_toTokenId",
          "type": "uint256"
        }
      ],
      "name": "BatchMetadataUpdate",
      "type": "event"
    },
    {
      "anonymous": false,
      "inputs": [
        {
          "indexed": false,
          "internalType": "uint256",
          "name": "tokenId",
          "type": "uint256"
        }
      ],
      "name": "Locked",
      "type": "event"
    },
    {
      "anonymous": false,
      "inputs": [
        {
          "indexed": false,
          "internalType": "uint256",
          "name": "_tokenId",
          "type": "uint256"
        }
      ],
      "name": "MetadataUpdate",
      "type": "event"
    },
    {
      "anonymous": false,
      "inputs": [
        {
          "indexed": true,
          "internalType": "bytes32",
          "name": "role",
          "type": "bytes32"
        },
        {
          "indexed": true,
          "internalType": "bytes32",
          "name": "previousAdminRole",
          "type": "bytes32"
        },
        {
          "indexed": true,
          "internalType": "bytes32",
          "name": "newAdminRole",
          "type": "bytes32"
        }
      ],
      "name": "RoleAdminChanged",
      "type": "event"
    },
    {
      "anonymous": false,
      "inputs": [
        {
          "indexed": true,
          "internalType": "bytes32",
          "name": "role",
          "type": "bytes32"
        },
        {
          "indexed": true,
          "internalType": "address",
          "name": "account",
          "type": "address"
        },
        {
          "indexed": true,
          "internalType": "address",
          "name": "sender",
          "type": "address"
        }
      ],
      "name": "RoleGranted",
      "type": "event"
    },
    {
      "anonymous": false,
      "inputs": [
        {
          "indexed": true,
          "internalType": "bytes32",
          "name": "role",
          "type": "bytes32"
        },
        {
          "indexed": true,
          "internalType": "address",
          "name": "account",
          "type": "address"
        },
        {
          "indexed": true,
          "internalType": "address",
          "name": "sender",
          "type": "address"
        }
      ],
      "name": "RoleRevoked",
      "type": "event"
    },
    {
      "anonymous": false,
      "inputs": [
        {
          "indexed": true,
          "internalType": "address",
          "name": "from",
          "type": "address"
        },
        {
          "indexed": true,
          "internalType": "address",
          "name": "to",
          "type": "address"
        },
        {
          "indexed": true,
          "internalType": "uint256",
          "name": "tokenId",
          "type": "uint256"
        }
      ],
      "name": "Transfer",
      "type": "event"
    },
    {
      "anonymous": false,
      "inputs": [
        {
          "indexed": false,
          "internalType": "uint256",
          "name": "tokenId",
          "type": "uint256"
        }
      ],
      "name": "Unlocked",
      "type": "event"
    },
    {
      "inputs": [],
      "name": "DEFAULT_ADMIN_ROLE",
      "outputs": [
        {
          "internalType": "bytes32",
          "name": "",
          "type": "bytes32"
        }
      ],
      "stateMutability": "view",
      "type": "function"
    },
    {
      "inputs": [],
      "name": "MAX_SPACESHIP_UNIVERSE1_CIRCULATING_SUPPLY",
      "outputs": [
        {
          "internalType": "uint16",
          "name": "",
          "type": "uint16"
        }
      ],
      "stateMutability": "view",
      "type": "function"
    },
    {
      "inputs": [],
      "name": "SPACE_FACTORY",
      "outputs": [
        {
          "internalType": "bytes32",
          "name": "",
          "type": "bytes32"
        }
      ],
      "stateMutability": "view",
      "type": "function"
    },
    {
      "inputs": [
        {
          "internalType": "address",
          "name": "to",
          "type": "address"
        },
        {
          "internalType": "uint256",
          "name": "tokenId",
          "type": "uint256"
        }
      ],
      "name": "approve",
      "outputs": [],
      "stateMutability": "nonpayable",
      "type": "function"
    },
    {
      "inputs": [
        {
          "internalType": "address",
          "name": "owner",
          "type": "address"
        }
      ],
      "name": "balanceOf",
      "outputs": [
        {
          "internalType": "uint256",
          "name": "",
          "type": "uint256"
        }
      ],
      "stateMutability": "view",
      "type": "function"
    },
    {
      "inputs": [
        {
          "internalType": "uint256",
          "name": "tokenId",
          "type": "uint256"
        }
      ],
      "name": "burn",
      "outputs": [],
      "stateMutability": "nonpayable",
      "type": "function"
    },
    {
      "inputs": [],
      "name": "currentSupply",
      "outputs": [
        {
          "internalType": "uint16",
          "name": "",
          "type": "uint16"
        }
      ],
      "stateMutability": "view",
      "type": "function"
    },
    {
      "inputs": [
        {
          "internalType": "uint256",
          "name": "tokenId",
          "type": "uint256"
        }
      ],
      "name": "getApproved",
      "outputs": [
        {
          "internalType": "address",
          "name": "",
          "type": "address"
        }
      ],
      "stateMutability": "view",
      "type": "function"
    },
    {
      "inputs": [
        {
          "internalType": "bytes32",
          "name": "role",
          "type": "bytes32"
        }
      ],
      "name": "getRoleAdmin",
      "outputs": [
        {
          "internalType": "bytes32",
          "name": "",
          "type": "bytes32"
        }
      ],
      "stateMutability": "view",
      "type": "function"
    },
    {
      "inputs": [
        {
          "internalType": "bytes32",
          "name": "role",
          "type": "bytes32"
        },
        {
          "internalType": "address",
          "name": "account",
          "type": "address"
        }
      ],
      "name": "grantRole",
      "outputs": [],
      "stateMutability": "nonpayable",
      "type": "function"
    },
    {
      "inputs": [
        {
          "internalType": "bytes32",
          "name": "role",
          "type": "bytes32"
        },
        {
          "internalType": "address",
          "name": "account",
          "type": "address"
        }
      ],
      "name": "hasRole",
      "outputs": [
        {
          "internalType": "bool",
          "name": "",
          "type": "bool"
        }
      ],
      "stateMutability": "view",
      "type": "function"
    },
    {
      "inputs": [
        {
          "internalType": "address",
          "name": "owner",
          "type": "address"
        },
        {
          "internalType": "address",
          "name": "operator",
          "type": "address"
        }
      ],
      "name": "isApprovedForAll",
      "outputs": [
        {
          "internalType": "bool",
          "name": "",
          "type": "bool"
        }
      ],
      "stateMutability": "view",
      "type": "function"
    },
    {
      "inputs": [
        {
          "internalType": "uint256",
          "name": "tokenId",
          "type": "uint256"
        }
      ],
      "name": "locked",
      "outputs": [
        {
          "internalType": "bool",
          "name": "",
          "type": "bool"
        }
      ],
      "stateMutability": "view",
      "type": "function"
    },
    {
      "inputs": [
        {
          "internalType": "address",
          "name": "to",
          "type": "address"
        }
      ],
      "name": "mint",
      "outputs": [
        {
          "internalType": "uint256",
          "name": "",
          "type": "uint256"
        }
      ],
      "stateMutability": "nonpayable",
      "type": "function"
    },
    {
      "inputs": [],
      "name": "name",
      "outputs": [
        {
          "internalType": "string",
          "name": "",
          "type": "string"
        }
      ],
      "stateMutability": "view",
      "type": "function"
    },
    {
      "inputs": [],
      "name": "nextTokenId",
      "outputs": [
        {
          "internalType": "uint256",
          "name": "",
          "type": "uint256"
        }
      ],
      "stateMutability": "view",
      "type": "function"
    },
    {
      "inputs": [
        {
          "internalType": "uint256",
          "name": "tokenId",
          "type": "uint256"
        }
      ],
      "name": "ownerOf",
      "outputs": [
        {
          "internalType": "address",
          "name": "",
          "type": "address"
        }
      ],
      "stateMutability": "view",
      "type": "function"
    },
    {
      "inputs": [
        {
          "internalType": "bytes32",
          "name": "role",
          "type": "bytes32"
        },
        {
          "internalType": "address",
          "name": "account",
          "type": "address"
        }
      ],
      "name": "renounceRole",
      "outputs": [],
      "stateMutability": "nonpayable",
      "type": "function"
    },
    {
      "inputs": [
        {
          "internalType": "bytes32",
          "name": "role",
          "type": "bytes32"
        },
        {
          "internalType": "address",
          "name": "account",
          "type": "address"
        }
      ],
      "name": "revokeRole",
      "outputs": [],
      "stateMutability": "nonpayable",
      "type": "function"
    },
    {
      "inputs": [
        {
          "internalType": "address",
          "name": "from",
          "type": "address"
        },
        {
          "internalType": "address",
          "name": "to",
          "type": "address"
        },
        {
          "internalType": "uint256",
          "name": "tokenId",
          "type": "uint256"
        }
      ],
      "name": "safeTransferFrom",
      "outputs": [],
      "stateMutability": "nonpayable",
      "type": "function"
    },
    {
      "inputs": [
        {
          "internalType": "address",
          "name": "from",
          "type": "address"
        },
        {
          "internalType": "address",
          "name": "to",
          "type": "address"
        },
        {
          "internalType": "uint256",
          "name": "tokenId",
          "type": "uint256"
        },
        {
          "internalType": "bytes",
          "name": "data",
          "type": "bytes"
        }
      ],
      "name": "safeTransferFrom",
      "outputs": [],
      "stateMutability": "nonpayable",
      "type": "function"
    },
    {
      "inputs": [
        {
          "internalType": "address",
          "name": "operator",
          "type": "address"
        },
        {
          "internalType": "bool",
          "name": "approved",
          "type": "bool"
        }
      ],
      "name": "setApprovalForAll",
      "outputs": [],
      "stateMutability": "nonpayable",
      "type": "function"
    },
    {
      "inputs": [
        {
          "internalType": "uint256",
          "name": "tokenId",
          "type": "uint256"
        },
        {
          "internalType": "string",
          "name": "decentralizedTokenURI",
          "type": "string"
        }
      ],
      "name": "setDecentralizedTokenURI",
      "outputs": [],
      "stateMutability": "nonpayable",
      "type": "function"
    },
    {
      "inputs": [
        {
          "internalType": "string",
          "name": "_decentralizedTokenURIBase_",
          "type": "string"
        }
      ],
      "name": "setDecentralizedTokenURIBase",
      "outputs": [],
      "stateMutability": "nonpayable",
      "type": "function"
    },
    {
      "inputs": [
        {
          "internalType": "bytes4",
          "name": "interfaceId",
          "type": "bytes4"
        }
      ],
      "name": "supportsInterface",
      "outputs": [
        {
          "internalType": "bool",
          "name": "",
          "type": "bool"
        }
      ],
      "stateMutability": "view",
      "type": "function"
    },
    {
      "inputs": [],
      "name": "symbol",
      "outputs": [
        {
          "internalType": "string",
          "name": "",
          "type": "string"
        }
      ],
      "stateMutability": "view",
      "type": "function"
    },
    {
      "inputs": [
        {
          "internalType": "uint256",
          "name": "tokenId",
          "type": "uint256"
        }
      ],
      "name": "tokenURI",
      "outputs": [
        {
          "internalType": "string",
          "name": "",
          "type": "string"
        }
      ],
      "stateMutability": "view",
      "type": "function"
    },
    {
      "inputs": [
        {
          "internalType": "address",
          "name": "from",
          "type": "address"
        },
        {
          "internalType": "address",
          "name": "to",
          "type": "address"
        },
        {
          "internalType": "uint256",
          "name": "tokenId",
          "type": "uint256"
        }
      ],
      "name": "transferFrom",
      "outputs": [],
      "stateMutability": "nonpayable",
      "type": "function"
    },
    {
      "inputs": [
        {
          "internalType": "uint256",
          "name": "tokenId",
          "type": "uint256"
        }
      ],
      "name": "unlock",
      "outputs": [],
      "stateMutability": "nonpayable",
      "type": "function"
    },
    {
      "inputs": [
        {
          "internalType": "uint256",
          "name": "",
          "type": "uint256"
        }
      ],
      "name": "unlocked",
      "outputs": [
        {
          "internalType": "bool",
          "name": "",
          "type": "bool"
        }
      ],
      "stateMutability": "view",
      "type": "function"
    },
    {
      "inputs": [
        {
          "internalType": "uint256",
          "name": "tokenId",
          "type": "uint256"
        }
      ],
      "name": "updateMetadata",
      "outputs": [],
      "stateMutability": "nonpayable",
      "type": "function"
    }
  ],
  "bytecode": "0x60e0604052601860a09081527f68747470733a2f2f7777772e617277656176652e6e65742f000000000000000060c052600b906200003e908262000277565b503480156200004c57600080fd5b5060405162002bb438038062002bb48339810160408190526200006f9162000343565b6040518060400160405280601381526020017f53706163657368697020556e69766572736531000000000000000000000000008152506040518060400160405280600c81526020016b5350414345534849502d553160a01b8152508160009081620000db919062000277565b506001620000ea828262000277565b5050506200011f7f3478d4fa59eeba752b4e4e1b51a05e7a94c84b3707eda5d8876a08e5aa6b594b836200012d60201b60201c565b61ffff166080525062000393565b60008281526006602090815260408083206001600160a01b038516845290915290205460ff16620001ce5760008281526006602090815260408083206001600160a01b03851684529091529020805460ff191660011790556200018d3390565b6001600160a01b0316816001600160a01b0316837f2f8788117e7eff1d82e926ec794901d17c78024a50270940304540a733656f0d60405160405180910390a45b5050565b634e487b7160e01b600052604160045260246000fd5b600181811c90821680620001fd57607f821691505b6020821081036200021e57634e487b7160e01b600052602260045260246000fd5b50919050565b601f8211156200027257600081815260208120601f850160051c810160208610156200024d5750805b601f850160051c820191505b818110156200026e5782815560010162000259565b5050505b505050565b81516001600160401b03811115620002935762000293620001d2565b620002ab81620002a48454620001e8565b8462000224565b602080601f831160018114620002e35760008415620002ca5750858301515b600019600386901b1c1916600185901b1785556200026e565b600085815260208120601f198616915b828110156200031457888601518255948401946001909101908401620002f3565b5085821015620003335787850151600019600388901b60f8161c191681555b5050505050600190811b01905550565b600080604083850312156200035757600080fd5b82516001600160a01b03811681146200036f57600080fd5b602084015190925061ffff811681146200038857600080fd5b809150509250929050565b6080516127fe620003b66000396000818161026c0152610a5001526127fe6000f3fe608060405234801561001057600080fd5b50600436106101e55760003560e01c80636a6278421161010f578063a217fddf116100a2578063c87b56dd11610071578063c87b56dd14610483578063d547741f14610496578063e985e9c5146104a9578063f1d2b9d1146104e557600080fd5b8063a217fddf14610431578063a22cb46514610439578063b45a3c0e1461044c578063b88d4fde1461047057600080fd5b80638b1cf21c116100de5780638b1cf21c146103ba57806391d14854146103dd57806395d89b41146104165780639c09628d1461041e57600080fd5b80636a6278421461037d57806370a082311461039057806375794a3c146103a3578063771282f6146103ac57600080fd5b8063296e50481161018757806342842e0e1161015657806342842e0e1461033157806342966c68146103445780636198e339146103575780636352211e1461036a57600080fd5b8063296e5048146102e55780632f2ff15d146102f857806336568abe1461030b5780633b6a05051461031e57600080fd5b8063095ea7b3116101c3578063095ea7b31461025257806312edcb1b1461026757806323b872dd146102a1578063248a9ca3146102b457600080fd5b806301ffc9a7146101ea57806306fdde0314610212578063081812fc14610227575b600080fd5b6101fd6101f8366004612079565b61050c565b60405190151581526020015b60405180910390f35b61021a61051d565b60405161020991906120e6565b61023a6102353660046120f9565b6105af565b6040516001600160a01b039091168152602001610209565b61026561026036600461212e565b6105d6565b005b61028e7f000000000000000000000000000000000000000000000000000000000000000081565b60405161ffff9091168152602001610209565b6102656102af366004612158565b61062c565b6102d76102c23660046120f9565b60009081526006602052604090206001015490565b604051908152602001610209565b6102656102f3366004612259565b6106bd565b6102656103063660046122a0565b610738565b6102656103193660046122a0565b61075d565b61026561032c3660046122cc565b6107e5565b61026561033f366004612158565b61081b565b6102656103523660046120f9565b610836565b6102656103653660046120f9565b6108ed565b61023a6103783660046120f9565b6109b7565b6102d761038b366004612301565b610a1c565b6102d761039e366004612301565b610b47565b6102d760085481565b60075461028e9061ffff1681565b6101fd6103c83660046120f9565b60096020526000908152604090205460ff1681565b6101fd6103eb3660046122a0565b60009182526006602090815260408084206001600160a01b0393909316845291905290205460ff1690565b61021a610be1565b61026561042c3660046120f9565b610bf0565b6102d7600081565b61026561044736600461231c565b610c4a565b6101fd61045a3660046120f9565b60009081526009602052604090205460ff161590565b61026561047e366004612358565b610c55565b61021a6104913660046120f9565b610ce3565b6102656104a43660046122a0565b610dc5565b6101fd6104b73660046123d4565b6001600160a01b03918216600090815260056020908152604080832093909416825291909152205460ff1690565b6102d77f3478d4fa59eeba752b4e4e1b51a05e7a94c84b3707eda5d8876a08e5aa6b594b81565b600061051782610dea565b92915050565b60606000805461052c906123fe565b80601f0160208091040260200160405190810160405280929190818152602001828054610558906123fe565b80156105a55780601f1061057a576101008083540402835291602001916105a5565b820191906000526020600020905b81548152906001019060200180831161058857829003601f168201915b5050505050905090565b60006105ba82610e40565b506000908152600460205260409020546001600160a01b031690565b60008181526009602052604090205460ff1661061e576040517f5a8181f700000000000000000000000000000000000000000000000000000000815260040160405180910390fd5b6106288282610ea7565b5050565b6106363382610fd3565b6106ad5760405162461bcd60e51b815260206004820152602d60248201527f4552433732313a2063616c6c6572206973206e6f7420746f6b656e206f776e6560448201527f72206f7220617070726f7665640000000000000000000000000000000000000060648201526084015b60405180910390fd5b6106b8838383611052565b505050565b7f3478d4fa59eeba752b4e4e1b51a05e7a94c84b3707eda5d8876a08e5aa6b594b6106e7816112a0565b6000838152600a602052604090206106ff8382612499565b506040518381527ff8e1a15aba9398e019f0b49df1a4fde98ee17ae345cb5f6b5e2c27f5033e8ce79060200160405180910390a1505050565b600082815260066020526040902060010154610753816112a0565b6106b883836112aa565b6001600160a01b03811633146107db5760405162461bcd60e51b815260206004820152602f60248201527f416363657373436f6e74726f6c3a2063616e206f6e6c792072656e6f756e636560448201527f20726f6c657320666f722073656c66000000000000000000000000000000000060648201526084016106a4565b610628828261134c565b7f3478d4fa59eeba752b4e4e1b51a05e7a94c84b3707eda5d8876a08e5aa6b594b61080f816112a0565b600b6106b88382612499565b6106b883838360405180602001604052806000815250610c55565b7f3478d4fa59eeba752b4e4e1b51a05e7a94c84b3707eda5d8876a08e5aa6b594b610860816112a0565b60008281526009602052604090205460ff16156108a9576040517fde20ed6300000000000000000000000000000000000000000000000000000000815260040160405180910390fd5b6108b2826113cf565b5050600780547fffffffffffffffffffffffffffffffffffffffffffffffffffffffffffff0000811661ffff91821660001901909116179055565b7f3478d4fa59eeba752b4e4e1b51a05e7a94c84b3707eda5d8876a08e5aa6b594b610917816112a0565b60008281526009602052604090205460ff1615610960576040517fde20ed6300000000000000000000000000000000000000000000000000000000815260040160405180910390fd5b60008281526009602052604090819020805460ff19166001179055517ff27b6ce5b2f5e68ddb2fd95a8a909d4ecf1daaac270935fff052feacb24f1842906109ab9084815260200190565b60405180910390a15050565b6000818152600260205260408120546001600160a01b0316806105175760405162461bcd60e51b815260206004820152601860248201527f4552433732313a20696e76616c696420746f6b656e204944000000000000000060448201526064016106a4565b60007f3478d4fa59eeba752b4e4e1b51a05e7a94c84b3707eda5d8876a08e5aa6b594b610a48816112a0565b60075461ffff7f00000000000000000000000000000000000000000000000000000000000000008116911603610aaa576040517f794bb39b00000000000000000000000000000000000000000000000000000000815260040160405180910390fd5b6007805461ffff808216600101167fffffffffffffffffffffffffffffffffffffffffffffffffffffffffffff0000909116179055600854610aed90849061148a565b7f032bc66be43dbccb7487781d168eb7bda224628a3b2c3388bdf69b532a3a1611600854604051610b2091815260200190565b60405180910390a160088054600190810191829055610b3e91612588565b91505b50919050565b60006001600160a01b038216610bc55760405162461bcd60e51b815260206004820152602960248201527f4552433732313a2061646472657373207a65726f206973206e6f74206120766160448201527f6c6964206f776e6572000000000000000000000000000000000000000000000060648201526084016106a4565b506001600160a01b031660009081526003602052604090205490565b60606001805461052c906123fe565b7f3478d4fa59eeba752b4e4e1b51a05e7a94c84b3707eda5d8876a08e5aa6b594b610c1a816112a0565b6040518281527ff8e1a15aba9398e019f0b49df1a4fde98ee17ae345cb5f6b5e2c27f5033e8ce7906020016109ab565b61062833838361163b565b610c5f3383610fd3565b610cd15760405162461bcd60e51b815260206004820152602d60248201527f4552433732313a2063616c6c6572206973206e6f7420746f6b656e206f776e6560448201527f72206f7220617070726f7665640000000000000000000000000000000000000060648201526084016106a4565b610cdd84848484611709565b50505050565b6060610cee82610e40565b6000828152600a602052604081208054610d07906123fe565b80601f0160208091040260200160405190810160405280929190818152602001828054610d33906123fe565b8015610d805780601f10610d5557610100808354040283529160200191610d80565b820191906000526020600020905b815481529060010190602001808311610d6357829003601f168201915b50505050509050600081511115610dbc57600b81604051602001610da592919061259b565b604051602081830303815290604052915050919050565b610b3e83611792565b600082815260066020526040902060010154610de0816112a0565b6106b8838361134c565b60007fffffffff0000000000000000000000000000000000000000000000000000000082167f7965db0b0000000000000000000000000000000000000000000000000000000014806105175750610517826117e2565b6000818152600260205260409020546001600160a01b0316610ea45760405162461bcd60e51b815260206004820152601860248201527f4552433732313a20696e76616c696420746f6b656e204944000000000000000060448201526064016106a4565b50565b6000610eb2826109b7565b9050806001600160a01b0316836001600160a01b031603610f3b5760405162461bcd60e51b815260206004820152602160248201527f4552433732313a20617070726f76616c20746f2063757272656e74206f776e6560448201527f720000000000000000000000000000000000000000000000000000000000000060648201526084016106a4565b336001600160a01b0382161480610f575750610f5781336104b7565b610fc95760405162461bcd60e51b815260206004820152603d60248201527f4552433732313a20617070726f76652063616c6c6572206973206e6f7420746f60448201527f6b656e206f776e6572206f7220617070726f76656420666f7220616c6c00000060648201526084016106a4565b6106b883836118c5565b600080610fdf836109b7565b9050806001600160a01b0316846001600160a01b0316148061102657506001600160a01b0380821660009081526005602090815260408083209388168352929052205460ff165b8061104a5750836001600160a01b031661103f846105af565b6001600160a01b0316145b949350505050565b826001600160a01b0316611065826109b7565b6001600160a01b0316146110e15760405162461bcd60e51b815260206004820152602560248201527f4552433732313a207472616e736665722066726f6d20696e636f72726563742060448201527f6f776e657200000000000000000000000000000000000000000000000000000060648201526084016106a4565b6001600160a01b03821661115c5760405162461bcd60e51b8152602060048201526024808201527f4552433732313a207472616e7366657220746f20746865207a65726f2061646460448201527f726573730000000000000000000000000000000000000000000000000000000060648201526084016106a4565b611169838383600161194b565b826001600160a01b031661117c826109b7565b6001600160a01b0316146111f85760405162461bcd60e51b815260206004820152602560248201527f4552433732313a207472616e736665722066726f6d20696e636f72726563742060448201527f6f776e657200000000000000000000000000000000000000000000000000000060648201526084016106a4565b600081815260046020908152604080832080547fffffffffffffffffffffffff00000000000000000000000000000000000000009081169091556001600160a01b0387811680865260038552838620805460001901905590871680865283862080546001019055868652600290945282852080549092168417909155905184937fddf252ad1be2c89b69c2b068fc378daa952ba7f163c4a11628f55a4df523b3ef91a4505050565b610ea481336119c9565b60008281526006602090815260408083206001600160a01b038516845290915290205460ff166106285760008281526006602090815260408083206001600160a01b03851684529091529020805460ff191660011790556113083390565b6001600160a01b0316816001600160a01b0316837f2f8788117e7eff1d82e926ec794901d17c78024a50270940304540a733656f0d60405160405180910390a45050565b60008281526006602090815260408083206001600160a01b038516845290915290205460ff16156106285760008281526006602090815260408083206001600160a01b0385168085529252808320805460ff1916905551339285917ff6391f5c32d9c69d2a47ea670b442974b53935d1edc7fd64eb21e047a839171b9190a45050565b60006113da826109b7565b90506113ea81600084600161194b565b6113f3826109b7565b600083815260046020908152604080832080547fffffffffffffffffffffffff00000000000000000000000000000000000000009081169091556001600160a01b0385168085526003845282852080546000190190558785526002909352818420805490911690555192935084927fddf252ad1be2c89b69c2b068fc378daa952ba7f163c4a11628f55a4df523b3ef908390a45050565b6001600160a01b0382166114e05760405162461bcd60e51b815260206004820181905260248201527f4552433732313a206d696e7420746f20746865207a65726f206164647265737360448201526064016106a4565b6000818152600260205260409020546001600160a01b0316156115455760405162461bcd60e51b815260206004820152601c60248201527f4552433732313a20746f6b656e20616c7265616479206d696e7465640000000060448201526064016106a4565b61155360008383600161194b565b6000818152600260205260409020546001600160a01b0316156115b85760405162461bcd60e51b815260206004820152601c60248201527f4552433732313a20746f6b656e20616c7265616479206d696e7465640000000060448201526064016106a4565b6001600160a01b038216600081815260036020908152604080832080546001019055848352600290915280822080547fffffffffffffffffffffffff0000000000000000000000000000000000000000168417905551839291907fddf252ad1be2c89b69c2b068fc378daa952ba7f163c4a11628f55a4df523b3ef908290a45050565b816001600160a01b0316836001600160a01b03160361169c5760405162461bcd60e51b815260206004820152601960248201527f4552433732313a20617070726f766520746f2063616c6c65720000000000000060448201526064016106a4565b6001600160a01b03838116600081815260056020908152604080832094871680845294825291829020805460ff191686151590811790915591519182527f17307eab39ab6107e8899845ad3d59bd9653f200f220920489ca2b5937696c31910160405180910390a3505050565b611714848484611052565b61172084848484611a3e565b610cdd5760405162461bcd60e51b815260206004820152603260248201527f4552433732313a207472616e7366657220746f206e6f6e20455243373231526560448201527f63656976657220696d706c656d656e746572000000000000000000000000000060648201526084016106a4565b606061179d82610e40565b60006117a7611bdf565b905060008151116117c75760405180602001604052806000815250610b3e565b806117d184611bff565b604051602001610da5929190612622565b60007fffffffff0000000000000000000000000000000000000000000000000000000082167f80ac58cd00000000000000000000000000000000000000000000000000000000148061187557507fffffffff0000000000000000000000000000000000000000000000000000000082167f5b5e139f00000000000000000000000000000000000000000000000000000000145b8061051757507f01ffc9a7000000000000000000000000000000000000000000000000000000007fffffffff00000000000000000000000000000000000000000000000000000000831614610517565b600081815260046020526040902080547fffffffffffffffffffffffff0000000000000000000000000000000000000000166001600160a01b0384169081179091558190611912826109b7565b6001600160a01b03167f8c5be1e5ebec7d5bd14f71427d1e84f3dd0314c0f7b2291e5b200ac8c7c3b92560405160405180910390a45050565b6001600160a01b0383161580159061196b57506001600160a01b03841615155b8015611986575060008281526009602052604090205460ff16155b156119bd576040517f5a8181f700000000000000000000000000000000000000000000000000000000815260040160405180910390fd5b610cdd84848484611c9f565b60008281526006602090815260408083206001600160a01b038516845290915290205460ff16610628576119fc81611d27565b611a07836020611d39565b604051602001611a18929190612648565b60408051601f198184030181529082905262461bcd60e51b82526106a4916004016120e6565b60006001600160a01b0384163b15611bd4576040517f150b7a020000000000000000000000000000000000000000000000000000000081526001600160a01b0385169063150b7a0290611a9b9033908990889088906004016126c9565b6020604051808303816000875af1925050508015611ad6575060408051601f3d908101601f19168201909252611ad391810190612705565b60015b611b89573d808015611b04576040519150601f19603f3d011682016040523d82523d6000602084013e611b09565b606091505b508051600003611b815760405162461bcd60e51b815260206004820152603260248201527f4552433732313a207472616e7366657220746f206e6f6e20455243373231526560448201527f63656976657220696d706c656d656e746572000000000000000000000000000060648201526084016106a4565b805181602001fd5b7fffffffff00000000000000000000000000000000000000000000000000000000167f150b7a020000000000000000000000000000000000000000000000000000000014905061104a565b506001949350505050565b606060405180606001604052806036815260200161279360369139905090565b60606000611c0c83611f69565b600101905060008167ffffffffffffffff811115611c2c57611c2c612194565b6040519080825280601f01601f191660200182016040528015611c56576020820181803683370190505b5090508181016020015b600019017f3031323334353637383961626364656600000000000000000000000000000000600a86061a8153600a8504945084611c6057509392505050565b6001811115610cdd576001600160a01b03841615611ce5576001600160a01b03841660009081526003602052604081208054839290611cdf908490612588565b90915550505b6001600160a01b03831615610cdd576001600160a01b03831660009081526003602052604081208054839290611d1c908490612722565b909155505050505050565b60606105176001600160a01b03831660145b60606000611d48836002612735565b611d53906002612722565b67ffffffffffffffff811115611d6b57611d6b612194565b6040519080825280601f01601f191660200182016040528015611d95576020820181803683370190505b5090507f300000000000000000000000000000000000000000000000000000000000000081600081518110611dcc57611dcc61274c565b60200101907effffffffffffffffffffffffffffffffffffffffffffffffffffffffffffff1916908160001a9053507f780000000000000000000000000000000000000000000000000000000000000081600181518110611e2f57611e2f61274c565b60200101907effffffffffffffffffffffffffffffffffffffffffffffffffffffffffffff1916908160001a9053506000611e6b846002612735565b611e76906001612722565b90505b6001811115611f13577f303132333435363738396162636465660000000000000000000000000000000085600f1660108110611eb757611eb761274c565b1a60f81b828281518110611ecd57611ecd61274c565b60200101907effffffffffffffffffffffffffffffffffffffffffffffffffffffffffffff1916908160001a90535060049490941c93611f0c8161277b565b9050611e79565b508315611f625760405162461bcd60e51b815260206004820181905260248201527f537472696e67733a20686578206c656e67746820696e73756666696369656e7460448201526064016106a4565b9392505050565b6000807a184f03e93ff9f4daa797ed6e38ed64bf6a1f0100000000000000008310611fb2577a184f03e93ff9f4daa797ed6e38ed64bf6a1f010000000000000000830492506040015b6d04ee2d6d415b85acef81000000008310611fde576d04ee2d6d415b85acef8100000000830492506020015b662386f26fc100008310611ffc57662386f26fc10000830492506010015b6305f5e1008310612014576305f5e100830492506008015b612710831061202857612710830492506004015b6064831061203a576064830492506002015b600a83106105175760010192915050565b7fffffffff0000000000000000000000000000000000000000000000000000000081168114610ea457600080fd5b60006020828403121561208b57600080fd5b8135611f628161204b565b60005b838110156120b1578181015183820152602001612099565b50506000910152565b600081518084526120d2816020860160208601612096565b601f01601f19169290920160200192915050565b602081526000611f6260208301846120ba565b60006020828403121561210b57600080fd5b5035919050565b80356001600160a01b038116811461212957600080fd5b919050565b6000806040838503121561214157600080fd5b61214a83612112565b946020939093013593505050565b60008060006060848603121561216d57600080fd5b61217684612112565b925061218460208501612112565b9150604084013590509250925092565b7f4e487b7100000000000000000000000000000000000000000000000000000000600052604160045260246000fd5b600067ffffffffffffffff808411156121de576121de612194565b604051601f8501601f19908116603f0116810190828211818310171561220657612206612194565b8160405280935085815286868601111561221f57600080fd5b858560208301376000602087830101525050509392505050565b600082601f83011261224a57600080fd5b611f62838335602085016121c3565b6000806040838503121561226c57600080fd5b82359150602083013567ffffffffffffffff81111561228a57600080fd5b61229685828601612239565b9150509250929050565b600080604083850312156122b357600080fd5b823591506122c360208401612112565b90509250929050565b6000602082840312156122de57600080fd5b813567ffffffffffffffff8111156122f557600080fd5b61104a84828501612239565b60006020828403121561231357600080fd5b611f6282612112565b6000806040838503121561232f57600080fd5b61233883612112565b91506020830135801515811461234d57600080fd5b809150509250929050565b6000806000806080858703121561236e57600080fd5b61237785612112565b935061238560208601612112565b925060408501359150606085013567ffffffffffffffff8111156123a857600080fd5b8501601f810187136123b957600080fd5b6123c8878235602084016121c3565b91505092959194509250565b600080604083850312156123e757600080fd5b6123f083612112565b91506122c360208401612112565b600181811c9082168061241257607f821691505b602082108103610b41577f4e487b7100000000000000000000000000000000000000000000000000000000600052602260045260246000fd5b601f8211156106b857600081815260208120601f850160051c810160208610156124725750805b601f850160051c820191505b818110156124915782815560010161247e565b505050505050565b815167ffffffffffffffff8111156124b3576124b3612194565b6124c7816124c184546123fe565b8461244b565b602080601f8311600181146124fc57600084156124e45750858301515b600019600386901b1c1916600185901b178555612491565b600085815260208120601f198616915b8281101561252b5788860151825594840194600190910190840161250c565b50858210156125495787850151600019600388901b60f8161c191681555b5050505050600190811b01905550565b7f4e487b7100000000000000000000000000000000000000000000000000000000600052601160045260246000fd5b8181038181111561051757610517612559565b60008084546125a9816123fe565b600182811680156125c157600181146125d657612605565b60ff1984168752821515830287019450612605565b8860005260208060002060005b858110156125fc5781548a8201529084019082016125e3565b50505082870194505b505050508351612619818360208801612096565b01949350505050565b60008351612634818460208801612096565b835190830190612619818360208801612096565b7f416363657373436f6e74726f6c3a206163636f756e7420000000000000000000815260008351612680816017850160208801612096565b7f206973206d697373696e6720726f6c652000000000000000000000000000000060179184019182015283516126bd816028840160208801612096565b01602801949350505050565b60006001600160a01b038087168352808616602084015250836040830152608060608301526126fb60808301846120ba565b9695505050505050565b60006020828403121561271757600080fd5b8151611f628161204b565b8082018082111561051757610517612559565b808202811582820484141761051757610517612559565b7f4e487b7100000000000000000000000000000000000000000000000000000000600052603260045260246000fd5b60008161278a5761278a612559565b50600019019056fe68747470733a2f2f6170692e73706163656261722e78797a2f6d657461646174612f7370616365736869705f756e697665727365312fa2646970667358221220337acb205d57c47222a7ecad3edbcc74f39e868e0321c86ea89d6f080e3c27ce64736f6c63430008110033",
  "linkReferences": {},
  "deployedLinkReferences": {}
}