{
  "_format": "hh-sol-artifact-1",
  "contractName": "SpaceshipUniverse1",
  "sourceName": "contracts/SpaceshipUniverse1.sol",
  "abi": [
    {
      "inputs": [
        {
          "internalType": "address",
          "name": "_spaceFactory",
          "type": "address"
        },
        {
          "internalType": "uint16",
          "name": "maxSpaceshipUniverse1CirculatingSupply",
          "type": "uint16"
        },
        {
          "internalType": "address",
          "name": "defaultAdmin",
          "type": "address"
        },
        {
          "internalType": "address",
          "name": "royaltyReceiver",
          "type": "address"
        }
      ],
      "stateMutability": "nonpayable",
      "type": "constructor"
    },
    {
      "inputs": [],
      "name": "AddressAlreadyRegistered",
      "type": "error"
    },
    {
      "inputs": [],
      "name": "CanNotApprove",
      "type": "error"
    },
    {
      "inputs": [],
      "name": "CanNotTransfer",
      "type": "error"
    },
    {
      "inputs": [],
      "name": "InvalidProtoship",
      "type": "error"
    },
    {
      "inputs": [],
      "name": "InvalidTokenId",
      "type": "error"
    },
    {
      "inputs": [],
      "name": "InvalidTokenURI",
      "type": "error"
    },
    {
      "inputs": [],
      "name": "NotWhiteListed",
      "type": "error"
    },
    {
      "inputs": [],
      "name": "OnlyLockedToken",
      "type": "error"
    },
    {
      "inputs": [],
      "name": "OnlyNFTOwner",
      "type": "error"
    },
    {
      "inputs": [],
      "name": "OnlyOneProtoshipAtATime",
      "type": "error"
    },
    {
      "inputs": [],
      "name": "OnlySpaceFactory",
      "type": "error"
    },
    {
      "inputs": [],
      "name": "OnlySpaceFactoryOrOwner",
      "type": "error"
    },
    {
      "inputs": [
        {
          "internalType": "address",
          "name": "operator",
          "type": "address"
        }
      ],
      "name": "OperatorNotAllowed",
      "type": "error"
    },
    {
      "inputs": [],
      "name": "ReachedMaxSupply",
      "type": "error"
    },
    {
      "inputs": [],
      "name": "TokenLocked",
      "type": "error"
    },
    {
      "anonymous": false,
      "inputs": [
        {
          "indexed": true,
          "internalType": "address",
          "name": "owner",
          "type": "address"
        },
        {
          "indexed": true,
          "internalType": "address",
          "name": "approved",
          "type": "address"
        },
        {
          "indexed": true,
          "internalType": "uint256",
          "name": "tokenId",
          "type": "uint256"
        }
      ],
      "name": "Approval",
      "type": "event"
    },
    {
      "anonymous": false,
      "inputs": [
        {
          "indexed": true,
          "internalType": "address",
          "name": "owner",
          "type": "address"
        },
        {
          "indexed": true,
          "internalType": "address",
          "name": "operator",
          "type": "address"
        },
        {
          "indexed": false,
          "internalType": "bool",
          "name": "approved",
          "type": "bool"
        }
      ],
      "name": "ApprovalForAll",
      "type": "event"
    },
    {
      "anonymous": false,
      "inputs": [
        {
          "indexed": false,
          "internalType": "uint256",
          "name": "_fromTokenId",
          "type": "uint256"
        },
        {
          "indexed": false,
          "internalType": "uint256",
          "name": "_toTokenId",
          "type": "uint256"
        }
      ],
      "name": "BatchMetadataUpdate",
      "type": "event"
    },
    {
      "anonymous": false,
      "inputs": [
        {
          "indexed": false,
          "internalType": "uint256",
          "name": "tokenId",
          "type": "uint256"
        }
      ],
      "name": "Locked",
      "type": "event"
    },
    {
      "anonymous": false,
      "inputs": [
        {
          "indexed": false,
          "internalType": "uint256",
          "name": "_tokenId",
          "type": "uint256"
        }
      ],
      "name": "MetadataUpdate",
      "type": "event"
    },
    {
      "anonymous": false,
      "inputs": [
        {
          "indexed": true,
          "internalType": "address",
          "name": "previousOwner",
          "type": "address"
        },
        {
          "indexed": true,
          "internalType": "address",
          "name": "newOwner",
          "type": "address"
        }
      ],
      "name": "OwnershipTransferred",
      "type": "event"
    },
    {
      "anonymous": false,
      "inputs": [
        {
          "indexed": true,
          "internalType": "address",
          "name": "from",
          "type": "address"
        },
        {
          "indexed": true,
          "internalType": "address",
          "name": "to",
          "type": "address"
        },
        {
          "indexed": true,
          "internalType": "uint256",
          "name": "tokenId",
          "type": "uint256"
        }
      ],
      "name": "Transfer",
      "type": "event"
    },
    {
      "anonymous": false,
      "inputs": [
        {
          "indexed": false,
          "internalType": "uint256",
          "name": "tokenId",
          "type": "uint256"
        }
      ],
      "name": "Unlocked",
      "type": "event"
    },
    {
      "inputs": [],
      "name": "MAX_SPACESHIP_UNIVERSE1_CIRCULATING_SUPPLY",
      "outputs": [
        {
          "internalType": "uint16",
          "name": "",
          "type": "uint16"
        }
      ],
      "stateMutability": "view",
      "type": "function"
    },
    {
      "inputs": [],
      "name": "OPERATOR_FILTER_REGISTRY",
      "outputs": [
        {
          "internalType": "contract IOperatorFilterRegistry",
          "name": "",
          "type": "address"
        }
      ],
      "stateMutability": "view",
      "type": "function"
    },
    {
      "inputs": [],
      "name": "SPACE_FACTORY",
      "outputs": [
        {
          "internalType": "bytes32",
          "name": "",
          "type": "bytes32"
        }
      ],
      "stateMutability": "view",
      "type": "function"
    },
    {
      "inputs": [
        {
          "internalType": "address",
          "name": "operator",
          "type": "address"
        },
        {
          "internalType": "uint256",
          "name": "tokenId",
          "type": "uint256"
        }
      ],
      "name": "approve",
      "outputs": [],
      "stateMutability": "nonpayable",
      "type": "function"
    },
    {
      "inputs": [
        {
          "internalType": "address",
          "name": "owner",
          "type": "address"
        }
      ],
      "name": "balanceOf",
      "outputs": [
        {
          "internalType": "uint256",
          "name": "",
          "type": "uint256"
        }
      ],
      "stateMutability": "view",
      "type": "function"
    },
    {
      "inputs": [
        {
          "internalType": "uint256",
          "name": "tokenId",
          "type": "uint256"
        }
      ],
      "name": "burn",
      "outputs": [],
      "stateMutability": "nonpayable",
      "type": "function"
    },
    {
      "inputs": [],
      "name": "currentSupply",
      "outputs": [
        {
          "internalType": "uint16",
          "name": "",
          "type": "uint16"
        }
      ],
      "stateMutability": "view",
      "type": "function"
    },
    {
      "inputs": [
        {
          "internalType": "uint256",
          "name": "tokenId",
          "type": "uint256"
        }
      ],
      "name": "getApproved",
      "outputs": [
        {
          "internalType": "address",
          "name": "",
          "type": "address"
        }
      ],
      "stateMutability": "view",
      "type": "function"
    },
    {
      "inputs": [
        {
          "internalType": "address",
          "name": "owner",
          "type": "address"
        },
        {
          "internalType": "address",
          "name": "operator",
          "type": "address"
        }
      ],
      "name": "isApprovedForAll",
      "outputs": [
        {
          "internalType": "bool",
          "name": "",
          "type": "bool"
        }
      ],
      "stateMutability": "view",
      "type": "function"
    },
    {
      "inputs": [
        {
          "internalType": "uint256",
          "name": "tokenId",
          "type": "uint256"
        }
      ],
      "name": "locked",
      "outputs": [
        {
          "internalType": "bool",
          "name": "",
          "type": "bool"
        }
      ],
      "stateMutability": "view",
      "type": "function"
    },
    {
      "inputs": [
        {
          "internalType": "address",
          "name": "to",
          "type": "address"
        }
      ],
      "name": "mint",
      "outputs": [
        {
          "internalType": "uint256",
          "name": "",
          "type": "uint256"
        }
      ],
      "stateMutability": "nonpayable",
      "type": "function"
    },
    {
      "inputs": [],
      "name": "name",
      "outputs": [
        {
          "internalType": "string",
          "name": "",
          "type": "string"
        }
      ],
      "stateMutability": "view",
      "type": "function"
    },
    {
      "inputs": [],
      "name": "nextTokenId",
      "outputs": [
        {
          "internalType": "uint256",
          "name": "",
          "type": "uint256"
        }
      ],
      "stateMutability": "view",
      "type": "function"
    },
    {
      "inputs": [],
      "name": "owner",
      "outputs": [
        {
          "internalType": "address",
          "name": "",
          "type": "address"
        }
      ],
      "stateMutability": "view",
      "type": "function"
    },
    {
      "inputs": [
        {
          "internalType": "uint256",
          "name": "tokenId",
          "type": "uint256"
        }
      ],
      "name": "ownerOf",
      "outputs": [
        {
          "internalType": "address",
          "name": "",
          "type": "address"
        }
      ],
      "stateMutability": "view",
      "type": "function"
    },
    {
      "inputs": [],
      "name": "renounceOwnership",
      "outputs": [],
      "stateMutability": "nonpayable",
      "type": "function"
    },
    {
      "inputs": [
        {
          "internalType": "uint256",
          "name": "_tokenId",
          "type": "uint256"
        },
        {
          "internalType": "uint256",
          "name": "_salePrice",
          "type": "uint256"
        }
      ],
      "name": "royaltyInfo",
      "outputs": [
        {
          "internalType": "address",
          "name": "",
          "type": "address"
        },
        {
          "internalType": "uint256",
          "name": "",
          "type": "uint256"
        }
      ],
      "stateMutability": "view",
      "type": "function"
    },
    {
      "inputs": [
        {
          "internalType": "address",
          "name": "from",
          "type": "address"
        },
        {
          "internalType": "address",
          "name": "to",
          "type": "address"
        },
        {
          "internalType": "uint256",
          "name": "tokenId",
          "type": "uint256"
        }
      ],
      "name": "safeTransferFrom",
      "outputs": [],
      "stateMutability": "nonpayable",
      "type": "function"
    },
    {
      "inputs": [
        {
          "internalType": "address",
          "name": "from",
          "type": "address"
        },
        {
          "internalType": "address",
          "name": "to",
          "type": "address"
        },
        {
          "internalType": "uint256",
          "name": "tokenId",
          "type": "uint256"
        },
        {
          "internalType": "bytes",
          "name": "data",
          "type": "bytes"
        }
      ],
      "name": "safeTransferFrom",
      "outputs": [],
      "stateMutability": "nonpayable",
      "type": "function"
    },
    {
      "inputs": [
        {
          "internalType": "address",
          "name": "operator",
          "type": "address"
        },
        {
          "internalType": "bool",
          "name": "approved",
          "type": "bool"
        }
      ],
      "name": "setApprovalForAll",
      "outputs": [],
      "stateMutability": "nonpayable",
      "type": "function"
    },
    {
      "inputs": [
        {
          "internalType": "uint256",
          "name": "tokenId",
          "type": "uint256"
        },
        {
          "internalType": "string",
          "name": "decentralizedTokenURI",
          "type": "string"
        }
      ],
      "name": "setDecentralizedTokenURI",
      "outputs": [],
      "stateMutability": "nonpayable",
      "type": "function"
    },
    {
      "inputs": [
        {
          "internalType": "string",
          "name": "_decentralizedTokenURIBase_",
          "type": "string"
        }
      ],
      "name": "setDecentralizedTokenURIBase",
      "outputs": [],
      "stateMutability": "nonpayable",
      "type": "function"
    },
    {
      "inputs": [],
      "name": "spaceFactory",
      "outputs": [
        {
          "internalType": "address",
          "name": "",
          "type": "address"
        }
      ],
      "stateMutability": "view",
      "type": "function"
    },
    {
      "inputs": [
        {
          "internalType": "bytes4",
          "name": "interfaceId",
          "type": "bytes4"
        }
      ],
      "name": "supportsInterface",
      "outputs": [
        {
          "internalType": "bool",
          "name": "",
          "type": "bool"
        }
      ],
      "stateMutability": "view",
      "type": "function"
    },
    {
      "inputs": [],
      "name": "symbol",
      "outputs": [
        {
          "internalType": "string",
          "name": "",
          "type": "string"
        }
      ],
      "stateMutability": "view",
      "type": "function"
    },
    {
      "inputs": [
        {
          "internalType": "uint256",
          "name": "tokenId",
          "type": "uint256"
        }
      ],
      "name": "tokenURI",
      "outputs": [
        {
          "internalType": "string",
          "name": "",
          "type": "string"
        }
      ],
      "stateMutability": "view",
      "type": "function"
    },
    {
      "inputs": [
        {
          "internalType": "address",
          "name": "from",
          "type": "address"
        },
        {
          "internalType": "address",
          "name": "to",
          "type": "address"
        },
        {
          "internalType": "uint256",
          "name": "tokenId",
          "type": "uint256"
        }
      ],
      "name": "transferFrom",
      "outputs": [],
      "stateMutability": "nonpayable",
      "type": "function"
    },
    {
      "inputs": [
        {
          "internalType": "address",
          "name": "newOwner",
          "type": "address"
        }
      ],
      "name": "transferOwnership",
      "outputs": [],
      "stateMutability": "nonpayable",
      "type": "function"
    },
    {
      "inputs": [
        {
          "internalType": "uint256",
          "name": "tokenId",
          "type": "uint256"
        }
      ],
      "name": "unlock",
      "outputs": [],
      "stateMutability": "nonpayable",
      "type": "function"
    },
    {
      "inputs": [
        {
          "internalType": "uint256",
          "name": "",
          "type": "uint256"
        }
      ],
      "name": "unlocked",
      "outputs": [
        {
          "internalType": "bool",
          "name": "",
          "type": "bool"
        }
      ],
      "stateMutability": "view",
      "type": "function"
    },
    {
      "inputs": [
        {
          "internalType": "uint256",
          "name": "tokenId",
          "type": "uint256"
        }
      ],
      "name": "updateMetadata",
      "outputs": [],
      "stateMutability": "nonpayable",
      "type": "function"
    }
  ],
  "bytecode": "0x60e0604052601860a09081527f68747470733a2f2f7777772e617277656176652e6e65742f000000000000000060c052600d906200003e908262000581565b503480156200004c57600080fd5b5060405162002f7138038062002f718339810160408190526200006f916200066a565b604080518082018252601381527f53706163657368697020556e69766572736531000000000000000000000000006020808301919091528251808401909352600c83526b5350414345534849502d553160a01b9083015290733cc6cdda760b79bafa08df41ecfa224f810dceb660016daaeb6d7670e522a718067333cd4e3b15620002235780156200017157604051633e9f1edf60e11b81523060048201526001600160a01b03831660248201526daaeb6d7670e522a718067333cd4e90637d3e3dbe906044015b600060405180830381600087803b1580156200015257600080fd5b505af115801562000167573d6000803e3d6000fd5b5050505062000223565b6001600160a01b03821615620001c25760405163a0af290360e01b81523060048201526001600160a01b03831660248201526daaeb6d7670e522a718067333cd4e9063a0af29039060440162000137565b604051632210724360e11b81523060048201526daaeb6d7670e522a718067333cd4e90634420e48690602401600060405180830381600087803b1580156200020957600080fd5b505af11580156200021e573d6000803e3d6000fd5b505050505b506002905062000234838262000581565b50600362000243828262000581565b505050620002606200025a620002a460201b60201c565b620002a8565b600a80546001600160a01b0319166001600160a01b0386161790556200028682620002fa565b62000294816101f46200037d565b505061ffff1660805250620006cf565b3390565b600880546001600160a01b038381166001600160a01b0319831681179093556040519116919082907f8be0079c531659141344cd1fd0a4f28419497f9722a3daafe3b4186f6b6457e090600090a35050565b620003046200047e565b6001600160a01b0381166200036f5760405162461bcd60e51b815260206004820152602660248201527f4f776e61626c653a206e6577206f776e657220697320746865207a65726f206160448201526564647265737360d01b60648201526084015b60405180910390fd5b6200037a81620002a8565b50565b6127106001600160601b0382161115620003ed5760405162461bcd60e51b815260206004820152602a60248201527f455243323938313a20726f79616c7479206665652077696c6c206578636565646044820152692073616c65507269636560b01b606482015260840162000366565b6001600160a01b038216620004455760405162461bcd60e51b815260206004820152601960248201527f455243323938313a20696e76616c696420726563656976657200000000000000604482015260640162000366565b604080518082019091526001600160a01b039092168083526001600160601b039091166020909201829052600160a01b90910217600055565b6008546001600160a01b03163314620004da5760405162461bcd60e51b815260206004820181905260248201527f4f776e61626c653a2063616c6c6572206973206e6f7420746865206f776e6572604482015260640162000366565b565b634e487b7160e01b600052604160045260246000fd5b600181811c908216806200050757607f821691505b6020821081036200052857634e487b7160e01b600052602260045260246000fd5b50919050565b601f8211156200057c57600081815260208120601f850160051c81016020861015620005575750805b601f850160051c820191505b81811015620005785782815560010162000563565b5050505b505050565b81516001600160401b038111156200059d576200059d620004dc565b620005b581620005ae8454620004f2565b846200052e565b602080601f831160018114620005ed5760008415620005d45750858301515b600019600386901b1c1916600185901b17855562000578565b600085815260208120601f198616915b828110156200061e57888601518255948401946001909101908401620005fd565b50858210156200063d5787850151600019600388901b60f8161c191681555b5050505050600190811b01905550565b80516001600160a01b03811681146200066557600080fd5b919050565b600080600080608085870312156200068157600080fd5b6200068c856200064d565b9350602085015161ffff81168114620006a457600080fd5b9250620006b4604086016200064d565b9150620006c4606086016200064d565b905092959194509250565b60805161287f620006f26000396000818161026c0152610af2015261287f6000f3fe608060405234801561001057600080fd5b50600436106101e55760003560e01c806370a082311161010f5780639c09628d116100a2578063c87b56dd11610071578063c87b56dd14610484578063e985e9c514610497578063f1d2b9d1146104d3578063f2fde38b146104fa57600080fd5b80639c09628d14610427578063a22cb4651461043a578063b45a3c0e1461044d578063b88d4fde1461047157600080fd5b8063857bee5f116100de578063857bee5f146103d85780638b1cf21c146103eb5780638da5cb5b1461040e57806395d89b411461041f57600080fd5b806370a082311461038e578063715018a6146103a157806375794a3c146103a9578063771282f6146103b257600080fd5b80632a55205a1161018757806342966c681161015657806342966c68146103345780636198e339146103475780636352211e1461035a5780636a6278421461036d57600080fd5b80632a55205a146102c75780633b6a0505146102f957806341f434341461030c57806342842e0e1461032157600080fd5b8063095ea7b3116101c3578063095ea7b31461025257806312edcb1b1461026757806323b872dd146102a1578063296e5048146102b457600080fd5b806301ffc9a7146101ea57806306fdde0314610212578063081812fc14610227575b600080fd5b6101fd6101f83660046120e8565b61050d565b60405190151581526020015b60405180910390f35b61021a61051e565b6040516102099190612173565b61023a610235366004612186565b6105b0565b6040516001600160a01b039091168152602001610209565b6102656102603660046121b6565b6105d7565b005b61028e7f000000000000000000000000000000000000000000000000000000000000000081565b60405161ffff9091168152602001610209565b6102656102af3660046121e0565b610638565b6102656102c23660046122ff565b610663565b6102da6102d5366004612346565b6106f7565b604080516001600160a01b039093168352602083019190915201610209565b610265610307366004612368565b6107d4565b61023a6daaeb6d7670e522a718067333cd4e81565b61026561032f3660046121e0565b610828565b610265610342366004612186565b61084d565b610265610355366004612186565b610938565b61023a610368366004612186565b610a39565b61038061037b36600461239d565b610aa3565b604051908152602001610209565b61038061039c36600461239d565b610c19565b610265610cb3565b61038060095481565b60085461028e9074010000000000000000000000000000000000000000900461ffff1681565b600a5461023a906001600160a01b031681565b6101fd6103f9366004612186565b600b6020526000908152604090205460ff1681565b6008546001600160a01b031661023a565b61021a610cc7565b610265610435366004612186565b610cd6565b6102656104483660046123c6565b610d4a565b6101fd61045b366004612186565b6000908152600b602052604090205460ff161590565b61026561047f3660046123fd565b610d5e565b61021a610492366004612186565b610d8b565b6101fd6104a5366004612479565b6001600160a01b03918216600090815260076020908152604080832093909416825291909152205460ff1690565b6103807f3478d4fa59eeba752b4e4e1b51a05e7a94c84b3707eda5d8876a08e5aa6b594b81565b61026561050836600461239d565b610e74565b600061051882610f04565b92915050565b60606002805461052d906124ac565b80601f0160208091040260200160405190810160405280929190818152602001828054610559906124ac565b80156105a65780601f1061057b576101008083540402835291602001916105a6565b820191906000526020600020905b81548152906001019060200180831161058957829003601f168201915b5050505050905090565b60006105bb82610fa6565b506000908152600660205260409020546001600160a01b031690565b816105e18161100a565b6000828152600b602052604090205460ff16610629576040517f5a8181f700000000000000000000000000000000000000000000000000000000815260040160405180910390fd5b61063383836110f5565b505050565b826001600160a01b0381163314610652576106523361100a565b61065d84848461123f565b50505050565b600a546001600160a01b031633146106a7576040517fd59ec5f100000000000000000000000000000000000000000000000000000000815260040160405180910390fd5b6000828152600c602052604090206106bf828261254d565b506040518281527ff8e1a15aba9398e019f0b49df1a4fde98ee17ae345cb5f6b5e2c27f5033e8ce79060200160405180910390a15050565b60008281526001602090815260408083208151808301909252546001600160a01b038116808352740100000000000000000000000000000000000000009091046bffffffffffffffffffffffff169282019290925282916107985750604080518082019091526000546001600160a01b03811682527401000000000000000000000000000000000000000090046bffffffffffffffffffffffff1660208201525b6020810151600090612710906107bc906bffffffffffffffffffffffff168761265a565b6107c69190612671565b915196919550909350505050565b600a546001600160a01b03163314610818576040517fd59ec5f100000000000000000000000000000000000000000000000000000000815260040160405180910390fd5b600d610824828261254d565b5050565b826001600160a01b0381163314610842576108423361100a565b61065d8484846112c6565b600a546001600160a01b03163314610891576040517fd59ec5f100000000000000000000000000000000000000000000000000000000815260040160405180910390fd5b6000818152600b602052604090205460ff16156108da576040517fde20ed6300000000000000000000000000000000000000000000000000000000815260040160405180910390fd5b6108e3816112e1565b506008805460001961ffff7401000000000000000000000000000000000000000080840482169290920116027fffffffffffffffffffff0000ffffffffffffffffffffffffffffffffffffffff909116179055565b600a546001600160a01b0316331461097c576040517fd59ec5f100000000000000000000000000000000000000000000000000000000815260040160405180910390fd5b6000818152600b602052604090205460ff16156109c5576040517fde20ed6300000000000000000000000000000000000000000000000000000000815260040160405180910390fd5b6000818152600b60205260409081902080547fffffffffffffffffffffffffffffffffffffffffffffffffffffffffffffff00166001179055517ff27b6ce5b2f5e68ddb2fd95a8a909d4ecf1daaac270935fff052feacb24f184290610a2e9083815260200190565b60405180910390a150565b6000818152600460205260408120546001600160a01b0316806105185760405162461bcd60e51b815260206004820152601860248201527f4552433732313a20696e76616c696420746f6b656e204944000000000000000060448201526064015b60405180910390fd5b600a546000906001600160a01b03163314610aea576040517fd59ec5f100000000000000000000000000000000000000000000000000000000815260040160405180910390fd5b60085461ffff7f00000000000000000000000000000000000000000000000000000000000000008116740100000000000000000000000000000000000000009092041603610b64576040517f794bb39b00000000000000000000000000000000000000000000000000000000815260040160405180910390fd5b60088054600161ffff7401000000000000000000000000000000000000000080840482169290920116027fffffffffffffffffffff0000ffffffffffffffffffffffffffffffffffffffff909116179055600954610bc390839061139c565b7f032bc66be43dbccb7487781d168eb7bda224628a3b2c3388bdf69b532a3a1611600954604051610bf691815260200190565b60405180910390a160098054600190810191829055610518916126ac565b919050565b60006001600160a01b038216610c975760405162461bcd60e51b815260206004820152602960248201527f4552433732313a2061646472657373207a65726f206973206e6f74206120766160448201527f6c6964206f776e657200000000000000000000000000000000000000000000006064820152608401610a9a565b506001600160a01b031660009081526005602052604090205490565b610cbb61154d565b610cc560006115a7565b565b60606003805461052d906124ac565b600a546001600160a01b03163314610d1a576040517fd59ec5f100000000000000000000000000000000000000000000000000000000815260040160405180910390fd5b6040518181527ff8e1a15aba9398e019f0b49df1a4fde98ee17ae345cb5f6b5e2c27f5033e8ce790602001610a2e565b81610d548161100a565b6106338383611611565b836001600160a01b0381163314610d7857610d783361100a565b610d848585858561161c565b5050505050565b6060610d9682610fa6565b6000828152600c602052604081208054610daf906124ac565b80601f0160208091040260200160405190810160405280929190818152602001828054610ddb906124ac565b8015610e285780601f10610dfd57610100808354040283529160200191610e28565b820191906000526020600020905b815481529060010190602001808311610e0b57829003601f168201915b50505050509050600081511115610e6457600d81604051602001610e4d9291906126bf565b604051602081830303815290604052915050919050565b610e6d836116a4565b9392505050565b610e7c61154d565b6001600160a01b038116610ef85760405162461bcd60e51b815260206004820152602660248201527f4f776e61626c653a206e6577206f776e657220697320746865207a65726f206160448201527f64647265737300000000000000000000000000000000000000000000000000006064820152608401610a9a565b610f01816115a7565b50565b60007fffffffff0000000000000000000000000000000000000000000000000000000082167f80ac58cd000000000000000000000000000000000000000000000000000000001480610f9757507fffffffff0000000000000000000000000000000000000000000000000000000082167f5b5e139f00000000000000000000000000000000000000000000000000000000145b806105185750610518826116f4565b6000818152600460205260409020546001600160a01b0316610f015760405162461bcd60e51b815260206004820152601860248201527f4552433732313a20696e76616c696420746f6b656e20494400000000000000006044820152606401610a9a565b6daaeb6d7670e522a718067333cd4e3b15610f01576040517fc61711340000000000000000000000000000000000000000000000000000000081523060048201526001600160a01b03821660248201526daaeb6d7670e522a718067333cd4e9063c617113490604401602060405180830381865afa158015611090573d6000803e3d6000fd5b505050506040513d601f19601f820116820180604052508101906110b49190612764565b610f01576040517fede71dcc0000000000000000000000000000000000000000000000000000000081526001600160a01b0382166004820152602401610a9a565b600061110082610a39565b9050806001600160a01b0316836001600160a01b0316036111895760405162461bcd60e51b815260206004820152602160248201527f4552433732313a20617070726f76616c20746f2063757272656e74206f776e6560448201527f72000000000000000000000000000000000000000000000000000000000000006064820152608401610a9a565b336001600160a01b03821614806111c357506001600160a01b038116600090815260076020908152604080832033845290915290205460ff165b6112355760405162461bcd60e51b815260206004820152603d60248201527f4552433732313a20617070726f76652063616c6c6572206973206e6f7420746f60448201527f6b656e206f776e6572206f7220617070726f76656420666f7220616c6c0000006064820152608401610a9a565b610633838361178b565b6112493382611811565b6112bb5760405162461bcd60e51b815260206004820152602d60248201527f4552433732313a2063616c6c6572206973206e6f7420746f6b656e206f776e6560448201527f72206f7220617070726f766564000000000000000000000000000000000000006064820152608401610a9a565b610633838383611890565b61063383838360405180602001604052806000815250610d5e565b60006112ec82610a39565b90506112fc816000846001611ade565b61130582610a39565b600083815260066020908152604080832080547fffffffffffffffffffffffff00000000000000000000000000000000000000009081169091556001600160a01b0385168085526005845282852080546000190190558785526004909352818420805490911690555192935084927fddf252ad1be2c89b69c2b068fc378daa952ba7f163c4a11628f55a4df523b3ef908390a45050565b6001600160a01b0382166113f25760405162461bcd60e51b815260206004820181905260248201527f4552433732313a206d696e7420746f20746865207a65726f20616464726573736044820152606401610a9a565b6000818152600460205260409020546001600160a01b0316156114575760405162461bcd60e51b815260206004820152601c60248201527f4552433732313a20746f6b656e20616c7265616479206d696e746564000000006044820152606401610a9a565b611465600083836001611ade565b6000818152600460205260409020546001600160a01b0316156114ca5760405162461bcd60e51b815260206004820152601c60248201527f4552433732313a20746f6b656e20616c7265616479206d696e746564000000006044820152606401610a9a565b6001600160a01b038216600081815260056020908152604080832080546001019055848352600490915280822080547fffffffffffffffffffffffff0000000000000000000000000000000000000000168417905551839291907fddf252ad1be2c89b69c2b068fc378daa952ba7f163c4a11628f55a4df523b3ef908290a45050565b6008546001600160a01b03163314610cc55760405162461bcd60e51b815260206004820181905260248201527f4f776e61626c653a2063616c6c6572206973206e6f7420746865206f776e65726044820152606401610a9a565b600880546001600160a01b038381167fffffffffffffffffffffffff0000000000000000000000000000000000000000831681179093556040519116919082907f8be0079c531659141344cd1fd0a4f28419497f9722a3daafe3b4186f6b6457e090600090a35050565b610824338383611b5c565b6116263383611811565b6116985760405162461bcd60e51b815260206004820152602d60248201527f4552433732313a2063616c6c6572206973206e6f7420746f6b656e206f776e6560448201527f72206f7220617070726f766564000000000000000000000000000000000000006064820152608401610a9a565b61065d84848484611c48565b60606116af82610fa6565b60006116b9611cd1565b905060008151116116d95760405180602001604052806000815250610e6d565b806116e384611cf1565b604051602001610e4d929190612781565b60007fffffffff0000000000000000000000000000000000000000000000000000000082167f2a55205a00000000000000000000000000000000000000000000000000000000148061051857507f01ffc9a7000000000000000000000000000000000000000000000000000000007fffffffff00000000000000000000000000000000000000000000000000000000831614610518565b600081815260066020526040902080547fffffffffffffffffffffffff0000000000000000000000000000000000000000166001600160a01b03841690811790915581906117d882610a39565b6001600160a01b03167f8c5be1e5ebec7d5bd14f71427d1e84f3dd0314c0f7b2291e5b200ac8c7c3b92560405160405180910390a45050565b60008061181d83610a39565b9050806001600160a01b0316846001600160a01b0316148061186457506001600160a01b0380821660009081526007602090815260408083209388168352929052205460ff165b806118885750836001600160a01b031661187d846105b0565b6001600160a01b0316145b949350505050565b826001600160a01b03166118a382610a39565b6001600160a01b03161461191f5760405162461bcd60e51b815260206004820152602560248201527f4552433732313a207472616e736665722066726f6d20696e636f72726563742060448201527f6f776e65720000000000000000000000000000000000000000000000000000006064820152608401610a9a565b6001600160a01b03821661199a5760405162461bcd60e51b8152602060048201526024808201527f4552433732313a207472616e7366657220746f20746865207a65726f2061646460448201527f72657373000000000000000000000000000000000000000000000000000000006064820152608401610a9a565b6119a78383836001611ade565b826001600160a01b03166119ba82610a39565b6001600160a01b031614611a365760405162461bcd60e51b815260206004820152602560248201527f4552433732313a207472616e736665722066726f6d20696e636f72726563742060448201527f6f776e65720000000000000000000000000000000000000000000000000000006064820152608401610a9a565b600081815260066020908152604080832080547fffffffffffffffffffffffff00000000000000000000000000000000000000009081169091556001600160a01b0387811680865260058552838620805460001901905590871680865283862080546001019055868652600490945282852080549092168417909155905184937fddf252ad1be2c89b69c2b068fc378daa952ba7f163c4a11628f55a4df523b3ef91a4505050565b6001600160a01b03831615801590611afe57506001600160a01b03841615155b8015611b1957506000828152600b602052604090205460ff16155b15611b50576040517f5a8181f700000000000000000000000000000000000000000000000000000000815260040160405180910390fd5b61065d84848484611d91565b816001600160a01b0316836001600160a01b031603611bbd5760405162461bcd60e51b815260206004820152601960248201527f4552433732313a20617070726f766520746f2063616c6c6572000000000000006044820152606401610a9a565b6001600160a01b0383811660008181526007602090815260408083209487168084529482529182902080547fffffffffffffffffffffffffffffffffffffffffffffffffffffffffffffff001686151590811790915591519182527f17307eab39ab6107e8899845ad3d59bd9653f200f220920489ca2b5937696c31910160405180910390a3505050565b611c53848484611890565b611c5f84848484611e19565b61065d5760405162461bcd60e51b815260206004820152603260248201527f4552433732313a207472616e7366657220746f206e6f6e20455243373231526560448201527f63656976657220696d706c656d656e74657200000000000000000000000000006064820152608401610a9a565b606060405180606001604052806036815260200161281460369139905090565b60606000611cfe83611fd8565b600101905060008167ffffffffffffffff811115611d1e57611d1e61221c565b6040519080825280601f01601f191660200182016040528015611d48576020820181803683370190505b5090508181016020015b600019017f3031323334353637383961626364656600000000000000000000000000000000600a86061a8153600a8504945084611d5257509392505050565b600181111561065d576001600160a01b03841615611dd7576001600160a01b03841660009081526005602052604081208054839290611dd19084906126ac565b90915550505b6001600160a01b0383161561065d576001600160a01b03831660009081526005602052604081208054839290611e0e9084906127a7565b909155505050505050565b60006001600160a01b0384163b15611fcd576040517f150b7a020000000000000000000000000000000000000000000000000000000081526001600160a01b0385169063150b7a0290611e769033908990889088906004016127ba565b6020604051808303816000875af1925050508015611ecf575060408051601f3d9081017fffffffffffffffffffffffffffffffffffffffffffffffffffffffffffffffe0168201909252611ecc918101906127f6565b60015b611f82573d808015611efd576040519150601f19603f3d011682016040523d82523d6000602084013e611f02565b606091505b508051600003611f7a5760405162461bcd60e51b815260206004820152603260248201527f4552433732313a207472616e7366657220746f206e6f6e20455243373231526560448201527f63656976657220696d706c656d656e74657200000000000000000000000000006064820152608401610a9a565b805181602001fd5b7fffffffff00000000000000000000000000000000000000000000000000000000167f150b7a0200000000000000000000000000000000000000000000000000000000149050611888565b506001949350505050565b6000807a184f03e93ff9f4daa797ed6e38ed64bf6a1f0100000000000000008310612021577a184f03e93ff9f4daa797ed6e38ed64bf6a1f010000000000000000830492506040015b6d04ee2d6d415b85acef8100000000831061204d576d04ee2d6d415b85acef8100000000830492506020015b662386f26fc10000831061206b57662386f26fc10000830492506010015b6305f5e1008310612083576305f5e100830492506008015b612710831061209757612710830492506004015b606483106120a9576064830492506002015b600a83106105185760010192915050565b7fffffffff0000000000000000000000000000000000000000000000000000000081168114610f0157600080fd5b6000602082840312156120fa57600080fd5b8135610e6d816120ba565b60005b83811015612120578181015183820152602001612108565b50506000910152565b60008151808452612141816020860160208601612105565b601f017fffffffffffffffffffffffffffffffffffffffffffffffffffffffffffffffe0169290920160200192915050565b602081526000610e6d6020830184612129565b60006020828403121561219857600080fd5b5035919050565b80356001600160a01b0381168114610c1457600080fd5b600080604083850312156121c957600080fd5b6121d28361219f565b946020939093013593505050565b6000806000606084860312156121f557600080fd5b6121fe8461219f565b925061220c6020850161219f565b9150604084013590509250925092565b7f4e487b7100000000000000000000000000000000000000000000000000000000600052604160045260246000fd5b600067ffffffffffffffff808411156122665761226661221c565b604051601f85017fffffffffffffffffffffffffffffffffffffffffffffffffffffffffffffffe0908116603f011681019082821181831017156122ac576122ac61221c565b816040528093508581528686860111156122c557600080fd5b858560208301376000602087830101525050509392505050565b600082601f8301126122f057600080fd5b610e6d8383356020850161224b565b6000806040838503121561231257600080fd5b82359150602083013567ffffffffffffffff81111561233057600080fd5b61233c858286016122df565b9150509250929050565b6000806040838503121561235957600080fd5b50508035926020909101359150565b60006020828403121561237a57600080fd5b813567ffffffffffffffff81111561239157600080fd5b611888848285016122df565b6000602082840312156123af57600080fd5b610e6d8261219f565b8015158114610f0157600080fd5b600080604083850312156123d957600080fd5b6123e28361219f565b915060208301356123f2816123b8565b809150509250929050565b6000806000806080858703121561241357600080fd5b61241c8561219f565b935061242a6020860161219f565b925060408501359150606085013567ffffffffffffffff81111561244d57600080fd5b8501601f8101871361245e57600080fd5b61246d8782356020840161224b565b91505092959194509250565b6000806040838503121561248c57600080fd5b6124958361219f565b91506124a36020840161219f565b90509250929050565b600181811c908216806124c057607f821691505b6020821081036124f9577f4e487b7100000000000000000000000000000000000000000000000000000000600052602260045260246000fd5b50919050565b601f82111561063357600081815260208120601f850160051c810160208610156125265750805b601f850160051c820191505b8181101561254557828155600101612532565b505050505050565b815167ffffffffffffffff8111156125675761256761221c565b61257b8161257584546124ac565b846124ff565b602080601f8311600181146125b057600084156125985750858301515b600019600386901b1c1916600185901b178555612545565b6000858152602081207fffffffffffffffffffffffffffffffffffffffffffffffffffffffffffffffe08616915b828110156125fd578886015182559484019460019091019084016125de565b508582101561261b5787850151600019600388901b60f8161c191681555b5050505050600190811b01905550565b7f4e487b7100000000000000000000000000000000000000000000000000000000600052601160045260246000fd5b80820281158282048414176105185761051861262b565b6000826126a7577f4e487b7100000000000000000000000000000000000000000000000000000000600052601260045260246000fd5b500490565b818103818111156105185761051861262b565b60008084546126cd816124ac565b600182811680156126e5576001811461271857612747565b7fffffffffffffffffffffffffffffffffffffffffffffffffffffffffffffff0084168752821515830287019450612747565b8860005260208060002060005b8581101561273e5781548a820152908401908201612725565b50505082870194505b50505050835161275b818360208801612105565b01949350505050565b60006020828403121561277657600080fd5b8151610e6d816123b8565b60008351612793818460208801612105565b83519083019061275b818360208801612105565b808201808211156105185761051861262b565b60006001600160a01b038087168352808616602084015250836040830152608060608301526127ec6080830184612129565b9695505050505050565b60006020828403121561280857600080fd5b8151610e6d816120ba56fe68747470733a2f2f6170692e73706163656261722e78797a2f6d657461646174612f7370616365736869705f756e697665727365312fa2646970667358221220d2cca55055494cf04100c125052013399a2602ec99ffc505c7b56b5c4f2a922664736f6c63430008110033",
  "linkReferences": {},
  "deployedLinkReferences": {}
}