{
  "_format": "hh-sol-artifact-1",
  "contractName": "SpaceFactoryV1",
  "sourceName": "contracts/SpaceFactoryV1.sol",
  "abi": [
    {
      "inputs": [],
      "name": "AddressAlreadyRegistered",
      "type": "error"
    },
    {
      "inputs": [],
      "name": "InvalidProtoShip",
      "type": "error"
    },
    {
      "inputs": [],
      "name": "OnlyNFTOwner",
      "type": "error"
    },
    {
      "inputs": [],
      "name": "OnlyOneProtoShipAtATime",
      "type": "error"
    },
    {
      "anonymous": false,
      "inputs": [
        {
          "indexed": false,
          "internalType": "address",
          "name": "previousAdmin",
          "type": "address"
        },
        {
          "indexed": false,
          "internalType": "address",
          "name": "newAdmin",
          "type": "address"
        }
      ],
      "name": "AdminChanged",
      "type": "event"
    },
    {
      "anonymous": false,
      "inputs": [
        {
          "indexed": true,
          "internalType": "address",
          "name": "beacon",
          "type": "address"
        }
      ],
      "name": "BeaconUpgraded",
      "type": "event"
    },
    {
      "anonymous": false,
      "inputs": [
        {
          "indexed": false,
          "internalType": "uint8",
          "name": "version",
          "type": "uint8"
        }
      ],
      "name": "Initialized",
      "type": "event"
    },
    {
      "anonymous": false,
      "inputs": [
        {
          "indexed": false,
          "internalType": "address",
          "name": "tokenContract",
          "type": "address"
        },
        {
          "indexed": false,
          "internalType": "uint256",
          "name": "tokenId",
          "type": "uint256"
        },
        {
          "indexed": false,
          "internalType": "uint256",
          "name": "spaceshipId",
          "type": "uint256"
        }
      ],
      "name": "MintProtoShipUniverse1",
      "type": "event"
    },
    {
      "anonymous": false,
      "inputs": [
        {
          "indexed": true,
          "internalType": "bytes32",
          "name": "role",
          "type": "bytes32"
        },
        {
          "indexed": true,
          "internalType": "bytes32",
          "name": "previousAdminRole",
          "type": "bytes32"
        },
        {
          "indexed": true,
          "internalType": "bytes32",
          "name": "newAdminRole",
          "type": "bytes32"
        }
      ],
      "name": "RoleAdminChanged",
      "type": "event"
    },
    {
      "anonymous": false,
      "inputs": [
        {
          "indexed": true,
          "internalType": "bytes32",
          "name": "role",
          "type": "bytes32"
        },
        {
          "indexed": true,
          "internalType": "address",
          "name": "account",
          "type": "address"
        },
        {
          "indexed": true,
          "internalType": "address",
          "name": "sender",
          "type": "address"
        }
      ],
      "name": "RoleGranted",
      "type": "event"
    },
    {
      "anonymous": false,
      "inputs": [
        {
          "indexed": true,
          "internalType": "bytes32",
          "name": "role",
          "type": "bytes32"
        },
        {
          "indexed": true,
          "internalType": "address",
          "name": "account",
          "type": "address"
        },
        {
          "indexed": true,
          "internalType": "address",
          "name": "sender",
          "type": "address"
        }
      ],
      "name": "RoleRevoked",
      "type": "event"
    },
    {
      "anonymous": false,
      "inputs": [
        {
          "indexed": false,
          "internalType": "address",
          "name": "contractAddress",
          "type": "address"
        }
      ],
      "name": "SetBadgeUniverse1",
      "type": "event"
    },
    {
      "anonymous": false,
      "inputs": [
        {
          "indexed": false,
          "internalType": "address",
          "name": "contractAddress",
          "type": "address"
        }
      ],
      "name": "SetSpaceshipUniverse1",
      "type": "event"
    },
    {
      "anonymous": false,
      "inputs": [
        {
          "indexed": false,
          "internalType": "bool",
          "name": "isWhiteListingPeriod",
          "type": "bool"
        }
      ],
      "name": "SetUniverse1WhiteListingPeriod",
      "type": "event"
    },
    {
      "anonymous": false,
      "inputs": [
        {
          "indexed": true,
          "internalType": "address",
          "name": "implementation",
          "type": "address"
        }
      ],
      "name": "Upgraded",
      "type": "event"
    },
    {
      "inputs": [],
      "name": "DEFAULT_ADMIN_ROLE",
      "outputs": [
        {
          "internalType": "bytes32",
          "name": "",
          "type": "bytes32"
        }
      ],
      "stateMutability": "view",
      "type": "function"
    },
    {
      "inputs": [],
      "name": "SERVICE_ADMIN_ROLE",
      "outputs": [
        {
          "internalType": "bytes32",
          "name": "",
          "type": "bytes32"
        }
      ],
      "stateMutability": "view",
      "type": "function"
    },
    {
      "inputs": [],
      "name": "badgeUniverse1",
      "outputs": [
        {
          "internalType": "contract IBadgeUniverse1",
          "name": "",
          "type": "address"
        }
      ],
      "stateMutability": "view",
      "type": "function"
    },
    {
      "inputs": [
        {
          "internalType": "uint256",
          "name": "tokenId",
          "type": "uint256"
        }
      ],
      "name": "burnProtoShipUniverse1",
      "outputs": [],
      "stateMutability": "nonpayable",
      "type": "function"
    },
    {
      "inputs": [
        {
          "internalType": "bytes32",
          "name": "role",
          "type": "bytes32"
        }
      ],
      "name": "getRoleAdmin",
      "outputs": [
        {
          "internalType": "bytes32",
          "name": "",
          "type": "bytes32"
        }
      ],
      "stateMutability": "view",
      "type": "function"
    },
    {
      "inputs": [
        {
          "internalType": "uint256",
          "name": "tokenId",
          "type": "uint256"
        }
      ],
      "name": "getSpaceshipUniverse1TBA",
      "outputs": [
        {
          "internalType": "address",
          "name": "",
          "type": "address"
        }
      ],
      "stateMutability": "view",
      "type": "function"
    },
    {
      "inputs": [
        {
          "internalType": "bytes32",
          "name": "role",
          "type": "bytes32"
        },
        {
          "internalType": "address",
          "name": "account",
          "type": "address"
        }
      ],
      "name": "grantRole",
      "outputs": [],
      "stateMutability": "nonpayable",
      "type": "function"
    },
    {
      "inputs": [
        {
          "internalType": "address",
          "name": "",
          "type": "address"
        }
      ],
      "name": "hasProtoShip",
      "outputs": [
        {
          "internalType": "bool",
          "name": "",
          "type": "bool"
        }
      ],
      "stateMutability": "view",
      "type": "function"
    },
    {
      "inputs": [
        {
          "internalType": "bytes32",
          "name": "role",
          "type": "bytes32"
        },
        {
          "internalType": "address",
          "name": "account",
          "type": "address"
        }
      ],
      "name": "hasRole",
      "outputs": [
        {
          "internalType": "bool",
          "name": "",
          "type": "bool"
        }
      ],
      "stateMutability": "view",
      "type": "function"
    },
    {
      "inputs": [
        {
          "internalType": "address",
          "name": "defaultAdmin",
          "type": "address"
        },
        {
          "internalType": "address",
          "name": "serviceAdmin",
          "type": "address"
        },
        {
          "internalType": "contract IERC6551Registry",
          "name": "_tokenBoundRegistry",
          "type": "address"
        },
        {
          "internalType": "contract IERC6551Account",
          "name": "_tokenBoundImplementation",
          "type": "address"
        }
      ],
      "name": "initialize",
      "outputs": [],
      "stateMutability": "nonpayable",
      "type": "function"
    },
    {
      "inputs": [
        {
          "internalType": "address",
          "name": "tokenContract",
          "type": "address"
        },
        {
          "internalType": "uint256",
          "name": "tokenId",
          "type": "uint256"
        }
      ],
      "name": "mintProtoShipUniverse1",
      "outputs": [
        {
          "internalType": "address",
          "name": "",
          "type": "address"
        }
      ],
      "stateMutability": "nonpayable",
      "type": "function"
    },
    {
      "inputs": [],
      "name": "proxiableUUID",
      "outputs": [
        {
          "internalType": "bytes32",
          "name": "",
          "type": "bytes32"
        }
      ],
      "stateMutability": "view",
      "type": "function"
    },
    {
      "inputs": [
        {
          "internalType": "bytes32",
          "name": "role",
          "type": "bytes32"
        },
        {
          "internalType": "address",
          "name": "account",
          "type": "address"
        }
      ],
      "name": "renounceRole",
      "outputs": [],
      "stateMutability": "nonpayable",
      "type": "function"
    },
    {
      "inputs": [
        {
          "internalType": "bytes32",
          "name": "role",
          "type": "bytes32"
        },
        {
          "internalType": "address",
          "name": "account",
          "type": "address"
        }
      ],
      "name": "revokeRole",
      "outputs": [],
      "stateMutability": "nonpayable",
      "type": "function"
    },
    {
      "inputs": [
        {
          "internalType": "address",
          "name": "contractAddress",
          "type": "address"
        }
      ],
      "name": "setBadgeUniverse1",
      "outputs": [],
      "stateMutability": "nonpayable",
      "type": "function"
    },
    {
      "inputs": [
        {
          "internalType": "address",
          "name": "contractAddress",
          "type": "address"
        }
      ],
      "name": "setSpaceshipUniverse1",
      "outputs": [],
      "stateMutability": "nonpayable",
      "type": "function"
    },
    {
      "inputs": [],
      "name": "spaceshipUniverse1",
      "outputs": [
        {
          "internalType": "contract ISpaceshipUniverse1",
          "name": "",
          "type": "address"
        }
      ],
      "stateMutability": "view",
      "type": "function"
    },
    {
      "inputs": [
        {
          "internalType": "bytes4",
          "name": "interfaceId",
          "type": "bytes4"
        }
      ],
      "name": "supportsInterface",
      "outputs": [
        {
          "internalType": "bool",
          "name": "",
          "type": "bool"
        }
      ],
      "stateMutability": "view",
      "type": "function"
    },
    {
      "inputs": [],
      "name": "tokenBoundImplementation",
      "outputs": [
        {
          "internalType": "contract IERC6551Account",
          "name": "",
          "type": "address"
        }
      ],
      "stateMutability": "view",
      "type": "function"
    },
    {
      "inputs": [],
      "name": "tokenBoundRegistry",
      "outputs": [
        {
          "internalType": "contract IERC6551Registry",
          "name": "",
          "type": "address"
        }
      ],
      "stateMutability": "view",
      "type": "function"
    },
    {
      "inputs": [],
      "name": "universe1WhitelistingPeriod",
      "outputs": [
        {
          "internalType": "bool",
          "name": "",
          "type": "bool"
        }
      ],
      "stateMutability": "view",
      "type": "function"
    },
    {
      "inputs": [
        {
          "internalType": "address",
          "name": "newImplementation",
          "type": "address"
        }
      ],
      "name": "upgradeTo",
      "outputs": [],
      "stateMutability": "nonpayable",
      "type": "function"
    },
    {
      "inputs": [
        {
          "internalType": "address",
          "name": "newImplementation",
          "type": "address"
        },
        {
          "internalType": "bytes",
          "name": "data",
          "type": "bytes"
        }
      ],
      "name": "upgradeToAndCall",
      "outputs": [],
      "stateMutability": "payable",
      "type": "function"
    },
    {
      "inputs": [
        {
          "internalType": "uint256",
          "name": "tokenId",
          "type": "uint256"
        }
      ],
      "name": "upgradeToOwnerShipUniverse1",
      "outputs": [],
      "stateMutability": "nonpayable",
      "type": "function"
    }
  ],
  "bytecode": "0x60a06040523060805234801561001457600080fd5b506080516123ee61004c6000396000818161097901528181610a0f01528181610b1601528181610bac0152610ca301526123ee6000f3fe60806040526004361061018b5760003560e01c80637484ea49116100d6578063d547741f1161007f578063f8c8765e11610059578063f8c8765e146104b7578063fb7d5501146104d7578063fdf250df146104f757600080fd5b8063d547741f14610457578063de4cb28714610477578063eae454481461049757600080fd5b8063a217fddf116100b0578063a217fddf146103ee578063a5d2c33314610403578063d09445c21461042357600080fd5b80637484ea491461036857806391d14854146103885780639d245669146103ce57600080fd5b806336568abe116101385780634f1ef286116101125780634f1ef2861461032057806352d1902d146103335780636aa4e6761461034857600080fd5b806336568abe146102ae5780633659cfe6146102ce5780634845ce4a146102ee57600080fd5b8063248a9ca311610169578063248a9ca31461021d5780632736ef871461025b5780632f2ff15d1461028c57600080fd5b806301ffc9a7146101905780631aa0e61e146101c55780632063b61f146101fd575b600080fd5b34801561019c57600080fd5b506101b06101ab366004611ee0565b610517565b60405190151581526020015b60405180910390f35b3480156101d157600080fd5b506101e56101e0366004611f37565b6105b0565b6040516001600160a01b0390911681526020016101bc565b34801561020957600080fd5b5060fe546101e5906001600160a01b031681565b34801561022957600080fd5b5061024d610238366004611f63565b600090815260c9602052604090206001015490565b6040519081526020016101bc565b34801561026757600080fd5b506101b0610276366004611f7c565b60ff602081905260009182526040909120541681565b34801561029857600080fd5b506102ac6102a7366004611f99565b6108b4565b005b3480156102ba57600080fd5b506102ac6102c9366004611f99565b6108de565b3480156102da57600080fd5b506102ac6102e9366004611f7c565b61096f565b3480156102fa57600080fd5b5060fe546101b09074010000000000000000000000000000000000000000900460ff1681565b6102ac61032e366004611ff8565b610b0c565b34801561033f57600080fd5b5061024d610c96565b34801561035457600080fd5b5060fb546101e5906001600160a01b031681565b34801561037457600080fd5b506101e5610383366004611f63565b610d5b565b34801561039457600080fd5b506101b06103a3366004611f99565b600091825260c9602090815260408084206001600160a01b0393909316845291905290205460ff1690565b3480156103da57600080fd5b5060fd546101e5906001600160a01b031681565b3480156103fa57600080fd5b5061024d600081565b34801561040f57600080fd5b506102ac61041e366004611f7c565b610e08565b34801561042f57600080fd5b5061024d7f9a95e87c5af084bf5db8491c3a6515da9dd6da39b24b0eb0af08d7b9cd808d9181565b34801561046357600080fd5b506102ac610472366004611f99565b610eb8565b34801561048357600080fd5b506102ac610492366004611f63565b610edd565b3480156104a357600080fd5b506102ac6104b2366004611f7c565b610f10565b3480156104c357600080fd5b506102ac6104d23660046120da565b610fb9565b3480156104e357600080fd5b506102ac6104f2366004611f63565b6111cb565b34801561050357600080fd5b5060fc546101e5906001600160a01b031681565b60007fffffffff0000000000000000000000000000000000000000000000000000000082167f7965db0b0000000000000000000000000000000000000000000000000000000014806105aa57507f01ffc9a7000000000000000000000000000000000000000000000000000000007fffffffff000000000000000000000000000000000000000000000000000000008316145b92915050565b6040517f6352211e0000000000000000000000000000000000000000000000000000000081526004810182905260009033906001600160a01b03851690636352211e90602401602060405180830381865afa158015610613573d6000803e3d6000fd5b505050506040513d601f19601f820116820180604052508101906106379190612136565b6001600160a01b031614610677576040517fd48af24600000000000000000000000000000000000000000000000000000000815260040160405180910390fd5b60fd54604080517f75794a3c00000000000000000000000000000000000000000000000000000000815290516000926001600160a01b0316916375794a3c916004808301926020929190829003018187875af11580156106db573d6000803e3d6000fd5b505050506040513d601f19601f820116820180604052508101906106ff9190612153565b60fd5490915060009061071b906001600160a01b0316836111fe565b60fc5460fb546040517f5e9bc5360000000000000000000000000000000000000000000000000000000081526001600160a01b039182166004820152466024820152888216604482015260648101889052600060848201819052939450911690635e9bc5369060a401602060405180830381865afa1580156107a1573d6000803e3d6000fd5b505050506040513d601f19601f820116820180604052508101906107c59190612136565b90506107d0816112f6565b61012c8310156108615760fe546040517ff3aa37260000000000000000000000000000000000000000000000000000000081526001600160a01b03848116600483015260006024830181905260448301529091169063f3aa372690606401600060405180830381600087803b15801561084857600080fd5b505af115801561085c573d6000803e3d6000fd5b505050505b604080516001600160a01b0388168152602081018790529081018490527f8d0dd02910931c104cabef23cd62d11e1754f41471ed90f74280d5f28b37101e9060600160405180910390a195945050505050565b600082815260c960205260409020600101546108cf816113f8565b6108d98383611402565b505050565b6001600160a01b03811633146109615760405162461bcd60e51b815260206004820152602f60248201527f416363657373436f6e74726f6c3a2063616e206f6e6c792072656e6f756e636560448201527f20726f6c657320666f722073656c66000000000000000000000000000000000060648201526084015b60405180910390fd5b61096b82826114a4565b5050565b6001600160a01b037f0000000000000000000000000000000000000000000000000000000000000000163003610a0d5760405162461bcd60e51b815260206004820152602c60248201527f46756e6374696f6e206d7573742062652063616c6c6564207468726f7567682060448201527f64656c656761746563616c6c00000000000000000000000000000000000000006064820152608401610958565b7f00000000000000000000000000000000000000000000000000000000000000006001600160a01b0316610a687f360894a13ba1a3210667c828492db98dca3e2076cc3735a920a3ca505d382bbc546001600160a01b031690565b6001600160a01b031614610ae45760405162461bcd60e51b815260206004820152602c60248201527f46756e6374696f6e206d7573742062652063616c6c6564207468726f7567682060448201527f6163746976652070726f787900000000000000000000000000000000000000006064820152608401610958565b610aed81611527565b60408051600080825260208201909252610b0991839190611532565b50565b6001600160a01b037f0000000000000000000000000000000000000000000000000000000000000000163003610baa5760405162461bcd60e51b815260206004820152602c60248201527f46756e6374696f6e206d7573742062652063616c6c6564207468726f7567682060448201527f64656c656761746563616c6c00000000000000000000000000000000000000006064820152608401610958565b7f00000000000000000000000000000000000000000000000000000000000000006001600160a01b0316610c057f360894a13ba1a3210667c828492db98dca3e2076cc3735a920a3ca505d382bbc546001600160a01b031690565b6001600160a01b031614610c815760405162461bcd60e51b815260206004820152602c60248201527f46756e6374696f6e206d7573742062652063616c6c6564207468726f7567682060448201527f6163746976652070726f787900000000000000000000000000000000000000006064820152608401610958565b610c8a82611527565b61096b82826001611532565b6000306001600160a01b037f00000000000000000000000000000000000000000000000000000000000000001614610d365760405162461bcd60e51b815260206004820152603860248201527f555550535570677261646561626c653a206d757374206e6f742062652063616c60448201527f6c6564207468726f7567682064656c656761746563616c6c00000000000000006064820152608401610958565b507f360894a13ba1a3210667c828492db98dca3e2076cc3735a920a3ca505d382bbc90565b60fc5460fb5460fd546040517f5e9bc5360000000000000000000000000000000000000000000000000000000081526001600160a01b039283166004820152466024820152908216604482015260648101849052600060848201819052929190911690635e9bc5369060a401602060405180830381865afa158015610de4573d6000803e3d6000fd5b505050506040513d601f19601f820116820180604052508101906105aa9190612136565b60fd546001600160a01b031615610e4b576040517f2d42c77200000000000000000000000000000000000000000000000000000000815260040160405180910390fd5b60fd80547fffffffffffffffffffffffff0000000000000000000000000000000000000000166001600160a01b0383169081179091556040519081527f19603da0a8565b076f4284ea79940007a8fffcdedd780843b933d61609bdb492906020015b60405180910390a150565b600082815260c96020526040902060010154610ed3816113f8565b6108d983836114a4565b7f9a95e87c5af084bf5db8491c3a6515da9dd6da39b24b0eb0af08d7b9cd808d91610f07816113f8565b61096b826116f0565b60fe546001600160a01b031615610f53576040517f2d42c77200000000000000000000000000000000000000000000000000000000815260040160405180910390fd5b60fe80547fffffffffffffffffffffffff0000000000000000000000000000000000000000166001600160a01b0383169081179091556040519081527f6aa464e943c66d2f0bc75ac8a5c3d747bb75b5a7b8610ab18d5e2308b238dab190602001610ead565b600054610100900460ff1615808015610fd95750600054600160ff909116105b80610ff35750303b158015610ff3575060005460ff166001145b6110655760405162461bcd60e51b815260206004820152602e60248201527f496e697469616c697a61626c653a20636f6e747261637420697320616c72656160448201527f647920696e697469616c697a65640000000000000000000000000000000000006064820152608401610958565b6000805460ff1916600117905580156110a557600080547fffffffffffffffffffffffffffffffffffffffffffffffffffffffffffff00ff166101001790555b6110b0600086611402565b6110da7f9a95e87c5af084bf5db8491c3a6515da9dd6da39b24b0eb0af08d7b9cd808d9185611402565b60fc80546001600160a01b038086167fffffffffffffffffffffffff00000000000000000000000000000000000000009283161790925560fb80549285169290911691909117905560fe80547fffffffffffffffffffffff00ffffffffffffffffffffffffffffffffffffffff167401000000000000000000000000000000000000000017905580156111c457600080547fffffffffffffffffffffffffffffffffffffffffffffffffffffffffffff00ff169055604051600181527f7f26b83ff96e1f2b6a682f133852f6798a09c465da95921460cefb38474024989060200160405180910390a15b5050505050565b7f9a95e87c5af084bf5db8491c3a6515da9dd6da39b24b0eb0af08d7b9cd808d916111f5816113f8565b61096b82611867565b60fc5460fb546040805160048082526024820183526020820180517bffffffffffffffffffffffffffffffffffffffffffffffffffffffff167f8129fc1c0000000000000000000000000000000000000000000000000000000017905291517fda7323b30000000000000000000000000000000000000000000000000000000081526000946001600160a01b039081169463da7323b3946112ac94919092169246928a928a928a92016121da565b6020604051808303816000875af11580156112cb573d6000803e3d6000fd5b505050506040513d601f19601f820116820180604052508101906112ef9190612136565b9392505050565b6001600160a01b038116600090815260ff6020819052604090912054161561134a576040517fb06430b600000000000000000000000000000000000000000000000000000000815260040160405180910390fd5b60fd546040517f6a6278420000000000000000000000000000000000000000000000000000000081526001600160a01b03838116600483015290911690636a627842906024016020604051808303816000875af11580156113af573d6000803e3d6000fd5b505050506040513d601f19601f820116820180604052508101906113d39190612153565b506001600160a01b0316600090815260ff60205260409020805460ff19166001179055565b610b09813361198e565b600082815260c9602090815260408083206001600160a01b038516845290915290205460ff1661096b57600082815260c9602090815260408083206001600160a01b03851684529091529020805460ff191660011790556114603390565b6001600160a01b0316816001600160a01b0316837f2f8788117e7eff1d82e926ec794901d17c78024a50270940304540a733656f0d60405160405180910390a45050565b600082815260c9602090815260408083206001600160a01b038516845290915290205460ff161561096b57600082815260c9602090815260408083206001600160a01b0385168085529252808320805460ff1916905551339285917ff6391f5c32d9c69d2a47ea670b442974b53935d1edc7fd64eb21e047a839171b9190a45050565b600061096b816113f8565b7f4910fdfa16fed3260ed0e7147f7cc6da11a60208b5b9406d12a635614ffd91435460ff1615611565576108d983611a21565b826001600160a01b03166352d1902d6040518163ffffffff1660e01b8152600401602060405180830381865afa9250505080156115dd575060408051601f3d9081017fffffffffffffffffffffffffffffffffffffffffffffffffffffffffffffffe01682019092526115da91810190612153565b60015b61164f5760405162461bcd60e51b815260206004820152602e60248201527f45524331393637557067726164653a206e657720696d706c656d656e7461746960448201527f6f6e206973206e6f7420555550530000000000000000000000000000000000006064820152608401610958565b7f360894a13ba1a3210667c828492db98dca3e2076cc3735a920a3ca505d382bbc81146116e45760405162461bcd60e51b815260206004820152602960248201527f45524331393637557067726164653a20756e737570706f727465642070726f7860448201527f6961626c655555494400000000000000000000000000000000000000000000006064820152608401610958565b506108d9838383611af7565b60fd546040517f6352211e000000000000000000000000000000000000000000000000000000008152600481018390526000916001600160a01b031690636352211e90602401602060405180830381865afa158015611753573d6000803e3d6000fd5b505050506040513d601f19601f820116820180604052508101906117779190612136565b6001600160a01b038116600090815260ff6020819052604090912054919250166117cd576040517f55c9b51400000000000000000000000000000000000000000000000000000000815260040160405180910390fd5b60fd546040517f42966c68000000000000000000000000000000000000000000000000000000008152600481018490526001600160a01b03909116906342966c68906024015b600060405180830381600087803b15801561182d57600080fd5b505af1158015611841573d6000803e3d6000fd5b505050506001600160a01b0316600090815260ff60205260409020805460ff1916905550565b60fd546040517f6352211e000000000000000000000000000000000000000000000000000000008152600481018390526000916001600160a01b031690636352211e90602401602060405180830381865afa1580156118ca573d6000803e3d6000fd5b505050506040513d601f19601f820116820180604052508101906118ee9190612136565b6001600160a01b038116600090815260ff602081905260409091205491925016611944576040517f55c9b51400000000000000000000000000000000000000000000000000000000815260040160405180910390fd5b60fd546040517f6198e339000000000000000000000000000000000000000000000000000000008152600481018490526001600160a01b0390911690636198e33990602401611813565b600082815260c9602090815260408083206001600160a01b038516845290915290205460ff1661096b576119c181611b22565b6119cc836020611b34565b6040516020016119dd929190612224565b604080517fffffffffffffffffffffffffffffffffffffffffffffffffffffffffffffffe08184030181529082905262461bcd60e51b8252610958916004016122a5565b6001600160a01b0381163b611a9e5760405162461bcd60e51b815260206004820152602d60248201527f455243313936373a206e657720696d706c656d656e746174696f6e206973206e60448201527f6f74206120636f6e7472616374000000000000000000000000000000000000006064820152608401610958565b7f360894a13ba1a3210667c828492db98dca3e2076cc3735a920a3ca505d382bbc80547fffffffffffffffffffffffff0000000000000000000000000000000000000000166001600160a01b0392909216919091179055565b611b0083611d5d565b600082511180611b0d5750805b156108d957611b1c8383611d9d565b50505050565b60606105aa6001600160a01b03831660145b60606000611b438360026122e7565b611b4e9060026122fe565b67ffffffffffffffff811115611b6657611b66611fc9565b6040519080825280601f01601f191660200182016040528015611b90576020820181803683370190505b5090507f300000000000000000000000000000000000000000000000000000000000000081600081518110611bc757611bc7612311565b60200101907effffffffffffffffffffffffffffffffffffffffffffffffffffffffffffff1916908160001a9053507f780000000000000000000000000000000000000000000000000000000000000081600181518110611c2a57611c2a612311565b60200101907effffffffffffffffffffffffffffffffffffffffffffffffffffffffffffff1916908160001a9053506000611c668460026122e7565b611c719060016122fe565b90505b6001811115611d0e577f303132333435363738396162636465660000000000000000000000000000000085600f1660108110611cb257611cb2612311565b1a60f81b828281518110611cc857611cc8612311565b60200101907effffffffffffffffffffffffffffffffffffffffffffffffffffffffffffff1916908160001a90535060049490941c93611d0781612340565b9050611c74565b5083156112ef5760405162461bcd60e51b815260206004820181905260248201527f537472696e67733a20686578206c656e67746820696e73756666696369656e746044820152606401610958565b611d6681611a21565b6040516001600160a01b038216907fbc7cd75a20ee27fd9adebab32041f755214dbc6bffa90cc0225b39da2e5c2d3b90600090a250565b60606112ef8383604051806060016040528060278152602001612392602791396060600080856001600160a01b031685604051611dda9190612375565b600060405180830381855af49150503d8060008114611e15576040519150601f19603f3d011682016040523d82523d6000602084013e611e1a565b606091505b5091509150611e2b86838387611e35565b9695505050505050565b60608315611ea4578251600003611e9d576001600160a01b0385163b611e9d5760405162461bcd60e51b815260206004820152601d60248201527f416464726573733a2063616c6c20746f206e6f6e2d636f6e74726163740000006044820152606401610958565b5081611eae565b611eae8383611eb6565b949350505050565b815115611ec65781518083602001fd5b8060405162461bcd60e51b815260040161095891906122a5565b600060208284031215611ef257600080fd5b81357fffffffff00000000000000000000000000000000000000000000000000000000811681146112ef57600080fd5b6001600160a01b0381168114610b0957600080fd5b60008060408385031215611f4a57600080fd5b8235611f5581611f22565b946020939093013593505050565b600060208284031215611f7557600080fd5b5035919050565b600060208284031215611f8e57600080fd5b81356112ef81611f22565b60008060408385031215611fac57600080fd5b823591506020830135611fbe81611f22565b809150509250929050565b7f4e487b7100000000000000000000000000000000000000000000000000000000600052604160045260246000fd5b6000806040838503121561200b57600080fd5b823561201681611f22565b9150602083013567ffffffffffffffff8082111561203357600080fd5b818501915085601f83011261204757600080fd5b81358181111561205957612059611fc9565b604051601f82017fffffffffffffffffffffffffffffffffffffffffffffffffffffffffffffffe0908116603f0116810190838211818310171561209f5761209f611fc9565b816040528281528860208487010111156120b857600080fd5b8260208601602083013760006020848301015280955050505050509250929050565b600080600080608085870312156120f057600080fd5b84356120fb81611f22565b9350602085013561210b81611f22565b9250604085013561211b81611f22565b9150606085013561212b81611f22565b939692955090935050565b60006020828403121561214857600080fd5b81516112ef81611f22565b60006020828403121561216557600080fd5b5051919050565b60005b8381101561218757818101518382015260200161216f565b50506000910152565b600081518084526121a881602086016020860161216c565b601f017fffffffffffffffffffffffffffffffffffffffffffffffffffffffffffffffe0169290920160200192915050565b60006001600160a01b03808916835287602084015280871660408401525084606083015283608083015260c060a083015261221860c0830184612190565b98975050505050505050565b7f416363657373436f6e74726f6c3a206163636f756e742000000000000000000081526000835161225c81601785016020880161216c565b7f206973206d697373696e6720726f6c6520000000000000000000000000000000601791840191820152835161229981602884016020880161216c565b01602801949350505050565b6020815260006112ef6020830184612190565b7f4e487b7100000000000000000000000000000000000000000000000000000000600052601160045260246000fd5b80820281158282048414176105aa576105aa6122b8565b808201808211156105aa576105aa6122b8565b7f4e487b7100000000000000000000000000000000000000000000000000000000600052603260045260246000fd5b60008161234f5761234f6122b8565b507fffffffffffffffffffffffffffffffffffffffffffffffffffffffffffffffff0190565b6000825161238781846020870161216c565b919091019291505056fe416464726573733a206c6f772d6c6576656c2064656c65676174652063616c6c206661696c6564a264697066735822122072b271f790389a7f800ff4ffc10aac7b62271b50a3a932903458fadec400151364736f6c63430008110033",
  "linkReferences": {},
  "deployedLinkReferences": {}
}