{
  "_format": "hh-sol-artifact-1",
  "contractName": "SpaceshipUniverse1",
  "sourceName": "contracts/SpaceshipUniverse1.sol",
  "abi": [
    {
      "inputs": [
        {
          "internalType": "address",
          "name": "spaceFactory",
          "type": "address"
        },
        {
          "internalType": "uint16",
          "name": "maxSpaceshipUniverse1CirculatingSupply",
          "type": "uint16"
        }
      ],
      "stateMutability": "nonpayable",
      "type": "constructor"
    },
    {
      "inputs": [],
      "name": "OnlyLockedToken",
      "type": "error"
    },
    {
      "inputs": [],
      "name": "ReachedMaxSupply",
      "type": "error"
    },
    {
      "inputs": [],
      "name": "TokenLocked",
      "type": "error"
    },
    {
      "anonymous": false,
      "inputs": [
        {
          "indexed": true,
          "internalType": "address",
          "name": "owner",
          "type": "address"
        },
        {
          "indexed": true,
          "internalType": "address",
          "name": "approved",
          "type": "address"
        },
        {
          "indexed": true,
          "internalType": "uint256",
          "name": "tokenId",
          "type": "uint256"
        }
      ],
      "name": "Approval",
      "type": "event"
    },
    {
      "anonymous": false,
      "inputs": [
        {
          "indexed": true,
          "internalType": "address",
          "name": "owner",
          "type": "address"
        },
        {
          "indexed": true,
          "internalType": "address",
          "name": "operator",
          "type": "address"
        },
        {
          "indexed": false,
          "internalType": "bool",
          "name": "approved",
          "type": "bool"
        }
      ],
      "name": "ApprovalForAll",
      "type": "event"
    },
    {
      "anonymous": false,
      "inputs": [
        {
          "indexed": false,
          "internalType": "uint256",
          "name": "_fromTokenId",
          "type": "uint256"
        },
        {
          "indexed": false,
          "internalType": "uint256",
          "name": "_toTokenId",
          "type": "uint256"
        }
      ],
      "name": "BatchMetadataUpdate",
      "type": "event"
    },
    {
      "anonymous": false,
      "inputs": [
        {
          "indexed": false,
          "internalType": "uint256",
          "name": "tokenId",
          "type": "uint256"
        }
      ],
      "name": "Locked",
      "type": "event"
    },
    {
      "anonymous": false,
      "inputs": [
        {
          "indexed": false,
          "internalType": "uint256",
          "name": "_tokenId",
          "type": "uint256"
        }
      ],
      "name": "MetadataUpdate",
      "type": "event"
    },
    {
      "anonymous": false,
      "inputs": [
        {
          "indexed": true,
          "internalType": "bytes32",
          "name": "role",
          "type": "bytes32"
        },
        {
          "indexed": true,
          "internalType": "bytes32",
          "name": "previousAdminRole",
          "type": "bytes32"
        },
        {
          "indexed": true,
          "internalType": "bytes32",
          "name": "newAdminRole",
          "type": "bytes32"
        }
      ],
      "name": "RoleAdminChanged",
      "type": "event"
    },
    {
      "anonymous": false,
      "inputs": [
        {
          "indexed": true,
          "internalType": "bytes32",
          "name": "role",
          "type": "bytes32"
        },
        {
          "indexed": true,
          "internalType": "address",
          "name": "account",
          "type": "address"
        },
        {
          "indexed": true,
          "internalType": "address",
          "name": "sender",
          "type": "address"
        }
      ],
      "name": "RoleGranted",
      "type": "event"
    },
    {
      "anonymous": false,
      "inputs": [
        {
          "indexed": true,
          "internalType": "bytes32",
          "name": "role",
          "type": "bytes32"
        },
        {
          "indexed": true,
          "internalType": "address",
          "name": "account",
          "type": "address"
        },
        {
          "indexed": true,
          "internalType": "address",
          "name": "sender",
          "type": "address"
        }
      ],
      "name": "RoleRevoked",
      "type": "event"
    },
    {
      "anonymous": false,
      "inputs": [
        {
          "indexed": true,
          "internalType": "address",
          "name": "from",
          "type": "address"
        },
        {
          "indexed": true,
          "internalType": "address",
          "name": "to",
          "type": "address"
        },
        {
          "indexed": true,
          "internalType": "uint256",
          "name": "tokenId",
          "type": "uint256"
        }
      ],
      "name": "Transfer",
      "type": "event"
    },
    {
      "anonymous": false,
      "inputs": [
        {
          "indexed": false,
          "internalType": "uint256",
          "name": "tokenId",
          "type": "uint256"
        }
      ],
      "name": "Unlocked",
      "type": "event"
    },
    {
      "inputs": [],
      "name": "DEFAULT_ADMIN_ROLE",
      "outputs": [
        {
          "internalType": "bytes32",
          "name": "",
          "type": "bytes32"
        }
      ],
      "stateMutability": "view",
      "type": "function"
    },
    {
      "inputs": [],
      "name": "MAX_SPACESHIP_UNIVERSE1_CIRCULATING_SUPPLY",
      "outputs": [
        {
          "internalType": "uint16",
          "name": "",
          "type": "uint16"
        }
      ],
      "stateMutability": "view",
      "type": "function"
    },
    {
      "inputs": [],
      "name": "SPACE_FACTORY",
      "outputs": [
        {
          "internalType": "bytes32",
          "name": "",
          "type": "bytes32"
        }
      ],
      "stateMutability": "view",
      "type": "function"
    },
    {
      "inputs": [
        {
          "internalType": "address",
          "name": "to",
          "type": "address"
        },
        {
          "internalType": "uint256",
          "name": "tokenId",
          "type": "uint256"
        }
      ],
      "name": "approve",
      "outputs": [],
      "stateMutability": "nonpayable",
      "type": "function"
    },
    {
      "inputs": [
        {
          "internalType": "address",
          "name": "owner",
          "type": "address"
        }
      ],
      "name": "balanceOf",
      "outputs": [
        {
          "internalType": "uint256",
          "name": "",
          "type": "uint256"
        }
      ],
      "stateMutability": "view",
      "type": "function"
    },
    {
      "inputs": [
        {
          "internalType": "uint256",
          "name": "tokenId",
          "type": "uint256"
        }
      ],
      "name": "burn",
      "outputs": [],
      "stateMutability": "nonpayable",
      "type": "function"
    },
    {
      "inputs": [],
      "name": "currentSupply",
      "outputs": [
        {
          "internalType": "uint16",
          "name": "",
          "type": "uint16"
        }
      ],
      "stateMutability": "view",
      "type": "function"
    },
    {
      "inputs": [
        {
          "internalType": "uint256",
          "name": "tokenId",
          "type": "uint256"
        }
      ],
      "name": "getApproved",
      "outputs": [
        {
          "internalType": "address",
          "name": "",
          "type": "address"
        }
      ],
      "stateMutability": "view",
      "type": "function"
    },
    {
      "inputs": [
        {
          "internalType": "bytes32",
          "name": "role",
          "type": "bytes32"
        }
      ],
      "name": "getRoleAdmin",
      "outputs": [
        {
          "internalType": "bytes32",
          "name": "",
          "type": "bytes32"
        }
      ],
      "stateMutability": "view",
      "type": "function"
    },
    {
      "inputs": [
        {
          "internalType": "bytes32",
          "name": "role",
          "type": "bytes32"
        },
        {
          "internalType": "address",
          "name": "account",
          "type": "address"
        }
      ],
      "name": "grantRole",
      "outputs": [],
      "stateMutability": "nonpayable",
      "type": "function"
    },
    {
      "inputs": [
        {
          "internalType": "bytes32",
          "name": "role",
          "type": "bytes32"
        },
        {
          "internalType": "address",
          "name": "account",
          "type": "address"
        }
      ],
      "name": "hasRole",
      "outputs": [
        {
          "internalType": "bool",
          "name": "",
          "type": "bool"
        }
      ],
      "stateMutability": "view",
      "type": "function"
    },
    {
      "inputs": [
        {
          "internalType": "address",
          "name": "owner",
          "type": "address"
        },
        {
          "internalType": "address",
          "name": "operator",
          "type": "address"
        }
      ],
      "name": "isApprovedForAll",
      "outputs": [
        {
          "internalType": "bool",
          "name": "",
          "type": "bool"
        }
      ],
      "stateMutability": "view",
      "type": "function"
    },
    {
      "inputs": [
        {
          "internalType": "uint256",
          "name": "tokenId",
          "type": "uint256"
        }
      ],
      "name": "locked",
      "outputs": [
        {
          "internalType": "bool",
          "name": "",
          "type": "bool"
        }
      ],
      "stateMutability": "view",
      "type": "function"
    },
    {
      "inputs": [
        {
          "internalType": "address",
          "name": "to",
          "type": "address"
        }
      ],
      "name": "mint",
      "outputs": [
        {
          "internalType": "uint256",
          "name": "",
          "type": "uint256"
        }
      ],
      "stateMutability": "nonpayable",
      "type": "function"
    },
    {
      "inputs": [],
      "name": "name",
      "outputs": [
        {
          "internalType": "string",
          "name": "",
          "type": "string"
        }
      ],
      "stateMutability": "view",
      "type": "function"
    },
    {
      "inputs": [],
      "name": "nextTokenId",
      "outputs": [
        {
          "internalType": "uint256",
          "name": "",
          "type": "uint256"
        }
      ],
      "stateMutability": "view",
      "type": "function"
    },
    {
      "inputs": [
        {
          "internalType": "uint256",
          "name": "tokenId",
          "type": "uint256"
        }
      ],
      "name": "ownerOf",
      "outputs": [
        {
          "internalType": "address",
          "name": "",
          "type": "address"
        }
      ],
      "stateMutability": "view",
      "type": "function"
    },
    {
      "inputs": [
        {
          "internalType": "bytes32",
          "name": "role",
          "type": "bytes32"
        },
        {
          "internalType": "address",
          "name": "account",
          "type": "address"
        }
      ],
      "name": "renounceRole",
      "outputs": [],
      "stateMutability": "nonpayable",
      "type": "function"
    },
    {
      "inputs": [
        {
          "internalType": "bytes32",
          "name": "role",
          "type": "bytes32"
        },
        {
          "internalType": "address",
          "name": "account",
          "type": "address"
        }
      ],
      "name": "revokeRole",
      "outputs": [],
      "stateMutability": "nonpayable",
      "type": "function"
    },
    {
      "inputs": [
        {
          "internalType": "address",
          "name": "from",
          "type": "address"
        },
        {
          "internalType": "address",
          "name": "to",
          "type": "address"
        },
        {
          "internalType": "uint256",
          "name": "tokenId",
          "type": "uint256"
        }
      ],
      "name": "safeTransferFrom",
      "outputs": [],
      "stateMutability": "nonpayable",
      "type": "function"
    },
    {
      "inputs": [
        {
          "internalType": "address",
          "name": "from",
          "type": "address"
        },
        {
          "internalType": "address",
          "name": "to",
          "type": "address"
        },
        {
          "internalType": "uint256",
          "name": "tokenId",
          "type": "uint256"
        },
        {
          "internalType": "bytes",
          "name": "data",
          "type": "bytes"
        }
      ],
      "name": "safeTransferFrom",
      "outputs": [],
      "stateMutability": "nonpayable",
      "type": "function"
    },
    {
      "inputs": [
        {
          "internalType": "address",
          "name": "operator",
          "type": "address"
        },
        {
          "internalType": "bool",
          "name": "approved",
          "type": "bool"
        }
      ],
      "name": "setApprovalForAll",
      "outputs": [],
      "stateMutability": "nonpayable",
      "type": "function"
    },
    {
      "inputs": [
        {
          "internalType": "bytes4",
          "name": "interfaceId",
          "type": "bytes4"
        }
      ],
      "name": "supportsInterface",
      "outputs": [
        {
          "internalType": "bool",
          "name": "",
          "type": "bool"
        }
      ],
      "stateMutability": "view",
      "type": "function"
    },
    {
      "inputs": [],
      "name": "symbol",
      "outputs": [
        {
          "internalType": "string",
          "name": "",
          "type": "string"
        }
      ],
      "stateMutability": "view",
      "type": "function"
    },
    {
      "inputs": [
        {
          "internalType": "uint256",
          "name": "tokenId",
          "type": "uint256"
        }
      ],
      "name": "tokenURI",
      "outputs": [
        {
          "internalType": "string",
          "name": "",
          "type": "string"
        }
      ],
      "stateMutability": "view",
      "type": "function"
    },
    {
      "inputs": [
        {
          "internalType": "address",
          "name": "from",
          "type": "address"
        },
        {
          "internalType": "address",
          "name": "to",
          "type": "address"
        },
        {
          "internalType": "uint256",
          "name": "tokenId",
          "type": "uint256"
        }
      ],
      "name": "transferFrom",
      "outputs": [],
      "stateMutability": "nonpayable",
      "type": "function"
    },
    {
      "inputs": [
        {
          "internalType": "uint256",
          "name": "tokenId",
          "type": "uint256"
        }
      ],
      "name": "unlock",
      "outputs": [],
      "stateMutability": "nonpayable",
      "type": "function"
    },
    {
      "inputs": [
        {
          "internalType": "uint256",
          "name": "",
          "type": "uint256"
        }
      ],
      "name": "unlocked",
      "outputs": [
        {
          "internalType": "bool",
          "name": "",
          "type": "bool"
        }
      ],
      "stateMutability": "view",
      "type": "function"
    },
    {
      "inputs": [
        {
          "internalType": "uint256",
          "name": "tokenId",
          "type": "uint256"
        }
      ],
      "name": "updateMetadata",
      "outputs": [],
      "stateMutability": "nonpayable",
      "type": "function"
    }
  ],
  "bytecode": "0x60a06040523480156200001157600080fd5b50604051620028623803806200286283398101604081905262000034916200018e565b6040518060400160405280601481526020017f53706163657368697020556e69766572736520310000000000000000000000008152506040518060400160405280600381526020016253553160e81b815250816000908162000097919062000283565b506001620000a6828262000283565b505050620000db7f3478d4fa59eeba752b4e4e1b51a05e7a94c84b3707eda5d8876a08e5aa6b594b83620000e960201b60201c565b61ffff16608052506200034f565b60008281526006602090815260408083206001600160a01b038516845290915290205460ff166200018a5760008281526006602090815260408083206001600160a01b03851684529091529020805460ff19166001179055620001493390565b6001600160a01b0316816001600160a01b0316837f2f8788117e7eff1d82e926ec794901d17c78024a50270940304540a733656f0d60405160405180910390a45b5050565b60008060408385031215620001a257600080fd5b82516001600160a01b0381168114620001ba57600080fd5b602084015190925061ffff81168114620001d357600080fd5b809150509250929050565b634e487b7160e01b600052604160045260246000fd5b600181811c908216806200020957607f821691505b6020821081036200022a57634e487b7160e01b600052602260045260246000fd5b50919050565b601f8211156200027e57600081815260208120601f850160051c81016020861015620002595750805b601f850160051c820191505b818110156200027a5782815560010162000265565b5050505b505050565b81516001600160401b038111156200029f576200029f620001de565b620002b781620002b08454620001f4565b8462000230565b602080601f831160018114620002ef5760008415620002d65750858301515b600019600386901b1c1916600185901b1785556200027a565b600085815260208120601f198616915b828110156200032057888601518255948401946001909101908401620002ff565b50858210156200033f5787850151600019600388901b60f8161c191681555b5050505050600190811b01905550565b6080516124f06200037260003960008181610256015261098101526124f06000f3fe608060405234801561001057600080fd5b50600436106101cf5760003560e01c806370a0823111610104578063a217fddf116100a2578063c87b56dd11610071578063c87b56dd14610447578063d547741f1461045a578063e985e9c51461046d578063f1d2b9d1146104a957600080fd5b8063a217fddf146103f5578063a22cb465146103fd578063b45a3c0e14610410578063b88d4fde1461043457600080fd5b80638b1cf21c116100de5780638b1cf21c1461037e57806391d14854146103a157806395d89b41146103da5780639c09628d146103e257600080fd5b806370a082311461035457806375794a3c14610367578063771282f61461037057600080fd5b80632f2ff15d1161017157806342966c681161014b57806342966c68146103085780636198e3391461031b5780636352211e1461032e5780636a6278421461034157600080fd5b80632f2ff15d146102cf57806336568abe146102e257806342842e0e146102f557600080fd5b8063095ea7b3116101ad578063095ea7b31461023c57806312edcb1b1461025157806323b872dd1461028b578063248a9ca31461029e57600080fd5b806301ffc9a7146101d457806306fdde03146101fc578063081812fc14610211575b600080fd5b6101e76101e2366004611f74565b6104d0565b60405190151581526020015b60405180910390f35b6102046104e1565b6040516101f39190611fff565b61022461021f366004612012565b610573565b6040516001600160a01b0390911681526020016101f3565b61024f61024a366004612047565b61059a565b005b6102787f000000000000000000000000000000000000000000000000000000000000000081565b60405161ffff90911681526020016101f3565b61024f610299366004612071565b6105f0565b6102c16102ac366004612012565b60009081526006602052604090206001015490565b6040519081526020016101f3565b61024f6102dd3660046120ad565b610681565b61024f6102f03660046120ad565b6106a6565b61024f610303366004612071565b61072e565b61024f610316366004612012565b610749565b61024f610329366004612012565b610800565b61022461033c366004612012565b6108e8565b6102c161034f3660046120d9565b61094d565b6102c16103623660046120d9565b610a78565b6102c160085481565b6007546102789061ffff1681565b6101e761038c366004612012565b60096020526000908152604090205460ff1681565b6101e76103af3660046120ad565b60009182526006602090815260408084206001600160a01b0393909316845291905290205460ff1690565b610204610b12565b61024f6103f0366004612012565b610b21565b6102c1600081565b61024f61040b3660046120f4565b610b7b565b6101e761041e366004612012565b60009081526009602052604090205460ff161590565b61024f61044236600461215f565b610b86565b610204610455366004612012565b610c14565b61024f6104683660046120ad565b610c7a565b6101e761047b366004612259565b6001600160a01b03918216600090815260056020908152604080832093909416825291909152205460ff1690565b6102c17f3478d4fa59eeba752b4e4e1b51a05e7a94c84b3707eda5d8876a08e5aa6b594b81565b60006104db82610c9f565b92915050565b6060600080546104f090612283565b80601f016020809104026020016040519081016040528092919081815260200182805461051c90612283565b80156105695780601f1061053e57610100808354040283529160200191610569565b820191906000526020600020905b81548152906001019060200180831161054c57829003601f168201915b5050505050905090565b600061057e82610cf5565b506000908152600460205260409020546001600160a01b031690565b60008181526009602052604090205460ff166105e2576040517f5a8181f700000000000000000000000000000000000000000000000000000000815260040160405180910390fd5b6105ec8282610d5c565b5050565b6105fa3382610e88565b6106715760405162461bcd60e51b815260206004820152602d60248201527f4552433732313a2063616c6c6572206973206e6f7420746f6b656e206f776e6560448201527f72206f7220617070726f7665640000000000000000000000000000000000000060648201526084015b60405180910390fd5b61067c838383610f07565b505050565b60008281526006602052604090206001015461069c81611155565b61067c838361115f565b6001600160a01b03811633146107245760405162461bcd60e51b815260206004820152602f60248201527f416363657373436f6e74726f6c3a2063616e206f6e6c792072656e6f756e636560448201527f20726f6c657320666f722073656c6600000000000000000000000000000000006064820152608401610668565b6105ec828261121f565b61067c83838360405180602001604052806000815250610b86565b7f3478d4fa59eeba752b4e4e1b51a05e7a94c84b3707eda5d8876a08e5aa6b594b61077381611155565b60008281526009602052604090205460ff16156107bc576040517fde20ed6300000000000000000000000000000000000000000000000000000000815260040160405180910390fd5b6107c5826112c0565b5050600780547fffffffffffffffffffffffffffffffffffffffffffffffffffffffffffff0000811661ffff91821660001901909116179055565b7f3478d4fa59eeba752b4e4e1b51a05e7a94c84b3707eda5d8876a08e5aa6b594b61082a81611155565b60008281526009602052604090205460ff1615610873576040517fde20ed6300000000000000000000000000000000000000000000000000000000815260040160405180910390fd5b6000828152600960205260409081902080547fffffffffffffffffffffffffffffffffffffffffffffffffffffffffffffff00166001179055517ff27b6ce5b2f5e68ddb2fd95a8a909d4ecf1daaac270935fff052feacb24f1842906108dc9084815260200190565b60405180910390a15050565b6000818152600260205260408120546001600160a01b0316806104db5760405162461bcd60e51b815260206004820152601860248201527f4552433732313a20696e76616c696420746f6b656e20494400000000000000006044820152606401610668565b60007f3478d4fa59eeba752b4e4e1b51a05e7a94c84b3707eda5d8876a08e5aa6b594b61097981611155565b60075461ffff7f000000000000000000000000000000000000000000000000000000000000000081169116036109db576040517f794bb39b00000000000000000000000000000000000000000000000000000000815260040160405180910390fd5b6007805461ffff808216600101167fffffffffffffffffffffffffffffffffffffffffffffffffffffffffffff0000909116179055600854610a1e90849061137b565b7f032bc66be43dbccb7487781d168eb7bda224628a3b2c3388bdf69b532a3a1611600854604051610a5191815260200190565b60405180910390a160088054600190810191829055610a6f916122ff565b91505b50919050565b60006001600160a01b038216610af65760405162461bcd60e51b815260206004820152602960248201527f4552433732313a2061646472657373207a65726f206973206e6f74206120766160448201527f6c6964206f776e657200000000000000000000000000000000000000000000006064820152608401610668565b506001600160a01b031660009081526003602052604090205490565b6060600180546104f090612283565b7f3478d4fa59eeba752b4e4e1b51a05e7a94c84b3707eda5d8876a08e5aa6b594b610b4b81611155565b6040518281527ff8e1a15aba9398e019f0b49df1a4fde98ee17ae345cb5f6b5e2c27f5033e8ce7906020016108dc565b6105ec33838361152c565b610b903383610e88565b610c025760405162461bcd60e51b815260206004820152602d60248201527f4552433732313a2063616c6c6572206973206e6f7420746f6b656e206f776e6560448201527f72206f7220617070726f766564000000000000000000000000000000000000006064820152608401610668565b610c0e84848484611618565b50505050565b6060610c1f82610cf5565b6000610c296116a1565b90506000815111610c495760405180602001604052806000815250610a6f565b80610c53846116c1565b604051602001610c64929190612312565b6040516020818303038152906040529392505050565b600082815260066020526040902060010154610c9581611155565b61067c838361121f565b60007fffffffff0000000000000000000000000000000000000000000000000000000082167f7965db0b0000000000000000000000000000000000000000000000000000000014806104db57506104db82611761565b6000818152600260205260409020546001600160a01b0316610d595760405162461bcd60e51b815260206004820152601860248201527f4552433732313a20696e76616c696420746f6b656e20494400000000000000006044820152606401610668565b50565b6000610d67826108e8565b9050806001600160a01b0316836001600160a01b031603610df05760405162461bcd60e51b815260206004820152602160248201527f4552433732313a20617070726f76616c20746f2063757272656e74206f776e6560448201527f72000000000000000000000000000000000000000000000000000000000000006064820152608401610668565b336001600160a01b0382161480610e0c5750610e0c813361047b565b610e7e5760405162461bcd60e51b815260206004820152603d60248201527f4552433732313a20617070726f76652063616c6c6572206973206e6f7420746f60448201527f6b656e206f776e6572206f7220617070726f76656420666f7220616c6c0000006064820152608401610668565b61067c8383611844565b600080610e94836108e8565b9050806001600160a01b0316846001600160a01b03161480610edb57506001600160a01b0380821660009081526005602090815260408083209388168352929052205460ff165b80610eff5750836001600160a01b0316610ef484610573565b6001600160a01b0316145b949350505050565b826001600160a01b0316610f1a826108e8565b6001600160a01b031614610f965760405162461bcd60e51b815260206004820152602560248201527f4552433732313a207472616e736665722066726f6d20696e636f72726563742060448201527f6f776e65720000000000000000000000000000000000000000000000000000006064820152608401610668565b6001600160a01b0382166110115760405162461bcd60e51b8152602060048201526024808201527f4552433732313a207472616e7366657220746f20746865207a65726f2061646460448201527f72657373000000000000000000000000000000000000000000000000000000006064820152608401610668565b61101e83838360016118ca565b826001600160a01b0316611031826108e8565b6001600160a01b0316146110ad5760405162461bcd60e51b815260206004820152602560248201527f4552433732313a207472616e736665722066726f6d20696e636f72726563742060448201527f6f776e65720000000000000000000000000000000000000000000000000000006064820152608401610668565b600081815260046020908152604080832080547fffffffffffffffffffffffff00000000000000000000000000000000000000009081169091556001600160a01b0387811680865260038552838620805460001901905590871680865283862080546001019055868652600290945282852080549092168417909155905184937fddf252ad1be2c89b69c2b068fc378daa952ba7f163c4a11628f55a4df523b3ef91a4505050565b610d598133611948565b60008281526006602090815260408083206001600160a01b038516845290915290205460ff166105ec5760008281526006602090815260408083206001600160a01b0385168452909152902080547fffffffffffffffffffffffffffffffffffffffffffffffffffffffffffffff001660011790556111db3390565b6001600160a01b0316816001600160a01b0316837f2f8788117e7eff1d82e926ec794901d17c78024a50270940304540a733656f0d60405160405180910390a45050565b60008281526006602090815260408083206001600160a01b038516845290915290205460ff16156105ec5760008281526006602090815260408083206001600160a01b038516808552925280832080547fffffffffffffffffffffffffffffffffffffffffffffffffffffffffffffff0016905551339285917ff6391f5c32d9c69d2a47ea670b442974b53935d1edc7fd64eb21e047a839171b9190a45050565b60006112cb826108e8565b90506112db8160008460016118ca565b6112e4826108e8565b600083815260046020908152604080832080547fffffffffffffffffffffffff00000000000000000000000000000000000000009081169091556001600160a01b0385168085526003845282852080546000190190558785526002909352818420805490911690555192935084927fddf252ad1be2c89b69c2b068fc378daa952ba7f163c4a11628f55a4df523b3ef908390a45050565b6001600160a01b0382166113d15760405162461bcd60e51b815260206004820181905260248201527f4552433732313a206d696e7420746f20746865207a65726f20616464726573736044820152606401610668565b6000818152600260205260409020546001600160a01b0316156114365760405162461bcd60e51b815260206004820152601c60248201527f4552433732313a20746f6b656e20616c7265616479206d696e746564000000006044820152606401610668565b6114446000838360016118ca565b6000818152600260205260409020546001600160a01b0316156114a95760405162461bcd60e51b815260206004820152601c60248201527f4552433732313a20746f6b656e20616c7265616479206d696e746564000000006044820152606401610668565b6001600160a01b038216600081815260036020908152604080832080546001019055848352600290915280822080547fffffffffffffffffffffffff0000000000000000000000000000000000000000168417905551839291907fddf252ad1be2c89b69c2b068fc378daa952ba7f163c4a11628f55a4df523b3ef908290a45050565b816001600160a01b0316836001600160a01b03160361158d5760405162461bcd60e51b815260206004820152601960248201527f4552433732313a20617070726f766520746f2063616c6c6572000000000000006044820152606401610668565b6001600160a01b0383811660008181526005602090815260408083209487168084529482529182902080547fffffffffffffffffffffffffffffffffffffffffffffffffffffffffffffff001686151590811790915591519182527f17307eab39ab6107e8899845ad3d59bd9653f200f220920489ca2b5937696c31910160405180910390a3505050565b611623848484610f07565b61162f848484846119db565b610c0e5760405162461bcd60e51b815260206004820152603260248201527f4552433732313a207472616e7366657220746f206e6f6e20455243373231526560448201527f63656976657220696d706c656d656e74657200000000000000000000000000006064820152608401610668565b60606040518060600160405280602f815260200161248c602f9139905090565b606060006116ce83611b9a565b600101905060008167ffffffffffffffff8111156116ee576116ee612130565b6040519080825280601f01601f191660200182016040528015611718576020820181803683370190505b5090508181016020015b600019017f3031323334353637383961626364656600000000000000000000000000000000600a86061a8153600a850494508461172257509392505050565b60007fffffffff0000000000000000000000000000000000000000000000000000000082167f80ac58cd0000000000000000000000000000000000000000000000000000000014806117f457507fffffffff0000000000000000000000000000000000000000000000000000000082167f5b5e139f00000000000000000000000000000000000000000000000000000000145b806104db57507f01ffc9a7000000000000000000000000000000000000000000000000000000007fffffffff000000000000000000000000000000000000000000000000000000008316146104db565b600081815260046020526040902080547fffffffffffffffffffffffff0000000000000000000000000000000000000000166001600160a01b0384169081179091558190611891826108e8565b6001600160a01b03167f8c5be1e5ebec7d5bd14f71427d1e84f3dd0314c0f7b2291e5b200ac8c7c3b92560405160405180910390a45050565b6001600160a01b038316158015906118ea57506001600160a01b03841615155b8015611905575060008281526009602052604090205460ff16155b1561193c576040517f5a8181f700000000000000000000000000000000000000000000000000000000815260040160405180910390fd5b610c0e84848484611c7c565b60008281526006602090815260408083206001600160a01b038516845290915290205460ff166105ec5761197b81611d04565b611986836020611d16565b604051602001611997929190612341565b604080517fffffffffffffffffffffffffffffffffffffffffffffffffffffffffffffffe08184030181529082905262461bcd60e51b825261066891600401611fff565b60006001600160a01b0384163b15611b8f576040517f150b7a020000000000000000000000000000000000000000000000000000000081526001600160a01b0385169063150b7a0290611a389033908990889088906004016123c2565b6020604051808303816000875af1925050508015611a91575060408051601f3d9081017fffffffffffffffffffffffffffffffffffffffffffffffffffffffffffffffe0168201909252611a8e918101906123fe565b60015b611b44573d808015611abf576040519150601f19603f3d011682016040523d82523d6000602084013e611ac4565b606091505b508051600003611b3c5760405162461bcd60e51b815260206004820152603260248201527f4552433732313a207472616e7366657220746f206e6f6e20455243373231526560448201527f63656976657220696d706c656d656e74657200000000000000000000000000006064820152608401610668565b805181602001fd5b7fffffffff00000000000000000000000000000000000000000000000000000000167f150b7a0200000000000000000000000000000000000000000000000000000000149050610eff565b506001949350505050565b6000807a184f03e93ff9f4daa797ed6e38ed64bf6a1f0100000000000000008310611be3577a184f03e93ff9f4daa797ed6e38ed64bf6a1f010000000000000000830492506040015b6d04ee2d6d415b85acef81000000008310611c0f576d04ee2d6d415b85acef8100000000830492506020015b662386f26fc100008310611c2d57662386f26fc10000830492506010015b6305f5e1008310611c45576305f5e100830492506008015b6127108310611c5957612710830492506004015b60648310611c6b576064830492506002015b600a83106104db5760010192915050565b6001811115610c0e576001600160a01b03841615611cc2576001600160a01b03841660009081526003602052604081208054839290611cbc9084906122ff565b90915550505b6001600160a01b03831615610c0e576001600160a01b03831660009081526003602052604081208054839290611cf990849061241b565b909155505050505050565b60606104db6001600160a01b03831660145b60606000611d2583600261242e565b611d3090600261241b565b67ffffffffffffffff811115611d4857611d48612130565b6040519080825280601f01601f191660200182016040528015611d72576020820181803683370190505b5090507f300000000000000000000000000000000000000000000000000000000000000081600081518110611da957611da9612445565b60200101907effffffffffffffffffffffffffffffffffffffffffffffffffffffffffffff1916908160001a9053507f780000000000000000000000000000000000000000000000000000000000000081600181518110611e0c57611e0c612445565b60200101907effffffffffffffffffffffffffffffffffffffffffffffffffffffffffffff1916908160001a9053506000611e4884600261242e565b611e5390600161241b565b90505b6001811115611ef0577f303132333435363738396162636465660000000000000000000000000000000085600f1660108110611e9457611e94612445565b1a60f81b828281518110611eaa57611eaa612445565b60200101907effffffffffffffffffffffffffffffffffffffffffffffffffffffffffffff1916908160001a90535060049490941c93611ee981612474565b9050611e56565b508315611f3f5760405162461bcd60e51b815260206004820181905260248201527f537472696e67733a20686578206c656e67746820696e73756666696369656e746044820152606401610668565b9392505050565b7fffffffff0000000000000000000000000000000000000000000000000000000081168114610d5957600080fd5b600060208284031215611f8657600080fd5b8135611f3f81611f46565b60005b83811015611fac578181015183820152602001611f94565b50506000910152565b60008151808452611fcd816020860160208601611f91565b601f017fffffffffffffffffffffffffffffffffffffffffffffffffffffffffffffffe0169290920160200192915050565b602081526000611f3f6020830184611fb5565b60006020828403121561202457600080fd5b5035919050565b80356001600160a01b038116811461204257600080fd5b919050565b6000806040838503121561205a57600080fd5b6120638361202b565b946020939093013593505050565b60008060006060848603121561208657600080fd5b61208f8461202b565b925061209d6020850161202b565b9150604084013590509250925092565b600080604083850312156120c057600080fd5b823591506120d06020840161202b565b90509250929050565b6000602082840312156120eb57600080fd5b611f3f8261202b565b6000806040838503121561210757600080fd5b6121108361202b565b91506020830135801515811461212557600080fd5b809150509250929050565b7f4e487b7100000000000000000000000000000000000000000000000000000000600052604160045260246000fd5b6000806000806080858703121561217557600080fd5b61217e8561202b565b935061218c6020860161202b565b925060408501359150606085013567ffffffffffffffff808211156121b057600080fd5b818701915087601f8301126121c457600080fd5b8135818111156121d6576121d6612130565b604051601f82017fffffffffffffffffffffffffffffffffffffffffffffffffffffffffffffffe0908116603f0116810190838211818310171561221c5761221c612130565b816040528281528a602084870101111561223557600080fd5b82602086016020830137600060208483010152809550505050505092959194509250565b6000806040838503121561226c57600080fd5b6122758361202b565b91506120d06020840161202b565b600181811c9082168061229757607f821691505b602082108103610a72577f4e487b7100000000000000000000000000000000000000000000000000000000600052602260045260246000fd5b7f4e487b7100000000000000000000000000000000000000000000000000000000600052601160045260246000fd5b818103818111156104db576104db6122d0565b60008351612324818460208801611f91565b835190830190612338818360208801611f91565b01949350505050565b7f416363657373436f6e74726f6c3a206163636f756e7420000000000000000000815260008351612379816017850160208801611f91565b7f206973206d697373696e6720726f6c652000000000000000000000000000000060179184019182015283516123b6816028840160208801611f91565b01602801949350505050565b60006001600160a01b038087168352808616602084015250836040830152608060608301526123f46080830184611fb5565b9695505050505050565b60006020828403121561241057600080fd5b8151611f3f81611f46565b808201808211156104db576104db6122d0565b80820281158282048414176104db576104db6122d0565b7f4e487b7100000000000000000000000000000000000000000000000000000000600052603260045260246000fd5b600081612483576124836122d0565b50600019019056fe68747470733a2f2f6170692e73706163656261722e78797a2f6d657461646174612f7370616365736869702d75312fa2646970667358221220075aa4d66281e23a21e2e7d29fbe9cd83d1571584087692c08dc9e9ef84ea6e864736f6c63430008110033",
  "linkReferences": {},
  "deployedLinkReferences": {}
}