{
  "_format": "hh-sol-artifact-1",
  "contractName": "SpaceFactoryV1",
  "sourceName": "contracts/SpaceFactoryV1.sol",
  "abi": [
    {
      "inputs": [],
      "name": "AddressAlreadyRegistered",
      "type": "error"
    },
    {
      "inputs": [],
      "name": "InvalidProtoShip",
      "type": "error"
    },
    {
      "inputs": [],
      "name": "NotWhiteListed",
      "type": "error"
    },
    {
      "inputs": [],
      "name": "OnlyNFTOwner",
      "type": "error"
    },
    {
      "inputs": [],
      "name": "OnlyOneProtoShipAtATime",
      "type": "error"
    },
    {
      "anonymous": false,
      "inputs": [
        {
          "indexed": false,
          "internalType": "address",
          "name": "previousAdmin",
          "type": "address"
        },
        {
          "indexed": false,
          "internalType": "address",
          "name": "newAdmin",
          "type": "address"
        }
      ],
      "name": "AdminChanged",
      "type": "event"
    },
    {
      "anonymous": false,
      "inputs": [
        {
          "indexed": true,
          "internalType": "address",
          "name": "beacon",
          "type": "address"
        }
      ],
      "name": "BeaconUpgraded",
      "type": "event"
    },
    {
      "anonymous": false,
      "inputs": [
        {
          "indexed": false,
          "internalType": "uint8",
          "name": "version",
          "type": "uint8"
        }
      ],
      "name": "Initialized",
      "type": "event"
    },
    {
      "anonymous": false,
      "inputs": [
        {
          "indexed": false,
          "internalType": "address",
          "name": "tokenContract",
          "type": "address"
        },
        {
          "indexed": false,
          "internalType": "uint256",
          "name": "tokenId",
          "type": "uint256"
        },
        {
          "indexed": false,
          "internalType": "uint256",
          "name": "spaceshipId",
          "type": "uint256"
        }
      ],
      "name": "MintProtoShipUniverse1",
      "type": "event"
    },
    {
      "anonymous": false,
      "inputs": [
        {
          "indexed": true,
          "internalType": "bytes32",
          "name": "role",
          "type": "bytes32"
        },
        {
          "indexed": true,
          "internalType": "bytes32",
          "name": "previousAdminRole",
          "type": "bytes32"
        },
        {
          "indexed": true,
          "internalType": "bytes32",
          "name": "newAdminRole",
          "type": "bytes32"
        }
      ],
      "name": "RoleAdminChanged",
      "type": "event"
    },
    {
      "anonymous": false,
      "inputs": [
        {
          "indexed": true,
          "internalType": "bytes32",
          "name": "role",
          "type": "bytes32"
        },
        {
          "indexed": true,
          "internalType": "address",
          "name": "account",
          "type": "address"
        },
        {
          "indexed": true,
          "internalType": "address",
          "name": "sender",
          "type": "address"
        }
      ],
      "name": "RoleGranted",
      "type": "event"
    },
    {
      "anonymous": false,
      "inputs": [
        {
          "indexed": true,
          "internalType": "bytes32",
          "name": "role",
          "type": "bytes32"
        },
        {
          "indexed": true,
          "internalType": "address",
          "name": "account",
          "type": "address"
        },
        {
          "indexed": true,
          "internalType": "address",
          "name": "sender",
          "type": "address"
        }
      ],
      "name": "RoleRevoked",
      "type": "event"
    },
    {
      "anonymous": false,
      "inputs": [
        {
          "indexed": false,
          "internalType": "address",
          "name": "contractAddress",
          "type": "address"
        }
      ],
      "name": "SetBadgeUniverse1",
      "type": "event"
    },
    {
      "anonymous": false,
      "inputs": [
        {
          "indexed": false,
          "internalType": "bool",
          "name": "isUniverse1Whitelisted",
          "type": "bool"
        }
      ],
      "name": "SetIsUniverse1Whitelisted",
      "type": "event"
    },
    {
      "anonymous": false,
      "inputs": [
        {
          "indexed": false,
          "internalType": "address",
          "name": "contractAddress",
          "type": "address"
        }
      ],
      "name": "SetSpaceshipUniverse1",
      "type": "event"
    },
    {
      "anonymous": false,
      "inputs": [
        {
          "components": [
            {
              "internalType": "uint128",
              "name": "primaryType",
              "type": "uint128"
            },
            {
              "internalType": "uint128",
              "name": "secondaryType",
              "type": "uint128"
            }
          ],
          "indexed": false,
          "internalType": "struct IBadgeUniverse1.TokenType",
          "name": "badgeType",
          "type": "tuple"
        }
      ],
      "name": "SetUniverse1WhitelistBadgeType",
      "type": "event"
    },
    {
      "anonymous": false,
      "inputs": [
        {
          "indexed": true,
          "internalType": "address",
          "name": "implementation",
          "type": "address"
        }
      ],
      "name": "Upgraded",
      "type": "event"
    },
    {
      "inputs": [],
      "name": "DEFAULT_ADMIN_ROLE",
      "outputs": [
        {
          "internalType": "bytes32",
          "name": "",
          "type": "bytes32"
        }
      ],
      "stateMutability": "view",
      "type": "function"
    },
    {
      "inputs": [],
      "name": "MINTER_ROLE",
      "outputs": [
        {
          "internalType": "bytes32",
          "name": "",
          "type": "bytes32"
        }
      ],
      "stateMutability": "view",
      "type": "function"
    },
    {
      "inputs": [],
      "name": "SERVICE_ADMIN_ROLE",
      "outputs": [
        {
          "internalType": "bytes32",
          "name": "",
          "type": "bytes32"
        }
      ],
      "stateMutability": "view",
      "type": "function"
    },
    {
      "inputs": [],
      "name": "badgeUniverse1",
      "outputs": [
        {
          "internalType": "contract IBadgeUniverse1",
          "name": "",
          "type": "address"
        }
      ],
      "stateMutability": "view",
      "type": "function"
    },
    {
      "inputs": [
        {
          "internalType": "uint256",
          "name": "tokenId",
          "type": "uint256"
        }
      ],
      "name": "burnProtoShipUniverse1",
      "outputs": [],
      "stateMutability": "nonpayable",
      "type": "function"
    },
    {
      "inputs": [
        {
          "internalType": "bytes32",
          "name": "role",
          "type": "bytes32"
        }
      ],
      "name": "getRoleAdmin",
      "outputs": [
        {
          "internalType": "bytes32",
          "name": "",
          "type": "bytes32"
        }
      ],
      "stateMutability": "view",
      "type": "function"
    },
    {
      "inputs": [
        {
          "internalType": "uint256",
          "name": "tokenId",
          "type": "uint256"
        }
      ],
      "name": "getSpaceshipUniverse1TBA",
      "outputs": [
        {
          "internalType": "address",
          "name": "",
          "type": "address"
        }
      ],
      "stateMutability": "view",
      "type": "function"
    },
    {
      "inputs": [
        {
          "internalType": "bytes32",
          "name": "role",
          "type": "bytes32"
        },
        {
          "internalType": "address",
          "name": "account",
          "type": "address"
        }
      ],
      "name": "grantRole",
      "outputs": [],
      "stateMutability": "nonpayable",
      "type": "function"
    },
    {
      "inputs": [
        {
          "internalType": "address",
          "name": "",
          "type": "address"
        }
      ],
      "name": "hasProtoShip",
      "outputs": [
        {
          "internalType": "bool",
          "name": "",
          "type": "bool"
        }
      ],
      "stateMutability": "view",
      "type": "function"
    },
    {
      "inputs": [
        {
          "internalType": "bytes32",
          "name": "role",
          "type": "bytes32"
        },
        {
          "internalType": "address",
          "name": "account",
          "type": "address"
        }
      ],
      "name": "hasRole",
      "outputs": [
        {
          "internalType": "bool",
          "name": "",
          "type": "bool"
        }
      ],
      "stateMutability": "view",
      "type": "function"
    },
    {
      "inputs": [
        {
          "internalType": "address",
          "name": "defaultAdmin",
          "type": "address"
        },
        {
          "internalType": "address",
          "name": "serviceAdmin",
          "type": "address"
        },
        {
          "internalType": "address",
          "name": "minterAdmin",
          "type": "address"
        },
        {
          "internalType": "contract IERC6551Registry",
          "name": "_tokenBoundRegistry",
          "type": "address"
        },
        {
          "internalType": "contract IERC6551Account",
          "name": "_tokenBoundImplementation",
          "type": "address"
        },
        {
          "internalType": "bool",
          "name": "_isUniverse1Whitelisted",
          "type": "bool"
        },
        {
          "components": [
            {
              "internalType": "uint128",
              "name": "primaryType",
              "type": "uint128"
            },
            {
              "internalType": "uint128",
              "name": "secondaryType",
              "type": "uint128"
            }
          ],
          "internalType": "struct IBadgeUniverse1.TokenType",
          "name": "_universe1WhitelistBadgeType",
          "type": "tuple"
        }
      ],
      "name": "initialize",
      "outputs": [],
      "stateMutability": "nonpayable",
      "type": "function"
    },
    {
      "inputs": [],
      "name": "isUniverse1Whitelisted",
      "outputs": [
        {
          "internalType": "bool",
          "name": "",
          "type": "bool"
        }
      ],
      "stateMutability": "view",
      "type": "function"
    },
    {
      "inputs": [
        {
          "internalType": "address",
          "name": "tokenContract",
          "type": "address"
        },
        {
          "internalType": "uint256",
          "name": "tokenId",
          "type": "uint256"
        }
      ],
      "name": "mintProtoShipUniverse1",
      "outputs": [
        {
          "internalType": "address",
          "name": "",
          "type": "address"
        }
      ],
      "stateMutability": "nonpayable",
      "type": "function"
    },
    {
      "inputs": [
        {
          "internalType": "address",
          "name": "tokenContract",
          "type": "address"
        },
        {
          "internalType": "uint256",
          "name": "tokenId",
          "type": "uint256"
        },
        {
          "internalType": "string",
          "name": "tokenURI",
          "type": "string"
        }
      ],
      "name": "mintWhitelistBadgeUniverse1",
      "outputs": [],
      "stateMutability": "nonpayable",
      "type": "function"
    },
    {
      "inputs": [],
      "name": "proxiableUUID",
      "outputs": [
        {
          "internalType": "bytes32",
          "name": "",
          "type": "bytes32"
        }
      ],
      "stateMutability": "view",
      "type": "function"
    },
    {
      "inputs": [
        {
          "internalType": "bytes32",
          "name": "role",
          "type": "bytes32"
        },
        {
          "internalType": "address",
          "name": "account",
          "type": "address"
        }
      ],
      "name": "renounceRole",
      "outputs": [],
      "stateMutability": "nonpayable",
      "type": "function"
    },
    {
      "inputs": [
        {
          "internalType": "bytes32",
          "name": "role",
          "type": "bytes32"
        },
        {
          "internalType": "address",
          "name": "account",
          "type": "address"
        }
      ],
      "name": "revokeRole",
      "outputs": [],
      "stateMutability": "nonpayable",
      "type": "function"
    },
    {
      "inputs": [
        {
          "internalType": "address",
          "name": "contractAddress",
          "type": "address"
        }
      ],
      "name": "setBadgeUniverse1",
      "outputs": [],
      "stateMutability": "nonpayable",
      "type": "function"
    },
    {
      "inputs": [
        {
          "internalType": "bool",
          "name": "_isUniverse1Whitelisted",
          "type": "bool"
        }
      ],
      "name": "setIsUniverse1Whitelisted",
      "outputs": [],
      "stateMutability": "nonpayable",
      "type": "function"
    },
    {
      "inputs": [
        {
          "internalType": "address",
          "name": "contractAddress",
          "type": "address"
        }
      ],
      "name": "setSpaceshipUniverse1",
      "outputs": [],
      "stateMutability": "nonpayable",
      "type": "function"
    },
    {
      "inputs": [
        {
          "components": [
            {
              "internalType": "uint128",
              "name": "primaryType",
              "type": "uint128"
            },
            {
              "internalType": "uint128",
              "name": "secondaryType",
              "type": "uint128"
            }
          ],
          "internalType": "struct IBadgeUniverse1.TokenType",
          "name": "_universe1WhitelistBadgeType",
          "type": "tuple"
        }
      ],
      "name": "setUniverse1WhitelistBadgeType",
      "outputs": [],
      "stateMutability": "nonpayable",
      "type": "function"
    },
    {
      "inputs": [],
      "name": "spaceshipUniverse1",
      "outputs": [
        {
          "internalType": "contract ISpaceshipUniverse1",
          "name": "",
          "type": "address"
        }
      ],
      "stateMutability": "view",
      "type": "function"
    },
    {
      "inputs": [
        {
          "internalType": "bytes4",
          "name": "interfaceId",
          "type": "bytes4"
        }
      ],
      "name": "supportsInterface",
      "outputs": [
        {
          "internalType": "bool",
          "name": "",
          "type": "bool"
        }
      ],
      "stateMutability": "view",
      "type": "function"
    },
    {
      "inputs": [],
      "name": "tokenBoundImplementation",
      "outputs": [
        {
          "internalType": "contract IERC6551Account",
          "name": "",
          "type": "address"
        }
      ],
      "stateMutability": "view",
      "type": "function"
    },
    {
      "inputs": [],
      "name": "tokenBoundRegistry",
      "outputs": [
        {
          "internalType": "contract IERC6551Registry",
          "name": "",
          "type": "address"
        }
      ],
      "stateMutability": "view",
      "type": "function"
    },
    {
      "inputs": [
        {
          "internalType": "address",
          "name": "newImplementation",
          "type": "address"
        }
      ],
      "name": "upgradeTo",
      "outputs": [],
      "stateMutability": "nonpayable",
      "type": "function"
    },
    {
      "inputs": [
        {
          "internalType": "address",
          "name": "newImplementation",
          "type": "address"
        },
        {
          "internalType": "bytes",
          "name": "data",
          "type": "bytes"
        }
      ],
      "name": "upgradeToAndCall",
      "outputs": [],
      "stateMutability": "payable",
      "type": "function"
    },
    {
      "inputs": [
        {
          "internalType": "uint256",
          "name": "tokenId",
          "type": "uint256"
        }
      ],
      "name": "upgradeToOwnerShipUniverse1",
      "outputs": [],
      "stateMutability": "nonpayable",
      "type": "function"
    }
  ],
  "bytecode": "0x60a06040523060805234801561001457600080fd5b50608051612aa761004c60003960008181610ac001528181610b5601528181610ce201528181610d780152610e6f0152612aa76000f3fe6080604052600436106101b75760003560e01c8063796a7a0a116100ec578063d53913931161008a578063de4cb28711610064578063de4cb28714610557578063eae4544814610577578063fb7d550114610597578063fdf250df146105b757600080fd5b8063d5391393146104e3578063d547741f14610517578063daf630571461053757600080fd5b80639d245669116100c65780639d2456691461045a578063a217fddf1461047a578063a5d2c3331461048f578063d09445c2146104af57600080fd5b8063796a7a0a146103c25780638922e572146103f457806391d148541461041457600080fd5b80633659cfe61161015957806352d1902d1161013357806352d1902d1461034d57806357c78873146103625780636aa4e676146103825780637484ea49146103a257600080fd5b80633659cfe6146102fa578063376110f61461031a5780634f1ef2861461033a57600080fd5b8063248a9ca311610195578063248a9ca3146102495780632736ef87146102875780632f2ff15d146102b857806336568abe146102da57600080fd5b806301ffc9a7146101bc5780631aa0e61e146101f15780632063b61f14610229575b600080fd5b3480156101c857600080fd5b506101dc6101d73660046123b3565b6105d7565b60405190151581526020015b60405180910390f35b3480156101fd57600080fd5b5061021161020c36600461240a565b610670565b6040516001600160a01b0390911681526020016101e8565b34801561023557600080fd5b5060fe54610211906001600160a01b031681565b34801561025557600080fd5b50610279610264366004612436565b600090815260c9602052604090206001015490565b6040519081526020016101e8565b34801561029357600080fd5b506101dc6102a236600461244f565b6101006020526000908152604090205460ff1681565b3480156102c457600080fd5b506102d86102d336600461246c565b6109fb565b005b3480156102e657600080fd5b506102d86102f536600461246c565b610a25565b34801561030657600080fd5b506102d861031536600461244f565b610ab6565b34801561032657600080fd5b506102d861033536600461254e565b610c53565b6102d86103483660046125fe565b610cd8565b34801561035957600080fd5b50610279610e62565b34801561036e57600080fd5b506102d861037d366004612662565b610f27565b34801561038e57600080fd5b5060fb54610211906001600160a01b031681565b3480156103ae57600080fd5b506102116103bd366004612436565b6110b1565b3480156103ce57600080fd5b5060fe546101dc9074010000000000000000000000000000000000000000900460ff1681565b34801561040057600080fd5b506102d861040f3660046126dd565b61115e565b34801561042057600080fd5b506101dc61042f36600461246c565b600091825260c9602090815260408084206001600160a01b0393909316845291905290205460ff1690565b34801561046657600080fd5b5060fd54610211906001600160a01b031681565b34801561048657600080fd5b50610279600081565b34801561049b57600080fd5b506102d86104aa36600461244f565b6111e2565b3480156104bb57600080fd5b506102797f9a95e87c5af084bf5db8491c3a6515da9dd6da39b24b0eb0af08d7b9cd808d9181565b3480156104ef57600080fd5b506102797f9f2df0fed2c77648de5860a4cc508cd0818c85b8b8a1ab4ceeef8d981c8956a681565b34801561052357600080fd5b506102d861053236600461246c565b611292565b34801561054357600080fd5b506102d86105523660046126fa565b6112b7565b34801561056357600080fd5b506102d8610572366004612436565b6115c0565b34801561058357600080fd5b506102d861059236600461244f565b6115f3565b3480156105a357600080fd5b506102d86105b2366004612436565b61169c565b3480156105c357600080fd5b5060fc54610211906001600160a01b031681565b60007fffffffff0000000000000000000000000000000000000000000000000000000082167f7965db0b00000000000000000000000000000000000000000000000000000000148061066a57507f01ffc9a7000000000000000000000000000000000000000000000000000000007fffffffff000000000000000000000000000000000000000000000000000000008316145b92915050565b6040517f6352211e0000000000000000000000000000000000000000000000000000000081526004810182905260009033906001600160a01b03851690636352211e90602401602060405180830381865afa1580156106d3573d6000803e3d6000fd5b505050506040513d601f19601f820116820180604052508101906106f7919061278e565b6001600160a01b031614610737576040517fd48af24600000000000000000000000000000000000000000000000000000000815260040160405180910390fd5b60fd54604080517f75794a3c00000000000000000000000000000000000000000000000000000000815290516000926001600160a01b0316916375794a3c916004808301926020929190829003018187875af115801561079b573d6000803e3d6000fd5b505050506040513d601f19601f820116820180604052508101906107bf91906127ab565b60fd549091506107d8906001600160a01b0316826116cf565b5060fc5460fb546040517f5e9bc5360000000000000000000000000000000000000000000000000000000081526001600160a01b039182166004820152466024820152868216604482015260648101869052600060848201819052929190911690635e9bc5369060a401602060405180830381865afa15801561085f573d6000803e3d6000fd5b505050506040513d601f19601f82011682018060405250810190610883919061278e565b60fe5490915074010000000000000000000000000000000000000000900460ff16156109a05760fe5460ff546040517f42fd5fed0000000000000000000000000000000000000000000000000000000081526001600160a01b0384811660048301526fffffffffffffffffffffffffffffffff808416602484015270010000000000000000000000000000000090930490921660448201529116906342fd5fed906064016020604051808303816000875af1158015610946573d6000803e3d6000fd5b505050506040513d601f19601f8201168201806040525081019061096a91906127c4565b6109a0576040517f6a9a57a500000000000000000000000000000000000000000000000000000000815260040160405180910390fd5b6109a9816117c7565b604080516001600160a01b0387168152602081018690529081018390527f8d0dd02910931c104cabef23cd62d11e1754f41471ed90f74280d5f28b37101e9060600160405180910390a1949350505050565b600082815260c96020526040902060010154610a16816118ca565b610a2083836118d4565b505050565b6001600160a01b0381163314610aa85760405162461bcd60e51b815260206004820152602f60248201527f416363657373436f6e74726f6c3a2063616e206f6e6c792072656e6f756e636560448201527f20726f6c657320666f722073656c66000000000000000000000000000000000060648201526084015b60405180910390fd5b610ab28282611976565b5050565b6001600160a01b037f0000000000000000000000000000000000000000000000000000000000000000163003610b545760405162461bcd60e51b815260206004820152602c60248201527f46756e6374696f6e206d7573742062652063616c6c6564207468726f7567682060448201527f64656c656761746563616c6c00000000000000000000000000000000000000006064820152608401610a9f565b7f00000000000000000000000000000000000000000000000000000000000000006001600160a01b0316610baf7f360894a13ba1a3210667c828492db98dca3e2076cc3735a920a3ca505d382bbc546001600160a01b031690565b6001600160a01b031614610c2b5760405162461bcd60e51b815260206004820152602c60248201527f46756e6374696f6e206d7573742062652063616c6c6564207468726f7567682060448201527f6163746976652070726f787900000000000000000000000000000000000000006064820152608401610a9f565b610c34816119f9565b60408051600080825260208201909252610c5091839190611a04565b50565b6000610c5e816118ca565b8151602080840180516fffffffffffffffffffffffffffffffff9081167001000000000000000000000000000000000293811693841760ff5560408051948552915116918301919091527f84491fe728b8cfbe96caeae594c028f0aee2df460f3cbf7f6f79d432b3c6aee791015b60405180910390a15050565b6001600160a01b037f0000000000000000000000000000000000000000000000000000000000000000163003610d765760405162461bcd60e51b815260206004820152602c60248201527f46756e6374696f6e206d7573742062652063616c6c6564207468726f7567682060448201527f64656c656761746563616c6c00000000000000000000000000000000000000006064820152608401610a9f565b7f00000000000000000000000000000000000000000000000000000000000000006001600160a01b0316610dd17f360894a13ba1a3210667c828492db98dca3e2076cc3735a920a3ca505d382bbc546001600160a01b031690565b6001600160a01b031614610e4d5760405162461bcd60e51b815260206004820152602c60248201527f46756e6374696f6e206d7573742062652063616c6c6564207468726f7567682060448201527f6163746976652070726f787900000000000000000000000000000000000000006064820152608401610a9f565b610e56826119f9565b610ab282826001611a04565b6000306001600160a01b037f00000000000000000000000000000000000000000000000000000000000000001614610f025760405162461bcd60e51b815260206004820152603860248201527f555550535570677261646561626c653a206d757374206e6f742062652063616c60448201527f6c6564207468726f7567682064656c656761746563616c6c00000000000000006064820152608401610a9f565b507f360894a13ba1a3210667c828492db98dca3e2076cc3735a920a3ca505d382bbc90565b7f9f2df0fed2c77648de5860a4cc508cd0818c85b8b8a1ab4ceeef8d981c8956a6610f51816118ca565b60fc5460fb546040517f5e9bc5360000000000000000000000000000000000000000000000000000000081526001600160a01b039182166004820152466024820152868216604482015260648101869052600060848201819052929190911690635e9bc5369060a401602060405180830381865afa158015610fd7573d6000803e3d6000fd5b505050506040513d601f19601f82011682018060405250810190610ffb919061278e565b60fe5460ff546040517f615ac7f00000000000000000000000000000000000000000000000000000000081529293506001600160a01b039091169163615ac7f0916110789185916fffffffffffffffffffffffffffffffff808216927001000000000000000000000000000000009092041690899060040161284f565b600060405180830381600087803b15801561109257600080fd5b505af11580156110a6573d6000803e3d6000fd5b505050505050505050565b60fc5460fb5460fd546040517f5e9bc5360000000000000000000000000000000000000000000000000000000081526001600160a01b039283166004820152466024820152908216604482015260648101849052600060848201819052929190911690635e9bc5369060a401602060405180830381865afa15801561113a573d6000803e3d6000fd5b505050506040513d601f19601f8201168201806040525081019061066a919061278e565b6000611169816118ca565b60fe805483151574010000000000000000000000000000000000000000027fffffffffffffffffffffff00ffffffffffffffffffffffffffffffffffffffff9091161790556040517fc7f1900ff4f3a1896754b282a13e9385821ddb50a7aac1d3af224f2b4b52274490610ccc90841515815260200190565b60fd546001600160a01b031615611225576040517f2d42c77200000000000000000000000000000000000000000000000000000000815260040160405180910390fd5b60fd80547fffffffffffffffffffffffff0000000000000000000000000000000000000000166001600160a01b0383169081179091556040519081527f19603da0a8565b076f4284ea79940007a8fffcdedd780843b933d61609bdb492906020015b60405180910390a150565b600082815260c960205260409020600101546112ad816118ca565b610a208383611976565b600054610100900460ff16158080156112d75750600054600160ff909116105b806112f15750303b1580156112f1575060005460ff166001145b6113635760405162461bcd60e51b815260206004820152602e60248201527f496e697469616c697a61626c653a20636f6e747261637420697320616c72656160448201527f647920696e697469616c697a65640000000000000000000000000000000000006064820152608401610a9f565b6000805460ff1916600117905580156113a357600080547fffffffffffffffffffffffffffffffffffffffffffffffffffffffffffff00ff166101001790555b6113ae6000896118d4565b6113d87f9a95e87c5af084bf5db8491c3a6515da9dd6da39b24b0eb0af08d7b9cd808d91886118d4565b6114027f9f2df0fed2c77648de5860a4cc508cd0818c85b8b8a1ab4ceeef8d981c8956a6876118d4565b60fc80546001600160a01b038088167fffffffffffffffffffffffff00000000000000000000000000000000000000009283161790925560fb80549287169290911691909117905560fe805484151574010000000000000000000000000000000000000000027fffffffffffffffffffffff00ffffffffffffffffffffffffffffffffffffffff909116179055815160208301516fffffffffffffffffffffffffffffffff9081167001000000000000000000000000000000000291161760ff556040517fc7f1900ff4f3a1896754b282a13e9385821ddb50a7aac1d3af224f2b4b522744906114f790851515815260200190565b60405180910390a16040805183516fffffffffffffffffffffffffffffffff9081168252602080860151909116908201527f84491fe728b8cfbe96caeae594c028f0aee2df460f3cbf7f6f79d432b3c6aee7910160405180910390a180156115b657600080547fffffffffffffffffffffffffffffffffffffffffffffffffffffffffffff00ff169055604051600181527f7f26b83ff96e1f2b6a682f133852f6798a09c465da95921460cefb38474024989060200160405180910390a15b5050505050505050565b7f9a95e87c5af084bf5db8491c3a6515da9dd6da39b24b0eb0af08d7b9cd808d916115ea816118ca565b610ab282611bc2565b60fe546001600160a01b031615611636576040517f2d42c77200000000000000000000000000000000000000000000000000000000815260040160405180910390fd5b60fe80547fffffffffffffffffffffffff0000000000000000000000000000000000000000166001600160a01b0383169081179091556040519081527f6aa464e943c66d2f0bc75ac8a5c3d747bb75b5a7b8610ab18d5e2308b238dab190602001611287565b7f9a95e87c5af084bf5db8491c3a6515da9dd6da39b24b0eb0af08d7b9cd808d916116c6816118ca565b610ab282611d3a565b60fc5460fb546040805160048082526024820183526020820180517bffffffffffffffffffffffffffffffffffffffffffffffffffffffff167f8129fc1c0000000000000000000000000000000000000000000000000000000017905291517fda7323b30000000000000000000000000000000000000000000000000000000081526000946001600160a01b039081169463da7323b39461177d94919092169246928a928a928a9201612893565b6020604051808303816000875af115801561179c573d6000803e3d6000fd5b505050506040513d601f19601f820116820180604052508101906117c0919061278e565b9392505050565b6001600160a01b0381166000908152610100602052604090205460ff161561181b576040517fb06430b600000000000000000000000000000000000000000000000000000000815260040160405180910390fd5b60fd546040517f6a6278420000000000000000000000000000000000000000000000000000000081526001600160a01b03838116600483015290911690636a627842906024016020604051808303816000875af1158015611880573d6000803e3d6000fd5b505050506040513d601f19601f820116820180604052508101906118a491906127ab565b506001600160a01b0316600090815261010060205260409020805460ff19166001179055565b610c508133611e61565b600082815260c9602090815260408083206001600160a01b038516845290915290205460ff16610ab257600082815260c9602090815260408083206001600160a01b03851684529091529020805460ff191660011790556119323390565b6001600160a01b0316816001600160a01b0316837f2f8788117e7eff1d82e926ec794901d17c78024a50270940304540a733656f0d60405160405180910390a45050565b600082815260c9602090815260408083206001600160a01b038516845290915290205460ff1615610ab257600082815260c9602090815260408083206001600160a01b0385168085529252808320805460ff1916905551339285917ff6391f5c32d9c69d2a47ea670b442974b53935d1edc7fd64eb21e047a839171b9190a45050565b6000610ab2816118ca565b7f4910fdfa16fed3260ed0e7147f7cc6da11a60208b5b9406d12a635614ffd91435460ff1615611a3757610a2083611ef4565b826001600160a01b03166352d1902d6040518163ffffffff1660e01b8152600401602060405180830381865afa925050508015611aaf575060408051601f3d9081017fffffffffffffffffffffffffffffffffffffffffffffffffffffffffffffffe0168201909252611aac918101906127ab565b60015b611b215760405162461bcd60e51b815260206004820152602e60248201527f45524331393637557067726164653a206e657720696d706c656d656e7461746960448201527f6f6e206973206e6f7420555550530000000000000000000000000000000000006064820152608401610a9f565b7f360894a13ba1a3210667c828492db98dca3e2076cc3735a920a3ca505d382bbc8114611bb65760405162461bcd60e51b815260206004820152602960248201527f45524331393637557067726164653a20756e737570706f727465642070726f7860448201527f6961626c655555494400000000000000000000000000000000000000000000006064820152608401610a9f565b50610a20838383611fca565b60fd546040517f6352211e000000000000000000000000000000000000000000000000000000008152600481018390526000916001600160a01b031690636352211e90602401602060405180830381865afa158015611c25573d6000803e3d6000fd5b505050506040513d601f19601f82011682018060405250810190611c49919061278e565b6001600160a01b0381166000908152610100602052604090205490915060ff16611c9f576040517f55c9b51400000000000000000000000000000000000000000000000000000000815260040160405180910390fd5b60fd546040517f42966c68000000000000000000000000000000000000000000000000000000008152600481018490526001600160a01b03909116906342966c68906024015b600060405180830381600087803b158015611cff57600080fd5b505af1158015611d13573d6000803e3d6000fd5b505050506001600160a01b0316600090815261010060205260409020805460ff1916905550565b60fd546040517f6352211e000000000000000000000000000000000000000000000000000000008152600481018390526000916001600160a01b031690636352211e90602401602060405180830381865afa158015611d9d573d6000803e3d6000fd5b505050506040513d601f19601f82011682018060405250810190611dc1919061278e565b6001600160a01b0381166000908152610100602052604090205490915060ff16611e17576040517f55c9b51400000000000000000000000000000000000000000000000000000000815260040160405180910390fd5b60fd546040517f6198e339000000000000000000000000000000000000000000000000000000008152600481018490526001600160a01b0390911690636198e33990602401611ce5565b600082815260c9602090815260408083206001600160a01b038516845290915290205460ff16610ab257611e9481611ff5565b611e9f836020612007565b604051602001611eb09291906128dd565b604080517fffffffffffffffffffffffffffffffffffffffffffffffffffffffffffffffe08184030181529082905262461bcd60e51b8252610a9f9160040161295e565b6001600160a01b0381163b611f715760405162461bcd60e51b815260206004820152602d60248201527f455243313936373a206e657720696d706c656d656e746174696f6e206973206e60448201527f6f74206120636f6e7472616374000000000000000000000000000000000000006064820152608401610a9f565b7f360894a13ba1a3210667c828492db98dca3e2076cc3735a920a3ca505d382bbc80547fffffffffffffffffffffffff0000000000000000000000000000000000000000166001600160a01b0392909216919091179055565b611fd383612230565b600082511180611fe05750805b15610a2057611fef8383612270565b50505050565b606061066a6001600160a01b03831660145b606060006120168360026129a0565b6120219060026129b7565b67ffffffffffffffff8111156120395761203961249c565b6040519080825280601f01601f191660200182016040528015612063576020820181803683370190505b5090507f30000000000000000000000000000000000000000000000000000000000000008160008151811061209a5761209a6129ca565b60200101907effffffffffffffffffffffffffffffffffffffffffffffffffffffffffffff1916908160001a9053507f7800000000000000000000000000000000000000000000000000000000000000816001815181106120fd576120fd6129ca565b60200101907effffffffffffffffffffffffffffffffffffffffffffffffffffffffffffff1916908160001a90535060006121398460026129a0565b6121449060016129b7565b90505b60018111156121e1577f303132333435363738396162636465660000000000000000000000000000000085600f1660108110612185576121856129ca565b1a60f81b82828151811061219b5761219b6129ca565b60200101907effffffffffffffffffffffffffffffffffffffffffffffffffffffffffffff1916908160001a90535060049490941c936121da816129f9565b9050612147565b5083156117c05760405162461bcd60e51b815260206004820181905260248201527f537472696e67733a20686578206c656e67746820696e73756666696369656e746044820152606401610a9f565b61223981611ef4565b6040516001600160a01b038216907fbc7cd75a20ee27fd9adebab32041f755214dbc6bffa90cc0225b39da2e5c2d3b90600090a250565b60606117c08383604051806060016040528060278152602001612a4b602791396060600080856001600160a01b0316856040516122ad9190612a2e565b600060405180830381855af49150503d80600081146122e8576040519150601f19603f3d011682016040523d82523d6000602084013e6122ed565b606091505b50915091506122fe86838387612308565b9695505050505050565b60608315612377578251600003612370576001600160a01b0385163b6123705760405162461bcd60e51b815260206004820152601d60248201527f416464726573733a2063616c6c20746f206e6f6e2d636f6e74726163740000006044820152606401610a9f565b5081612381565b6123818383612389565b949350505050565b8151156123995781518083602001fd5b8060405162461bcd60e51b8152600401610a9f919061295e565b6000602082840312156123c557600080fd5b81357fffffffff00000000000000000000000000000000000000000000000000000000811681146117c057600080fd5b6001600160a01b0381168114610c5057600080fd5b6000806040838503121561241d57600080fd5b8235612428816123f5565b946020939093013593505050565b60006020828403121561244857600080fd5b5035919050565b60006020828403121561246157600080fd5b81356117c0816123f5565b6000806040838503121561247f57600080fd5b823591506020830135612491816123f5565b809150509250929050565b7f4e487b7100000000000000000000000000000000000000000000000000000000600052604160045260246000fd5b80356fffffffffffffffffffffffffffffffff811681146124eb57600080fd5b919050565b60006040828403121561250257600080fd5b6040516040810181811067ffffffffffffffff821117156125255761252561249c565b604052905080612534836124cb565b8152612542602084016124cb565b60208201525092915050565b60006040828403121561256057600080fd5b6117c083836124f0565b600067ffffffffffffffff808411156125855761258561249c565b604051601f85017fffffffffffffffffffffffffffffffffffffffffffffffffffffffffffffffe0908116603f011681019082821181831017156125cb576125cb61249c565b816040528093508581528686860111156125e457600080fd5b858560208301376000602087830101525050509392505050565b6000806040838503121561261157600080fd5b823561261c816123f5565b9150602083013567ffffffffffffffff81111561263857600080fd5b8301601f8101851361264957600080fd5b6126588582356020840161256a565b9150509250929050565b60008060006060848603121561267757600080fd5b8335612682816123f5565b925060208401359150604084013567ffffffffffffffff8111156126a557600080fd5b8401601f810186136126b657600080fd5b6126c58682356020840161256a565b9150509250925092565b8015158114610c5057600080fd5b6000602082840312156126ef57600080fd5b81356117c0816126cf565b6000806000806000806000610100888a03121561271657600080fd5b8735612721816123f5565b96506020880135612731816123f5565b95506040880135612741816123f5565b94506060880135612751816123f5565b93506080880135612761816123f5565b925060a0880135612771816126cf565b91506127808960c08a016124f0565b905092959891949750929550565b6000602082840312156127a057600080fd5b81516117c0816123f5565b6000602082840312156127bd57600080fd5b5051919050565b6000602082840312156127d657600080fd5b81516117c0816126cf565b60005b838110156127fc5781810151838201526020016127e4565b50506000910152565b6000815180845261281d8160208601602086016127e1565b601f017fffffffffffffffffffffffffffffffffffffffffffffffffffffffffffffffe0169290920160200192915050565b6001600160a01b038516815260006fffffffffffffffffffffffffffffffff8086166020840152808516604084015250608060608301526122fe6080830184612805565b60006001600160a01b03808916835287602084015280871660408401525084606083015283608083015260c060a08301526128d160c0830184612805565b98975050505050505050565b7f416363657373436f6e74726f6c3a206163636f756e74200000000000000000008152600083516129158160178501602088016127e1565b7f206973206d697373696e6720726f6c652000000000000000000000000000000060179184019182015283516129528160288401602088016127e1565b01602801949350505050565b6020815260006117c06020830184612805565b7f4e487b7100000000000000000000000000000000000000000000000000000000600052601160045260246000fd5b808202811582820484141761066a5761066a612971565b8082018082111561066a5761066a612971565b7f4e487b7100000000000000000000000000000000000000000000000000000000600052603260045260246000fd5b600081612a0857612a08612971565b507fffffffffffffffffffffffffffffffffffffffffffffffffffffffffffffffff0190565b60008251612a408184602087016127e1565b919091019291505056fe416464726573733a206c6f772d6c6576656c2064656c65676174652063616c6c206661696c6564a26469706673582212200fecaaaab447d69656a6c3406c8769f47451e99600b3849842fca95bdcc5a0a264736f6c63430008110033",
  "linkReferences": {},
  "deployedLinkReferences": {}
}