{
  "_format": "hh-sol-artifact-1",
  "contractName": "SpaceFactoryV1",
  "sourceName": "contracts/SpaceFactoryV1.sol",
  "abi": [
    {
      "inputs": [],
      "name": "AddressAlreadyRegistered",
      "type": "error"
    },
    {
      "inputs": [],
      "name": "CanNotApprove",
      "type": "error"
    },
    {
      "inputs": [],
      "name": "CanNotTransfer",
      "type": "error"
    },
    {
      "inputs": [],
      "name": "InvalidProtoship",
      "type": "error"
    },
    {
      "inputs": [],
      "name": "InvalidTokenId",
      "type": "error"
    },
    {
      "inputs": [],
      "name": "InvalidTokenURI",
      "type": "error"
    },
    {
      "inputs": [],
      "name": "NotWhiteListed",
      "type": "error"
    },
    {
      "inputs": [],
      "name": "OnlyLockedToken",
      "type": "error"
    },
    {
      "inputs": [],
      "name": "OnlyNFTOwner",
      "type": "error"
    },
    {
      "inputs": [],
      "name": "OnlyOneProtoshipAtATime",
      "type": "error"
    },
    {
      "inputs": [],
      "name": "OnlySpaceFactory",
      "type": "error"
    },
    {
      "inputs": [],
      "name": "OnlySpaceFactoryOrOwner",
      "type": "error"
    },
    {
      "inputs": [],
      "name": "ReachedMaxSupply",
      "type": "error"
    },
    {
      "inputs": [],
      "name": "TokenLocked",
      "type": "error"
    },
    {
      "anonymous": false,
      "inputs": [
        {
          "indexed": false,
          "internalType": "address",
          "name": "previousAdmin",
          "type": "address"
        },
        {
          "indexed": false,
          "internalType": "address",
          "name": "newAdmin",
          "type": "address"
        }
      ],
      "name": "AdminChanged",
      "type": "event"
    },
    {
      "anonymous": false,
      "inputs": [
        {
          "indexed": true,
          "internalType": "address",
          "name": "beacon",
          "type": "address"
        }
      ],
      "name": "BeaconUpgraded",
      "type": "event"
    },
    {
      "anonymous": false,
      "inputs": [
        {
          "indexed": false,
          "internalType": "uint8",
          "name": "version",
          "type": "uint8"
        }
      ],
      "name": "Initialized",
      "type": "event"
    },
    {
      "anonymous": false,
      "inputs": [
        {
          "indexed": false,
          "internalType": "address",
          "name": "tokenContract",
          "type": "address"
        },
        {
          "indexed": false,
          "internalType": "uint256",
          "name": "tokenId",
          "type": "uint256"
        },
        {
          "indexed": false,
          "internalType": "uint256",
          "name": "spaceshipId",
          "type": "uint256"
        }
      ],
      "name": "MintProtoshipUniverse1",
      "type": "event"
    },
    {
      "anonymous": false,
      "inputs": [
        {
          "indexed": true,
          "internalType": "bytes32",
          "name": "role",
          "type": "bytes32"
        },
        {
          "indexed": true,
          "internalType": "bytes32",
          "name": "previousAdminRole",
          "type": "bytes32"
        },
        {
          "indexed": true,
          "internalType": "bytes32",
          "name": "newAdminRole",
          "type": "bytes32"
        }
      ],
      "name": "RoleAdminChanged",
      "type": "event"
    },
    {
      "anonymous": false,
      "inputs": [
        {
          "indexed": true,
          "internalType": "bytes32",
          "name": "role",
          "type": "bytes32"
        },
        {
          "indexed": true,
          "internalType": "address",
          "name": "account",
          "type": "address"
        },
        {
          "indexed": true,
          "internalType": "address",
          "name": "sender",
          "type": "address"
        }
      ],
      "name": "RoleGranted",
      "type": "event"
    },
    {
      "anonymous": false,
      "inputs": [
        {
          "indexed": true,
          "internalType": "bytes32",
          "name": "role",
          "type": "bytes32"
        },
        {
          "indexed": true,
          "internalType": "address",
          "name": "account",
          "type": "address"
        },
        {
          "indexed": true,
          "internalType": "address",
          "name": "sender",
          "type": "address"
        }
      ],
      "name": "RoleRevoked",
      "type": "event"
    },
    {
      "anonymous": false,
      "inputs": [
        {
          "indexed": false,
          "internalType": "address",
          "name": "contractAddress",
          "type": "address"
        }
      ],
      "name": "SetBadgeUniverse1",
      "type": "event"
    },
    {
      "anonymous": false,
      "inputs": [
        {
          "indexed": false,
          "internalType": "bool",
          "name": "isUniverse1Whitelisted",
          "type": "bool"
        }
      ],
      "name": "SetIsUniverse1Whitelisted",
      "type": "event"
    },
    {
      "anonymous": false,
      "inputs": [
        {
          "indexed": false,
          "internalType": "address",
          "name": "contractAddress",
          "type": "address"
        }
      ],
      "name": "SetSpaceshipUniverse1",
      "type": "event"
    },
    {
      "anonymous": false,
      "inputs": [
        {
          "components": [
            {
              "internalType": "uint128",
              "name": "primaryType",
              "type": "uint128"
            },
            {
              "internalType": "uint128",
              "name": "secondaryType",
              "type": "uint128"
            }
          ],
          "indexed": false,
          "internalType": "struct IBadgeUniverse1.TokenType",
          "name": "badgeType",
          "type": "tuple"
        }
      ],
      "name": "SetUniverse1WhitelistBadgeType",
      "type": "event"
    },
    {
      "anonymous": false,
      "inputs": [
        {
          "indexed": true,
          "internalType": "address",
          "name": "implementation",
          "type": "address"
        }
      ],
      "name": "Upgraded",
      "type": "event"
    },
    {
      "inputs": [],
      "name": "DEFAULT_ADMIN_ROLE",
      "outputs": [
        {
          "internalType": "bytes32",
          "name": "",
          "type": "bytes32"
        }
      ],
      "stateMutability": "view",
      "type": "function"
    },
    {
      "inputs": [],
      "name": "MINTER_ROLE",
      "outputs": [
        {
          "internalType": "bytes32",
          "name": "",
          "type": "bytes32"
        }
      ],
      "stateMutability": "view",
      "type": "function"
    },
    {
      "inputs": [],
      "name": "SERVICE_ADMIN_ROLE",
      "outputs": [
        {
          "internalType": "bytes32",
          "name": "",
          "type": "bytes32"
        }
      ],
      "stateMutability": "view",
      "type": "function"
    },
    {
      "inputs": [],
      "name": "badgeUniverse1",
      "outputs": [
        {
          "internalType": "contract IBadgeUniverse1",
          "name": "",
          "type": "address"
        }
      ],
      "stateMutability": "view",
      "type": "function"
    },
    {
      "inputs": [
        {
          "internalType": "uint256",
          "name": "tokenId",
          "type": "uint256"
        }
      ],
      "name": "burnProtoshipUniverse1",
      "outputs": [],
      "stateMutability": "nonpayable",
      "type": "function"
    },
    {
      "inputs": [
        {
          "internalType": "bytes32",
          "name": "role",
          "type": "bytes32"
        }
      ],
      "name": "getRoleAdmin",
      "outputs": [
        {
          "internalType": "bytes32",
          "name": "",
          "type": "bytes32"
        }
      ],
      "stateMutability": "view",
      "type": "function"
    },
    {
      "inputs": [
        {
          "internalType": "uint256",
          "name": "tokenId",
          "type": "uint256"
        }
      ],
      "name": "getSpaceshipUniverse1TBA",
      "outputs": [
        {
          "internalType": "address",
          "name": "",
          "type": "address"
        }
      ],
      "stateMutability": "view",
      "type": "function"
    },
    {
      "inputs": [
        {
          "internalType": "bytes32",
          "name": "role",
          "type": "bytes32"
        },
        {
          "internalType": "address",
          "name": "account",
          "type": "address"
        }
      ],
      "name": "grantRole",
      "outputs": [],
      "stateMutability": "nonpayable",
      "type": "function"
    },
    {
      "inputs": [
        {
          "internalType": "address",
          "name": "",
          "type": "address"
        }
      ],
      "name": "hasProtoship",
      "outputs": [
        {
          "internalType": "bool",
          "name": "",
          "type": "bool"
        }
      ],
      "stateMutability": "view",
      "type": "function"
    },
    {
      "inputs": [
        {
          "internalType": "bytes32",
          "name": "role",
          "type": "bytes32"
        },
        {
          "internalType": "address",
          "name": "account",
          "type": "address"
        }
      ],
      "name": "hasRole",
      "outputs": [
        {
          "internalType": "bool",
          "name": "",
          "type": "bool"
        }
      ],
      "stateMutability": "view",
      "type": "function"
    },
    {
      "inputs": [
        {
          "internalType": "address",
          "name": "defaultAdmin",
          "type": "address"
        },
        {
          "internalType": "address",
          "name": "serviceAdmin",
          "type": "address"
        },
        {
          "internalType": "address",
          "name": "minterAdmin",
          "type": "address"
        },
        {
          "internalType": "contract IERC6551Registry",
          "name": "_tokenBoundRegistry",
          "type": "address"
        },
        {
          "internalType": "contract IERC6551Account",
          "name": "_tokenBoundImplementation",
          "type": "address"
        },
        {
          "internalType": "bool",
          "name": "_isUniverse1Whitelisted",
          "type": "bool"
        },
        {
          "components": [
            {
              "internalType": "uint128",
              "name": "primaryType",
              "type": "uint128"
            },
            {
              "internalType": "uint128",
              "name": "secondaryType",
              "type": "uint128"
            }
          ],
          "internalType": "struct IBadgeUniverse1.TokenType",
          "name": "_universe1WhitelistBadgeType",
          "type": "tuple"
        }
      ],
      "name": "initialize",
      "outputs": [],
      "stateMutability": "nonpayable",
      "type": "function"
    },
    {
      "inputs": [],
      "name": "isUniverse1Whitelisted",
      "outputs": [
        {
          "internalType": "bool",
          "name": "",
          "type": "bool"
        }
      ],
      "stateMutability": "view",
      "type": "function"
    },
    {
      "inputs": [
        {
          "internalType": "address",
          "name": "tokenContract",
          "type": "address"
        },
        {
          "internalType": "uint256",
          "name": "tokenId",
          "type": "uint256"
        }
      ],
      "name": "mintProtoshipUniverse1",
      "outputs": [
        {
          "internalType": "address",
          "name": "",
          "type": "address"
        }
      ],
      "stateMutability": "nonpayable",
      "type": "function"
    },
    {
      "inputs": [
        {
          "internalType": "address",
          "name": "tokenContract",
          "type": "address"
        },
        {
          "internalType": "uint256",
          "name": "tokenId",
          "type": "uint256"
        },
        {
          "internalType": "string",
          "name": "tokenURI",
          "type": "string"
        }
      ],
      "name": "mintWhitelistBadgeUniverse1",
      "outputs": [],
      "stateMutability": "nonpayable",
      "type": "function"
    },
    {
      "inputs": [],
      "name": "proxiableUUID",
      "outputs": [
        {
          "internalType": "bytes32",
          "name": "",
          "type": "bytes32"
        }
      ],
      "stateMutability": "view",
      "type": "function"
    },
    {
      "inputs": [
        {
          "internalType": "bytes32",
          "name": "role",
          "type": "bytes32"
        },
        {
          "internalType": "address",
          "name": "account",
          "type": "address"
        }
      ],
      "name": "renounceRole",
      "outputs": [],
      "stateMutability": "nonpayable",
      "type": "function"
    },
    {
      "inputs": [
        {
          "internalType": "bytes32",
          "name": "role",
          "type": "bytes32"
        },
        {
          "internalType": "address",
          "name": "account",
          "type": "address"
        }
      ],
      "name": "revokeRole",
      "outputs": [],
      "stateMutability": "nonpayable",
      "type": "function"
    },
    {
      "inputs": [
        {
          "internalType": "address",
          "name": "contractAddress",
          "type": "address"
        }
      ],
      "name": "setBadgeUniverse1",
      "outputs": [],
      "stateMutability": "nonpayable",
      "type": "function"
    },
    {
      "inputs": [
        {
          "internalType": "bool",
          "name": "_isUniverse1Whitelisted",
          "type": "bool"
        }
      ],
      "name": "setIsUniverse1Whitelisted",
      "outputs": [],
      "stateMutability": "nonpayable",
      "type": "function"
    },
    {
      "inputs": [
        {
          "internalType": "address",
          "name": "contractAddress",
          "type": "address"
        }
      ],
      "name": "setSpaceshipUniverse1",
      "outputs": [],
      "stateMutability": "nonpayable",
      "type": "function"
    },
    {
      "inputs": [
        {
          "components": [
            {
              "internalType": "uint128",
              "name": "primaryType",
              "type": "uint128"
            },
            {
              "internalType": "uint128",
              "name": "secondaryType",
              "type": "uint128"
            }
          ],
          "internalType": "struct IBadgeUniverse1.TokenType",
          "name": "_universe1WhitelistBadgeType",
          "type": "tuple"
        }
      ],
      "name": "setUniverse1WhitelistBadgeType",
      "outputs": [],
      "stateMutability": "nonpayable",
      "type": "function"
    },
    {
      "inputs": [],
      "name": "spaceshipUniverse1",
      "outputs": [
        {
          "internalType": "contract ISpaceshipUniverse1",
          "name": "",
          "type": "address"
        }
      ],
      "stateMutability": "view",
      "type": "function"
    },
    {
      "inputs": [
        {
          "internalType": "bytes4",
          "name": "interfaceId",
          "type": "bytes4"
        }
      ],
      "name": "supportsInterface",
      "outputs": [
        {
          "internalType": "bool",
          "name": "",
          "type": "bool"
        }
      ],
      "stateMutability": "view",
      "type": "function"
    },
    {
      "inputs": [],
      "name": "tokenBoundImplementation",
      "outputs": [
        {
          "internalType": "contract IERC6551Account",
          "name": "",
          "type": "address"
        }
      ],
      "stateMutability": "view",
      "type": "function"
    },
    {
      "inputs": [],
      "name": "tokenBoundRegistry",
      "outputs": [
        {
          "internalType": "contract IERC6551Registry",
          "name": "",
          "type": "address"
        }
      ],
      "stateMutability": "view",
      "type": "function"
    },
    {
      "inputs": [
        {
          "internalType": "address",
          "name": "admin",
          "type": "address"
        }
      ],
      "name": "transferDefaultAdmin",
      "outputs": [],
      "stateMutability": "nonpayable",
      "type": "function"
    },
    {
      "inputs": [
        {
          "internalType": "address",
          "name": "newImplementation",
          "type": "address"
        }
      ],
      "name": "upgradeTo",
      "outputs": [],
      "stateMutability": "nonpayable",
      "type": "function"
    },
    {
      "inputs": [
        {
          "internalType": "address",
          "name": "newImplementation",
          "type": "address"
        },
        {
          "internalType": "bytes",
          "name": "data",
          "type": "bytes"
        }
      ],
      "name": "upgradeToAndCall",
      "outputs": [],
      "stateMutability": "payable",
      "type": "function"
    },
    {
      "inputs": [
        {
          "internalType": "uint256",
          "name": "tokenId",
          "type": "uint256"
        }
      ],
      "name": "upgradeToOwnershipUniverse1",
      "outputs": [],
      "stateMutability": "nonpayable",
      "type": "function"
    }
  ],
  "bytecode": "0x60a06040523060805234801561001457600080fd5b50608051612b0261004c60003960008181610760015281816107f60152818161098201528181610a180152610b0f0152612b026000f3fe6080604052600436106101c25760003560e01c8063796a7a0a116100f7578063d09445c211610095578063daf6305711610064578063daf6305714610582578063eae45448146105a2578063fb34fbdc146105c2578063fdf250df146105e257600080fd5b8063d09445c2146104da578063d49cb5411461050e578063d53913931461052e578063d547741f1461056257600080fd5b80639d245669116100d15780639d24566914610465578063a217fddf14610485578063a5d2c3331461049a578063a776d2cc146104ba57600080fd5b8063796a7a0a146103cd5780638922e572146103ff57806391d148541461041f57600080fd5b80634f1ef286116101645780635ea31b981161013e5780635ea31b981461033c578063655756581461035c5780636aa4e6761461038d5780637484ea49146103ad57600080fd5b80634f1ef286146102f457806352d1902d1461030757806357c788731461031c57600080fd5b80632f2ff15d116101a05780632f2ff15d1461027257806336568abe146102945780633659cfe6146102b4578063376110f6146102d457600080fd5b806301ffc9a7146101c75780632063b61f146101fc578063248a9ca314610234575b600080fd5b3480156101d357600080fd5b506101e76101e236600461240e565b610602565b60405190151581526020015b60405180910390f35b34801561020857600080fd5b5060fe5461021c906001600160a01b031681565b6040516001600160a01b0390911681526020016101f3565b34801561024057600080fd5b5061026461024f366004612450565b600090815260c9602052604090206001015490565b6040519081526020016101f3565b34801561027e57600080fd5b5061029261028d36600461247e565b61069b565b005b3480156102a057600080fd5b506102926102af36600461247e565b6106c5565b3480156102c057600080fd5b506102926102cf3660046124ae565b610756565b3480156102e057600080fd5b506102926102ef36600461257d565b6108f3565b61029261030236600461262d565b610978565b34801561031357600080fd5b50610264610b02565b34801561032857600080fd5b50610292610337366004612691565b610bc7565b34801561034857600080fd5b506102926103573660046124ae565b610d51565b34801561036857600080fd5b506101e76103773660046124ae565b6101006020526000908152604090205460ff1681565b34801561039957600080fd5b5060fb5461021c906001600160a01b031681565b3480156103b957600080fd5b5061021c6103c8366004612450565b610d72565b3480156103d957600080fd5b5060fe546101e79074010000000000000000000000000000000000000000900460ff1681565b34801561040b57600080fd5b5061029261041a36600461270c565b610e1f565b34801561042b57600080fd5b506101e761043a36600461247e565b600091825260c9602090815260408084206001600160a01b0393909316845291905290205460ff1690565b34801561047157600080fd5b5060fd5461021c906001600160a01b031681565b34801561049157600080fd5b50610264600081565b3480156104a657600080fd5b506102926104b53660046124ae565b610ea3565b3480156104c657600080fd5b5061021c6104d5366004612729565b610f57565b3480156104e657600080fd5b506102647f9a95e87c5af084bf5db8491c3a6515da9dd6da39b24b0eb0af08d7b9cd808d9181565b34801561051a57600080fd5b50610292610529366004612450565b6112e2565b34801561053a57600080fd5b506102647f9f2df0fed2c77648de5860a4cc508cd0818c85b8b8a1ab4ceeef8d981c8956a681565b34801561056e57600080fd5b5061029261057d36600461247e565b611315565b34801561058e57600080fd5b5061029261059d366004612755565b61133a565b3480156105ae57600080fd5b506102926105bd3660046124ae565b611643565b3480156105ce57600080fd5b506102926105dd366004612450565b6116f7565b3480156105ee57600080fd5b5060fc5461021c906001600160a01b031681565b60007fffffffff0000000000000000000000000000000000000000000000000000000082167f7965db0b00000000000000000000000000000000000000000000000000000000148061069557507f01ffc9a7000000000000000000000000000000000000000000000000000000007fffffffff000000000000000000000000000000000000000000000000000000008316145b92915050565b600082815260c960205260409020600101546106b68161172a565b6106c08383611734565b505050565b6001600160a01b03811633146107485760405162461bcd60e51b815260206004820152602f60248201527f416363657373436f6e74726f6c3a2063616e206f6e6c792072656e6f756e636560448201527f20726f6c657320666f722073656c66000000000000000000000000000000000060648201526084015b60405180910390fd5b61075282826117d6565b5050565b6001600160a01b037f00000000000000000000000000000000000000000000000000000000000000001630036107f45760405162461bcd60e51b815260206004820152602c60248201527f46756e6374696f6e206d7573742062652063616c6c6564207468726f7567682060448201527f64656c656761746563616c6c0000000000000000000000000000000000000000606482015260840161073f565b7f00000000000000000000000000000000000000000000000000000000000000006001600160a01b031661084f7f360894a13ba1a3210667c828492db98dca3e2076cc3735a920a3ca505d382bbc546001600160a01b031690565b6001600160a01b0316146108cb5760405162461bcd60e51b815260206004820152602c60248201527f46756e6374696f6e206d7573742062652063616c6c6564207468726f7567682060448201527f6163746976652070726f78790000000000000000000000000000000000000000606482015260840161073f565b6108d481611859565b604080516000808252602082019092526108f091839190611864565b50565b60006108fe8161172a565b8151602080840180516fffffffffffffffffffffffffffffffff9081167001000000000000000000000000000000000293811693841760ff5560408051948552915116918301919091527f84491fe728b8cfbe96caeae594c028f0aee2df460f3cbf7f6f79d432b3c6aee791015b60405180910390a15050565b6001600160a01b037f0000000000000000000000000000000000000000000000000000000000000000163003610a165760405162461bcd60e51b815260206004820152602c60248201527f46756e6374696f6e206d7573742062652063616c6c6564207468726f7567682060448201527f64656c656761746563616c6c0000000000000000000000000000000000000000606482015260840161073f565b7f00000000000000000000000000000000000000000000000000000000000000006001600160a01b0316610a717f360894a13ba1a3210667c828492db98dca3e2076cc3735a920a3ca505d382bbc546001600160a01b031690565b6001600160a01b031614610aed5760405162461bcd60e51b815260206004820152602c60248201527f46756e6374696f6e206d7573742062652063616c6c6564207468726f7567682060448201527f6163746976652070726f78790000000000000000000000000000000000000000606482015260840161073f565b610af682611859565b61075282826001611864565b6000306001600160a01b037f00000000000000000000000000000000000000000000000000000000000000001614610ba25760405162461bcd60e51b815260206004820152603860248201527f555550535570677261646561626c653a206d757374206e6f742062652063616c60448201527f6c6564207468726f7567682064656c656761746563616c6c0000000000000000606482015260840161073f565b507f360894a13ba1a3210667c828492db98dca3e2076cc3735a920a3ca505d382bbc90565b7f9f2df0fed2c77648de5860a4cc508cd0818c85b8b8a1ab4ceeef8d981c8956a6610bf18161172a565b60fc5460fb546040517f5e9bc5360000000000000000000000000000000000000000000000000000000081526001600160a01b039182166004820152466024820152868216604482015260648101869052600060848201819052929190911690635e9bc5369060a401602060405180830381865afa158015610c77573d6000803e3d6000fd5b505050506040513d601f19601f82011682018060405250810190610c9b91906127e9565b60fe5460ff546040517f615ac7f00000000000000000000000000000000000000000000000000000000081529293506001600160a01b039091169163615ac7f091610d189185916fffffffffffffffffffffffffffffffff8082169270010000000000000000000000000000000090920416908990600401612874565b600060405180830381600087803b158015610d3257600080fd5b505af1158015610d46573d6000803e3d6000fd5b505050505050505050565b6000610d5c8161172a565b610d6760008361069b565b6107526000336106c5565b60fc5460fb5460fd546040517f5e9bc5360000000000000000000000000000000000000000000000000000000081526001600160a01b039283166004820152466024820152908216604482015260648101849052600060848201819052929190911690635e9bc5369060a401602060405180830381865afa158015610dfb573d6000803e3d6000fd5b505050506040513d601f19601f8201168201806040525081019061069591906127e9565b6000610e2a8161172a565b60fe805483151574010000000000000000000000000000000000000000027fffffffffffffffffffffff00ffffffffffffffffffffffffffffffffffffffff9091161790556040517fc7f1900ff4f3a1896754b282a13e9385821ddb50a7aac1d3af224f2b4b5227449061096c90841515815260200190565b6000610eae8161172a565b60fd546001600160a01b031615610ef1576040517f2d42c77200000000000000000000000000000000000000000000000000000000815260040160405180910390fd5b60fd80547fffffffffffffffffffffffff0000000000000000000000000000000000000000166001600160a01b0384169081179091556040519081527f19603da0a8565b076f4284ea79940007a8fffcdedd780843b933d61609bdb4929060200161096c565b6040517f6352211e0000000000000000000000000000000000000000000000000000000081526004810182905260009033906001600160a01b03851690636352211e90602401602060405180830381865afa158015610fba573d6000803e3d6000fd5b505050506040513d601f19601f82011682018060405250810190610fde91906127e9565b6001600160a01b03161461101e576040517fd48af24600000000000000000000000000000000000000000000000000000000815260040160405180910390fd5b60fc5460fb546040517f5e9bc5360000000000000000000000000000000000000000000000000000000081526001600160a01b039182166004820152466024820152858216604482015260648101859052600060848201819052929190911690635e9bc5369060a401602060405180830381865afa1580156110a4573d6000803e3d6000fd5b505050506040513d601f19601f820116820180604052508101906110c891906127e9565b60fe5490915074010000000000000000000000000000000000000000900460ff16156111e55760fe5460ff546040517f42fd5fed0000000000000000000000000000000000000000000000000000000081526001600160a01b0384811660048301526fffffffffffffffffffffffffffffffff808416602484015270010000000000000000000000000000000090930490921660448201529116906342fd5fed906064016020604051808303816000875af115801561118b573d6000803e3d6000fd5b505050506040513d601f19601f820116820180604052508101906111af91906128b8565b6111e5576040517f6a9a57a500000000000000000000000000000000000000000000000000000000815260040160405180910390fd5b60fd54604080517f75794a3c00000000000000000000000000000000000000000000000000000000815290516000926001600160a01b0316916375794a3c916004808301926020929190829003018187875af1158015611249573d6000803e3d6000fd5b505050506040513d601f19601f8201168201806040525081019061126d91906128d5565b60fd54909150611286906001600160a01b031682611a22565b5061129082611b1a565b604080516001600160a01b0387168152602081018690529081018290527f98af6fd665c9c4e0cc9d5e90b6005de520d39d0f4f2531f987ca5ab9b58c1c559060600160405180910390a1509392505050565b7f9a95e87c5af084bf5db8491c3a6515da9dd6da39b24b0eb0af08d7b9cd808d9161130c8161172a565b61075282611c1d565b600082815260c960205260409020600101546113308161172a565b6106c083836117d6565b600054610100900460ff161580801561135a5750600054600160ff909116105b806113745750303b158015611374575060005460ff166001145b6113e65760405162461bcd60e51b815260206004820152602e60248201527f496e697469616c697a61626c653a20636f6e747261637420697320616c72656160448201527f647920696e697469616c697a6564000000000000000000000000000000000000606482015260840161073f565b6000805460ff19166001179055801561142657600080547fffffffffffffffffffffffffffffffffffffffffffffffffffffffffffff00ff166101001790555b611431600089611734565b61145b7f9a95e87c5af084bf5db8491c3a6515da9dd6da39b24b0eb0af08d7b9cd808d9188611734565b6114857f9f2df0fed2c77648de5860a4cc508cd0818c85b8b8a1ab4ceeef8d981c8956a687611734565b60fc80546001600160a01b038088167fffffffffffffffffffffffff00000000000000000000000000000000000000009283161790925560fb80549287169290911691909117905560fe805484151574010000000000000000000000000000000000000000027fffffffffffffffffffffff00ffffffffffffffffffffffffffffffffffffffff909116179055815160208301516fffffffffffffffffffffffffffffffff9081167001000000000000000000000000000000000291161760ff556040517fc7f1900ff4f3a1896754b282a13e9385821ddb50a7aac1d3af224f2b4b5227449061157a90851515815260200190565b60405180910390a16040805183516fffffffffffffffffffffffffffffffff9081168252602080860151909116908201527f84491fe728b8cfbe96caeae594c028f0aee2df460f3cbf7f6f79d432b3c6aee7910160405180910390a1801561163957600080547fffffffffffffffffffffffffffffffffffffffffffffffffffffffffffff00ff169055604051600181527f7f26b83ff96e1f2b6a682f133852f6798a09c465da95921460cefb38474024989060200160405180910390a15b5050505050505050565b600061164e8161172a565b60fe546001600160a01b031615611691576040517f2d42c77200000000000000000000000000000000000000000000000000000000815260040160405180910390fd5b60fe80547fffffffffffffffffffffffff0000000000000000000000000000000000000000166001600160a01b0384169081179091556040519081527f6aa464e943c66d2f0bc75ac8a5c3d747bb75b5a7b8610ab18d5e2308b238dab19060200161096c565b7f9a95e87c5af084bf5db8491c3a6515da9dd6da39b24b0eb0af08d7b9cd808d916117218161172a565b61075282611d95565b6108f08133611ebc565b600082815260c9602090815260408083206001600160a01b038516845290915290205460ff1661075257600082815260c9602090815260408083206001600160a01b03851684529091529020805460ff191660011790556117923390565b6001600160a01b0316816001600160a01b0316837f2f8788117e7eff1d82e926ec794901d17c78024a50270940304540a733656f0d60405160405180910390a45050565b600082815260c9602090815260408083206001600160a01b038516845290915290205460ff161561075257600082815260c9602090815260408083206001600160a01b0385168085529252808320805460ff1916905551339285917ff6391f5c32d9c69d2a47ea670b442974b53935d1edc7fd64eb21e047a839171b9190a45050565b60006107528161172a565b7f4910fdfa16fed3260ed0e7147f7cc6da11a60208b5b9406d12a635614ffd91435460ff1615611897576106c083611f4f565b826001600160a01b03166352d1902d6040518163ffffffff1660e01b8152600401602060405180830381865afa92505050801561190f575060408051601f3d9081017fffffffffffffffffffffffffffffffffffffffffffffffffffffffffffffffe016820190925261190c918101906128d5565b60015b6119815760405162461bcd60e51b815260206004820152602e60248201527f45524331393637557067726164653a206e657720696d706c656d656e7461746960448201527f6f6e206973206e6f742055555053000000000000000000000000000000000000606482015260840161073f565b7f360894a13ba1a3210667c828492db98dca3e2076cc3735a920a3ca505d382bbc8114611a165760405162461bcd60e51b815260206004820152602960248201527f45524331393637557067726164653a20756e737570706f727465642070726f7860448201527f6961626c65555549440000000000000000000000000000000000000000000000606482015260840161073f565b506106c0838383612025565b60fc5460fb546040805160048082526024820183526020820180517bffffffffffffffffffffffffffffffffffffffffffffffffffffffff167f8129fc1c0000000000000000000000000000000000000000000000000000000017905291517fda7323b30000000000000000000000000000000000000000000000000000000081526000946001600160a01b039081169463da7323b394611ad094919092169246928a928a928a92016128ee565b6020604051808303816000875af1158015611aef573d6000803e3d6000fd5b505050506040513d601f19601f82011682018060405250810190611b1391906127e9565b9392505050565b6001600160a01b0381166000908152610100602052604090205460ff1615611b6e576040517f4913ed3800000000000000000000000000000000000000000000000000000000815260040160405180910390fd5b60fd546040517f6a6278420000000000000000000000000000000000000000000000000000000081526001600160a01b03838116600483015290911690636a627842906024016020604051808303816000875af1158015611bd3573d6000803e3d6000fd5b505050506040513d601f19601f82011682018060405250810190611bf791906128d5565b506001600160a01b0316600090815261010060205260409020805460ff19166001179055565b60fd546040517f6352211e000000000000000000000000000000000000000000000000000000008152600481018390526000916001600160a01b031690636352211e90602401602060405180830381865afa158015611c80573d6000803e3d6000fd5b505050506040513d601f19601f82011682018060405250810190611ca491906127e9565b6001600160a01b0381166000908152610100602052604090205490915060ff16611cfa576040517f3d7555a900000000000000000000000000000000000000000000000000000000815260040160405180910390fd5b60fd546040517f42966c68000000000000000000000000000000000000000000000000000000008152600481018490526001600160a01b03909116906342966c68906024015b600060405180830381600087803b158015611d5a57600080fd5b505af1158015611d6e573d6000803e3d6000fd5b505050506001600160a01b0316600090815261010060205260409020805460ff1916905550565b60fd546040517f6352211e000000000000000000000000000000000000000000000000000000008152600481018390526000916001600160a01b031690636352211e90602401602060405180830381865afa158015611df8573d6000803e3d6000fd5b505050506040513d601f19601f82011682018060405250810190611e1c91906127e9565b6001600160a01b0381166000908152610100602052604090205490915060ff16611e72576040517f3d7555a900000000000000000000000000000000000000000000000000000000815260040160405180910390fd5b60fd546040517f6198e339000000000000000000000000000000000000000000000000000000008152600481018490526001600160a01b0390911690636198e33990602401611d40565b600082815260c9602090815260408083206001600160a01b038516845290915290205460ff1661075257611eef81612050565b611efa836020612062565b604051602001611f0b929190612938565b604080517fffffffffffffffffffffffffffffffffffffffffffffffffffffffffffffffe08184030181529082905262461bcd60e51b825261073f916004016129b9565b6001600160a01b0381163b611fcc5760405162461bcd60e51b815260206004820152602d60248201527f455243313936373a206e657720696d706c656d656e746174696f6e206973206e60448201527f6f74206120636f6e747261637400000000000000000000000000000000000000606482015260840161073f565b7f360894a13ba1a3210667c828492db98dca3e2076cc3735a920a3ca505d382bbc80547fffffffffffffffffffffffff0000000000000000000000000000000000000000166001600160a01b0392909216919091179055565b61202e8361228b565b60008251118061203b5750805b156106c05761204a83836122cb565b50505050565b60606106956001600160a01b03831660145b606060006120718360026129fb565b61207c906002612a12565b67ffffffffffffffff811115612094576120946124cb565b6040519080825280601f01601f1916602001820160405280156120be576020820181803683370190505b5090507f3000000000000000000000000000000000000000000000000000000000000000816000815181106120f5576120f5612a25565b60200101907effffffffffffffffffffffffffffffffffffffffffffffffffffffffffffff1916908160001a9053507f78000000000000000000000000000000000000000000000000000000000000008160018151811061215857612158612a25565b60200101907effffffffffffffffffffffffffffffffffffffffffffffffffffffffffffff1916908160001a90535060006121948460026129fb565b61219f906001612a12565b90505b600181111561223c577f303132333435363738396162636465660000000000000000000000000000000085600f16601081106121e0576121e0612a25565b1a60f81b8282815181106121f6576121f6612a25565b60200101907effffffffffffffffffffffffffffffffffffffffffffffffffffffffffffff1916908160001a90535060049490941c9361223581612a54565b90506121a2565b508315611b135760405162461bcd60e51b815260206004820181905260248201527f537472696e67733a20686578206c656e67746820696e73756666696369656e74604482015260640161073f565b61229481611f4f565b6040516001600160a01b038216907fbc7cd75a20ee27fd9adebab32041f755214dbc6bffa90cc0225b39da2e5c2d3b90600090a250565b6060611b138383604051806060016040528060278152602001612aa6602791396060600080856001600160a01b0316856040516123089190612a89565b600060405180830381855af49150503d8060008114612343576040519150601f19603f3d011682016040523d82523d6000602084013e612348565b606091505b509150915061235986838387612363565b9695505050505050565b606083156123d25782516000036123cb576001600160a01b0385163b6123cb5760405162461bcd60e51b815260206004820152601d60248201527f416464726573733a2063616c6c20746f206e6f6e2d636f6e7472616374000000604482015260640161073f565b50816123dc565b6123dc83836123e4565b949350505050565b8151156123f45781518083602001fd5b8060405162461bcd60e51b815260040161073f91906129b9565b60006020828403121561242057600080fd5b81357fffffffff0000000000000000000000000000000000000000000000000000000081168114611b1357600080fd5b60006020828403121561246257600080fd5b5035919050565b6001600160a01b03811681146108f057600080fd5b6000806040838503121561249157600080fd5b8235915060208301356124a381612469565b809150509250929050565b6000602082840312156124c057600080fd5b8135611b1381612469565b7f4e487b7100000000000000000000000000000000000000000000000000000000600052604160045260246000fd5b80356fffffffffffffffffffffffffffffffff8116811461251a57600080fd5b919050565b60006040828403121561253157600080fd5b6040516040810181811067ffffffffffffffff82111715612554576125546124cb565b604052905080612563836124fa565b8152612571602084016124fa565b60208201525092915050565b60006040828403121561258f57600080fd5b611b13838361251f565b600067ffffffffffffffff808411156125b4576125b46124cb565b604051601f85017fffffffffffffffffffffffffffffffffffffffffffffffffffffffffffffffe0908116603f011681019082821181831017156125fa576125fa6124cb565b8160405280935085815286868601111561261357600080fd5b858560208301376000602087830101525050509392505050565b6000806040838503121561264057600080fd5b823561264b81612469565b9150602083013567ffffffffffffffff81111561266757600080fd5b8301601f8101851361267857600080fd5b61268785823560208401612599565b9150509250929050565b6000806000606084860312156126a657600080fd5b83356126b181612469565b925060208401359150604084013567ffffffffffffffff8111156126d457600080fd5b8401601f810186136126e557600080fd5b6126f486823560208401612599565b9150509250925092565b80151581146108f057600080fd5b60006020828403121561271e57600080fd5b8135611b13816126fe565b6000806040838503121561273c57600080fd5b823561274781612469565b946020939093013593505050565b6000806000806000806000610100888a03121561277157600080fd5b873561277c81612469565b9650602088013561278c81612469565b9550604088013561279c81612469565b945060608801356127ac81612469565b935060808801356127bc81612469565b925060a08801356127cc816126fe565b91506127db8960c08a0161251f565b905092959891949750929550565b6000602082840312156127fb57600080fd5b8151611b1381612469565b60005b83811015612821578181015183820152602001612809565b50506000910152565b60008151808452612842816020860160208601612806565b601f017fffffffffffffffffffffffffffffffffffffffffffffffffffffffffffffffe0169290920160200192915050565b6001600160a01b038516815260006fffffffffffffffffffffffffffffffff808616602084015280851660408401525060806060830152612359608083018461282a565b6000602082840312156128ca57600080fd5b8151611b13816126fe565b6000602082840312156128e757600080fd5b5051919050565b60006001600160a01b03808916835287602084015280871660408401525084606083015283608083015260c060a083015261292c60c083018461282a565b98975050505050505050565b7f416363657373436f6e74726f6c3a206163636f756e7420000000000000000000815260008351612970816017850160208801612806565b7f206973206d697373696e6720726f6c652000000000000000000000000000000060179184019182015283516129ad816028840160208801612806565b01602801949350505050565b602081526000611b13602083018461282a565b7f4e487b7100000000000000000000000000000000000000000000000000000000600052601160045260246000fd5b8082028115828204841417610695576106956129cc565b80820180821115610695576106956129cc565b7f4e487b7100000000000000000000000000000000000000000000000000000000600052603260045260246000fd5b600081612a6357612a636129cc565b507fffffffffffffffffffffffffffffffffffffffffffffffffffffffffffffffff0190565b60008251612a9b818460208701612806565b919091019291505056fe416464726573733a206c6f772d6c6576656c2064656c65676174652063616c6c206661696c6564a2646970667358221220d9341610066df22961aeb332390d3f4f9f396e09c056d1ea99035d63cf7daed064736f6c63430008110033",
  "linkReferences": {},
  "deployedLinkReferences": {}
}