{
  "_format": "hh-sol-artifact-1",
  "contractName": "SpaceFactoryV1",
  "sourceName": "contracts/SpaceFactoryV1.sol",
  "abi": [
    {
      "inputs": [],
      "name": "AddressAlreadyRegistered",
      "type": "error"
    },
    {
      "inputs": [],
      "name": "CanNotApprove",
      "type": "error"
    },
    {
      "inputs": [],
      "name": "CanNotTransfer",
      "type": "error"
    },
    {
      "inputs": [],
      "name": "InvalidListLength",
      "type": "error"
    },
    {
      "inputs": [],
      "name": "InvalidProtoship",
      "type": "error"
    },
    {
      "inputs": [],
      "name": "InvalidTokenId",
      "type": "error"
    },
    {
      "inputs": [],
      "name": "InvalidTokenURI",
      "type": "error"
    },
    {
      "inputs": [],
      "name": "NotWhiteListed",
      "type": "error"
    },
    {
      "inputs": [],
      "name": "OnlyLockedToken",
      "type": "error"
    },
    {
      "inputs": [],
      "name": "OnlyNFTOwner",
      "type": "error"
    },
    {
      "inputs": [],
      "name": "OnlyOneProtoshipAtATime",
      "type": "error"
    },
    {
      "inputs": [],
      "name": "OnlySpaceFactory",
      "type": "error"
    },
    {
      "inputs": [],
      "name": "OnlySpaceFactoryOrOwner",
      "type": "error"
    },
    {
      "inputs": [],
      "name": "ReachedMaxSupply",
      "type": "error"
    },
    {
      "inputs": [],
      "name": "TokenLocked",
      "type": "error"
    },
    {
      "anonymous": false,
      "inputs": [
        {
          "indexed": false,
          "internalType": "address",
          "name": "previousAdmin",
          "type": "address"
        },
        {
          "indexed": false,
          "internalType": "address",
          "name": "newAdmin",
          "type": "address"
        }
      ],
      "name": "AdminChanged",
      "type": "event"
    },
    {
      "anonymous": false,
      "inputs": [
        {
          "indexed": true,
          "internalType": "address",
          "name": "beacon",
          "type": "address"
        }
      ],
      "name": "BeaconUpgraded",
      "type": "event"
    },
    {
      "anonymous": false,
      "inputs": [
        {
          "indexed": false,
          "internalType": "uint8",
          "name": "version",
          "type": "uint8"
        }
      ],
      "name": "Initialized",
      "type": "event"
    },
    {
      "anonymous": false,
      "inputs": [
        {
          "indexed": false,
          "internalType": "address",
          "name": "tokenContract",
          "type": "address"
        },
        {
          "indexed": false,
          "internalType": "uint256",
          "name": "tokenId",
          "type": "uint256"
        },
        {
          "indexed": false,
          "internalType": "uint256",
          "name": "spaceshipId",
          "type": "uint256"
        }
      ],
      "name": "MintProtoshipUniverse1",
      "type": "event"
    },
    {
      "anonymous": false,
      "inputs": [
        {
          "indexed": true,
          "internalType": "bytes32",
          "name": "role",
          "type": "bytes32"
        },
        {
          "indexed": true,
          "internalType": "bytes32",
          "name": "previousAdminRole",
          "type": "bytes32"
        },
        {
          "indexed": true,
          "internalType": "bytes32",
          "name": "newAdminRole",
          "type": "bytes32"
        }
      ],
      "name": "RoleAdminChanged",
      "type": "event"
    },
    {
      "anonymous": false,
      "inputs": [
        {
          "indexed": true,
          "internalType": "bytes32",
          "name": "role",
          "type": "bytes32"
        },
        {
          "indexed": true,
          "internalType": "address",
          "name": "account",
          "type": "address"
        },
        {
          "indexed": true,
          "internalType": "address",
          "name": "sender",
          "type": "address"
        }
      ],
      "name": "RoleGranted",
      "type": "event"
    },
    {
      "anonymous": false,
      "inputs": [
        {
          "indexed": true,
          "internalType": "bytes32",
          "name": "role",
          "type": "bytes32"
        },
        {
          "indexed": true,
          "internalType": "address",
          "name": "account",
          "type": "address"
        },
        {
          "indexed": true,
          "internalType": "address",
          "name": "sender",
          "type": "address"
        }
      ],
      "name": "RoleRevoked",
      "type": "event"
    },
    {
      "anonymous": false,
      "inputs": [
        {
          "indexed": false,
          "internalType": "address",
          "name": "contractAddress",
          "type": "address"
        }
      ],
      "name": "SetBadgeUniverse1",
      "type": "event"
    },
    {
      "anonymous": false,
      "inputs": [
        {
          "indexed": false,
          "internalType": "bool",
          "name": "isUniverse1Whitelisted",
          "type": "bool"
        }
      ],
      "name": "SetIsUniverse1Whitelisted",
      "type": "event"
    },
    {
      "anonymous": false,
      "inputs": [
        {
          "indexed": false,
          "internalType": "address",
          "name": "contractAddress",
          "type": "address"
        }
      ],
      "name": "SetSpaceshipUniverse1",
      "type": "event"
    },
    {
      "anonymous": false,
      "inputs": [
        {
          "components": [
            {
              "internalType": "uint128",
              "name": "primaryType",
              "type": "uint128"
            },
            {
              "internalType": "uint128",
              "name": "secondaryType",
              "type": "uint128"
            }
          ],
          "indexed": false,
          "internalType": "struct IBadgeUniverse1.TokenType",
          "name": "badgeType",
          "type": "tuple"
        }
      ],
      "name": "SetUniverse1WhitelistBadgeType",
      "type": "event"
    },
    {
      "anonymous": false,
      "inputs": [
        {
          "indexed": true,
          "internalType": "address",
          "name": "implementation",
          "type": "address"
        }
      ],
      "name": "Upgraded",
      "type": "event"
    },
    {
      "inputs": [],
      "name": "DEFAULT_ADMIN_ROLE",
      "outputs": [
        {
          "internalType": "bytes32",
          "name": "",
          "type": "bytes32"
        }
      ],
      "stateMutability": "view",
      "type": "function"
    },
    {
      "inputs": [],
      "name": "MINTER_ROLE",
      "outputs": [
        {
          "internalType": "bytes32",
          "name": "",
          "type": "bytes32"
        }
      ],
      "stateMutability": "view",
      "type": "function"
    },
    {
      "inputs": [],
      "name": "SERVICE_ADMIN_ROLE",
      "outputs": [
        {
          "internalType": "bytes32",
          "name": "",
          "type": "bytes32"
        }
      ],
      "stateMutability": "view",
      "type": "function"
    },
    {
      "inputs": [],
      "name": "badgeUniverse1",
      "outputs": [
        {
          "internalType": "contract IBadgeUniverse1",
          "name": "",
          "type": "address"
        }
      ],
      "stateMutability": "view",
      "type": "function"
    },
    {
      "inputs": [
        {
          "internalType": "address[]",
          "name": "tokenContracts",
          "type": "address[]"
        },
        {
          "internalType": "uint256[]",
          "name": "tokenIds",
          "type": "uint256[]"
        },
        {
          "internalType": "string[]",
          "name": "tokenURIs",
          "type": "string[]"
        }
      ],
      "name": "batchMintWhitelistBadgeUniverse1",
      "outputs": [],
      "stateMutability": "nonpayable",
      "type": "function"
    },
    {
      "inputs": [
        {
          "internalType": "uint256",
          "name": "tokenId",
          "type": "uint256"
        }
      ],
      "name": "burnProtoshipUniverse1",
      "outputs": [],
      "stateMutability": "nonpayable",
      "type": "function"
    },
    {
      "inputs": [
        {
          "internalType": "bytes32",
          "name": "role",
          "type": "bytes32"
        }
      ],
      "name": "getRoleAdmin",
      "outputs": [
        {
          "internalType": "bytes32",
          "name": "",
          "type": "bytes32"
        }
      ],
      "stateMutability": "view",
      "type": "function"
    },
    {
      "inputs": [
        {
          "internalType": "uint256",
          "name": "tokenId",
          "type": "uint256"
        }
      ],
      "name": "getSpaceshipUniverse1TBA",
      "outputs": [
        {
          "internalType": "address",
          "name": "",
          "type": "address"
        }
      ],
      "stateMutability": "view",
      "type": "function"
    },
    {
      "inputs": [
        {
          "internalType": "bytes32",
          "name": "role",
          "type": "bytes32"
        },
        {
          "internalType": "address",
          "name": "account",
          "type": "address"
        }
      ],
      "name": "grantRole",
      "outputs": [],
      "stateMutability": "nonpayable",
      "type": "function"
    },
    {
      "inputs": [
        {
          "internalType": "address",
          "name": "",
          "type": "address"
        }
      ],
      "name": "hasProtoship",
      "outputs": [
        {
          "internalType": "bool",
          "name": "",
          "type": "bool"
        }
      ],
      "stateMutability": "view",
      "type": "function"
    },
    {
      "inputs": [
        {
          "internalType": "bytes32",
          "name": "role",
          "type": "bytes32"
        },
        {
          "internalType": "address",
          "name": "account",
          "type": "address"
        }
      ],
      "name": "hasRole",
      "outputs": [
        {
          "internalType": "bool",
          "name": "",
          "type": "bool"
        }
      ],
      "stateMutability": "view",
      "type": "function"
    },
    {
      "inputs": [
        {
          "internalType": "address",
          "name": "defaultAdmin",
          "type": "address"
        },
        {
          "internalType": "address",
          "name": "serviceAdmin",
          "type": "address"
        },
        {
          "internalType": "address",
          "name": "minterAdmin",
          "type": "address"
        },
        {
          "internalType": "contract IERC6551Registry",
          "name": "_tokenBoundRegistry",
          "type": "address"
        },
        {
          "internalType": "contract IERC6551Account",
          "name": "_tokenBoundImplementation",
          "type": "address"
        },
        {
          "internalType": "bool",
          "name": "_isUniverse1Whitelisted",
          "type": "bool"
        },
        {
          "components": [
            {
              "internalType": "uint128",
              "name": "primaryType",
              "type": "uint128"
            },
            {
              "internalType": "uint128",
              "name": "secondaryType",
              "type": "uint128"
            }
          ],
          "internalType": "struct IBadgeUniverse1.TokenType",
          "name": "_universe1WhitelistBadgeType",
          "type": "tuple"
        }
      ],
      "name": "initialize",
      "outputs": [],
      "stateMutability": "nonpayable",
      "type": "function"
    },
    {
      "inputs": [],
      "name": "isUniverse1Whitelisted",
      "outputs": [
        {
          "internalType": "bool",
          "name": "",
          "type": "bool"
        }
      ],
      "stateMutability": "view",
      "type": "function"
    },
    {
      "inputs": [
        {
          "internalType": "address",
          "name": "tokenContract",
          "type": "address"
        },
        {
          "internalType": "uint256",
          "name": "tokenId",
          "type": "uint256"
        }
      ],
      "name": "mintProtoshipUniverse1",
      "outputs": [
        {
          "internalType": "address",
          "name": "",
          "type": "address"
        }
      ],
      "stateMutability": "nonpayable",
      "type": "function"
    },
    {
      "inputs": [
        {
          "internalType": "address",
          "name": "tokenContract",
          "type": "address"
        },
        {
          "internalType": "uint256",
          "name": "tokenId",
          "type": "uint256"
        },
        {
          "internalType": "string",
          "name": "tokenURI",
          "type": "string"
        }
      ],
      "name": "mintWhitelistBadgeUniverse1",
      "outputs": [],
      "stateMutability": "nonpayable",
      "type": "function"
    },
    {
      "inputs": [],
      "name": "proxiableUUID",
      "outputs": [
        {
          "internalType": "bytes32",
          "name": "",
          "type": "bytes32"
        }
      ],
      "stateMutability": "view",
      "type": "function"
    },
    {
      "inputs": [
        {
          "internalType": "bytes32",
          "name": "role",
          "type": "bytes32"
        },
        {
          "internalType": "address",
          "name": "account",
          "type": "address"
        }
      ],
      "name": "renounceRole",
      "outputs": [],
      "stateMutability": "nonpayable",
      "type": "function"
    },
    {
      "inputs": [
        {
          "internalType": "bytes32",
          "name": "role",
          "type": "bytes32"
        },
        {
          "internalType": "address",
          "name": "account",
          "type": "address"
        }
      ],
      "name": "revokeRole",
      "outputs": [],
      "stateMutability": "nonpayable",
      "type": "function"
    },
    {
      "inputs": [
        {
          "internalType": "address",
          "name": "contractAddress",
          "type": "address"
        }
      ],
      "name": "setBadgeUniverse1",
      "outputs": [],
      "stateMutability": "nonpayable",
      "type": "function"
    },
    {
      "inputs": [
        {
          "internalType": "bool",
          "name": "_isUniverse1Whitelisted",
          "type": "bool"
        }
      ],
      "name": "setIsUniverse1Whitelisted",
      "outputs": [],
      "stateMutability": "nonpayable",
      "type": "function"
    },
    {
      "inputs": [
        {
          "internalType": "address",
          "name": "contractAddress",
          "type": "address"
        }
      ],
      "name": "setSpaceshipUniverse1",
      "outputs": [],
      "stateMutability": "nonpayable",
      "type": "function"
    },
    {
      "inputs": [
        {
          "components": [
            {
              "internalType": "uint128",
              "name": "primaryType",
              "type": "uint128"
            },
            {
              "internalType": "uint128",
              "name": "secondaryType",
              "type": "uint128"
            }
          ],
          "internalType": "struct IBadgeUniverse1.TokenType",
          "name": "_universe1WhitelistBadgeType",
          "type": "tuple"
        }
      ],
      "name": "setUniverse1WhitelistBadgeType",
      "outputs": [],
      "stateMutability": "nonpayable",
      "type": "function"
    },
    {
      "inputs": [],
      "name": "spaceshipUniverse1",
      "outputs": [
        {
          "internalType": "contract ISpaceshipUniverse1",
          "name": "",
          "type": "address"
        }
      ],
      "stateMutability": "view",
      "type": "function"
    },
    {
      "inputs": [
        {
          "internalType": "bytes4",
          "name": "interfaceId",
          "type": "bytes4"
        }
      ],
      "name": "supportsInterface",
      "outputs": [
        {
          "internalType": "bool",
          "name": "",
          "type": "bool"
        }
      ],
      "stateMutability": "view",
      "type": "function"
    },
    {
      "inputs": [],
      "name": "tokenBoundImplementation",
      "outputs": [
        {
          "internalType": "contract IERC6551Account",
          "name": "",
          "type": "address"
        }
      ],
      "stateMutability": "view",
      "type": "function"
    },
    {
      "inputs": [],
      "name": "tokenBoundRegistry",
      "outputs": [
        {
          "internalType": "contract IERC6551Registry",
          "name": "",
          "type": "address"
        }
      ],
      "stateMutability": "view",
      "type": "function"
    },
    {
      "inputs": [
        {
          "internalType": "address",
          "name": "admin",
          "type": "address"
        }
      ],
      "name": "transferDefaultAdmin",
      "outputs": [],
      "stateMutability": "nonpayable",
      "type": "function"
    },
    {
      "inputs": [
        {
          "internalType": "address",
          "name": "newImplementation",
          "type": "address"
        }
      ],
      "name": "upgradeTo",
      "outputs": [],
      "stateMutability": "nonpayable",
      "type": "function"
    },
    {
      "inputs": [
        {
          "internalType": "address",
          "name": "newImplementation",
          "type": "address"
        },
        {
          "internalType": "bytes",
          "name": "data",
          "type": "bytes"
        }
      ],
      "name": "upgradeToAndCall",
      "outputs": [],
      "stateMutability": "payable",
      "type": "function"
    },
    {
      "inputs": [
        {
          "internalType": "uint256",
          "name": "tokenId",
          "type": "uint256"
        }
      ],
      "name": "upgradeToOwnershipUniverse1",
      "outputs": [],
      "stateMutability": "nonpayable",
      "type": "function"
    }
  ],
  "bytecode": "0x60a06040523060805234801561001457600080fd5b50608051612da461004c600039600081816108700152818161090601528181610a9201528181610b280152610c1f0152612da46000f3fe6080604052600436106101cd5760003560e01c8063796a7a0a116100f7578063d09445c211610095578063daf6305711610064578063daf63057146105ad578063eae45448146105cd578063fb34fbdc146105ed578063fdf250df1461060d57600080fd5b8063d09445c214610505578063d49cb54114610539578063d539139314610559578063d547741f1461058d57600080fd5b80639d245669116100d15780639d24566914610490578063a217fddf146104b0578063a5d2c333146104c5578063a776d2cc146104e557600080fd5b8063796a7a0a146103f85780638922e5721461042a57806391d148541461044a57600080fd5b8063376110f61161016f5780635ea31b981161013e5780635ea31b981461036757806365575658146103875780636aa4e676146103b85780637484ea49146103d857600080fd5b8063376110f6146102ff5780634f1ef2861461031f57806352d1902d1461033257806357c788731461034757600080fd5b8063248a9ca3116101ab578063248a9ca3146102615780632f2ff15d1461029f57806336568abe146102bf5780633659cfe6146102df57600080fd5b806301ffc9a7146101d25780630289fc26146102075780632063b61f14610229575b600080fd5b3480156101de57600080fd5b506101f26101ed3660046124e2565b61062d565b60405190151581526020015b60405180910390f35b34801561021357600080fd5b50610227610222366004612720565b6106c6565b005b34801561023557600080fd5b5060fe54610249906001600160a01b031681565b6040516001600160a01b0390911681526020016101fe565b34801561026d57600080fd5b5061029161027c366004612806565b600090815260c9602052604090206001015490565b6040519081526020016101fe565b3480156102ab57600080fd5b506102276102ba36600461281f565b6107ab565b3480156102cb57600080fd5b506102276102da36600461281f565b6107d5565b3480156102eb57600080fd5b506102276102fa36600461284f565b610866565b34801561030b57600080fd5b5061022761031a3660046128ef565b610a03565b61022761032d36600461290b565b610a88565b34801561033e57600080fd5b50610291610c12565b34801561035357600080fd5b5061022761036236600461296f565b610cd7565b34801561037357600080fd5b5061022761038236600461284f565b610e61565b34801561039357600080fd5b506101f26103a236600461284f565b6101006020526000908152604090205460ff1681565b3480156103c457600080fd5b5060fb54610249906001600160a01b031681565b3480156103e457600080fd5b506102496103f3366004612806565b610e82565b34801561040457600080fd5b5060fe546101f29074010000000000000000000000000000000000000000900460ff1681565b34801561043657600080fd5b506102276104453660046129cc565b610f2f565b34801561045657600080fd5b506101f261046536600461281f565b600091825260c9602090815260408084206001600160a01b0393909316845291905290205460ff1690565b34801561049c57600080fd5b5060fd54610249906001600160a01b031681565b3480156104bc57600080fd5b50610291600081565b3480156104d157600080fd5b506102276104e036600461284f565b610fb3565b3480156104f157600080fd5b506102496105003660046129e9565b611067565b34801561051157600080fd5b506102917f9a95e87c5af084bf5db8491c3a6515da9dd6da39b24b0eb0af08d7b9cd808d9181565b34801561054557600080fd5b50610227610554366004612806565b6113f2565b34801561056557600080fd5b506102917f9f2df0fed2c77648de5860a4cc508cd0818c85b8b8a1ab4ceeef8d981c8956a681565b34801561059957600080fd5b506102276105a836600461281f565b611425565b3480156105b957600080fd5b506102276105c8366004612a15565b61144a565b3480156105d957600080fd5b506102276105e836600461284f565b611753565b3480156105f957600080fd5b50610227610608366004612806565b611807565b34801561061957600080fd5b5060fc54610249906001600160a01b031681565b60007fffffffff0000000000000000000000000000000000000000000000000000000082167f7965db0b0000000000000000000000000000000000000000000000000000000014806106c057507f01ffc9a7000000000000000000000000000000000000000000000000000000007fffffffff000000000000000000000000000000000000000000000000000000008316145b92915050565b7f9f2df0fed2c77648de5860a4cc508cd0818c85b8b8a1ab4ceeef8d981c8956a66106f08161183a565b8251845114158061070357508151845114155b1561073a576040517fad67865d00000000000000000000000000000000000000000000000000000000815260040160405180910390fd5b60005b84518110156107a45761079c85828151811061075b5761075b612aa9565b602002602001015185838151811061077557610775612aa9565b602002602001015185848151811061078f5761078f612aa9565b6020026020010151610cd7565b60010161073d565b5050505050565b600082815260c960205260409020600101546107c68161183a565b6107d08383611844565b505050565b6001600160a01b03811633146108585760405162461bcd60e51b815260206004820152602f60248201527f416363657373436f6e74726f6c3a2063616e206f6e6c792072656e6f756e636560448201527f20726f6c657320666f722073656c66000000000000000000000000000000000060648201526084015b60405180910390fd5b61086282826118e6565b5050565b6001600160a01b037f00000000000000000000000000000000000000000000000000000000000000001630036109045760405162461bcd60e51b815260206004820152602c60248201527f46756e6374696f6e206d7573742062652063616c6c6564207468726f7567682060448201527f64656c656761746563616c6c0000000000000000000000000000000000000000606482015260840161084f565b7f00000000000000000000000000000000000000000000000000000000000000006001600160a01b031661095f7f360894a13ba1a3210667c828492db98dca3e2076cc3735a920a3ca505d382bbc546001600160a01b031690565b6001600160a01b0316146109db5760405162461bcd60e51b815260206004820152602c60248201527f46756e6374696f6e206d7573742062652063616c6c6564207468726f7567682060448201527f6163746976652070726f78790000000000000000000000000000000000000000606482015260840161084f565b6109e481611969565b60408051600080825260208201909252610a0091839190611974565b50565b6000610a0e8161183a565b8151602080840180516fffffffffffffffffffffffffffffffff9081167001000000000000000000000000000000000293811693841760ff5560408051948552915116918301919091527f84491fe728b8cfbe96caeae594c028f0aee2df460f3cbf7f6f79d432b3c6aee791015b60405180910390a15050565b6001600160a01b037f0000000000000000000000000000000000000000000000000000000000000000163003610b265760405162461bcd60e51b815260206004820152602c60248201527f46756e6374696f6e206d7573742062652063616c6c6564207468726f7567682060448201527f64656c656761746563616c6c0000000000000000000000000000000000000000606482015260840161084f565b7f00000000000000000000000000000000000000000000000000000000000000006001600160a01b0316610b817f360894a13ba1a3210667c828492db98dca3e2076cc3735a920a3ca505d382bbc546001600160a01b031690565b6001600160a01b031614610bfd5760405162461bcd60e51b815260206004820152602c60248201527f46756e6374696f6e206d7573742062652063616c6c6564207468726f7567682060448201527f6163746976652070726f78790000000000000000000000000000000000000000606482015260840161084f565b610c0682611969565b61086282826001611974565b6000306001600160a01b037f00000000000000000000000000000000000000000000000000000000000000001614610cb25760405162461bcd60e51b815260206004820152603860248201527f555550535570677261646561626c653a206d757374206e6f742062652063616c60448201527f6c6564207468726f7567682064656c656761746563616c6c0000000000000000606482015260840161084f565b507f360894a13ba1a3210667c828492db98dca3e2076cc3735a920a3ca505d382bbc90565b7f9f2df0fed2c77648de5860a4cc508cd0818c85b8b8a1ab4ceeef8d981c8956a6610d018161183a565b60fc5460fb546040517f5e9bc5360000000000000000000000000000000000000000000000000000000081526001600160a01b039182166004820152466024820152868216604482015260648101869052600060848201819052929190911690635e9bc5369060a401602060405180830381865afa158015610d87573d6000803e3d6000fd5b505050506040513d601f19601f82011682018060405250810190610dab9190612ad8565b60fe5460ff546040517f615ac7f00000000000000000000000000000000000000000000000000000000081529293506001600160a01b039091169163615ac7f091610e289185916fffffffffffffffffffffffffffffffff8082169270010000000000000000000000000000000090920416908990600401612b45565b600060405180830381600087803b158015610e4257600080fd5b505af1158015610e56573d6000803e3d6000fd5b505050505050505050565b6000610e6c8161183a565b610e776000836107ab565b6108626000336107d5565b60fc5460fb5460fd546040517f5e9bc5360000000000000000000000000000000000000000000000000000000081526001600160a01b039283166004820152466024820152908216604482015260648101849052600060848201819052929190911690635e9bc5369060a401602060405180830381865afa158015610f0b573d6000803e3d6000fd5b505050506040513d601f19601f820116820180604052508101906106c09190612ad8565b6000610f3a8161183a565b60fe805483151574010000000000000000000000000000000000000000027fffffffffffffffffffffff00ffffffffffffffffffffffffffffffffffffffff9091161790556040517fc7f1900ff4f3a1896754b282a13e9385821ddb50a7aac1d3af224f2b4b52274490610a7c90841515815260200190565b6000610fbe8161183a565b60fd546001600160a01b031615611001576040517f2d42c77200000000000000000000000000000000000000000000000000000000815260040160405180910390fd5b60fd80547fffffffffffffffffffffffff0000000000000000000000000000000000000000166001600160a01b0384169081179091556040519081527f19603da0a8565b076f4284ea79940007a8fffcdedd780843b933d61609bdb49290602001610a7c565b6040517f6352211e0000000000000000000000000000000000000000000000000000000081526004810182905260009033906001600160a01b03851690636352211e90602401602060405180830381865afa1580156110ca573d6000803e3d6000fd5b505050506040513d601f19601f820116820180604052508101906110ee9190612ad8565b6001600160a01b03161461112e576040517fd48af24600000000000000000000000000000000000000000000000000000000815260040160405180910390fd5b60fc5460fb546040517f5e9bc5360000000000000000000000000000000000000000000000000000000081526001600160a01b039182166004820152466024820152858216604482015260648101859052600060848201819052929190911690635e9bc5369060a401602060405180830381865afa1580156111b4573d6000803e3d6000fd5b505050506040513d601f19601f820116820180604052508101906111d89190612ad8565b60fe5490915074010000000000000000000000000000000000000000900460ff16156112f55760fe5460ff546040517f42fd5fed0000000000000000000000000000000000000000000000000000000081526001600160a01b0384811660048301526fffffffffffffffffffffffffffffffff808416602484015270010000000000000000000000000000000090930490921660448201529116906342fd5fed906064016020604051808303816000875af115801561129b573d6000803e3d6000fd5b505050506040513d601f19601f820116820180604052508101906112bf9190612b89565b6112f5576040517f6a9a57a500000000000000000000000000000000000000000000000000000000815260040160405180910390fd5b60fd54604080517f75794a3c00000000000000000000000000000000000000000000000000000000815290516000926001600160a01b0316916375794a3c916004808301926020929190829003018187875af1158015611359573d6000803e3d6000fd5b505050506040513d601f19601f8201168201806040525081019061137d9190612ba6565b60fd54909150611396906001600160a01b031682611b14565b506113a082611c0c565b604080516001600160a01b0387168152602081018690529081018290527f98af6fd665c9c4e0cc9d5e90b6005de520d39d0f4f2531f987ca5ab9b58c1c559060600160405180910390a1509392505050565b7f9a95e87c5af084bf5db8491c3a6515da9dd6da39b24b0eb0af08d7b9cd808d9161141c8161183a565b61086282611d0f565b600082815260c960205260409020600101546114408161183a565b6107d083836118e6565b600054610100900460ff161580801561146a5750600054600160ff909116105b806114845750303b158015611484575060005460ff166001145b6114f65760405162461bcd60e51b815260206004820152602e60248201527f496e697469616c697a61626c653a20636f6e747261637420697320616c72656160448201527f647920696e697469616c697a6564000000000000000000000000000000000000606482015260840161084f565b6000805460ff19166001179055801561153657600080547fffffffffffffffffffffffffffffffffffffffffffffffffffffffffffff00ff166101001790555b611541600089611844565b61156b7f9a95e87c5af084bf5db8491c3a6515da9dd6da39b24b0eb0af08d7b9cd808d9188611844565b6115957f9f2df0fed2c77648de5860a4cc508cd0818c85b8b8a1ab4ceeef8d981c8956a687611844565b60fc80546001600160a01b038088167fffffffffffffffffffffffff00000000000000000000000000000000000000009283161790925560fb80549287169290911691909117905560fe805484151574010000000000000000000000000000000000000000027fffffffffffffffffffffff00ffffffffffffffffffffffffffffffffffffffff909116179055815160208301516fffffffffffffffffffffffffffffffff9081167001000000000000000000000000000000000291161760ff556040517fc7f1900ff4f3a1896754b282a13e9385821ddb50a7aac1d3af224f2b4b5227449061168a90851515815260200190565b60405180910390a16040805183516fffffffffffffffffffffffffffffffff9081168252602080860151909116908201527f84491fe728b8cfbe96caeae594c028f0aee2df460f3cbf7f6f79d432b3c6aee7910160405180910390a1801561174957600080547fffffffffffffffffffffffffffffffffffffffffffffffffffffffffffff00ff169055604051600181527f7f26b83ff96e1f2b6a682f133852f6798a09c465da95921460cefb38474024989060200160405180910390a15b5050505050505050565b600061175e8161183a565b60fe546001600160a01b0316156117a1576040517f2d42c77200000000000000000000000000000000000000000000000000000000815260040160405180910390fd5b60fe80547fffffffffffffffffffffffff0000000000000000000000000000000000000000166001600160a01b0384169081179091556040519081527f6aa464e943c66d2f0bc75ac8a5c3d747bb75b5a7b8610ab18d5e2308b238dab190602001610a7c565b7f9a95e87c5af084bf5db8491c3a6515da9dd6da39b24b0eb0af08d7b9cd808d916118318161183a565b61086282611e87565b610a008133611fae565b600082815260c9602090815260408083206001600160a01b038516845290915290205460ff1661086257600082815260c9602090815260408083206001600160a01b03851684529091529020805460ff191660011790556118a23390565b6001600160a01b0316816001600160a01b0316837f2f8788117e7eff1d82e926ec794901d17c78024a50270940304540a733656f0d60405160405180910390a45050565b600082815260c9602090815260408083206001600160a01b038516845290915290205460ff161561086257600082815260c9602090815260408083206001600160a01b0385168085529252808320805460ff1916905551339285917ff6391f5c32d9c69d2a47ea670b442974b53935d1edc7fd64eb21e047a839171b9190a45050565b60006108628161183a565b7f4910fdfa16fed3260ed0e7147f7cc6da11a60208b5b9406d12a635614ffd91435460ff16156119a7576107d083612023565b826001600160a01b03166352d1902d6040518163ffffffff1660e01b8152600401602060405180830381865afa925050508015611a01575060408051601f3d908101601f191682019092526119fe91810190612ba6565b60015b611a735760405162461bcd60e51b815260206004820152602e60248201527f45524331393637557067726164653a206e657720696d706c656d656e7461746960448201527f6f6e206973206e6f742055555053000000000000000000000000000000000000606482015260840161084f565b7f360894a13ba1a3210667c828492db98dca3e2076cc3735a920a3ca505d382bbc8114611b085760405162461bcd60e51b815260206004820152602960248201527f45524331393637557067726164653a20756e737570706f727465642070726f7860448201527f6961626c65555549440000000000000000000000000000000000000000000000606482015260840161084f565b506107d08383836120f9565b60fc5460fb546040805160048082526024820183526020820180517bffffffffffffffffffffffffffffffffffffffffffffffffffffffff167f8129fc1c0000000000000000000000000000000000000000000000000000000017905291517fda7323b30000000000000000000000000000000000000000000000000000000081526000946001600160a01b039081169463da7323b394611bc294919092169246928a928a928a9201612bbf565b6020604051808303816000875af1158015611be1573d6000803e3d6000fd5b505050506040513d601f19601f82011682018060405250810190611c059190612ad8565b9392505050565b6001600160a01b0381166000908152610100602052604090205460ff1615611c60576040517f4913ed3800000000000000000000000000000000000000000000000000000000815260040160405180910390fd5b60fd546040517f6a6278420000000000000000000000000000000000000000000000000000000081526001600160a01b03838116600483015290911690636a627842906024016020604051808303816000875af1158015611cc5573d6000803e3d6000fd5b505050506040513d601f19601f82011682018060405250810190611ce99190612ba6565b506001600160a01b0316600090815261010060205260409020805460ff19166001179055565b60fd546040517f6352211e000000000000000000000000000000000000000000000000000000008152600481018390526000916001600160a01b031690636352211e90602401602060405180830381865afa158015611d72573d6000803e3d6000fd5b505050506040513d601f19601f82011682018060405250810190611d969190612ad8565b6001600160a01b0381166000908152610100602052604090205490915060ff16611dec576040517f3d7555a900000000000000000000000000000000000000000000000000000000815260040160405180910390fd5b60fd546040517f42966c68000000000000000000000000000000000000000000000000000000008152600481018490526001600160a01b03909116906342966c68906024015b600060405180830381600087803b158015611e4c57600080fd5b505af1158015611e60573d6000803e3d6000fd5b505050506001600160a01b0316600090815261010060205260409020805460ff1916905550565b60fd546040517f6352211e000000000000000000000000000000000000000000000000000000008152600481018390526000916001600160a01b031690636352211e90602401602060405180830381865afa158015611eea573d6000803e3d6000fd5b505050506040513d601f19601f82011682018060405250810190611f0e9190612ad8565b6001600160a01b0381166000908152610100602052604090205490915060ff16611f64576040517f3d7555a900000000000000000000000000000000000000000000000000000000815260040160405180910390fd5b60fd546040517f6198e339000000000000000000000000000000000000000000000000000000008152600481018490526001600160a01b0390911690636198e33990602401611e32565b600082815260c9602090815260408083206001600160a01b038516845290915290205460ff1661086257611fe181612124565b611fec836020612136565b604051602001611ffd929190612c09565b60408051601f198184030181529082905262461bcd60e51b825261084f91600401612c8a565b6001600160a01b0381163b6120a05760405162461bcd60e51b815260206004820152602d60248201527f455243313936373a206e657720696d706c656d656e746174696f6e206973206e60448201527f6f74206120636f6e747261637400000000000000000000000000000000000000606482015260840161084f565b7f360894a13ba1a3210667c828492db98dca3e2076cc3735a920a3ca505d382bbc80547fffffffffffffffffffffffff0000000000000000000000000000000000000000166001600160a01b0392909216919091179055565b6121028361235f565b60008251118061210f5750805b156107d05761211e838361239f565b50505050565b60606106c06001600160a01b03831660145b60606000612145836002612ccc565b612150906002612ce3565b67ffffffffffffffff81111561216857612168612524565b6040519080825280601f01601f191660200182016040528015612192576020820181803683370190505b5090507f3000000000000000000000000000000000000000000000000000000000000000816000815181106121c9576121c9612aa9565b60200101907effffffffffffffffffffffffffffffffffffffffffffffffffffffffffffff1916908160001a9053507f78000000000000000000000000000000000000000000000000000000000000008160018151811061222c5761222c612aa9565b60200101907effffffffffffffffffffffffffffffffffffffffffffffffffffffffffffff1916908160001a9053506000612268846002612ccc565b612273906001612ce3565b90505b6001811115612310577f303132333435363738396162636465660000000000000000000000000000000085600f16601081106122b4576122b4612aa9565b1a60f81b8282815181106122ca576122ca612aa9565b60200101907effffffffffffffffffffffffffffffffffffffffffffffffffffffffffffff1916908160001a90535060049490941c9361230981612cf6565b9050612276565b508315611c055760405162461bcd60e51b815260206004820181905260248201527f537472696e67733a20686578206c656e67746820696e73756666696369656e74604482015260640161084f565b61236881612023565b6040516001600160a01b038216907fbc7cd75a20ee27fd9adebab32041f755214dbc6bffa90cc0225b39da2e5c2d3b90600090a250565b6060611c058383604051806060016040528060278152602001612d48602791396060600080856001600160a01b0316856040516123dc9190612d2b565b600060405180830381855af49150503d8060008114612417576040519150601f19603f3d011682016040523d82523d6000602084013e61241c565b606091505b509150915061242d86838387612437565b9695505050505050565b606083156124a657825160000361249f576001600160a01b0385163b61249f5760405162461bcd60e51b815260206004820152601d60248201527f416464726573733a2063616c6c20746f206e6f6e2d636f6e7472616374000000604482015260640161084f565b50816124b0565b6124b083836124b8565b949350505050565b8151156124c85781518083602001fd5b8060405162461bcd60e51b815260040161084f9190612c8a565b6000602082840312156124f457600080fd5b81357fffffffff0000000000000000000000000000000000000000000000000000000081168114611c0557600080fd5b7f4e487b7100000000000000000000000000000000000000000000000000000000600052604160045260246000fd5b604051601f8201601f1916810167ffffffffffffffff8111828210171561257c5761257c612524565b604052919050565b600067ffffffffffffffff82111561259e5761259e612524565b5060051b60200190565b6001600160a01b0381168114610a0057600080fd5b600082601f8301126125ce57600080fd5b813560206125e36125de83612584565b612553565b82815260059290921b8401810191818101908684111561260257600080fd5b8286015b8481101561261d5780358352918301918301612606565b509695505050505050565b600067ffffffffffffffff83111561264257612642612524565b6126556020601f19601f86011601612553565b905082815283838301111561266957600080fd5b828260208301376000602084830101529392505050565b600082601f83011261269157600080fd5b611c0583833560208501612628565b600082601f8301126126b157600080fd5b813560206126c16125de83612584565b82815260059290921b840181019181810190868411156126e057600080fd5b8286015b8481101561261d57803567ffffffffffffffff8111156127045760008081fd5b6127128986838b0101612680565b8452509183019183016126e4565b60008060006060848603121561273557600080fd5b833567ffffffffffffffff8082111561274d57600080fd5b818601915086601f83011261276157600080fd5b813560206127716125de83612584565b82815260059290921b8401810191818101908a84111561279057600080fd5b948201945b838610156127b75785356127a8816125a8565b82529482019490820190612795565b975050870135925050808211156127cd57600080fd5b6127d9878388016125bd565b935060408601359150808211156127ef57600080fd5b506127fc868287016126a0565b9150509250925092565b60006020828403121561281857600080fd5b5035919050565b6000806040838503121561283257600080fd5b823591506020830135612844816125a8565b809150509250929050565b60006020828403121561286157600080fd5b8135611c05816125a8565b80356fffffffffffffffffffffffffffffffff8116811461288c57600080fd5b919050565b6000604082840312156128a357600080fd5b6040516040810181811067ffffffffffffffff821117156128c6576128c6612524565b6040529050806128d58361286c565b81526128e36020840161286c565b60208201525092915050565b60006040828403121561290157600080fd5b611c058383612891565b6000806040838503121561291e57600080fd5b8235612929816125a8565b9150602083013567ffffffffffffffff81111561294557600080fd5b8301601f8101851361295657600080fd5b61296585823560208401612628565b9150509250929050565b60008060006060848603121561298457600080fd5b833561298f816125a8565b925060208401359150604084013567ffffffffffffffff8111156129b257600080fd5b6127fc86828701612680565b8015158114610a0057600080fd5b6000602082840312156129de57600080fd5b8135611c05816129be565b600080604083850312156129fc57600080fd5b8235612a07816125a8565b946020939093013593505050565b6000806000806000806000610100888a031215612a3157600080fd5b8735612a3c816125a8565b96506020880135612a4c816125a8565b95506040880135612a5c816125a8565b94506060880135612a6c816125a8565b93506080880135612a7c816125a8565b925060a0880135612a8c816129be565b9150612a9b8960c08a01612891565b905092959891949750929550565b7f4e487b7100000000000000000000000000000000000000000000000000000000600052603260045260246000fd5b600060208284031215612aea57600080fd5b8151611c05816125a8565b60005b83811015612b10578181015183820152602001612af8565b50506000910152565b60008151808452612b31816020860160208601612af5565b601f01601f19169290920160200192915050565b6001600160a01b038516815260006fffffffffffffffffffffffffffffffff80861660208401528085166040840152506080606083015261242d6080830184612b19565b600060208284031215612b9b57600080fd5b8151611c05816129be565b600060208284031215612bb857600080fd5b5051919050565b60006001600160a01b03808916835287602084015280871660408401525084606083015283608083015260c060a0830152612bfd60c0830184612b19565b98975050505050505050565b7f416363657373436f6e74726f6c3a206163636f756e7420000000000000000000815260008351612c41816017850160208801612af5565b7f206973206d697373696e6720726f6c65200000000000000000000000000000006017918401918201528351612c7e816028840160208801612af5565b01602801949350505050565b602081526000611c056020830184612b19565b7f4e487b7100000000000000000000000000000000000000000000000000000000600052601160045260246000fd5b80820281158282048414176106c0576106c0612c9d565b808201808211156106c0576106c0612c9d565b600081612d0557612d05612c9d565b507fffffffffffffffffffffffffffffffffffffffffffffffffffffffffffffffff0190565b60008251612d3d818460208701612af5565b919091019291505056fe416464726573733a206c6f772d6c6576656c2064656c65676174652063616c6c206661696c6564a2646970667358221220d421027f16d74c0bf4282a6eb0dfa4165f13bf0b38b2ac73eca47abda2b3a9b764736f6c63430008110033",
  "linkReferences": {},
  "deployedLinkReferences": {}
}